{
	"solidity-learning/3_SmartWallet/ImprovedSmartMoney.sol": {
		"ImprovedSmartMoney": {
			"abi": [
				{
					"inputs": [],
					"name": "deposit",
					"outputs": [],
					"stateMutability": "payable",
					"type": "function"
				},
				{
					"inputs": [],
					"name": "getAllBalance",
					"outputs": [
						{
							"internalType": "uint256",
							"name": "",
							"type": "uint256"
						}
					],
					"stateMutability": "view",
					"type": "function"
				},
				{
					"inputs": [],
					"name": "getMyBalance",
					"outputs": [
						{
							"internalType": "uint256",
							"name": "",
							"type": "uint256"
						}
					],
					"stateMutability": "view",
					"type": "function"
				},
				{
					"inputs": [
						{
							"internalType": "address payable",
							"name": "_to",
							"type": "address"
						}
					],
					"name": "sendTo",
					"outputs": [],
					"stateMutability": "nonpayable",
					"type": "function"
				}
			],
			"devdoc": {
				"kind": "dev",
				"methods": {},
				"version": 1
			},
			"evm": {
				"assembly": "    /* \"solidity-learning/3_SmartWallet/ImprovedSmartMoney.sol\":58:631  contract ImprovedSmartMoney {... */\n  mstore(0x40, 0x80)\n  callvalue\n  dup1\n  iszero\n  tag_1\n  jumpi\n  0x00\n  dup1\n  revert\ntag_1:\n  pop\n  dataSize(sub_0)\n  dup1\n  dataOffset(sub_0)\n  0x00\n  codecopy\n  0x00\n  return\nstop\n\nsub_0: assembly {\n        /* \"solidity-learning/3_SmartWallet/ImprovedSmartMoney.sol\":58:631  contract ImprovedSmartMoney {... */\n      mstore(0x40, 0x80)\n      jumpi(tag_1, lt(calldatasize, 0x04))\n      shr(0xe0, calldataload(0x00))\n      dup1\n      0x4c738909\n      eq\n      tag_2\n      jumpi\n      dup1\n      0xd0e30db0\n      eq\n      tag_3\n      jumpi\n      dup1\n      0xe6d25245\n      eq\n      tag_4\n      jumpi\n      dup1\n      0xeb9969a8\n      eq\n      tag_5\n      jumpi\n    tag_1:\n      0x00\n      dup1\n      revert\n        /* \"solidity-learning/3_SmartWallet/ImprovedSmartMoney.sol\":236:337  function getMyBalance() public view returns(uint) {... */\n    tag_2:\n      callvalue\n      dup1\n      iszero\n      tag_6\n      jumpi\n      0x00\n      dup1\n      revert\n    tag_6:\n      pop\n      tag_7\n      tag_8\n      jump\t// in\n    tag_7:\n      mload(0x40)\n      tag_9\n      swap2\n      swap1\n      tag_10\n      jump\t// in\n    tag_9:\n      mload(0x40)\n      dup1\n      swap2\n      sub\n      swap1\n      return\n        /* \"solidity-learning/3_SmartWallet/ImprovedSmartMoney.sol\":139:230  function deposit() public payable {... */\n    tag_3:\n      tag_11\n      tag_12\n      jump\t// in\n    tag_11:\n      stop\n        /* \"solidity-learning/3_SmartWallet/ImprovedSmartMoney.sol\":446:629  function sendTo(address payable _to) public {... */\n    tag_4:\n      callvalue\n      dup1\n      iszero\n      tag_13\n      jumpi\n      0x00\n      dup1\n      revert\n    tag_13:\n      pop\n      tag_14\n      0x04\n      dup1\n      calldatasize\n      sub\n      dup2\n      add\n      swap1\n      tag_15\n      swap2\n      swap1\n      tag_16\n      jump\t// in\n    tag_15:\n      tag_17\n      jump\t// in\n    tag_14:\n      stop\n        /* \"solidity-learning/3_SmartWallet/ImprovedSmartMoney.sol\":343:440  function getAllBalance() public view returns (uint) {... */\n    tag_5:\n      callvalue\n      dup1\n      iszero\n      tag_18\n      jumpi\n      0x00\n      dup1\n      revert\n    tag_18:\n      pop\n      tag_19\n      tag_20\n      jump\t// in\n    tag_19:\n      mload(0x40)\n      tag_21\n      swap2\n      swap1\n      tag_10\n      jump\t// in\n    tag_21:\n      mload(0x40)\n      dup1\n      swap2\n      sub\n      swap1\n      return\n        /* \"solidity-learning/3_SmartWallet/ImprovedSmartMoney.sol\":236:337  function getMyBalance() public view returns(uint) {... */\n    tag_8:\n        /* \"solidity-learning/3_SmartWallet/ImprovedSmartMoney.sol\":280:284  uint */\n      0x00\n        /* \"solidity-learning/3_SmartWallet/ImprovedSmartMoney.sol\":303:318  balanceRecieved */\n      dup1\n        /* \"solidity-learning/3_SmartWallet/ImprovedSmartMoney.sol\":303:330  balanceRecieved[msg.sender] */\n      0x00\n        /* \"solidity-learning/3_SmartWallet/ImprovedSmartMoney.sol\":319:329  msg.sender */\n      caller\n        /* \"solidity-learning/3_SmartWallet/ImprovedSmartMoney.sol\":303:330  balanceRecieved[msg.sender] */\n      0xffffffffffffffffffffffffffffffffffffffff\n      and\n      0xffffffffffffffffffffffffffffffffffffffff\n      and\n      dup2\n      mstore\n      0x20\n      add\n      swap1\n      dup2\n      mstore\n      0x20\n      add\n      0x00\n      keccak256\n      sload\n        /* \"solidity-learning/3_SmartWallet/ImprovedSmartMoney.sol\":296:330  return balanceRecieved[msg.sender] */\n      swap1\n      pop\n        /* \"solidity-learning/3_SmartWallet/ImprovedSmartMoney.sol\":236:337  function getMyBalance() public view returns(uint) {... */\n      swap1\n      jump\t// out\n        /* \"solidity-learning/3_SmartWallet/ImprovedSmartMoney.sol\":139:230  function deposit() public payable {... */\n    tag_12:\n        /* \"solidity-learning/3_SmartWallet/ImprovedSmartMoney.sol\":214:223  msg.value */\n      callvalue\n        /* \"solidity-learning/3_SmartWallet/ImprovedSmartMoney.sol\":183:198  balanceRecieved */\n      0x00\n        /* \"solidity-learning/3_SmartWallet/ImprovedSmartMoney.sol\":183:210  balanceRecieved[msg.sender] */\n      dup1\n        /* \"solidity-learning/3_SmartWallet/ImprovedSmartMoney.sol\":199:209  msg.sender */\n      caller\n        /* \"solidity-learning/3_SmartWallet/ImprovedSmartMoney.sol\":183:210  balanceRecieved[msg.sender] */\n      0xffffffffffffffffffffffffffffffffffffffff\n      and\n      0xffffffffffffffffffffffffffffffffffffffff\n      and\n      dup2\n      mstore\n      0x20\n      add\n      swap1\n      dup2\n      mstore\n      0x20\n      add\n      0x00\n      keccak256\n      0x00\n        /* \"solidity-learning/3_SmartWallet/ImprovedSmartMoney.sol\":183:223  balanceRecieved[msg.sender] += msg.value */\n      dup3\n      dup3\n      sload\n      tag_24\n      swap2\n      swap1\n      tag_25\n      jump\t// in\n    tag_24:\n      swap3\n      pop\n      pop\n      dup2\n      swap1\n      sstore\n      pop\n        /* \"solidity-learning/3_SmartWallet/ImprovedSmartMoney.sol\":139:230  function deposit() public payable {... */\n      jump\t// out\n        /* \"solidity-learning/3_SmartWallet/ImprovedSmartMoney.sol\":446:629  function sendTo(address payable _to) public {... */\n    tag_17:\n        /* \"solidity-learning/3_SmartWallet/ImprovedSmartMoney.sol\":500:516  uint moneyToSend */\n      0x00\n        /* \"solidity-learning/3_SmartWallet/ImprovedSmartMoney.sol\":519:534  balanceRecieved */\n      dup1\n        /* \"solidity-learning/3_SmartWallet/ImprovedSmartMoney.sol\":519:546  balanceRecieved[msg.sender] */\n      0x00\n        /* \"solidity-learning/3_SmartWallet/ImprovedSmartMoney.sol\":535:545  msg.sender */\n      caller\n        /* \"solidity-learning/3_SmartWallet/ImprovedSmartMoney.sol\":519:546  balanceRecieved[msg.sender] */\n      0xffffffffffffffffffffffffffffffffffffffff\n      and\n      0xffffffffffffffffffffffffffffffffffffffff\n      and\n      dup2\n      mstore\n      0x20\n      add\n      swap1\n      dup2\n      mstore\n      0x20\n      add\n      0x00\n      keccak256\n      sload\n        /* \"solidity-learning/3_SmartWallet/ImprovedSmartMoney.sol\":500:546  uint moneyToSend = balanceRecieved[msg.sender] */\n      swap1\n      pop\n        /* \"solidity-learning/3_SmartWallet/ImprovedSmartMoney.sol\":586:587  0 */\n      0x00\n        /* \"solidity-learning/3_SmartWallet/ImprovedSmartMoney.sol\":556:571  balanceRecieved */\n      dup1\n        /* \"solidity-learning/3_SmartWallet/ImprovedSmartMoney.sol\":556:583  balanceRecieved[msg.sender] */\n      0x00\n        /* \"solidity-learning/3_SmartWallet/ImprovedSmartMoney.sol\":572:582  msg.sender */\n      caller\n        /* \"solidity-learning/3_SmartWallet/ImprovedSmartMoney.sol\":556:583  balanceRecieved[msg.sender] */\n      0xffffffffffffffffffffffffffffffffffffffff\n      and\n      0xffffffffffffffffffffffffffffffffffffffff\n      and\n      dup2\n      mstore\n      0x20\n      add\n      swap1\n      dup2\n      mstore\n      0x20\n      add\n      0x00\n      keccak256\n        /* \"solidity-learning/3_SmartWallet/ImprovedSmartMoney.sol\":556:587  balanceRecieved[msg.sender] = 0 */\n      dup2\n      swap1\n      sstore\n      pop\n        /* \"solidity-learning/3_SmartWallet/ImprovedSmartMoney.sol\":597:600  _to */\n      dup2\n        /* \"solidity-learning/3_SmartWallet/ImprovedSmartMoney.sol\":597:609  _to.transfer */\n      0xffffffffffffffffffffffffffffffffffffffff\n      and\n        /* \"solidity-learning/3_SmartWallet/ImprovedSmartMoney.sol\":597:622  _to.transfer(moneyToSend) */\n      0x08fc\n        /* \"solidity-learning/3_SmartWallet/ImprovedSmartMoney.sol\":610:621  moneyToSend */\n      dup3\n        /* \"solidity-learning/3_SmartWallet/ImprovedSmartMoney.sol\":597:622  _to.transfer(moneyToSend) */\n      swap1\n      dup2\n      iszero\n      mul\n      swap1\n      mload(0x40)\n      0x00\n      mload(0x40)\n      dup1\n      dup4\n      sub\n      dup2\n      dup6\n      dup9\n      dup9\n      call\n      swap4\n      pop\n      pop\n      pop\n      pop\n      iszero\n      dup1\n      iszero\n      tag_28\n      jumpi\n      returndatasize\n      0x00\n      dup1\n      returndatacopy\n      revert(0x00, returndatasize)\n    tag_28:\n      pop\n        /* \"solidity-learning/3_SmartWallet/ImprovedSmartMoney.sol\":490:629  {... */\n      pop\n        /* \"solidity-learning/3_SmartWallet/ImprovedSmartMoney.sol\":446:629  function sendTo(address payable _to) public {... */\n      pop\n      jump\t// out\n        /* \"solidity-learning/3_SmartWallet/ImprovedSmartMoney.sol\":343:440  function getAllBalance() public view returns (uint) {... */\n    tag_20:\n        /* \"solidity-learning/3_SmartWallet/ImprovedSmartMoney.sol\":389:393  uint */\n      0x00\n        /* \"solidity-learning/3_SmartWallet/ImprovedSmartMoney.sol\":412:433  address(this).balance */\n      selfbalance\n        /* \"solidity-learning/3_SmartWallet/ImprovedSmartMoney.sol\":405:433  return address(this).balance */\n      swap1\n      pop\n        /* \"solidity-learning/3_SmartWallet/ImprovedSmartMoney.sol\":343:440  function getAllBalance() public view returns (uint) {... */\n      swap1\n      jump\t// out\n        /* \"#utility.yul\":7:84   */\n    tag_30:\n        /* \"#utility.yul\":44:51   */\n      0x00\n        /* \"#utility.yul\":73:78   */\n      dup2\n        /* \"#utility.yul\":62:78   */\n      swap1\n      pop\n        /* \"#utility.yul\":7:84   */\n      swap2\n      swap1\n      pop\n      jump\t// out\n        /* \"#utility.yul\":90:208   */\n    tag_31:\n        /* \"#utility.yul\":177:201   */\n      tag_43\n        /* \"#utility.yul\":195:200   */\n      dup2\n        /* \"#utility.yul\":177:201   */\n      tag_30\n      jump\t// in\n    tag_43:\n        /* \"#utility.yul\":172:175   */\n      dup3\n        /* \"#utility.yul\":165:202   */\n      mstore\n        /* \"#utility.yul\":90:208   */\n      pop\n      pop\n      jump\t// out\n        /* \"#utility.yul\":214:436   */\n    tag_10:\n        /* \"#utility.yul\":307:311   */\n      0x00\n        /* \"#utility.yul\":345:347   */\n      0x20\n        /* \"#utility.yul\":334:343   */\n      dup3\n        /* \"#utility.yul\":330:348   */\n      add\n        /* \"#utility.yul\":322:348   */\n      swap1\n      pop\n        /* \"#utility.yul\":358:429   */\n      tag_45\n        /* \"#utility.yul\":426:427   */\n      0x00\n        /* \"#utility.yul\":415:424   */\n      dup4\n        /* \"#utility.yul\":411:428   */\n      add\n        /* \"#utility.yul\":402:408   */\n      dup5\n        /* \"#utility.yul\":358:429   */\n      tag_31\n      jump\t// in\n    tag_45:\n        /* \"#utility.yul\":214:436   */\n      swap3\n      swap2\n      pop\n      pop\n      jump\t// out\n        /* \"#utility.yul\":523:640   */\n    tag_33:\n        /* \"#utility.yul\":632:633   */\n      0x00\n        /* \"#utility.yul\":629:630   */\n      dup1\n        /* \"#utility.yul\":622:634   */\n      revert\n        /* \"#utility.yul\":769:895   */\n    tag_35:\n        /* \"#utility.yul\":806:813   */\n      0x00\n        /* \"#utility.yul\":846:888   */\n      0xffffffffffffffffffffffffffffffffffffffff\n        /* \"#utility.yul\":839:844   */\n      dup3\n        /* \"#utility.yul\":835:889   */\n      and\n        /* \"#utility.yul\":824:889   */\n      swap1\n      pop\n        /* \"#utility.yul\":769:895   */\n      swap2\n      swap1\n      pop\n      jump\t// out\n        /* \"#utility.yul\":901:1005   */\n    tag_36:\n        /* \"#utility.yul\":946:953   */\n      0x00\n        /* \"#utility.yul\":975:999   */\n      tag_51\n        /* \"#utility.yul\":993:998   */\n      dup3\n        /* \"#utility.yul\":975:999   */\n      tag_35\n      jump\t// in\n    tag_51:\n        /* \"#utility.yul\":964:999   */\n      swap1\n      pop\n        /* \"#utility.yul\":901:1005   */\n      swap2\n      swap1\n      pop\n      jump\t// out\n        /* \"#utility.yul\":1011:1149   */\n    tag_37:\n        /* \"#utility.yul\":1092:1124   */\n      tag_53\n        /* \"#utility.yul\":1118:1123   */\n      dup2\n        /* \"#utility.yul\":1092:1124   */\n      tag_36\n      jump\t// in\n    tag_53:\n        /* \"#utility.yul\":1085:1090   */\n      dup2\n        /* \"#utility.yul\":1082:1125   */\n      eq\n        /* \"#utility.yul\":1072:1143   */\n      tag_54\n      jumpi\n        /* \"#utility.yul\":1139:1140   */\n      0x00\n        /* \"#utility.yul\":1136:1137   */\n      dup1\n        /* \"#utility.yul\":1129:1141   */\n      revert\n        /* \"#utility.yul\":1072:1143   */\n    tag_54:\n        /* \"#utility.yul\":1011:1149   */\n      pop\n      jump\t// out\n        /* \"#utility.yul\":1155:1310   */\n    tag_38:\n        /* \"#utility.yul\":1209:1214   */\n      0x00\n        /* \"#utility.yul\":1247:1253   */\n      dup2\n        /* \"#utility.yul\":1234:1254   */\n      calldataload\n        /* \"#utility.yul\":1225:1254   */\n      swap1\n      pop\n        /* \"#utility.yul\":1263:1304   */\n      tag_56\n        /* \"#utility.yul\":1298:1303   */\n      dup2\n        /* \"#utility.yul\":1263:1304   */\n      tag_37\n      jump\t// in\n    tag_56:\n        /* \"#utility.yul\":1155:1310   */\n      swap3\n      swap2\n      pop\n      pop\n      jump\t// out\n        /* \"#utility.yul\":1316:1661   */\n    tag_16:\n        /* \"#utility.yul\":1383:1389   */\n      0x00\n        /* \"#utility.yul\":1432:1434   */\n      0x20\n        /* \"#utility.yul\":1420:1429   */\n      dup3\n        /* \"#utility.yul\":1411:1418   */\n      dup5\n        /* \"#utility.yul\":1407:1430   */\n      sub\n        /* \"#utility.yul\":1403:1435   */\n      slt\n        /* \"#utility.yul\":1400:1519   */\n      iszero\n      tag_58\n      jumpi\n        /* \"#utility.yul\":1438:1517   */\n      tag_59\n      tag_33\n      jump\t// in\n    tag_59:\n        /* \"#utility.yul\":1400:1519   */\n    tag_58:\n        /* \"#utility.yul\":1558:1559   */\n      0x00\n        /* \"#utility.yul\":1583:1644   */\n      tag_60\n        /* \"#utility.yul\":1636:1643   */\n      dup5\n        /* \"#utility.yul\":1627:1633   */\n      dup3\n        /* \"#utility.yul\":1616:1625   */\n      dup6\n        /* \"#utility.yul\":1612:1634   */\n      add\n        /* \"#utility.yul\":1583:1644   */\n      tag_38\n      jump\t// in\n    tag_60:\n        /* \"#utility.yul\":1573:1644   */\n      swap2\n      pop\n        /* \"#utility.yul\":1529:1654   */\n      pop\n        /* \"#utility.yul\":1316:1661   */\n      swap3\n      swap2\n      pop\n      pop\n      jump\t// out\n        /* \"#utility.yul\":1667:1847   */\n    tag_39:\n        /* \"#utility.yul\":1715:1792   */\n      0x4e487b7100000000000000000000000000000000000000000000000000000000\n        /* \"#utility.yul\":1712:1713   */\n      0x00\n        /* \"#utility.yul\":1705:1793   */\n      mstore\n        /* \"#utility.yul\":1812:1816   */\n      0x11\n        /* \"#utility.yul\":1809:1810   */\n      0x04\n        /* \"#utility.yul\":1802:1817   */\n      mstore\n        /* \"#utility.yul\":1836:1840   */\n      0x24\n        /* \"#utility.yul\":1833:1834   */\n      0x00\n        /* \"#utility.yul\":1826:1841   */\n      revert\n        /* \"#utility.yul\":1853:2158   */\n    tag_25:\n        /* \"#utility.yul\":1893:1896   */\n      0x00\n        /* \"#utility.yul\":1912:1932   */\n      tag_63\n        /* \"#utility.yul\":1930:1931   */\n      dup3\n        /* \"#utility.yul\":1912:1932   */\n      tag_30\n      jump\t// in\n    tag_63:\n        /* \"#utility.yul\":1907:1932   */\n      swap2\n      pop\n        /* \"#utility.yul\":1946:1966   */\n      tag_64\n        /* \"#utility.yul\":1964:1965   */\n      dup4\n        /* \"#utility.yul\":1946:1966   */\n      tag_30\n      jump\t// in\n    tag_64:\n        /* \"#utility.yul\":1941:1966   */\n      swap3\n      pop\n        /* \"#utility.yul\":2100:2101   */\n      dup3\n        /* \"#utility.yul\":2032:2098   */\n      0xffffffffffffffffffffffffffffffffffffffffffffffffffffffffffffffff\n        /* \"#utility.yul\":2028:2102   */\n      sub\n        /* \"#utility.yul\":2025:2026   */\n      dup3\n        /* \"#utility.yul\":2022:2103   */\n      gt\n        /* \"#utility.yul\":2019:2126   */\n      iszero\n      tag_65\n      jumpi\n        /* \"#utility.yul\":2106:2124   */\n      tag_66\n      tag_39\n      jump\t// in\n    tag_66:\n        /* \"#utility.yul\":2019:2126   */\n    tag_65:\n        /* \"#utility.yul\":2150:2151   */\n      dup3\n        /* \"#utility.yul\":2147:2148   */\n      dup3\n        /* \"#utility.yul\":2143:2152   */\n      add\n        /* \"#utility.yul\":2136:2152   */\n      swap1\n      pop\n        /* \"#utility.yul\":1853:2158   */\n      swap3\n      swap2\n      pop\n      pop\n      jump\t// out\n\n    auxdata: 0xa264697066735822122054df1d4b9fbde3c0da310ca4586be0dac125792935d3784ce86f1dfb8fda5a7764736f6c634300080f0033\n}\n",
				"bytecode": {
					"linkReferences": {},
					"object": "608060405234801561001057600080fd5b506103c3806100206000396000f3fe60806040526004361061003f5760003560e01c80634c73890914610044578063d0e30db01461006f578063e6d2524514610079578063eb9969a8146100a2575b600080fd5b34801561005057600080fd5b506100596100cd565b604051610066919061025d565b60405180910390f35b610077610113565b005b34801561008557600080fd5b506100a0600480360381019061009b91906102db565b61016a565b005b3480156100ae57600080fd5b506100b761023c565b6040516100c4919061025d565b60405180910390f35b60008060003373ffffffffffffffffffffffffffffffffffffffff1673ffffffffffffffffffffffffffffffffffffffff16815260200190815260200160002054905090565b346000803373ffffffffffffffffffffffffffffffffffffffff1673ffffffffffffffffffffffffffffffffffffffff16815260200190815260200160002060008282546101619190610337565b92505081905550565b60008060003373ffffffffffffffffffffffffffffffffffffffff1673ffffffffffffffffffffffffffffffffffffffff16815260200190815260200160002054905060008060003373ffffffffffffffffffffffffffffffffffffffff1673ffffffffffffffffffffffffffffffffffffffff168152602001908152602001600020819055508173ffffffffffffffffffffffffffffffffffffffff166108fc829081150290604051600060405180830381858888f19350505050158015610237573d6000803e3d6000fd5b505050565b600047905090565b6000819050919050565b61025781610244565b82525050565b6000602082019050610272600083018461024e565b92915050565b600080fd5b600073ffffffffffffffffffffffffffffffffffffffff82169050919050565b60006102a88261027d565b9050919050565b6102b88161029d565b81146102c357600080fd5b50565b6000813590506102d5816102af565b92915050565b6000602082840312156102f1576102f0610278565b5b60006102ff848285016102c6565b91505092915050565b7f4e487b7100000000000000000000000000000000000000000000000000000000600052601160045260246000fd5b600061034282610244565b915061034d83610244565b9250827fffffffffffffffffffffffffffffffffffffffffffffffffffffffffffffffff0382111561038257610381610308565b5b82820190509291505056fea264697066735822122054df1d4b9fbde3c0da310ca4586be0dac125792935d3784ce86f1dfb8fda5a7764736f6c634300080f0033",
					"opcodes": "PUSH1 0x80 PUSH1 0x40 MSTORE CALLVALUE DUP1 ISZERO PUSH2 0x10 JUMPI PUSH1 0x0 DUP1 REVERT JUMPDEST POP PUSH2 0x3C3 DUP1 PUSH2 0x20 PUSH1 0x0 CODECOPY PUSH1 0x0 RETURN INVALID PUSH1 0x80 PUSH1 0x40 MSTORE PUSH1 0x4 CALLDATASIZE LT PUSH2 0x3F JUMPI PUSH1 0x0 CALLDATALOAD PUSH1 0xE0 SHR DUP1 PUSH4 0x4C738909 EQ PUSH2 0x44 JUMPI DUP1 PUSH4 0xD0E30DB0 EQ PUSH2 0x6F JUMPI DUP1 PUSH4 0xE6D25245 EQ PUSH2 0x79 JUMPI DUP1 PUSH4 0xEB9969A8 EQ PUSH2 0xA2 JUMPI JUMPDEST PUSH1 0x0 DUP1 REVERT JUMPDEST CALLVALUE DUP1 ISZERO PUSH2 0x50 JUMPI PUSH1 0x0 DUP1 REVERT JUMPDEST POP PUSH2 0x59 PUSH2 0xCD JUMP JUMPDEST PUSH1 0x40 MLOAD PUSH2 0x66 SWAP2 SWAP1 PUSH2 0x25D JUMP JUMPDEST PUSH1 0x40 MLOAD DUP1 SWAP2 SUB SWAP1 RETURN JUMPDEST PUSH2 0x77 PUSH2 0x113 JUMP JUMPDEST STOP JUMPDEST CALLVALUE DUP1 ISZERO PUSH2 0x85 JUMPI PUSH1 0x0 DUP1 REVERT JUMPDEST POP PUSH2 0xA0 PUSH1 0x4 DUP1 CALLDATASIZE SUB DUP2 ADD SWAP1 PUSH2 0x9B SWAP2 SWAP1 PUSH2 0x2DB JUMP JUMPDEST PUSH2 0x16A JUMP JUMPDEST STOP JUMPDEST CALLVALUE DUP1 ISZERO PUSH2 0xAE JUMPI PUSH1 0x0 DUP1 REVERT JUMPDEST POP PUSH2 0xB7 PUSH2 0x23C JUMP JUMPDEST PUSH1 0x40 MLOAD PUSH2 0xC4 SWAP2 SWAP1 PUSH2 0x25D JUMP JUMPDEST PUSH1 0x40 MLOAD DUP1 SWAP2 SUB SWAP1 RETURN JUMPDEST PUSH1 0x0 DUP1 PUSH1 0x0 CALLER PUSH20 0xFFFFFFFFFFFFFFFFFFFFFFFFFFFFFFFFFFFFFFFF AND PUSH20 0xFFFFFFFFFFFFFFFFFFFFFFFFFFFFFFFFFFFFFFFF AND DUP2 MSTORE PUSH1 0x20 ADD SWAP1 DUP2 MSTORE PUSH1 0x20 ADD PUSH1 0x0 KECCAK256 SLOAD SWAP1 POP SWAP1 JUMP JUMPDEST CALLVALUE PUSH1 0x0 DUP1 CALLER PUSH20 0xFFFFFFFFFFFFFFFFFFFFFFFFFFFFFFFFFFFFFFFF AND PUSH20 0xFFFFFFFFFFFFFFFFFFFFFFFFFFFFFFFFFFFFFFFF AND DUP2 MSTORE PUSH1 0x20 ADD SWAP1 DUP2 MSTORE PUSH1 0x20 ADD PUSH1 0x0 KECCAK256 PUSH1 0x0 DUP3 DUP3 SLOAD PUSH2 0x161 SWAP2 SWAP1 PUSH2 0x337 JUMP JUMPDEST SWAP3 POP POP DUP2 SWAP1 SSTORE POP JUMP JUMPDEST PUSH1 0x0 DUP1 PUSH1 0x0 CALLER PUSH20 0xFFFFFFFFFFFFFFFFFFFFFFFFFFFFFFFFFFFFFFFF AND PUSH20 0xFFFFFFFFFFFFFFFFFFFFFFFFFFFFFFFFFFFFFFFF AND DUP2 MSTORE PUSH1 0x20 ADD SWAP1 DUP2 MSTORE PUSH1 0x20 ADD PUSH1 0x0 KECCAK256 SLOAD SWAP1 POP PUSH1 0x0 DUP1 PUSH1 0x0 CALLER PUSH20 0xFFFFFFFFFFFFFFFFFFFFFFFFFFFFFFFFFFFFFFFF AND PUSH20 0xFFFFFFFFFFFFFFFFFFFFFFFFFFFFFFFFFFFFFFFF AND DUP2 MSTORE PUSH1 0x20 ADD SWAP1 DUP2 MSTORE PUSH1 0x20 ADD PUSH1 0x0 KECCAK256 DUP2 SWAP1 SSTORE POP DUP2 PUSH20 0xFFFFFFFFFFFFFFFFFFFFFFFFFFFFFFFFFFFFFFFF AND PUSH2 0x8FC DUP3 SWAP1 DUP2 ISZERO MUL SWAP1 PUSH1 0x40 MLOAD PUSH1 0x0 PUSH1 0x40 MLOAD DUP1 DUP4 SUB DUP2 DUP6 DUP9 DUP9 CALL SWAP4 POP POP POP POP ISZERO DUP1 ISZERO PUSH2 0x237 JUMPI RETURNDATASIZE PUSH1 0x0 DUP1 RETURNDATACOPY RETURNDATASIZE PUSH1 0x0 REVERT JUMPDEST POP POP POP JUMP JUMPDEST PUSH1 0x0 SELFBALANCE SWAP1 POP SWAP1 JUMP JUMPDEST PUSH1 0x0 DUP2 SWAP1 POP SWAP2 SWAP1 POP JUMP JUMPDEST PUSH2 0x257 DUP2 PUSH2 0x244 JUMP JUMPDEST DUP3 MSTORE POP POP JUMP JUMPDEST PUSH1 0x0 PUSH1 0x20 DUP3 ADD SWAP1 POP PUSH2 0x272 PUSH1 0x0 DUP4 ADD DUP5 PUSH2 0x24E JUMP JUMPDEST SWAP3 SWAP2 POP POP JUMP JUMPDEST PUSH1 0x0 DUP1 REVERT JUMPDEST PUSH1 0x0 PUSH20 0xFFFFFFFFFFFFFFFFFFFFFFFFFFFFFFFFFFFFFFFF DUP3 AND SWAP1 POP SWAP2 SWAP1 POP JUMP JUMPDEST PUSH1 0x0 PUSH2 0x2A8 DUP3 PUSH2 0x27D JUMP JUMPDEST SWAP1 POP SWAP2 SWAP1 POP JUMP JUMPDEST PUSH2 0x2B8 DUP2 PUSH2 0x29D JUMP JUMPDEST DUP2 EQ PUSH2 0x2C3 JUMPI PUSH1 0x0 DUP1 REVERT JUMPDEST POP JUMP JUMPDEST PUSH1 0x0 DUP2 CALLDATALOAD SWAP1 POP PUSH2 0x2D5 DUP2 PUSH2 0x2AF JUMP JUMPDEST SWAP3 SWAP2 POP POP JUMP JUMPDEST PUSH1 0x0 PUSH1 0x20 DUP3 DUP5 SUB SLT ISZERO PUSH2 0x2F1 JUMPI PUSH2 0x2F0 PUSH2 0x278 JUMP JUMPDEST JUMPDEST PUSH1 0x0 PUSH2 0x2FF DUP5 DUP3 DUP6 ADD PUSH2 0x2C6 JUMP JUMPDEST SWAP2 POP POP SWAP3 SWAP2 POP POP JUMP JUMPDEST PUSH32 0x4E487B7100000000000000000000000000000000000000000000000000000000 PUSH1 0x0 MSTORE PUSH1 0x11 PUSH1 0x4 MSTORE PUSH1 0x24 PUSH1 0x0 REVERT JUMPDEST PUSH1 0x0 PUSH2 0x342 DUP3 PUSH2 0x244 JUMP JUMPDEST SWAP2 POP PUSH2 0x34D DUP4 PUSH2 0x244 JUMP JUMPDEST SWAP3 POP DUP3 PUSH32 0xFFFFFFFFFFFFFFFFFFFFFFFFFFFFFFFFFFFFFFFFFFFFFFFFFFFFFFFFFFFFFFFF SUB DUP3 GT ISZERO PUSH2 0x382 JUMPI PUSH2 0x381 PUSH2 0x308 JUMP JUMPDEST JUMPDEST DUP3 DUP3 ADD SWAP1 POP SWAP3 SWAP2 POP POP JUMP INVALID LOG2 PUSH5 0x6970667358 0x22 SLT KECCAK256 SLOAD 0xDF SAR 0x4B SWAP16 0xBD 0xE3 0xC0 0xDA BALANCE 0xC LOG4 PC PUSH12 0xE0DAC125792935D3784CE86F SAR 0xFB DUP16 0xDA GAS PUSH24 0x64736F6C634300080F003300000000000000000000000000 "
				},
				"gasEstimates": {
					"creation": {
						"codeDepositCost": "192600",
						"executionCost": "238",
						"totalCost": "192838"
					},
					"external": {
						"deposit()": "infinite",
						"getAllBalance()": "383",
						"getMyBalance()": "2504",
						"sendTo(address)": "infinite"
					}
				},
				"methodIdentifiers": {
					"deposit()": "d0e30db0",
					"getAllBalance()": "eb9969a8",
					"getMyBalance()": "4c738909",
					"sendTo(address)": "e6d25245"
				}
			},
			"storageLayout": {
				"storage": [
					{
						"astId": 5,
						"contract": "solidity-learning/3_SmartWallet/ImprovedSmartMoney.sol:ImprovedSmartMoney",
						"label": "balanceRecieved",
						"offset": 0,
						"slot": "0",
						"type": "t_mapping(t_address,t_uint256)"
					}
				],
				"types": {
					"t_address": {
						"encoding": "inplace",
						"label": "address",
						"numberOfBytes": "20"
					},
					"t_mapping(t_address,t_uint256)": {
						"encoding": "mapping",
						"key": "t_address",
						"label": "mapping(address => uint256)",
						"numberOfBytes": "32",
						"value": "t_uint256"
					},
					"t_uint256": {
						"encoding": "inplace",
						"label": "uint256",
						"numberOfBytes": "32"
					}
				}
			},
			"userdoc": {
				"kind": "user",
				"methods": {},
				"version": 1
			}
		}
	}
}