{
	"solidity-learning/3_SmartWallet/ExampleStructMapping.sol": {
		"ExampleStructMapping": {
			"abi": [
				{
					"inputs": [
						{
							"internalType": "address",
							"name": "",
							"type": "address"
						}
					],
					"name": "balances",
					"outputs": [
						{
							"internalType": "uint256",
							"name": "totalBalance",
							"type": "uint256"
						},
						{
							"internalType": "uint256",
							"name": "depositCount",
							"type": "uint256"
						},
						{
							"internalType": "uint256",
							"name": "withdrawalCount",
							"type": "uint256"
						}
					],
					"stateMutability": "view",
					"type": "function"
				},
				{
					"inputs": [],
					"name": "depositMoney",
					"outputs": [],
					"stateMutability": "payable",
					"type": "function"
				},
				{
					"inputs": [],
					"name": "getMyBalance",
					"outputs": [
						{
							"internalType": "uint256",
							"name": "",
							"type": "uint256"
						}
					],
					"stateMutability": "view",
					"type": "function"
				},
				{
					"inputs": [
						{
							"internalType": "uint256",
							"name": "_amount",
							"type": "uint256"
						},
						{
							"internalType": "address payable",
							"name": "_to",
							"type": "address"
						}
					],
					"name": "sendTo",
					"outputs": [],
					"stateMutability": "nonpayable",
					"type": "function"
				},
				{
					"inputs": [
						{
							"internalType": "address",
							"name": "_address",
							"type": "address"
						},
						{
							"internalType": "uint256",
							"name": "_depositCount",
							"type": "uint256"
						}
					],
					"name": "viewDeposit",
					"outputs": [
						{
							"components": [
								{
									"internalType": "uint256",
									"name": "amount",
									"type": "uint256"
								},
								{
									"internalType": "uint256",
									"name": "timestamp",
									"type": "uint256"
								}
							],
							"internalType": "struct ExampleStructMapping.Transaction",
							"name": "",
							"type": "tuple"
						}
					],
					"stateMutability": "view",
					"type": "function"
				}
			],
			"devdoc": {
				"kind": "dev",
				"methods": {},
				"version": 1
			},
			"evm": {
				"assembly": "    /* \"solidity-learning/3_SmartWallet/ExampleStructMapping.sol\":58:1418  contract ExampleStructMapping {... */\n  mstore(0x40, 0x80)\n  callvalue\n  dup1\n  iszero\n  tag_1\n  jumpi\n  0x00\n  dup1\n  revert\ntag_1:\n  pop\n  dataSize(sub_0)\n  dup1\n  dataOffset(sub_0)\n  0x00\n  codecopy\n  0x00\n  return\nstop\n\nsub_0: assembly {\n        /* \"solidity-learning/3_SmartWallet/ExampleStructMapping.sol\":58:1418  contract ExampleStructMapping {... */\n      mstore(0x40, 0x80)\n      jumpi(tag_1, lt(calldatasize, 0x04))\n      shr(0xe0, calldataload(0x00))\n      dup1\n      0x16c05aa2\n      eq\n      tag_2\n      jumpi\n      dup1\n      0x27e235e3\n      eq\n      tag_3\n      jumpi\n      dup1\n      0x4c738909\n      eq\n      tag_4\n      jumpi\n      dup1\n      0xa79a48c2\n      eq\n      tag_5\n      jumpi\n      dup1\n      0xb3d05678\n      eq\n      tag_6\n      jumpi\n    tag_1:\n      0x00\n      dup1\n      revert\n        /* \"solidity-learning/3_SmartWallet/ExampleStructMapping.sol\":718:1036  function depositMoney() public payable {... */\n    tag_2:\n      tag_7\n      tag_8\n      jump\t// in\n    tag_7:\n      stop\n        /* \"solidity-learning/3_SmartWallet/ExampleStructMapping.sol\":381:425  mapping (address => Balance) public balances */\n    tag_3:\n      callvalue\n      dup1\n      iszero\n      tag_9\n      jumpi\n      0x00\n      dup1\n      revert\n    tag_9:\n      pop\n      tag_10\n      0x04\n      dup1\n      calldatasize\n      sub\n      dup2\n      add\n      swap1\n      tag_11\n      swap2\n      swap1\n      tag_12\n      jump\t// in\n    tag_11:\n      tag_13\n      jump\t// in\n    tag_10:\n      mload(0x40)\n      tag_14\n      swap4\n      swap3\n      swap2\n      swap1\n      tag_15\n      jump\t// in\n    tag_14:\n      mload(0x40)\n      dup1\n      swap2\n      sub\n      swap1\n      return\n        /* \"solidity-learning/3_SmartWallet/ExampleStructMapping.sol\":432:540  function getMyBalance() public view returns (uint) {... */\n    tag_4:\n      callvalue\n      dup1\n      iszero\n      tag_16\n      jumpi\n      0x00\n      dup1\n      revert\n    tag_16:\n      pop\n      tag_17\n      tag_18\n      jump\t// in\n    tag_17:\n      mload(0x40)\n      tag_19\n      swap2\n      swap1\n      tag_20\n      jump\t// in\n    tag_19:\n      mload(0x40)\n      dup1\n      swap2\n      sub\n      swap1\n      return\n        /* \"solidity-learning/3_SmartWallet/ExampleStructMapping.sol\":546:712  function viewDeposit(address _address, uint _depositCount) public view returns (Transaction memory) {... */\n    tag_5:\n      callvalue\n      dup1\n      iszero\n      tag_21\n      jumpi\n      0x00\n      dup1\n      revert\n    tag_21:\n      pop\n      tag_22\n      0x04\n      dup1\n      calldatasize\n      sub\n      dup2\n      add\n      swap1\n      tag_23\n      swap2\n      swap1\n      tag_24\n      jump\t// in\n    tag_23:\n      tag_25\n      jump\t// in\n    tag_22:\n      mload(0x40)\n      tag_26\n      swap2\n      swap1\n      tag_27\n      jump\t// in\n    tag_26:\n      mload(0x40)\n      dup1\n      swap2\n      sub\n      swap1\n      return\n        /* \"solidity-learning/3_SmartWallet/ExampleStructMapping.sol\":1046:1416  function sendTo(uint _amount, address payable _to) public {... */\n    tag_6:\n      callvalue\n      dup1\n      iszero\n      tag_28\n      jumpi\n      0x00\n      dup1\n      revert\n    tag_28:\n      pop\n      tag_29\n      0x04\n      dup1\n      calldatasize\n      sub\n      dup2\n      add\n      swap1\n      tag_30\n      swap2\n      swap1\n      tag_31\n      jump\t// in\n    tag_30:\n      tag_32\n      jump\t// in\n    tag_29:\n      stop\n        /* \"solidity-learning/3_SmartWallet/ExampleStructMapping.sol\":718:1036  function depositMoney() public payable {... */\n    tag_8:\n        /* \"solidity-learning/3_SmartWallet/ExampleStructMapping.sol\":804:813  msg.value */\n      callvalue\n        /* \"solidity-learning/3_SmartWallet/ExampleStructMapping.sol\":767:775  balances */\n      0x00\n        /* \"solidity-learning/3_SmartWallet/ExampleStructMapping.sol\":767:787  balances[msg.sender] */\n      dup1\n        /* \"solidity-learning/3_SmartWallet/ExampleStructMapping.sol\":776:786  msg.sender */\n      caller\n        /* \"solidity-learning/3_SmartWallet/ExampleStructMapping.sol\":767:787  balances[msg.sender] */\n      0xffffffffffffffffffffffffffffffffffffffff\n      and\n      0xffffffffffffffffffffffffffffffffffffffff\n      and\n      dup2\n      mstore\n      0x20\n      add\n      swap1\n      dup2\n      mstore\n      0x20\n      add\n      0x00\n      keccak256\n        /* \"solidity-learning/3_SmartWallet/ExampleStructMapping.sol\":767:800  balances[msg.sender].totalBalance */\n      0x00\n      add\n      0x00\n        /* \"solidity-learning/3_SmartWallet/ExampleStructMapping.sol\":767:813  balances[msg.sender].totalBalance += msg.value */\n      dup3\n      dup3\n      sload\n      tag_34\n      swap2\n      swap1\n      tag_35\n      jump\t// in\n    tag_34:\n      swap3\n      pop\n      pop\n      dup2\n      swap1\n      sstore\n      pop\n        /* \"solidity-learning/3_SmartWallet/ExampleStructMapping.sol\":832:858  Transaction memory deposit */\n      0x00\n        /* \"solidity-learning/3_SmartWallet/ExampleStructMapping.sol\":861:900  Transaction(msg.value, block.timestamp) */\n      mload(0x40)\n      dup1\n      0x40\n      add\n      0x40\n      mstore\n      dup1\n        /* \"solidity-learning/3_SmartWallet/ExampleStructMapping.sol\":873:882  msg.value */\n      callvalue\n        /* \"solidity-learning/3_SmartWallet/ExampleStructMapping.sol\":861:900  Transaction(msg.value, block.timestamp) */\n      dup2\n      mstore\n      0x20\n      add\n        /* \"solidity-learning/3_SmartWallet/ExampleStructMapping.sol\":884:899  block.timestamp */\n      timestamp\n        /* \"solidity-learning/3_SmartWallet/ExampleStructMapping.sol\":861:900  Transaction(msg.value, block.timestamp) */\n      dup2\n      mstore\n      pop\n        /* \"solidity-learning/3_SmartWallet/ExampleStructMapping.sol\":832:900  Transaction memory deposit = Transaction(msg.value, block.timestamp) */\n      swap1\n      pop\n        /* \"solidity-learning/3_SmartWallet/ExampleStructMapping.sol\":977:984  deposit */\n      dup1\n        /* \"solidity-learning/3_SmartWallet/ExampleStructMapping.sol\":910:918  balances */\n      0x00\n        /* \"solidity-learning/3_SmartWallet/ExampleStructMapping.sol\":910:930  balances[msg.sender] */\n      dup1\n        /* \"solidity-learning/3_SmartWallet/ExampleStructMapping.sol\":919:929  msg.sender */\n      caller\n        /* \"solidity-learning/3_SmartWallet/ExampleStructMapping.sol\":910:930  balances[msg.sender] */\n      0xffffffffffffffffffffffffffffffffffffffff\n      and\n      0xffffffffffffffffffffffffffffffffffffffff\n      and\n      dup2\n      mstore\n      0x20\n      add\n      swap1\n      dup2\n      mstore\n      0x20\n      add\n      0x00\n      keccak256\n        /* \"solidity-learning/3_SmartWallet/ExampleStructMapping.sol\":910:939  balances[msg.sender].deposits */\n      0x03\n      add\n        /* \"solidity-learning/3_SmartWallet/ExampleStructMapping.sol\":910:974  balances[msg.sender].deposits[balances[msg.sender].depositCount] */\n      0x00\n        /* \"solidity-learning/3_SmartWallet/ExampleStructMapping.sol\":940:948  balances */\n      dup1\n        /* \"solidity-learning/3_SmartWallet/ExampleStructMapping.sol\":940:960  balances[msg.sender] */\n      0x00\n        /* \"solidity-learning/3_SmartWallet/ExampleStructMapping.sol\":949:959  msg.sender */\n      caller\n        /* \"solidity-learning/3_SmartWallet/ExampleStructMapping.sol\":940:960  balances[msg.sender] */\n      0xffffffffffffffffffffffffffffffffffffffff\n      and\n      0xffffffffffffffffffffffffffffffffffffffff\n      and\n      dup2\n      mstore\n      0x20\n      add\n      swap1\n      dup2\n      mstore\n      0x20\n      add\n      0x00\n      keccak256\n        /* \"solidity-learning/3_SmartWallet/ExampleStructMapping.sol\":940:973  balances[msg.sender].depositCount */\n      0x01\n      add\n      sload\n        /* \"solidity-learning/3_SmartWallet/ExampleStructMapping.sol\":910:974  balances[msg.sender].deposits[balances[msg.sender].depositCount] */\n      dup2\n      mstore\n      0x20\n      add\n      swap1\n      dup2\n      mstore\n      0x20\n      add\n      0x00\n      keccak256\n        /* \"solidity-learning/3_SmartWallet/ExampleStructMapping.sol\":910:984  balances[msg.sender].deposits[balances[msg.sender].depositCount] = deposit */\n      0x00\n      dup3\n      add\n      mload\n      dup2\n      0x00\n      add\n      sstore\n      0x20\n      dup3\n      add\n      mload\n      dup2\n      0x01\n      add\n      sstore\n      swap1\n      pop\n      pop\n        /* \"solidity-learning/3_SmartWallet/ExampleStructMapping.sol\":994:1002  balances */\n      0x00\n        /* \"solidity-learning/3_SmartWallet/ExampleStructMapping.sol\":994:1014  balances[msg.sender] */\n      dup1\n        /* \"solidity-learning/3_SmartWallet/ExampleStructMapping.sol\":1003:1013  msg.sender */\n      caller\n        /* \"solidity-learning/3_SmartWallet/ExampleStructMapping.sol\":994:1014  balances[msg.sender] */\n      0xffffffffffffffffffffffffffffffffffffffff\n      and\n      0xffffffffffffffffffffffffffffffffffffffff\n      and\n      dup2\n      mstore\n      0x20\n      add\n      swap1\n      dup2\n      mstore\n      0x20\n      add\n      0x00\n      keccak256\n        /* \"solidity-learning/3_SmartWallet/ExampleStructMapping.sol\":994:1027  balances[msg.sender].depositCount */\n      0x01\n      add\n      0x00\n        /* \"solidity-learning/3_SmartWallet/ExampleStructMapping.sol\":994:1029  balances[msg.sender].depositCount++ */\n      dup2\n      sload\n      dup1\n      swap3\n      swap2\n      swap1\n      tag_36\n      swap1\n      tag_37\n      jump\t// in\n    tag_36:\n      swap2\n      swap1\n      pop\n      sstore\n      pop\n        /* \"solidity-learning/3_SmartWallet/ExampleStructMapping.sol\":757:1036  {... */\n      pop\n        /* \"solidity-learning/3_SmartWallet/ExampleStructMapping.sol\":718:1036  function depositMoney() public payable {... */\n      jump\t// out\n        /* \"solidity-learning/3_SmartWallet/ExampleStructMapping.sol\":381:425  mapping (address => Balance) public balances */\n    tag_13:\n      mstore(0x20, 0x00)\n      dup1\n      0x00\n      mstore\n      keccak256(0x00, 0x40)\n      0x00\n      swap2\n      pop\n      swap1\n      pop\n      dup1\n      0x00\n      add\n      sload\n      swap1\n      dup1\n      0x01\n      add\n      sload\n      swap1\n      dup1\n      0x02\n      add\n      sload\n      swap1\n      pop\n      dup4\n      jump\t// out\n        /* \"solidity-learning/3_SmartWallet/ExampleStructMapping.sol\":432:540  function getMyBalance() public view returns (uint) {... */\n    tag_18:\n        /* \"solidity-learning/3_SmartWallet/ExampleStructMapping.sol\":477:481  uint */\n      0x00\n        /* \"solidity-learning/3_SmartWallet/ExampleStructMapping.sol\":500:508  balances */\n      dup1\n        /* \"solidity-learning/3_SmartWallet/ExampleStructMapping.sol\":500:520  balances[msg.sender] */\n      0x00\n        /* \"solidity-learning/3_SmartWallet/ExampleStructMapping.sol\":509:519  msg.sender */\n      caller\n        /* \"solidity-learning/3_SmartWallet/ExampleStructMapping.sol\":500:520  balances[msg.sender] */\n      0xffffffffffffffffffffffffffffffffffffffff\n      and\n      0xffffffffffffffffffffffffffffffffffffffff\n      and\n      dup2\n      mstore\n      0x20\n      add\n      swap1\n      dup2\n      mstore\n      0x20\n      add\n      0x00\n      keccak256\n        /* \"solidity-learning/3_SmartWallet/ExampleStructMapping.sol\":500:533  balances[msg.sender].totalBalance */\n      0x00\n      add\n      sload\n        /* \"solidity-learning/3_SmartWallet/ExampleStructMapping.sol\":493:533  return balances[msg.sender].totalBalance */\n      swap1\n      pop\n        /* \"solidity-learning/3_SmartWallet/ExampleStructMapping.sol\":432:540  function getMyBalance() public view returns (uint) {... */\n      swap1\n      jump\t// out\n        /* \"solidity-learning/3_SmartWallet/ExampleStructMapping.sol\":546:712  function viewDeposit(address _address, uint _depositCount) public view returns (Transaction memory) {... */\n    tag_25:\n        /* \"solidity-learning/3_SmartWallet/ExampleStructMapping.sol\":626:644  Transaction memory */\n      tag_39\n      tag_40\n      jump\t// in\n    tag_39:\n        /* \"solidity-learning/3_SmartWallet/ExampleStructMapping.sol\":663:671  balances */\n      0x00\n        /* \"solidity-learning/3_SmartWallet/ExampleStructMapping.sol\":663:681  balances[_address] */\n      dup1\n        /* \"solidity-learning/3_SmartWallet/ExampleStructMapping.sol\":672:680  _address */\n      dup5\n        /* \"solidity-learning/3_SmartWallet/ExampleStructMapping.sol\":663:681  balances[_address] */\n      0xffffffffffffffffffffffffffffffffffffffff\n      and\n      0xffffffffffffffffffffffffffffffffffffffff\n      and\n      dup2\n      mstore\n      0x20\n      add\n      swap1\n      dup2\n      mstore\n      0x20\n      add\n      0x00\n      keccak256\n        /* \"solidity-learning/3_SmartWallet/ExampleStructMapping.sol\":663:690  balances[_address].deposits */\n      0x03\n      add\n        /* \"solidity-learning/3_SmartWallet/ExampleStructMapping.sol\":663:705  balances[_address].deposits[_depositCount] */\n      0x00\n        /* \"solidity-learning/3_SmartWallet/ExampleStructMapping.sol\":691:704  _depositCount */\n      dup4\n        /* \"solidity-learning/3_SmartWallet/ExampleStructMapping.sol\":663:705  balances[_address].deposits[_depositCount] */\n      dup2\n      mstore\n      0x20\n      add\n      swap1\n      dup2\n      mstore\n      0x20\n      add\n      0x00\n      keccak256\n        /* \"solidity-learning/3_SmartWallet/ExampleStructMapping.sol\":656:705  return balances[_address].deposits[_depositCount] */\n      mload(0x40)\n      dup1\n      0x40\n      add\n      0x40\n      mstore\n      swap1\n      dup2\n      0x00\n      dup3\n      add\n      sload\n      dup2\n      mstore\n      0x20\n      add\n      0x01\n      dup3\n      add\n      sload\n      dup2\n      mstore\n      pop\n      pop\n      swap1\n      pop\n        /* \"solidity-learning/3_SmartWallet/ExampleStructMapping.sol\":546:712  function viewDeposit(address _address, uint _depositCount) public view returns (Transaction memory) {... */\n      swap3\n      swap2\n      pop\n      pop\n      jump\t// out\n        /* \"solidity-learning/3_SmartWallet/ExampleStructMapping.sol\":1046:1416  function sendTo(uint _amount, address payable _to) public {... */\n    tag_32:\n        /* \"solidity-learning/3_SmartWallet/ExampleStructMapping.sol\":1151:1158  _amount */\n      dup2\n        /* \"solidity-learning/3_SmartWallet/ExampleStructMapping.sol\":1114:1122  balances */\n      0x00\n        /* \"solidity-learning/3_SmartWallet/ExampleStructMapping.sol\":1114:1134  balances[msg.sender] */\n      dup1\n        /* \"solidity-learning/3_SmartWallet/ExampleStructMapping.sol\":1123:1133  msg.sender */\n      caller\n        /* \"solidity-learning/3_SmartWallet/ExampleStructMapping.sol\":1114:1134  balances[msg.sender] */\n      0xffffffffffffffffffffffffffffffffffffffff\n      and\n      0xffffffffffffffffffffffffffffffffffffffff\n      and\n      dup2\n      mstore\n      0x20\n      add\n      swap1\n      dup2\n      mstore\n      0x20\n      add\n      0x00\n      keccak256\n        /* \"solidity-learning/3_SmartWallet/ExampleStructMapping.sol\":1114:1147  balances[msg.sender].totalBalance */\n      0x00\n      add\n      0x00\n        /* \"solidity-learning/3_SmartWallet/ExampleStructMapping.sol\":1114:1158  balances[msg.sender].totalBalance -= _amount */\n      dup3\n      dup3\n      sload\n      tag_43\n      swap2\n      swap1\n      tag_44\n      jump\t// in\n    tag_43:\n      swap3\n      pop\n      pop\n      dup2\n      swap1\n      sstore\n      pop\n        /* \"solidity-learning/3_SmartWallet/ExampleStructMapping.sol\":1168:1197  Transaction memory withdrawal */\n      0x00\n        /* \"solidity-learning/3_SmartWallet/ExampleStructMapping.sol\":1200:1237  Transaction(_amount, block.timestamp) */\n      mload(0x40)\n      dup1\n      0x40\n      add\n      0x40\n      mstore\n      dup1\n        /* \"solidity-learning/3_SmartWallet/ExampleStructMapping.sol\":1212:1219  _amount */\n      dup5\n        /* \"solidity-learning/3_SmartWallet/ExampleStructMapping.sol\":1200:1237  Transaction(_amount, block.timestamp) */\n      dup2\n      mstore\n      0x20\n      add\n        /* \"solidity-learning/3_SmartWallet/ExampleStructMapping.sol\":1221:1236  block.timestamp */\n      timestamp\n        /* \"solidity-learning/3_SmartWallet/ExampleStructMapping.sol\":1200:1237  Transaction(_amount, block.timestamp) */\n      dup2\n      mstore\n      pop\n        /* \"solidity-learning/3_SmartWallet/ExampleStructMapping.sol\":1168:1237  Transaction memory withdrawal = Transaction(_amount, block.timestamp) */\n      swap1\n      pop\n        /* \"solidity-learning/3_SmartWallet/ExampleStructMapping.sol\":1320:1330  withdrawal */\n      dup1\n        /* \"solidity-learning/3_SmartWallet/ExampleStructMapping.sol\":1247:1255  balances */\n      0x00\n        /* \"solidity-learning/3_SmartWallet/ExampleStructMapping.sol\":1247:1267  balances[msg.sender] */\n      dup1\n        /* \"solidity-learning/3_SmartWallet/ExampleStructMapping.sol\":1256:1266  msg.sender */\n      caller\n        /* \"solidity-learning/3_SmartWallet/ExampleStructMapping.sol\":1247:1267  balances[msg.sender] */\n      0xffffffffffffffffffffffffffffffffffffffff\n      and\n      0xffffffffffffffffffffffffffffffffffffffff\n      and\n      dup2\n      mstore\n      0x20\n      add\n      swap1\n      dup2\n      mstore\n      0x20\n      add\n      0x00\n      keccak256\n        /* \"solidity-learning/3_SmartWallet/ExampleStructMapping.sol\":1247:1279  balances[msg.sender].withdrawals */\n      0x04\n      add\n        /* \"solidity-learning/3_SmartWallet/ExampleStructMapping.sol\":1247:1317  balances[msg.sender].withdrawals[balances[msg.sender].withdrawalCount] */\n      0x00\n        /* \"solidity-learning/3_SmartWallet/ExampleStructMapping.sol\":1280:1288  balances */\n      dup1\n        /* \"solidity-learning/3_SmartWallet/ExampleStructMapping.sol\":1280:1300  balances[msg.sender] */\n      0x00\n        /* \"solidity-learning/3_SmartWallet/ExampleStructMapping.sol\":1289:1299  msg.sender */\n      caller\n        /* \"solidity-learning/3_SmartWallet/ExampleStructMapping.sol\":1280:1300  balances[msg.sender] */\n      0xffffffffffffffffffffffffffffffffffffffff\n      and\n      0xffffffffffffffffffffffffffffffffffffffff\n      and\n      dup2\n      mstore\n      0x20\n      add\n      swap1\n      dup2\n      mstore\n      0x20\n      add\n      0x00\n      keccak256\n        /* \"solidity-learning/3_SmartWallet/ExampleStructMapping.sol\":1280:1316  balances[msg.sender].withdrawalCount */\n      0x02\n      add\n      sload\n        /* \"solidity-learning/3_SmartWallet/ExampleStructMapping.sol\":1247:1317  balances[msg.sender].withdrawals[balances[msg.sender].withdrawalCount] */\n      dup2\n      mstore\n      0x20\n      add\n      swap1\n      dup2\n      mstore\n      0x20\n      add\n      0x00\n      keccak256\n        /* \"solidity-learning/3_SmartWallet/ExampleStructMapping.sol\":1247:1330  balances[msg.sender].withdrawals[balances[msg.sender].withdrawalCount] = withdrawal */\n      0x00\n      dup3\n      add\n      mload\n      dup2\n      0x00\n      add\n      sstore\n      0x20\n      dup3\n      add\n      mload\n      dup2\n      0x01\n      add\n      sstore\n      swap1\n      pop\n      pop\n        /* \"solidity-learning/3_SmartWallet/ExampleStructMapping.sol\":1340:1348  balances */\n      0x00\n        /* \"solidity-learning/3_SmartWallet/ExampleStructMapping.sol\":1340:1360  balances[msg.sender] */\n      dup1\n        /* \"solidity-learning/3_SmartWallet/ExampleStructMapping.sol\":1349:1359  msg.sender */\n      caller\n        /* \"solidity-learning/3_SmartWallet/ExampleStructMapping.sol\":1340:1360  balances[msg.sender] */\n      0xffffffffffffffffffffffffffffffffffffffff\n      and\n      0xffffffffffffffffffffffffffffffffffffffff\n      and\n      dup2\n      mstore\n      0x20\n      add\n      swap1\n      dup2\n      mstore\n      0x20\n      add\n      0x00\n      keccak256\n        /* \"solidity-learning/3_SmartWallet/ExampleStructMapping.sol\":1340:1376  balances[msg.sender].withdrawalCount */\n      0x02\n      add\n      0x00\n        /* \"solidity-learning/3_SmartWallet/ExampleStructMapping.sol\":1340:1378  balances[msg.sender].withdrawalCount++ */\n      dup2\n      sload\n      dup1\n      swap3\n      swap2\n      swap1\n      tag_45\n      swap1\n      tag_37\n      jump\t// in\n    tag_45:\n      swap2\n      swap1\n      pop\n      sstore\n      pop\n        /* \"solidity-learning/3_SmartWallet/ExampleStructMapping.sol\":1388:1391  _to */\n      dup2\n        /* \"solidity-learning/3_SmartWallet/ExampleStructMapping.sol\":1388:1400  _to.transfer */\n      0xffffffffffffffffffffffffffffffffffffffff\n      and\n        /* \"solidity-learning/3_SmartWallet/ExampleStructMapping.sol\":1388:1409  _to.transfer(_amount) */\n      0x08fc\n        /* \"solidity-learning/3_SmartWallet/ExampleStructMapping.sol\":1401:1408  _amount */\n      dup5\n        /* \"solidity-learning/3_SmartWallet/ExampleStructMapping.sol\":1388:1409  _to.transfer(_amount) */\n      swap1\n      dup2\n      iszero\n      mul\n      swap1\n      mload(0x40)\n      0x00\n      mload(0x40)\n      dup1\n      dup4\n      sub\n      dup2\n      dup6\n      dup9\n      dup9\n      call\n      swap4\n      pop\n      pop\n      pop\n      pop\n      iszero\n      dup1\n      iszero\n      tag_47\n      jumpi\n      returndatasize\n      0x00\n      dup1\n      returndatacopy\n      revert(0x00, returndatasize)\n    tag_47:\n      pop\n        /* \"solidity-learning/3_SmartWallet/ExampleStructMapping.sol\":1104:1416  {... */\n      pop\n        /* \"solidity-learning/3_SmartWallet/ExampleStructMapping.sol\":1046:1416  function sendTo(uint _amount, address payable _to) public {... */\n      pop\n      pop\n      jump\t// out\n    tag_40:\n      mload(0x40)\n      dup1\n      0x40\n      add\n      0x40\n      mstore\n      dup1\n      0x00\n      dup2\n      mstore\n      0x20\n      add\n      0x00\n      dup2\n      mstore\n      pop\n      swap1\n      jump\t// out\n        /* \"#utility.yul\":88:205   */\n    tag_49:\n        /* \"#utility.yul\":197:198   */\n      0x00\n        /* \"#utility.yul\":194:195   */\n      dup1\n        /* \"#utility.yul\":187:199   */\n      revert\n        /* \"#utility.yul\":334:460   */\n    tag_51:\n        /* \"#utility.yul\":371:378   */\n      0x00\n        /* \"#utility.yul\":411:453   */\n      0xffffffffffffffffffffffffffffffffffffffff\n        /* \"#utility.yul\":404:409   */\n      dup3\n        /* \"#utility.yul\":400:454   */\n      and\n        /* \"#utility.yul\":389:454   */\n      swap1\n      pop\n        /* \"#utility.yul\":334:460   */\n      swap2\n      swap1\n      pop\n      jump\t// out\n        /* \"#utility.yul\":466:562   */\n    tag_52:\n        /* \"#utility.yul\":503:510   */\n      0x00\n        /* \"#utility.yul\":532:556   */\n      tag_71\n        /* \"#utility.yul\":550:555   */\n      dup3\n        /* \"#utility.yul\":532:556   */\n      tag_51\n      jump\t// in\n    tag_71:\n        /* \"#utility.yul\":521:556   */\n      swap1\n      pop\n        /* \"#utility.yul\":466:562   */\n      swap2\n      swap1\n      pop\n      jump\t// out\n        /* \"#utility.yul\":568:690   */\n    tag_53:\n        /* \"#utility.yul\":641:665   */\n      tag_73\n        /* \"#utility.yul\":659:664   */\n      dup2\n        /* \"#utility.yul\":641:665   */\n      tag_52\n      jump\t// in\n    tag_73:\n        /* \"#utility.yul\":634:639   */\n      dup2\n        /* \"#utility.yul\":631:666   */\n      eq\n        /* \"#utility.yul\":621:684   */\n      tag_74\n      jumpi\n        /* \"#utility.yul\":680:681   */\n      0x00\n        /* \"#utility.yul\":677:678   */\n      dup1\n        /* \"#utility.yul\":670:682   */\n      revert\n        /* \"#utility.yul\":621:684   */\n    tag_74:\n        /* \"#utility.yul\":568:690   */\n      pop\n      jump\t// out\n        /* \"#utility.yul\":696:835   */\n    tag_54:\n        /* \"#utility.yul\":742:747   */\n      0x00\n        /* \"#utility.yul\":780:786   */\n      dup2\n        /* \"#utility.yul\":767:787   */\n      calldataload\n        /* \"#utility.yul\":758:787   */\n      swap1\n      pop\n        /* \"#utility.yul\":796:829   */\n      tag_76\n        /* \"#utility.yul\":823:828   */\n      dup2\n        /* \"#utility.yul\":796:829   */\n      tag_53\n      jump\t// in\n    tag_76:\n        /* \"#utility.yul\":696:835   */\n      swap3\n      swap2\n      pop\n      pop\n      jump\t// out\n        /* \"#utility.yul\":841:1170   */\n    tag_12:\n        /* \"#utility.yul\":900:906   */\n      0x00\n        /* \"#utility.yul\":949:951   */\n      0x20\n        /* \"#utility.yul\":937:946   */\n      dup3\n        /* \"#utility.yul\":928:935   */\n      dup5\n        /* \"#utility.yul\":924:947   */\n      sub\n        /* \"#utility.yul\":920:952   */\n      slt\n        /* \"#utility.yul\":917:1036   */\n      iszero\n      tag_78\n      jumpi\n        /* \"#utility.yul\":955:1034   */\n      tag_79\n      tag_49\n      jump\t// in\n    tag_79:\n        /* \"#utility.yul\":917:1036   */\n    tag_78:\n        /* \"#utility.yul\":1075:1076   */\n      0x00\n        /* \"#utility.yul\":1100:1153   */\n      tag_80\n        /* \"#utility.yul\":1145:1152   */\n      dup5\n        /* \"#utility.yul\":1136:1142   */\n      dup3\n        /* \"#utility.yul\":1125:1134   */\n      dup6\n        /* \"#utility.yul\":1121:1143   */\n      add\n        /* \"#utility.yul\":1100:1153   */\n      tag_54\n      jump\t// in\n    tag_80:\n        /* \"#utility.yul\":1090:1153   */\n      swap2\n      pop\n        /* \"#utility.yul\":1046:1163   */\n      pop\n        /* \"#utility.yul\":841:1170   */\n      swap3\n      swap2\n      pop\n      pop\n      jump\t// out\n        /* \"#utility.yul\":1176:1253   */\n    tag_55:\n        /* \"#utility.yul\":1213:1220   */\n      0x00\n        /* \"#utility.yul\":1242:1247   */\n      dup2\n        /* \"#utility.yul\":1231:1247   */\n      swap1\n      pop\n        /* \"#utility.yul\":1176:1253   */\n      swap2\n      swap1\n      pop\n      jump\t// out\n        /* \"#utility.yul\":1259:1377   */\n    tag_56:\n        /* \"#utility.yul\":1346:1370   */\n      tag_83\n        /* \"#utility.yul\":1364:1369   */\n      dup2\n        /* \"#utility.yul\":1346:1370   */\n      tag_55\n      jump\t// in\n    tag_83:\n        /* \"#utility.yul\":1341:1344   */\n      dup3\n        /* \"#utility.yul\":1334:1371   */\n      mstore\n        /* \"#utility.yul\":1259:1377   */\n      pop\n      pop\n      jump\t// out\n        /* \"#utility.yul\":1383:1825   */\n    tag_15:\n        /* \"#utility.yul\":1532:1536   */\n      0x00\n        /* \"#utility.yul\":1570:1572   */\n      0x60\n        /* \"#utility.yul\":1559:1568   */\n      dup3\n        /* \"#utility.yul\":1555:1573   */\n      add\n        /* \"#utility.yul\":1547:1573   */\n      swap1\n      pop\n        /* \"#utility.yul\":1583:1654   */\n      tag_85\n        /* \"#utility.yul\":1651:1652   */\n      0x00\n        /* \"#utility.yul\":1640:1649   */\n      dup4\n        /* \"#utility.yul\":1636:1653   */\n      add\n        /* \"#utility.yul\":1627:1633   */\n      dup7\n        /* \"#utility.yul\":1583:1654   */\n      tag_56\n      jump\t// in\n    tag_85:\n        /* \"#utility.yul\":1664:1736   */\n      tag_86\n        /* \"#utility.yul\":1732:1734   */\n      0x20\n        /* \"#utility.yul\":1721:1730   */\n      dup4\n        /* \"#utility.yul\":1717:1735   */\n      add\n        /* \"#utility.yul\":1708:1714   */\n      dup6\n        /* \"#utility.yul\":1664:1736   */\n      tag_56\n      jump\t// in\n    tag_86:\n        /* \"#utility.yul\":1746:1818   */\n      tag_87\n        /* \"#utility.yul\":1814:1816   */\n      0x40\n        /* \"#utility.yul\":1803:1812   */\n      dup4\n        /* \"#utility.yul\":1799:1817   */\n      add\n        /* \"#utility.yul\":1790:1796   */\n      dup5\n        /* \"#utility.yul\":1746:1818   */\n      tag_56\n      jump\t// in\n    tag_87:\n        /* \"#utility.yul\":1383:1825   */\n      swap5\n      swap4\n      pop\n      pop\n      pop\n      pop\n      jump\t// out\n        /* \"#utility.yul\":1831:2053   */\n    tag_20:\n        /* \"#utility.yul\":1924:1928   */\n      0x00\n        /* \"#utility.yul\":1962:1964   */\n      0x20\n        /* \"#utility.yul\":1951:1960   */\n      dup3\n        /* \"#utility.yul\":1947:1965   */\n      add\n        /* \"#utility.yul\":1939:1965   */\n      swap1\n      pop\n        /* \"#utility.yul\":1975:2046   */\n      tag_89\n        /* \"#utility.yul\":2043:2044   */\n      0x00\n        /* \"#utility.yul\":2032:2041   */\n      dup4\n        /* \"#utility.yul\":2028:2045   */\n      add\n        /* \"#utility.yul\":2019:2025   */\n      dup5\n        /* \"#utility.yul\":1975:2046   */\n      tag_56\n      jump\t// in\n    tag_89:\n        /* \"#utility.yul\":1831:2053   */\n      swap3\n      swap2\n      pop\n      pop\n      jump\t// out\n        /* \"#utility.yul\":2059:2181   */\n    tag_57:\n        /* \"#utility.yul\":2132:2156   */\n      tag_91\n        /* \"#utility.yul\":2150:2155   */\n      dup2\n        /* \"#utility.yul\":2132:2156   */\n      tag_55\n      jump\t// in\n    tag_91:\n        /* \"#utility.yul\":2125:2130   */\n      dup2\n        /* \"#utility.yul\":2122:2157   */\n      eq\n        /* \"#utility.yul\":2112:2175   */\n      tag_92\n      jumpi\n        /* \"#utility.yul\":2171:2172   */\n      0x00\n        /* \"#utility.yul\":2168:2169   */\n      dup1\n        /* \"#utility.yul\":2161:2173   */\n      revert\n        /* \"#utility.yul\":2112:2175   */\n    tag_92:\n        /* \"#utility.yul\":2059:2181   */\n      pop\n      jump\t// out\n        /* \"#utility.yul\":2187:2326   */\n    tag_58:\n        /* \"#utility.yul\":2233:2238   */\n      0x00\n        /* \"#utility.yul\":2271:2277   */\n      dup2\n        /* \"#utility.yul\":2258:2278   */\n      calldataload\n        /* \"#utility.yul\":2249:2278   */\n      swap1\n      pop\n        /* \"#utility.yul\":2287:2320   */\n      tag_94\n        /* \"#utility.yul\":2314:2319   */\n      dup2\n        /* \"#utility.yul\":2287:2320   */\n      tag_57\n      jump\t// in\n    tag_94:\n        /* \"#utility.yul\":2187:2326   */\n      swap3\n      swap2\n      pop\n      pop\n      jump\t// out\n        /* \"#utility.yul\":2332:2806   */\n    tag_24:\n        /* \"#utility.yul\":2400:2406   */\n      0x00\n        /* \"#utility.yul\":2408:2414   */\n      dup1\n        /* \"#utility.yul\":2457:2459   */\n      0x40\n        /* \"#utility.yul\":2445:2454   */\n      dup4\n        /* \"#utility.yul\":2436:2443   */\n      dup6\n        /* \"#utility.yul\":2432:2455   */\n      sub\n        /* \"#utility.yul\":2428:2460   */\n      slt\n        /* \"#utility.yul\":2425:2544   */\n      iszero\n      tag_96\n      jumpi\n        /* \"#utility.yul\":2463:2542   */\n      tag_97\n      tag_49\n      jump\t// in\n    tag_97:\n        /* \"#utility.yul\":2425:2544   */\n    tag_96:\n        /* \"#utility.yul\":2583:2584   */\n      0x00\n        /* \"#utility.yul\":2608:2661   */\n      tag_98\n        /* \"#utility.yul\":2653:2660   */\n      dup6\n        /* \"#utility.yul\":2644:2650   */\n      dup3\n        /* \"#utility.yul\":2633:2642   */\n      dup7\n        /* \"#utility.yul\":2629:2651   */\n      add\n        /* \"#utility.yul\":2608:2661   */\n      tag_54\n      jump\t// in\n    tag_98:\n        /* \"#utility.yul\":2598:2661   */\n      swap3\n      pop\n        /* \"#utility.yul\":2554:2671   */\n      pop\n        /* \"#utility.yul\":2710:2712   */\n      0x20\n        /* \"#utility.yul\":2736:2789   */\n      tag_99\n        /* \"#utility.yul\":2781:2788   */\n      dup6\n        /* \"#utility.yul\":2772:2778   */\n      dup3\n        /* \"#utility.yul\":2761:2770   */\n      dup7\n        /* \"#utility.yul\":2757:2779   */\n      add\n        /* \"#utility.yul\":2736:2789   */\n      tag_58\n      jump\t// in\n    tag_99:\n        /* \"#utility.yul\":2726:2789   */\n      swap2\n      pop\n        /* \"#utility.yul\":2681:2799   */\n      pop\n        /* \"#utility.yul\":2332:2806   */\n      swap3\n      pop\n      swap3\n      swap1\n      pop\n      jump\t// out\n        /* \"#utility.yul\":2812:2920   */\n    tag_59:\n        /* \"#utility.yul\":2889:2913   */\n      tag_101\n        /* \"#utility.yul\":2907:2912   */\n      dup2\n        /* \"#utility.yul\":2889:2913   */\n      tag_55\n      jump\t// in\n    tag_101:\n        /* \"#utility.yul\":2884:2887   */\n      dup3\n        /* \"#utility.yul\":2877:2914   */\n      mstore\n        /* \"#utility.yul\":2812:2920   */\n      pop\n      pop\n      jump\t// out\n        /* \"#utility.yul\":3016:3532   */\n    tag_60:\n        /* \"#utility.yul\":3165:3169   */\n      0x40\n        /* \"#utility.yul\":3160:3163   */\n      dup3\n        /* \"#utility.yul\":3156:3170   */\n      add\n        /* \"#utility.yul\":3254:3258   */\n      0x00\n        /* \"#utility.yul\":3247:3252   */\n      dup3\n        /* \"#utility.yul\":3243:3259   */\n      add\n        /* \"#utility.yul\":3237:3260   */\n      mload\n        /* \"#utility.yul\":3273:3336   */\n      tag_103\n        /* \"#utility.yul\":3330:3334   */\n      0x00\n        /* \"#utility.yul\":3325:3328   */\n      dup6\n        /* \"#utility.yul\":3321:3335   */\n      add\n        /* \"#utility.yul\":3307:3319   */\n      dup3\n        /* \"#utility.yul\":3273:3336   */\n      tag_59\n      jump\t// in\n    tag_103:\n        /* \"#utility.yul\":3180:3346   */\n      pop\n        /* \"#utility.yul\":3433:3437   */\n      0x20\n        /* \"#utility.yul\":3426:3431   */\n      dup3\n        /* \"#utility.yul\":3422:3438   */\n      add\n        /* \"#utility.yul\":3416:3439   */\n      mload\n        /* \"#utility.yul\":3452:3515   */\n      tag_104\n        /* \"#utility.yul\":3509:3513   */\n      0x20\n        /* \"#utility.yul\":3504:3507   */\n      dup6\n        /* \"#utility.yul\":3500:3514   */\n      add\n        /* \"#utility.yul\":3486:3498   */\n      dup3\n        /* \"#utility.yul\":3452:3515   */\n      tag_59\n      jump\t// in\n    tag_104:\n        /* \"#utility.yul\":3356:3525   */\n      pop\n        /* \"#utility.yul\":3134:3532   */\n      pop\n        /* \"#utility.yul\":3016:3532   */\n      pop\n      pop\n      jump\t// out\n        /* \"#utility.yul\":3538:3864   */\n    tag_27:\n        /* \"#utility.yul\":3683:3687   */\n      0x00\n        /* \"#utility.yul\":3721:3723   */\n      0x40\n        /* \"#utility.yul\":3710:3719   */\n      dup3\n        /* \"#utility.yul\":3706:3724   */\n      add\n        /* \"#utility.yul\":3698:3724   */\n      swap1\n      pop\n        /* \"#utility.yul\":3734:3857   */\n      tag_106\n        /* \"#utility.yul\":3854:3855   */\n      0x00\n        /* \"#utility.yul\":3843:3852   */\n      dup4\n        /* \"#utility.yul\":3839:3856   */\n      add\n        /* \"#utility.yul\":3830:3836   */\n      dup5\n        /* \"#utility.yul\":3734:3857   */\n      tag_60\n      jump\t// in\n    tag_106:\n        /* \"#utility.yul\":3538:3864   */\n      swap3\n      swap2\n      pop\n      pop\n      jump\t// out\n        /* \"#utility.yul\":3870:3974   */\n    tag_61:\n        /* \"#utility.yul\":3915:3922   */\n      0x00\n        /* \"#utility.yul\":3944:3968   */\n      tag_108\n        /* \"#utility.yul\":3962:3967   */\n      dup3\n        /* \"#utility.yul\":3944:3968   */\n      tag_51\n      jump\t// in\n    tag_108:\n        /* \"#utility.yul\":3933:3968   */\n      swap1\n      pop\n        /* \"#utility.yul\":3870:3974   */\n      swap2\n      swap1\n      pop\n      jump\t// out\n        /* \"#utility.yul\":3980:4118   */\n    tag_62:\n        /* \"#utility.yul\":4061:4093   */\n      tag_110\n        /* \"#utility.yul\":4087:4092   */\n      dup2\n        /* \"#utility.yul\":4061:4093   */\n      tag_61\n      jump\t// in\n    tag_110:\n        /* \"#utility.yul\":4054:4059   */\n      dup2\n        /* \"#utility.yul\":4051:4094   */\n      eq\n        /* \"#utility.yul\":4041:4112   */\n      tag_111\n      jumpi\n        /* \"#utility.yul\":4108:4109   */\n      0x00\n        /* \"#utility.yul\":4105:4106   */\n      dup1\n        /* \"#utility.yul\":4098:4110   */\n      revert\n        /* \"#utility.yul\":4041:4112   */\n    tag_111:\n        /* \"#utility.yul\":3980:4118   */\n      pop\n      jump\t// out\n        /* \"#utility.yul\":4124:4279   */\n    tag_63:\n        /* \"#utility.yul\":4178:4183   */\n      0x00\n        /* \"#utility.yul\":4216:4222   */\n      dup2\n        /* \"#utility.yul\":4203:4223   */\n      calldataload\n        /* \"#utility.yul\":4194:4223   */\n      swap1\n      pop\n        /* \"#utility.yul\":4232:4273   */\n      tag_113\n        /* \"#utility.yul\":4267:4272   */\n      dup2\n        /* \"#utility.yul\":4232:4273   */\n      tag_62\n      jump\t// in\n    tag_113:\n        /* \"#utility.yul\":4124:4279   */\n      swap3\n      swap2\n      pop\n      pop\n      jump\t// out\n        /* \"#utility.yul\":4285:4775   */\n    tag_31:\n        /* \"#utility.yul\":4361:4367   */\n      0x00\n        /* \"#utility.yul\":4369:4375   */\n      dup1\n        /* \"#utility.yul\":4418:4420   */\n      0x40\n        /* \"#utility.yul\":4406:4415   */\n      dup4\n        /* \"#utility.yul\":4397:4404   */\n      dup6\n        /* \"#utility.yul\":4393:4416   */\n      sub\n        /* \"#utility.yul\":4389:4421   */\n      slt\n        /* \"#utility.yul\":4386:4505   */\n      iszero\n      tag_115\n      jumpi\n        /* \"#utility.yul\":4424:4503   */\n      tag_116\n      tag_49\n      jump\t// in\n    tag_116:\n        /* \"#utility.yul\":4386:4505   */\n    tag_115:\n        /* \"#utility.yul\":4544:4545   */\n      0x00\n        /* \"#utility.yul\":4569:4622   */\n      tag_117\n        /* \"#utility.yul\":4614:4621   */\n      dup6\n        /* \"#utility.yul\":4605:4611   */\n      dup3\n        /* \"#utility.yul\":4594:4603   */\n      dup7\n        /* \"#utility.yul\":4590:4612   */\n      add\n        /* \"#utility.yul\":4569:4622   */\n      tag_58\n      jump\t// in\n    tag_117:\n        /* \"#utility.yul\":4559:4622   */\n      swap3\n      pop\n        /* \"#utility.yul\":4515:4632   */\n      pop\n        /* \"#utility.yul\":4671:4673   */\n      0x20\n        /* \"#utility.yul\":4697:4758   */\n      tag_118\n        /* \"#utility.yul\":4750:4757   */\n      dup6\n        /* \"#utility.yul\":4741:4747   */\n      dup3\n        /* \"#utility.yul\":4730:4739   */\n      dup7\n        /* \"#utility.yul\":4726:4748   */\n      add\n        /* \"#utility.yul\":4697:4758   */\n      tag_63\n      jump\t// in\n    tag_118:\n        /* \"#utility.yul\":4687:4758   */\n      swap2\n      pop\n        /* \"#utility.yul\":4642:4768   */\n      pop\n        /* \"#utility.yul\":4285:4775   */\n      swap3\n      pop\n      swap3\n      swap1\n      pop\n      jump\t// out\n        /* \"#utility.yul\":4781:4961   */\n    tag_64:\n        /* \"#utility.yul\":4829:4906   */\n      0x4e487b7100000000000000000000000000000000000000000000000000000000\n        /* \"#utility.yul\":4826:4827   */\n      0x00\n        /* \"#utility.yul\":4819:4907   */\n      mstore\n        /* \"#utility.yul\":4926:4930   */\n      0x11\n        /* \"#utility.yul\":4923:4924   */\n      0x04\n        /* \"#utility.yul\":4916:4931   */\n      mstore\n        /* \"#utility.yul\":4950:4954   */\n      0x24\n        /* \"#utility.yul\":4947:4948   */\n      0x00\n        /* \"#utility.yul\":4940:4955   */\n      revert\n        /* \"#utility.yul\":4967:5272   */\n    tag_35:\n        /* \"#utility.yul\":5007:5010   */\n      0x00\n        /* \"#utility.yul\":5026:5046   */\n      tag_121\n        /* \"#utility.yul\":5044:5045   */\n      dup3\n        /* \"#utility.yul\":5026:5046   */\n      tag_55\n      jump\t// in\n    tag_121:\n        /* \"#utility.yul\":5021:5046   */\n      swap2\n      pop\n        /* \"#utility.yul\":5060:5080   */\n      tag_122\n        /* \"#utility.yul\":5078:5079   */\n      dup4\n        /* \"#utility.yul\":5060:5080   */\n      tag_55\n      jump\t// in\n    tag_122:\n        /* \"#utility.yul\":5055:5080   */\n      swap3\n      pop\n        /* \"#utility.yul\":5214:5215   */\n      dup3\n        /* \"#utility.yul\":5146:5212   */\n      0xffffffffffffffffffffffffffffffffffffffffffffffffffffffffffffffff\n        /* \"#utility.yul\":5142:5216   */\n      sub\n        /* \"#utility.yul\":5139:5140   */\n      dup3\n        /* \"#utility.yul\":5136:5217   */\n      gt\n        /* \"#utility.yul\":5133:5240   */\n      iszero\n      tag_123\n      jumpi\n        /* \"#utility.yul\":5220:5238   */\n      tag_124\n      tag_64\n      jump\t// in\n    tag_124:\n        /* \"#utility.yul\":5133:5240   */\n    tag_123:\n        /* \"#utility.yul\":5264:5265   */\n      dup3\n        /* \"#utility.yul\":5261:5262   */\n      dup3\n        /* \"#utility.yul\":5257:5266   */\n      add\n        /* \"#utility.yul\":5250:5266   */\n      swap1\n      pop\n        /* \"#utility.yul\":4967:5272   */\n      swap3\n      swap2\n      pop\n      pop\n      jump\t// out\n        /* \"#utility.yul\":5278:5511   */\n    tag_37:\n        /* \"#utility.yul\":5317:5320   */\n      0x00\n        /* \"#utility.yul\":5340:5364   */\n      tag_126\n        /* \"#utility.yul\":5358:5363   */\n      dup3\n        /* \"#utility.yul\":5340:5364   */\n      tag_55\n      jump\t// in\n    tag_126:\n        /* \"#utility.yul\":5331:5364   */\n      swap2\n      pop\n        /* \"#utility.yul\":5386:5452   */\n      0xffffffffffffffffffffffffffffffffffffffffffffffffffffffffffffffff\n        /* \"#utility.yul\":5379:5384   */\n      dup3\n        /* \"#utility.yul\":5376:5453   */\n      sub\n        /* \"#utility.yul\":5373:5476   */\n      tag_127\n      jumpi\n        /* \"#utility.yul\":5456:5474   */\n      tag_128\n      tag_64\n      jump\t// in\n    tag_128:\n        /* \"#utility.yul\":5373:5476   */\n    tag_127:\n        /* \"#utility.yul\":5503:5504   */\n      0x01\n        /* \"#utility.yul\":5496:5501   */\n      dup3\n        /* \"#utility.yul\":5492:5505   */\n      add\n        /* \"#utility.yul\":5485:5505   */\n      swap1\n      pop\n        /* \"#utility.yul\":5278:5511   */\n      swap2\n      swap1\n      pop\n      jump\t// out\n        /* \"#utility.yul\":5517:5708   */\n    tag_44:\n        /* \"#utility.yul\":5557:5561   */\n      0x00\n        /* \"#utility.yul\":5577:5597   */\n      tag_130\n        /* \"#utility.yul\":5595:5596   */\n      dup3\n        /* \"#utility.yul\":5577:5597   */\n      tag_55\n      jump\t// in\n    tag_130:\n        /* \"#utility.yul\":5572:5597   */\n      swap2\n      pop\n        /* \"#utility.yul\":5611:5631   */\n      tag_131\n        /* \"#utility.yul\":5629:5630   */\n      dup4\n        /* \"#utility.yul\":5611:5631   */\n      tag_55\n      jump\t// in\n    tag_131:\n        /* \"#utility.yul\":5606:5631   */\n      swap3\n      pop\n        /* \"#utility.yul\":5650:5651   */\n      dup3\n        /* \"#utility.yul\":5647:5648   */\n      dup3\n        /* \"#utility.yul\":5644:5652   */\n      lt\n        /* \"#utility.yul\":5641:5675   */\n      iszero\n      tag_132\n      jumpi\n        /* \"#utility.yul\":5655:5673   */\n      tag_133\n      tag_64\n      jump\t// in\n    tag_133:\n        /* \"#utility.yul\":5641:5675   */\n    tag_132:\n        /* \"#utility.yul\":5700:5701   */\n      dup3\n        /* \"#utility.yul\":5697:5698   */\n      dup3\n        /* \"#utility.yul\":5693:5702   */\n      sub\n        /* \"#utility.yul\":5685:5702   */\n      swap1\n      pop\n        /* \"#utility.yul\":5517:5708   */\n      swap3\n      swap2\n      pop\n      pop\n      jump\t// out\n\n    auxdata: 0xa2646970667358221220367a48ce27303a848808045f30151593ea2df4d2c3c8006c37f228b9db97516464736f6c634300080f0033\n}\n",
				"bytecode": {
					"linkReferences": {},
					"object": "608060405234801561001057600080fd5b506108e1806100206000396000f3fe60806040526004361061004a5760003560e01c806316c05aa21461004f57806327e235e3146100595780634c73890914610098578063a79a48c2146100c3578063b3d0567814610100575b600080fd5b610057610129565b005b34801561006557600080fd5b50610080600480360381019061007b91906105cf565b61029f565b60405161008f93929190610615565b60405180910390f35b3480156100a457600080fd5b506100ad6102c9565b6040516100ba919061064c565b60405180910390f35b3480156100cf57600080fd5b506100ea60048036038101906100e59190610693565b610312565b6040516100f79190610711565b60405180910390f35b34801561010c57600080fd5b506101276004803603810190610122919061076a565b610393565b005b346000803373ffffffffffffffffffffffffffffffffffffffff1673ffffffffffffffffffffffffffffffffffffffff168152602001908152602001600020600001600082825461017a91906107d9565b9250508190555060006040518060400160405280348152602001428152509050806000803373ffffffffffffffffffffffffffffffffffffffff1673ffffffffffffffffffffffffffffffffffffffff16815260200190815260200160002060030160008060003373ffffffffffffffffffffffffffffffffffffffff1673ffffffffffffffffffffffffffffffffffffffff16815260200190815260200160002060010154815260200190815260200160002060008201518160000155602082015181600101559050506000803373ffffffffffffffffffffffffffffffffffffffff1673ffffffffffffffffffffffffffffffffffffffff16815260200190815260200160002060010160008154809291906102979061082f565b919050555050565b60006020528060005260406000206000915090508060000154908060010154908060020154905083565b60008060003373ffffffffffffffffffffffffffffffffffffffff1673ffffffffffffffffffffffffffffffffffffffff16815260200190815260200160002060000154905090565b61031a610552565b6000808473ffffffffffffffffffffffffffffffffffffffff1673ffffffffffffffffffffffffffffffffffffffff168152602001908152602001600020600301600083815260200190815260200160002060405180604001604052908160008201548152602001600182015481525050905092915050565b816000803373ffffffffffffffffffffffffffffffffffffffff1673ffffffffffffffffffffffffffffffffffffffff16815260200190815260200160002060000160008282546103e49190610877565b9250508190555060006040518060400160405280848152602001428152509050806000803373ffffffffffffffffffffffffffffffffffffffff1673ffffffffffffffffffffffffffffffffffffffff16815260200190815260200160002060040160008060003373ffffffffffffffffffffffffffffffffffffffff1673ffffffffffffffffffffffffffffffffffffffff16815260200190815260200160002060020154815260200190815260200160002060008201518160000155602082015181600101559050506000803373ffffffffffffffffffffffffffffffffffffffff1673ffffffffffffffffffffffffffffffffffffffff16815260200190815260200160002060020160008154809291906105019061082f565b91905055508173ffffffffffffffffffffffffffffffffffffffff166108fc849081150290604051600060405180830381858888f1935050505015801561054c573d6000803e3d6000fd5b50505050565b604051806040016040528060008152602001600081525090565b600080fd5b600073ffffffffffffffffffffffffffffffffffffffff82169050919050565b600061059c82610571565b9050919050565b6105ac81610591565b81146105b757600080fd5b50565b6000813590506105c9816105a3565b92915050565b6000602082840312156105e5576105e461056c565b5b60006105f3848285016105ba565b91505092915050565b6000819050919050565b61060f816105fc565b82525050565b600060608201905061062a6000830186610606565b6106376020830185610606565b6106446040830184610606565b949350505050565b60006020820190506106616000830184610606565b92915050565b610670816105fc565b811461067b57600080fd5b50565b60008135905061068d81610667565b92915050565b600080604083850312156106aa576106a961056c565b5b60006106b8858286016105ba565b92505060206106c98582860161067e565b9150509250929050565b6106dc816105fc565b82525050565b6040820160008201516106f860008501826106d3565b50602082015161070b60208501826106d3565b50505050565b600060408201905061072660008301846106e2565b92915050565b600061073782610571565b9050919050565b6107478161072c565b811461075257600080fd5b50565b6000813590506107648161073e565b92915050565b600080604083850312156107815761078061056c565b5b600061078f8582860161067e565b92505060206107a085828601610755565b9150509250929050565b7f4e487b7100000000000000000000000000000000000000000000000000000000600052601160045260246000fd5b60006107e4826105fc565b91506107ef836105fc565b9250827fffffffffffffffffffffffffffffffffffffffffffffffffffffffffffffffff03821115610824576108236107aa565b5b828201905092915050565b600061083a826105fc565b91507fffffffffffffffffffffffffffffffffffffffffffffffffffffffffffffffff820361086c5761086b6107aa565b5b600182019050919050565b6000610882826105fc565b915061088d836105fc565b9250828210156108a05761089f6107aa565b5b82820390509291505056fea2646970667358221220367a48ce27303a848808045f30151593ea2df4d2c3c8006c37f228b9db97516464736f6c634300080f0033",
					"opcodes": "PUSH1 0x80 PUSH1 0x40 MSTORE CALLVALUE DUP1 ISZERO PUSH2 0x10 JUMPI PUSH1 0x0 DUP1 REVERT JUMPDEST POP PUSH2 0x8E1 DUP1 PUSH2 0x20 PUSH1 0x0 CODECOPY PUSH1 0x0 RETURN INVALID PUSH1 0x80 PUSH1 0x40 MSTORE PUSH1 0x4 CALLDATASIZE LT PUSH2 0x4A JUMPI PUSH1 0x0 CALLDATALOAD PUSH1 0xE0 SHR DUP1 PUSH4 0x16C05AA2 EQ PUSH2 0x4F JUMPI DUP1 PUSH4 0x27E235E3 EQ PUSH2 0x59 JUMPI DUP1 PUSH4 0x4C738909 EQ PUSH2 0x98 JUMPI DUP1 PUSH4 0xA79A48C2 EQ PUSH2 0xC3 JUMPI DUP1 PUSH4 0xB3D05678 EQ PUSH2 0x100 JUMPI JUMPDEST PUSH1 0x0 DUP1 REVERT JUMPDEST PUSH2 0x57 PUSH2 0x129 JUMP JUMPDEST STOP JUMPDEST CALLVALUE DUP1 ISZERO PUSH2 0x65 JUMPI PUSH1 0x0 DUP1 REVERT JUMPDEST POP PUSH2 0x80 PUSH1 0x4 DUP1 CALLDATASIZE SUB DUP2 ADD SWAP1 PUSH2 0x7B SWAP2 SWAP1 PUSH2 0x5CF JUMP JUMPDEST PUSH2 0x29F JUMP JUMPDEST PUSH1 0x40 MLOAD PUSH2 0x8F SWAP4 SWAP3 SWAP2 SWAP1 PUSH2 0x615 JUMP JUMPDEST PUSH1 0x40 MLOAD DUP1 SWAP2 SUB SWAP1 RETURN JUMPDEST CALLVALUE DUP1 ISZERO PUSH2 0xA4 JUMPI PUSH1 0x0 DUP1 REVERT JUMPDEST POP PUSH2 0xAD PUSH2 0x2C9 JUMP JUMPDEST PUSH1 0x40 MLOAD PUSH2 0xBA SWAP2 SWAP1 PUSH2 0x64C JUMP JUMPDEST PUSH1 0x40 MLOAD DUP1 SWAP2 SUB SWAP1 RETURN JUMPDEST CALLVALUE DUP1 ISZERO PUSH2 0xCF JUMPI PUSH1 0x0 DUP1 REVERT JUMPDEST POP PUSH2 0xEA PUSH1 0x4 DUP1 CALLDATASIZE SUB DUP2 ADD SWAP1 PUSH2 0xE5 SWAP2 SWAP1 PUSH2 0x693 JUMP JUMPDEST PUSH2 0x312 JUMP JUMPDEST PUSH1 0x40 MLOAD PUSH2 0xF7 SWAP2 SWAP1 PUSH2 0x711 JUMP JUMPDEST PUSH1 0x40 MLOAD DUP1 SWAP2 SUB SWAP1 RETURN JUMPDEST CALLVALUE DUP1 ISZERO PUSH2 0x10C JUMPI PUSH1 0x0 DUP1 REVERT JUMPDEST POP PUSH2 0x127 PUSH1 0x4 DUP1 CALLDATASIZE SUB DUP2 ADD SWAP1 PUSH2 0x122 SWAP2 SWAP1 PUSH2 0x76A JUMP JUMPDEST PUSH2 0x393 JUMP JUMPDEST STOP JUMPDEST CALLVALUE PUSH1 0x0 DUP1 CALLER PUSH20 0xFFFFFFFFFFFFFFFFFFFFFFFFFFFFFFFFFFFFFFFF AND PUSH20 0xFFFFFFFFFFFFFFFFFFFFFFFFFFFFFFFFFFFFFFFF AND DUP2 MSTORE PUSH1 0x20 ADD SWAP1 DUP2 MSTORE PUSH1 0x20 ADD PUSH1 0x0 KECCAK256 PUSH1 0x0 ADD PUSH1 0x0 DUP3 DUP3 SLOAD PUSH2 0x17A SWAP2 SWAP1 PUSH2 0x7D9 JUMP JUMPDEST SWAP3 POP POP DUP2 SWAP1 SSTORE POP PUSH1 0x0 PUSH1 0x40 MLOAD DUP1 PUSH1 0x40 ADD PUSH1 0x40 MSTORE DUP1 CALLVALUE DUP2 MSTORE PUSH1 0x20 ADD TIMESTAMP DUP2 MSTORE POP SWAP1 POP DUP1 PUSH1 0x0 DUP1 CALLER PUSH20 0xFFFFFFFFFFFFFFFFFFFFFFFFFFFFFFFFFFFFFFFF AND PUSH20 0xFFFFFFFFFFFFFFFFFFFFFFFFFFFFFFFFFFFFFFFF AND DUP2 MSTORE PUSH1 0x20 ADD SWAP1 DUP2 MSTORE PUSH1 0x20 ADD PUSH1 0x0 KECCAK256 PUSH1 0x3 ADD PUSH1 0x0 DUP1 PUSH1 0x0 CALLER PUSH20 0xFFFFFFFFFFFFFFFFFFFFFFFFFFFFFFFFFFFFFFFF AND PUSH20 0xFFFFFFFFFFFFFFFFFFFFFFFFFFFFFFFFFFFFFFFF AND DUP2 MSTORE PUSH1 0x20 ADD SWAP1 DUP2 MSTORE PUSH1 0x20 ADD PUSH1 0x0 KECCAK256 PUSH1 0x1 ADD SLOAD DUP2 MSTORE PUSH1 0x20 ADD SWAP1 DUP2 MSTORE PUSH1 0x20 ADD PUSH1 0x0 KECCAK256 PUSH1 0x0 DUP3 ADD MLOAD DUP2 PUSH1 0x0 ADD SSTORE PUSH1 0x20 DUP3 ADD MLOAD DUP2 PUSH1 0x1 ADD SSTORE SWAP1 POP POP PUSH1 0x0 DUP1 CALLER PUSH20 0xFFFFFFFFFFFFFFFFFFFFFFFFFFFFFFFFFFFFFFFF AND PUSH20 0xFFFFFFFFFFFFFFFFFFFFFFFFFFFFFFFFFFFFFFFF AND DUP2 MSTORE PUSH1 0x20 ADD SWAP1 DUP2 MSTORE PUSH1 0x20 ADD PUSH1 0x0 KECCAK256 PUSH1 0x1 ADD PUSH1 0x0 DUP2 SLOAD DUP1 SWAP3 SWAP2 SWAP1 PUSH2 0x297 SWAP1 PUSH2 0x82F JUMP JUMPDEST SWAP2 SWAP1 POP SSTORE POP POP JUMP JUMPDEST PUSH1 0x0 PUSH1 0x20 MSTORE DUP1 PUSH1 0x0 MSTORE PUSH1 0x40 PUSH1 0x0 KECCAK256 PUSH1 0x0 SWAP2 POP SWAP1 POP DUP1 PUSH1 0x0 ADD SLOAD SWAP1 DUP1 PUSH1 0x1 ADD SLOAD SWAP1 DUP1 PUSH1 0x2 ADD SLOAD SWAP1 POP DUP4 JUMP JUMPDEST PUSH1 0x0 DUP1 PUSH1 0x0 CALLER PUSH20 0xFFFFFFFFFFFFFFFFFFFFFFFFFFFFFFFFFFFFFFFF AND PUSH20 0xFFFFFFFFFFFFFFFFFFFFFFFFFFFFFFFFFFFFFFFF AND DUP2 MSTORE PUSH1 0x20 ADD SWAP1 DUP2 MSTORE PUSH1 0x20 ADD PUSH1 0x0 KECCAK256 PUSH1 0x0 ADD SLOAD SWAP1 POP SWAP1 JUMP JUMPDEST PUSH2 0x31A PUSH2 0x552 JUMP JUMPDEST PUSH1 0x0 DUP1 DUP5 PUSH20 0xFFFFFFFFFFFFFFFFFFFFFFFFFFFFFFFFFFFFFFFF AND PUSH20 0xFFFFFFFFFFFFFFFFFFFFFFFFFFFFFFFFFFFFFFFF AND DUP2 MSTORE PUSH1 0x20 ADD SWAP1 DUP2 MSTORE PUSH1 0x20 ADD PUSH1 0x0 KECCAK256 PUSH1 0x3 ADD PUSH1 0x0 DUP4 DUP2 MSTORE PUSH1 0x20 ADD SWAP1 DUP2 MSTORE PUSH1 0x20 ADD PUSH1 0x0 KECCAK256 PUSH1 0x40 MLOAD DUP1 PUSH1 0x40 ADD PUSH1 0x40 MSTORE SWAP1 DUP2 PUSH1 0x0 DUP3 ADD SLOAD DUP2 MSTORE PUSH1 0x20 ADD PUSH1 0x1 DUP3 ADD SLOAD DUP2 MSTORE POP POP SWAP1 POP SWAP3 SWAP2 POP POP JUMP JUMPDEST DUP2 PUSH1 0x0 DUP1 CALLER PUSH20 0xFFFFFFFFFFFFFFFFFFFFFFFFFFFFFFFFFFFFFFFF AND PUSH20 0xFFFFFFFFFFFFFFFFFFFFFFFFFFFFFFFFFFFFFFFF AND DUP2 MSTORE PUSH1 0x20 ADD SWAP1 DUP2 MSTORE PUSH1 0x20 ADD PUSH1 0x0 KECCAK256 PUSH1 0x0 ADD PUSH1 0x0 DUP3 DUP3 SLOAD PUSH2 0x3E4 SWAP2 SWAP1 PUSH2 0x877 JUMP JUMPDEST SWAP3 POP POP DUP2 SWAP1 SSTORE POP PUSH1 0x0 PUSH1 0x40 MLOAD DUP1 PUSH1 0x40 ADD PUSH1 0x40 MSTORE DUP1 DUP5 DUP2 MSTORE PUSH1 0x20 ADD TIMESTAMP DUP2 MSTORE POP SWAP1 POP DUP1 PUSH1 0x0 DUP1 CALLER PUSH20 0xFFFFFFFFFFFFFFFFFFFFFFFFFFFFFFFFFFFFFFFF AND PUSH20 0xFFFFFFFFFFFFFFFFFFFFFFFFFFFFFFFFFFFFFFFF AND DUP2 MSTORE PUSH1 0x20 ADD SWAP1 DUP2 MSTORE PUSH1 0x20 ADD PUSH1 0x0 KECCAK256 PUSH1 0x4 ADD PUSH1 0x0 DUP1 PUSH1 0x0 CALLER PUSH20 0xFFFFFFFFFFFFFFFFFFFFFFFFFFFFFFFFFFFFFFFF AND PUSH20 0xFFFFFFFFFFFFFFFFFFFFFFFFFFFFFFFFFFFFFFFF AND DUP2 MSTORE PUSH1 0x20 ADD SWAP1 DUP2 MSTORE PUSH1 0x20 ADD PUSH1 0x0 KECCAK256 PUSH1 0x2 ADD SLOAD DUP2 MSTORE PUSH1 0x20 ADD SWAP1 DUP2 MSTORE PUSH1 0x20 ADD PUSH1 0x0 KECCAK256 PUSH1 0x0 DUP3 ADD MLOAD DUP2 PUSH1 0x0 ADD SSTORE PUSH1 0x20 DUP3 ADD MLOAD DUP2 PUSH1 0x1 ADD SSTORE SWAP1 POP POP PUSH1 0x0 DUP1 CALLER PUSH20 0xFFFFFFFFFFFFFFFFFFFFFFFFFFFFFFFFFFFFFFFF AND PUSH20 0xFFFFFFFFFFFFFFFFFFFFFFFFFFFFFFFFFFFFFFFF AND DUP2 MSTORE PUSH1 0x20 ADD SWAP1 DUP2 MSTORE PUSH1 0x20 ADD PUSH1 0x0 KECCAK256 PUSH1 0x2 ADD PUSH1 0x0 DUP2 SLOAD DUP1 SWAP3 SWAP2 SWAP1 PUSH2 0x501 SWAP1 PUSH2 0x82F JUMP JUMPDEST SWAP2 SWAP1 POP SSTORE POP DUP2 PUSH20 0xFFFFFFFFFFFFFFFFFFFFFFFFFFFFFFFFFFFFFFFF AND PUSH2 0x8FC DUP5 SWAP1 DUP2 ISZERO MUL SWAP1 PUSH1 0x40 MLOAD PUSH1 0x0 PUSH1 0x40 MLOAD DUP1 DUP4 SUB DUP2 DUP6 DUP9 DUP9 CALL SWAP4 POP POP POP POP ISZERO DUP1 ISZERO PUSH2 0x54C JUMPI RETURNDATASIZE PUSH1 0x0 DUP1 RETURNDATACOPY RETURNDATASIZE PUSH1 0x0 REVERT JUMPDEST POP POP POP POP JUMP JUMPDEST PUSH1 0x40 MLOAD DUP1 PUSH1 0x40 ADD PUSH1 0x40 MSTORE DUP1 PUSH1 0x0 DUP2 MSTORE PUSH1 0x20 ADD PUSH1 0x0 DUP2 MSTORE POP SWAP1 JUMP JUMPDEST PUSH1 0x0 DUP1 REVERT JUMPDEST PUSH1 0x0 PUSH20 0xFFFFFFFFFFFFFFFFFFFFFFFFFFFFFFFFFFFFFFFF DUP3 AND SWAP1 POP SWAP2 SWAP1 POP JUMP JUMPDEST PUSH1 0x0 PUSH2 0x59C DUP3 PUSH2 0x571 JUMP JUMPDEST SWAP1 POP SWAP2 SWAP1 POP JUMP JUMPDEST PUSH2 0x5AC DUP2 PUSH2 0x591 JUMP JUMPDEST DUP2 EQ PUSH2 0x5B7 JUMPI PUSH1 0x0 DUP1 REVERT JUMPDEST POP JUMP JUMPDEST PUSH1 0x0 DUP2 CALLDATALOAD SWAP1 POP PUSH2 0x5C9 DUP2 PUSH2 0x5A3 JUMP JUMPDEST SWAP3 SWAP2 POP POP JUMP JUMPDEST PUSH1 0x0 PUSH1 0x20 DUP3 DUP5 SUB SLT ISZERO PUSH2 0x5E5 JUMPI PUSH2 0x5E4 PUSH2 0x56C JUMP JUMPDEST JUMPDEST PUSH1 0x0 PUSH2 0x5F3 DUP5 DUP3 DUP6 ADD PUSH2 0x5BA JUMP JUMPDEST SWAP2 POP POP SWAP3 SWAP2 POP POP JUMP JUMPDEST PUSH1 0x0 DUP2 SWAP1 POP SWAP2 SWAP1 POP JUMP JUMPDEST PUSH2 0x60F DUP2 PUSH2 0x5FC JUMP JUMPDEST DUP3 MSTORE POP POP JUMP JUMPDEST PUSH1 0x0 PUSH1 0x60 DUP3 ADD SWAP1 POP PUSH2 0x62A PUSH1 0x0 DUP4 ADD DUP7 PUSH2 0x606 JUMP JUMPDEST PUSH2 0x637 PUSH1 0x20 DUP4 ADD DUP6 PUSH2 0x606 JUMP JUMPDEST PUSH2 0x644 PUSH1 0x40 DUP4 ADD DUP5 PUSH2 0x606 JUMP JUMPDEST SWAP5 SWAP4 POP POP POP POP JUMP JUMPDEST PUSH1 0x0 PUSH1 0x20 DUP3 ADD SWAP1 POP PUSH2 0x661 PUSH1 0x0 DUP4 ADD DUP5 PUSH2 0x606 JUMP JUMPDEST SWAP3 SWAP2 POP POP JUMP JUMPDEST PUSH2 0x670 DUP2 PUSH2 0x5FC JUMP JUMPDEST DUP2 EQ PUSH2 0x67B JUMPI PUSH1 0x0 DUP1 REVERT JUMPDEST POP JUMP JUMPDEST PUSH1 0x0 DUP2 CALLDATALOAD SWAP1 POP PUSH2 0x68D DUP2 PUSH2 0x667 JUMP JUMPDEST SWAP3 SWAP2 POP POP JUMP JUMPDEST PUSH1 0x0 DUP1 PUSH1 0x40 DUP4 DUP6 SUB SLT ISZERO PUSH2 0x6AA JUMPI PUSH2 0x6A9 PUSH2 0x56C JUMP JUMPDEST JUMPDEST PUSH1 0x0 PUSH2 0x6B8 DUP6 DUP3 DUP7 ADD PUSH2 0x5BA JUMP JUMPDEST SWAP3 POP POP PUSH1 0x20 PUSH2 0x6C9 DUP6 DUP3 DUP7 ADD PUSH2 0x67E JUMP JUMPDEST SWAP2 POP POP SWAP3 POP SWAP3 SWAP1 POP JUMP JUMPDEST PUSH2 0x6DC DUP2 PUSH2 0x5FC JUMP JUMPDEST DUP3 MSTORE POP POP JUMP JUMPDEST PUSH1 0x40 DUP3 ADD PUSH1 0x0 DUP3 ADD MLOAD PUSH2 0x6F8 PUSH1 0x0 DUP6 ADD DUP3 PUSH2 0x6D3 JUMP JUMPDEST POP PUSH1 0x20 DUP3 ADD MLOAD PUSH2 0x70B PUSH1 0x20 DUP6 ADD DUP3 PUSH2 0x6D3 JUMP JUMPDEST POP POP POP POP JUMP JUMPDEST PUSH1 0x0 PUSH1 0x40 DUP3 ADD SWAP1 POP PUSH2 0x726 PUSH1 0x0 DUP4 ADD DUP5 PUSH2 0x6E2 JUMP JUMPDEST SWAP3 SWAP2 POP POP JUMP JUMPDEST PUSH1 0x0 PUSH2 0x737 DUP3 PUSH2 0x571 JUMP JUMPDEST SWAP1 POP SWAP2 SWAP1 POP JUMP JUMPDEST PUSH2 0x747 DUP2 PUSH2 0x72C JUMP JUMPDEST DUP2 EQ PUSH2 0x752 JUMPI PUSH1 0x0 DUP1 REVERT JUMPDEST POP JUMP JUMPDEST PUSH1 0x0 DUP2 CALLDATALOAD SWAP1 POP PUSH2 0x764 DUP2 PUSH2 0x73E JUMP JUMPDEST SWAP3 SWAP2 POP POP JUMP JUMPDEST PUSH1 0x0 DUP1 PUSH1 0x40 DUP4 DUP6 SUB SLT ISZERO PUSH2 0x781 JUMPI PUSH2 0x780 PUSH2 0x56C JUMP JUMPDEST JUMPDEST PUSH1 0x0 PUSH2 0x78F DUP6 DUP3 DUP7 ADD PUSH2 0x67E JUMP JUMPDEST SWAP3 POP POP PUSH1 0x20 PUSH2 0x7A0 DUP6 DUP3 DUP7 ADD PUSH2 0x755 JUMP JUMPDEST SWAP2 POP POP SWAP3 POP SWAP3 SWAP1 POP JUMP JUMPDEST PUSH32 0x4E487B7100000000000000000000000000000000000000000000000000000000 PUSH1 0x0 MSTORE PUSH1 0x11 PUSH1 0x4 MSTORE PUSH1 0x24 PUSH1 0x0 REVERT JUMPDEST PUSH1 0x0 PUSH2 0x7E4 DUP3 PUSH2 0x5FC JUMP JUMPDEST SWAP2 POP PUSH2 0x7EF DUP4 PUSH2 0x5FC JUMP JUMPDEST SWAP3 POP DUP3 PUSH32 0xFFFFFFFFFFFFFFFFFFFFFFFFFFFFFFFFFFFFFFFFFFFFFFFFFFFFFFFFFFFFFFFF SUB DUP3 GT ISZERO PUSH2 0x824 JUMPI PUSH2 0x823 PUSH2 0x7AA JUMP JUMPDEST JUMPDEST DUP3 DUP3 ADD SWAP1 POP SWAP3 SWAP2 POP POP JUMP JUMPDEST PUSH1 0x0 PUSH2 0x83A DUP3 PUSH2 0x5FC JUMP JUMPDEST SWAP2 POP PUSH32 0xFFFFFFFFFFFFFFFFFFFFFFFFFFFFFFFFFFFFFFFFFFFFFFFFFFFFFFFFFFFFFFFF DUP3 SUB PUSH2 0x86C JUMPI PUSH2 0x86B PUSH2 0x7AA JUMP JUMPDEST JUMPDEST PUSH1 0x1 DUP3 ADD SWAP1 POP SWAP2 SWAP1 POP JUMP JUMPDEST PUSH1 0x0 PUSH2 0x882 DUP3 PUSH2 0x5FC JUMP JUMPDEST SWAP2 POP PUSH2 0x88D DUP4 PUSH2 0x5FC JUMP JUMPDEST SWAP3 POP DUP3 DUP3 LT ISZERO PUSH2 0x8A0 JUMPI PUSH2 0x89F PUSH2 0x7AA JUMP JUMPDEST JUMPDEST DUP3 DUP3 SUB SWAP1 POP SWAP3 SWAP2 POP POP JUMP INVALID LOG2 PUSH5 0x6970667358 0x22 SLT KECCAK256 CALLDATASIZE PUSH27 0x48CE27303A848808045F30151593EA2DF4D2C3C8006C37F228B9DB SWAP8 MLOAD PUSH5 0x64736F6C63 NUMBER STOP ADDMOD 0xF STOP CALLER "
				},
				"gasEstimates": {
					"creation": {
						"codeDepositCost": "454600",
						"executionCost": "493",
						"totalCost": "455093"
					},
					"external": {
						"balances(address)": "infinite",
						"depositMoney()": "infinite",
						"getMyBalance()": "2554",
						"sendTo(uint256,address)": "infinite",
						"viewDeposit(address,uint256)": "infinite"
					}
				},
				"methodIdentifiers": {
					"balances(address)": "27e235e3",
					"depositMoney()": "16c05aa2",
					"getMyBalance()": "4c738909",
					"sendTo(uint256,address)": "b3d05678",
					"viewDeposit(address,uint256)": "a79a48c2"
				}
			},
			"storageLayout": {
				"storage": [
					{
						"astId": 28,
						"contract": "solidity-learning/3_SmartWallet/ExampleStructMapping.sol:ExampleStructMapping",
						"label": "balances",
						"offset": 0,
						"slot": "0",
						"type": "t_mapping(t_address,t_struct(Balance)23_storage)"
					}
				],
				"types": {
					"t_address": {
						"encoding": "inplace",
						"label": "address",
						"numberOfBytes": "20"
					},
					"t_mapping(t_address,t_struct(Balance)23_storage)": {
						"encoding": "mapping",
						"key": "t_address",
						"label": "mapping(address => struct ExampleStructMapping.Balance)",
						"numberOfBytes": "32",
						"value": "t_struct(Balance)23_storage"
					},
					"t_mapping(t_uint256,t_struct(Transaction)6_storage)": {
						"encoding": "mapping",
						"key": "t_uint256",
						"label": "mapping(uint256 => struct ExampleStructMapping.Transaction)",
						"numberOfBytes": "32",
						"value": "t_struct(Transaction)6_storage"
					},
					"t_struct(Balance)23_storage": {
						"encoding": "inplace",
						"label": "struct ExampleStructMapping.Balance",
						"members": [
							{
								"astId": 8,
								"contract": "solidity-learning/3_SmartWallet/ExampleStructMapping.sol:ExampleStructMapping",
								"label": "totalBalance",
								"offset": 0,
								"slot": "0",
								"type": "t_uint256"
							},
							{
								"astId": 10,
								"contract": "solidity-learning/3_SmartWallet/ExampleStructMapping.sol:ExampleStructMapping",
								"label": "depositCount",
								"offset": 0,
								"slot": "1",
								"type": "t_uint256"
							},
							{
								"astId": 12,
								"contract": "solidity-learning/3_SmartWallet/ExampleStructMapping.sol:ExampleStructMapping",
								"label": "withdrawalCount",
								"offset": 0,
								"slot": "2",
								"type": "t_uint256"
							},
							{
								"astId": 17,
								"contract": "solidity-learning/3_SmartWallet/ExampleStructMapping.sol:ExampleStructMapping",
								"label": "deposits",
								"offset": 0,
								"slot": "3",
								"type": "t_mapping(t_uint256,t_struct(Transaction)6_storage)"
							},
							{
								"astId": 22,
								"contract": "solidity-learning/3_SmartWallet/ExampleStructMapping.sol:ExampleStructMapping",
								"label": "withdrawals",
								"offset": 0,
								"slot": "4",
								"type": "t_mapping(t_uint256,t_struct(Transaction)6_storage)"
							}
						],
						"numberOfBytes": "160"
					},
					"t_struct(Transaction)6_storage": {
						"encoding": "inplace",
						"label": "struct ExampleStructMapping.Transaction",
						"members": [
							{
								"astId": 3,
								"contract": "solidity-learning/3_SmartWallet/ExampleStructMapping.sol:ExampleStructMapping",
								"label": "amount",
								"offset": 0,
								"slot": "0",
								"type": "t_uint256"
							},
							{
								"astId": 5,
								"contract": "solidity-learning/3_SmartWallet/ExampleStructMapping.sol:ExampleStructMapping",
								"label": "timestamp",
								"offset": 0,
								"slot": "1",
								"type": "t_uint256"
							}
						],
						"numberOfBytes": "64"
					},
					"t_uint256": {
						"encoding": "inplace",
						"label": "uint256",
						"numberOfBytes": "32"
					}
				}
			},
			"userdoc": {
				"kind": "user",
				"methods": {},
				"version": 1
			}
		}
	}
}