{
	"solidity-learning/3_SmartWallet/TheSmartWallet2.sol": {
		"SmartWallet": {
			"abi": [
				{
					"inputs": [],
					"stateMutability": "nonpayable",
					"type": "constructor"
				},
				{
					"inputs": [
						{
							"internalType": "address",
							"name": "_guardian",
							"type": "address"
						}
					],
					"name": "addGuardian",
					"outputs": [],
					"stateMutability": "nonpayable",
					"type": "function"
				},
				{
					"inputs": [],
					"name": "currentCandidate",
					"outputs": [
						{
							"internalType": "address",
							"name": "",
							"type": "address"
						}
					],
					"stateMutability": "view",
					"type": "function"
				},
				{
					"inputs": [],
					"name": "currentVotes",
					"outputs": [
						{
							"internalType": "uint256",
							"name": "",
							"type": "uint256"
						}
					],
					"stateMutability": "view",
					"type": "function"
				},
				{
					"inputs": [
						{
							"internalType": "uint256",
							"name": "",
							"type": "uint256"
						}
					],
					"name": "guardians",
					"outputs": [
						{
							"internalType": "address",
							"name": "",
							"type": "address"
						}
					],
					"stateMutability": "view",
					"type": "function"
				},
				{
					"inputs": [
						{
							"internalType": "address",
							"name": "_myVote",
							"type": "address"
						}
					],
					"name": "markVote",
					"outputs": [],
					"stateMutability": "nonpayable",
					"type": "function"
				},
				{
					"inputs": [
						{
							"internalType": "address",
							"name": "_spender",
							"type": "address"
						},
						{
							"internalType": "uint256",
							"name": "_allowance",
							"type": "uint256"
						}
					],
					"name": "setAllowance",
					"outputs": [],
					"stateMutability": "nonpayable",
					"type": "function"
				},
				{
					"inputs": [
						{
							"internalType": "address payable",
							"name": "_to",
							"type": "address"
						},
						{
							"internalType": "uint256",
							"name": "_amount",
							"type": "uint256"
						}
					],
					"name": "transferFunds",
					"outputs": [],
					"stateMutability": "nonpayable",
					"type": "function"
				},
				{
					"inputs": [],
					"name": "viewAllowance",
					"outputs": [
						{
							"internalType": "uint256",
							"name": "",
							"type": "uint256"
						}
					],
					"stateMutability": "view",
					"type": "function"
				},
				{
					"inputs": [],
					"name": "viewOwner",
					"outputs": [
						{
							"internalType": "address",
							"name": "",
							"type": "address"
						}
					],
					"stateMutability": "view",
					"type": "function"
				},
				{
					"stateMutability": "payable",
					"type": "receive"
				}
			],
			"devdoc": {
				"kind": "dev",
				"methods": {},
				"version": 1
			},
			"evm": {
				"assembly": "    /* \"solidity-learning/3_SmartWallet/TheSmartWallet2.sol\":57:3122  contract SmartWallet {... */\n  mstore(0x40, 0x80)\n    /* \"solidity-learning/3_SmartWallet/TheSmartWallet2.sol\":460:519  constructor () {... */\n  callvalue\n  dup1\n  iszero\n  tag_1\n  jumpi\n  0x00\n  dup1\n  revert\ntag_1:\n  pop\n    /* \"solidity-learning/3_SmartWallet/TheSmartWallet2.sol\":501:511  msg.sender */\n  caller\n    /* \"solidity-learning/3_SmartWallet/TheSmartWallet2.sol\":485:490  owner */\n  0x00\n  dup1\n    /* \"solidity-learning/3_SmartWallet/TheSmartWallet2.sol\":485:512  owner = payable(msg.sender) */\n  0x0100\n  exp\n  dup2\n  sload\n  dup2\n  0xffffffffffffffffffffffffffffffffffffffff\n  mul\n  not\n  and\n  swap1\n  dup4\n  0xffffffffffffffffffffffffffffffffffffffff\n  and\n  mul\n  or\n  swap1\n  sstore\n  pop\n    /* \"solidity-learning/3_SmartWallet/TheSmartWallet2.sol\":57:3122  contract SmartWallet {... */\n  dataSize(sub_0)\n  dup1\n  dataOffset(sub_0)\n  0x00\n  codecopy\n  0x00\n  return\nstop\n\nsub_0: assembly {\n        /* \"solidity-learning/3_SmartWallet/TheSmartWallet2.sol\":57:3122  contract SmartWallet {... */\n      mstore(0x40, 0x80)\n      jumpi(tag_1, lt(calldatasize, 0x04))\n      shr(0xe0, calldataload(0x00))\n      dup1\n      0x990dc9db\n      gt\n      tag_12\n      jumpi\n      dup1\n      0x990dc9db\n      eq\n      tag_7\n      jumpi\n      dup1\n      0x994ba4d2\n      eq\n      tag_8\n      jumpi\n      dup1\n      0xa526d83b\n      eq\n      tag_9\n      jumpi\n      dup1\n      0xbc677b46\n      eq\n      tag_10\n      jumpi\n      dup1\n      0xf560c734\n      eq\n      tag_11\n      jumpi\n      jump(tag_2)\n    tag_12:\n      dup1\n      0x1a272ccf\n      eq\n      tag_3\n      jumpi\n      dup1\n      0x310ec4a7\n      eq\n      tag_4\n      jumpi\n      dup1\n      0x65a3acf0\n      eq\n      tag_5\n      jumpi\n      dup1\n      0x7e21565b\n      eq\n      tag_6\n      jumpi\n      jump(tag_2)\n    tag_1:\n      jumpi(tag_2, calldatasize)\n      stop\n    tag_2:\n      0x00\n      dup1\n      revert\n        /* \"solidity-learning/3_SmartWallet/TheSmartWallet2.sol\":354:385  address public currentCandidate */\n    tag_3:\n      callvalue\n      dup1\n      iszero\n      tag_15\n      jumpi\n      0x00\n      dup1\n      revert\n    tag_15:\n      pop\n      tag_16\n      tag_17\n      jump\t// in\n    tag_16:\n      mload(0x40)\n      tag_18\n      swap2\n      swap1\n      tag_19\n      jump\t// in\n    tag_18:\n      mload(0x40)\n      dup1\n      swap2\n      sub\n      swap1\n      return\n        /* \"solidity-learning/3_SmartWallet/TheSmartWallet2.sol\":611:797  function setAllowance(address _spender, uint _allowance) public {... */\n    tag_4:\n      callvalue\n      dup1\n      iszero\n      tag_20\n      jumpi\n      0x00\n      dup1\n      revert\n    tag_20:\n      pop\n      tag_21\n      0x04\n      dup1\n      calldatasize\n      sub\n      dup2\n      add\n      swap1\n      tag_22\n      swap2\n      swap1\n      tag_23\n      jump\t// in\n    tag_22:\n      tag_24\n      jump\t// in\n    tag_21:\n      stop\n        /* \"solidity-learning/3_SmartWallet/TheSmartWallet2.sol\":2267:2364  function viewAllowance() public view returns (uint) {... */\n    tag_5:\n      callvalue\n      dup1\n      iszero\n      tag_25\n      jumpi\n      0x00\n      dup1\n      revert\n    tag_25:\n      pop\n      tag_26\n      tag_27\n      jump\t// in\n    tag_26:\n      mload(0x40)\n      tag_28\n      swap2\n      swap1\n      tag_29\n      jump\t// in\n    tag_28:\n      mload(0x40)\n      dup1\n      swap2\n      sub\n      swap1\n      return\n        /* \"solidity-learning/3_SmartWallet/TheSmartWallet2.sol\":1253:2065  function markVote(address _myVote) public {... */\n    tag_6:\n      callvalue\n      dup1\n      iszero\n      tag_30\n      jumpi\n      0x00\n      dup1\n      revert\n    tag_30:\n      pop\n      tag_31\n      0x04\n      dup1\n      calldatasize\n      sub\n      dup2\n      add\n      swap1\n      tag_32\n      swap2\n      swap1\n      tag_33\n      jump\t// in\n    tag_32:\n      tag_34\n      jump\t// in\n    tag_31:\n      stop\n        /* \"solidity-learning/3_SmartWallet/TheSmartWallet2.sol\":2370:3084  function transferFunds(address payable _to, uint _amount) public {... */\n    tag_7:\n      callvalue\n      dup1\n      iszero\n      tag_35\n      jumpi\n      0x00\n      dup1\n      revert\n    tag_35:\n      pop\n      tag_36\n      0x04\n      dup1\n      calldatasize\n      sub\n      dup2\n      add\n      swap1\n      tag_37\n      swap2\n      swap1\n      tag_38\n      jump\t// in\n    tag_37:\n      tag_39\n      jump\t// in\n    tag_36:\n      stop\n        /* \"solidity-learning/3_SmartWallet/TheSmartWallet2.sol\":391:415  uint public currentVotes */\n    tag_8:\n      callvalue\n      dup1\n      iszero\n      tag_40\n      jumpi\n      0x00\n      dup1\n      revert\n    tag_40:\n      pop\n      tag_41\n      tag_42\n      jump\t// in\n    tag_41:\n      mload(0x40)\n      tag_43\n      swap2\n      swap1\n      tag_29\n      jump\t// in\n    tag_43:\n      mload(0x40)\n      dup1\n      swap2\n      sub\n      swap1\n      return\n        /* \"solidity-learning/3_SmartWallet/TheSmartWallet2.sol\":1033:1247  function addGuardian(address _guardian) public {... */\n    tag_9:\n      callvalue\n      dup1\n      iszero\n      tag_44\n      jumpi\n      0x00\n      dup1\n      revert\n    tag_44:\n      pop\n      tag_45\n      0x04\n      dup1\n      calldatasize\n      sub\n      dup2\n      add\n      swap1\n      tag_46\n      swap2\n      swap1\n      tag_33\n      jump\t// in\n    tag_46:\n      tag_47\n      jump\t// in\n    tag_45:\n      stop\n        /* \"solidity-learning/3_SmartWallet/TheSmartWallet2.sol\":525:605  function viewOwner() public view returns (address) {... */\n    tag_10:\n      callvalue\n      dup1\n      iszero\n      tag_48\n      jumpi\n      0x00\n      dup1\n      revert\n    tag_48:\n      pop\n      tag_49\n      tag_50\n      jump\t// in\n    tag_49:\n      mload(0x40)\n      tag_51\n      swap2\n      swap1\n      tag_19\n      jump\t// in\n    tag_51:\n      mload(0x40)\n      dup1\n      swap2\n      sub\n      swap1\n      return\n        /* \"solidity-learning/3_SmartWallet/TheSmartWallet2.sol\":152:178  address[] public guardians */\n    tag_11:\n      callvalue\n      dup1\n      iszero\n      tag_52\n      jumpi\n      0x00\n      dup1\n      revert\n    tag_52:\n      pop\n      tag_53\n      0x04\n      dup1\n      calldatasize\n      sub\n      dup2\n      add\n      swap1\n      tag_54\n      swap2\n      swap1\n      tag_55\n      jump\t// in\n    tag_54:\n      tag_56\n      jump\t// in\n    tag_53:\n      mload(0x40)\n      tag_57\n      swap2\n      swap1\n      tag_19\n      jump\t// in\n    tag_57:\n      mload(0x40)\n      dup1\n      swap2\n      sub\n      swap1\n      return\n        /* \"solidity-learning/3_SmartWallet/TheSmartWallet2.sol\":354:385  address public currentCandidate */\n    tag_17:\n      0x04\n      0x00\n      swap1\n      sload\n      swap1\n      0x0100\n      exp\n      swap1\n      div\n      0xffffffffffffffffffffffffffffffffffffffff\n      and\n      dup2\n      jump\t// out\n        /* \"solidity-learning/3_SmartWallet/TheSmartWallet2.sol\":611:797  function setAllowance(address _spender, uint _allowance) public {... */\n    tag_24:\n        /* \"solidity-learning/3_SmartWallet/TheSmartWallet2.sol\":707:712  owner */\n      0x00\n      dup1\n      sload\n      swap1\n      0x0100\n      exp\n      swap1\n      div\n      0xffffffffffffffffffffffffffffffffffffffff\n      and\n        /* \"solidity-learning/3_SmartWallet/TheSmartWallet2.sol\":693:712  msg.sender == owner */\n      0xffffffffffffffffffffffffffffffffffffffff\n      and\n        /* \"solidity-learning/3_SmartWallet/TheSmartWallet2.sol\":693:703  msg.sender */\n      caller\n        /* \"solidity-learning/3_SmartWallet/TheSmartWallet2.sol\":693:712  msg.sender == owner */\n      0xffffffffffffffffffffffffffffffffffffffff\n      and\n      eq\n        /* \"solidity-learning/3_SmartWallet/TheSmartWallet2.sol\":685:748  require(msg.sender == owner, \"You are not the owner, aborting\") */\n      tag_59\n      jumpi\n      mload(0x40)\n      0x08c379a000000000000000000000000000000000000000000000000000000000\n      dup2\n      mstore\n      0x04\n      add\n      tag_60\n      swap1\n      tag_61\n      jump\t// in\n    tag_60:\n      mload(0x40)\n      dup1\n      swap2\n      sub\n      swap1\n      revert\n    tag_59:\n        /* \"solidity-learning/3_SmartWallet/TheSmartWallet2.sol\":780:790  _allowance */\n      dup1\n        /* \"solidity-learning/3_SmartWallet/TheSmartWallet2.sol\":758:767  allowance */\n      0x01\n        /* \"solidity-learning/3_SmartWallet/TheSmartWallet2.sol\":758:777  allowance[_spender] */\n      0x00\n        /* \"solidity-learning/3_SmartWallet/TheSmartWallet2.sol\":768:776  _spender */\n      dup5\n        /* \"solidity-learning/3_SmartWallet/TheSmartWallet2.sol\":758:777  allowance[_spender] */\n      0xffffffffffffffffffffffffffffffffffffffff\n      and\n      0xffffffffffffffffffffffffffffffffffffffff\n      and\n      dup2\n      mstore\n      0x20\n      add\n      swap1\n      dup2\n      mstore\n      0x20\n      add\n      0x00\n      keccak256\n        /* \"solidity-learning/3_SmartWallet/TheSmartWallet2.sol\":758:790  allowance[_spender] = _allowance */\n      dup2\n      swap1\n      sstore\n      pop\n        /* \"solidity-learning/3_SmartWallet/TheSmartWallet2.sol\":611:797  function setAllowance(address _spender, uint _allowance) public {... */\n      pop\n      pop\n      jump\t// out\n        /* \"solidity-learning/3_SmartWallet/TheSmartWallet2.sol\":2267:2364  function viewAllowance() public view returns (uint) {... */\n    tag_27:\n        /* \"solidity-learning/3_SmartWallet/TheSmartWallet2.sol\":2313:2317  uint */\n      0x00\n        /* \"solidity-learning/3_SmartWallet/TheSmartWallet2.sol\":2336:2345  allowance */\n      0x01\n        /* \"solidity-learning/3_SmartWallet/TheSmartWallet2.sol\":2336:2357  allowance[msg.sender] */\n      0x00\n        /* \"solidity-learning/3_SmartWallet/TheSmartWallet2.sol\":2346:2356  msg.sender */\n      caller\n        /* \"solidity-learning/3_SmartWallet/TheSmartWallet2.sol\":2336:2357  allowance[msg.sender] */\n      0xffffffffffffffffffffffffffffffffffffffff\n      and\n      0xffffffffffffffffffffffffffffffffffffffff\n      and\n      dup2\n      mstore\n      0x20\n      add\n      swap1\n      dup2\n      mstore\n      0x20\n      add\n      0x00\n      keccak256\n      sload\n        /* \"solidity-learning/3_SmartWallet/TheSmartWallet2.sol\":2329:2357  return allowance[msg.sender] */\n      swap1\n      pop\n        /* \"solidity-learning/3_SmartWallet/TheSmartWallet2.sol\":2267:2364  function viewAllowance() public view returns (uint) {... */\n      swap1\n      jump\t// out\n        /* \"solidity-learning/3_SmartWallet/TheSmartWallet2.sol\":1253:2065  function markVote(address _myVote) public {... */\n    tag_34:\n        /* \"solidity-learning/3_SmartWallet/TheSmartWallet2.sol\":1313:1336  _isGuardian(msg.sender) */\n      tag_64\n        /* \"solidity-learning/3_SmartWallet/TheSmartWallet2.sol\":1325:1335  msg.sender */\n      caller\n        /* \"solidity-learning/3_SmartWallet/TheSmartWallet2.sol\":1313:1324  _isGuardian */\n      tag_65\n        /* \"solidity-learning/3_SmartWallet/TheSmartWallet2.sol\":1313:1336  _isGuardian(msg.sender) */\n      jump\t// in\n    tag_64:\n        /* \"solidity-learning/3_SmartWallet/TheSmartWallet2.sol\":1305:1373  require(_isGuardian(msg.sender), \"You are not a guardian, aborting\") */\n      tag_66\n      jumpi\n      mload(0x40)\n      0x08c379a000000000000000000000000000000000000000000000000000000000\n      dup2\n      mstore\n      0x04\n      add\n      tag_67\n      swap1\n      tag_68\n      jump\t// in\n    tag_67:\n      mload(0x40)\n      dup1\n      swap2\n      sub\n      swap1\n      revert\n    tag_66:\n        /* \"solidity-learning/3_SmartWallet/TheSmartWallet2.sol\":1392:1405  guardianVotes */\n      0x03\n        /* \"solidity-learning/3_SmartWallet/TheSmartWallet2.sol\":1392:1417  guardianVotes[msg.sender] */\n      0x00\n        /* \"solidity-learning/3_SmartWallet/TheSmartWallet2.sol\":1406:1416  msg.sender */\n      caller\n        /* \"solidity-learning/3_SmartWallet/TheSmartWallet2.sol\":1392:1417  guardianVotes[msg.sender] */\n      0xffffffffffffffffffffffffffffffffffffffff\n      and\n      0xffffffffffffffffffffffffffffffffffffffff\n      and\n      dup2\n      mstore\n      0x20\n      add\n      swap1\n      dup2\n      mstore\n      0x20\n      add\n      0x00\n      keccak256\n        /* \"solidity-learning/3_SmartWallet/TheSmartWallet2.sol\":1392:1426  guardianVotes[msg.sender][_myVote] */\n      0x00\n        /* \"solidity-learning/3_SmartWallet/TheSmartWallet2.sol\":1418:1425  _myVote */\n      dup3\n        /* \"solidity-learning/3_SmartWallet/TheSmartWallet2.sol\":1392:1426  guardianVotes[msg.sender][_myVote] */\n      0xffffffffffffffffffffffffffffffffffffffff\n      and\n      0xffffffffffffffffffffffffffffffffffffffff\n      and\n      dup2\n      mstore\n      0x20\n      add\n      swap1\n      dup2\n      mstore\n      0x20\n      add\n      0x00\n      keccak256\n      0x00\n      swap1\n      sload\n      swap1\n      0x0100\n      exp\n      swap1\n      div\n      0xff\n      and\n        /* \"solidity-learning/3_SmartWallet/TheSmartWallet2.sol\":1391:1426  !guardianVotes[msg.sender][_myVote] */\n      iszero\n        /* \"solidity-learning/3_SmartWallet/TheSmartWallet2.sol\":1383:1471  require(!guardianVotes[msg.sender][_myVote],\"You have already voted for this candidate\") */\n      tag_69\n      jumpi\n      mload(0x40)\n      0x08c379a000000000000000000000000000000000000000000000000000000000\n      dup2\n      mstore\n      0x04\n      add\n      tag_70\n      swap1\n      tag_71\n      jump\t// in\n    tag_70:\n      mload(0x40)\n      dup1\n      swap2\n      sub\n      swap1\n      revert\n    tag_69:\n        /* \"solidity-learning/3_SmartWallet/TheSmartWallet2.sol\":1495:1511  currentCandidate */\n      0x04\n      0x00\n      swap1\n      sload\n      swap1\n      0x0100\n      exp\n      swap1\n      div\n      0xffffffffffffffffffffffffffffffffffffffff\n      and\n        /* \"solidity-learning/3_SmartWallet/TheSmartWallet2.sol\":1484:1511  _myVote != currentCandidate */\n      0xffffffffffffffffffffffffffffffffffffffff\n      and\n        /* \"solidity-learning/3_SmartWallet/TheSmartWallet2.sol\":1484:1491  _myVote */\n      dup2\n        /* \"solidity-learning/3_SmartWallet/TheSmartWallet2.sol\":1484:1511  _myVote != currentCandidate */\n      0xffffffffffffffffffffffffffffffffffffffff\n      and\n      eq\n        /* \"solidity-learning/3_SmartWallet/TheSmartWallet2.sol\":1481:1812  if(_myVote != currentCandidate ) {... */\n      tag_72\n      jumpi\n        /* \"solidity-learning/3_SmartWallet/TheSmartWallet2.sol\":1528:1574  resetAllGuardianForCandidate(currentCandidate) */\n      tag_73\n        /* \"solidity-learning/3_SmartWallet/TheSmartWallet2.sol\":1557:1573  currentCandidate */\n      0x04\n      0x00\n      swap1\n      sload\n      swap1\n      0x0100\n      exp\n      swap1\n      div\n      0xffffffffffffffffffffffffffffffffffffffff\n      and\n        /* \"solidity-learning/3_SmartWallet/TheSmartWallet2.sol\":1528:1556  resetAllGuardianForCandidate */\n      tag_74\n        /* \"solidity-learning/3_SmartWallet/TheSmartWallet2.sol\":1528:1574  resetAllGuardianForCandidate(currentCandidate) */\n      jump\t// in\n    tag_73:\n        /* \"solidity-learning/3_SmartWallet/TheSmartWallet2.sol\":1607:1614  _myVote */\n      dup1\n        /* \"solidity-learning/3_SmartWallet/TheSmartWallet2.sol\":1588:1604  currentCandidate */\n      0x04\n      0x00\n        /* \"solidity-learning/3_SmartWallet/TheSmartWallet2.sol\":1588:1614  currentCandidate = _myVote */\n      0x0100\n      exp\n      dup2\n      sload\n      dup2\n      0xffffffffffffffffffffffffffffffffffffffff\n      mul\n      not\n      and\n      swap1\n      dup4\n      0xffffffffffffffffffffffffffffffffffffffff\n      and\n      mul\n      or\n      swap1\n      sstore\n      pop\n        /* \"solidity-learning/3_SmartWallet/TheSmartWallet2.sol\":1641:1642  1 */\n      0x01\n        /* \"solidity-learning/3_SmartWallet/TheSmartWallet2.sol\":1628:1640  currentVotes */\n      0x05\n        /* \"solidity-learning/3_SmartWallet/TheSmartWallet2.sol\":1628:1642  currentVotes=1 */\n      dup2\n      swap1\n      sstore\n      pop\n        /* \"solidity-learning/3_SmartWallet/TheSmartWallet2.sol\":1691:1695  true */\n      0x01\n        /* \"solidity-learning/3_SmartWallet/TheSmartWallet2.sol\":1656:1669  guardianVotes */\n      0x03\n        /* \"solidity-learning/3_SmartWallet/TheSmartWallet2.sol\":1656:1681  guardianVotes[msg.sender] */\n      0x00\n        /* \"solidity-learning/3_SmartWallet/TheSmartWallet2.sol\":1670:1680  msg.sender */\n      caller\n        /* \"solidity-learning/3_SmartWallet/TheSmartWallet2.sol\":1656:1681  guardianVotes[msg.sender] */\n      0xffffffffffffffffffffffffffffffffffffffff\n      and\n      0xffffffffffffffffffffffffffffffffffffffff\n      and\n      dup2\n      mstore\n      0x20\n      add\n      swap1\n      dup2\n      mstore\n      0x20\n      add\n      0x00\n      keccak256\n        /* \"solidity-learning/3_SmartWallet/TheSmartWallet2.sol\":1656:1690  guardianVotes[msg.sender][_myVote] */\n      0x00\n        /* \"solidity-learning/3_SmartWallet/TheSmartWallet2.sol\":1682:1689  _myVote */\n      dup4\n        /* \"solidity-learning/3_SmartWallet/TheSmartWallet2.sol\":1656:1690  guardianVotes[msg.sender][_myVote] */\n      0xffffffffffffffffffffffffffffffffffffffff\n      and\n      0xffffffffffffffffffffffffffffffffffffffff\n      and\n      dup2\n      mstore\n      0x20\n      add\n      swap1\n      dup2\n      mstore\n      0x20\n      add\n      0x00\n      keccak256\n      0x00\n        /* \"solidity-learning/3_SmartWallet/TheSmartWallet2.sol\":1656:1695  guardianVotes[msg.sender][_myVote]=true */\n      0x0100\n      exp\n      dup2\n      sload\n      dup2\n      0xff\n      mul\n      not\n      and\n      swap1\n      dup4\n      iszero\n      iszero\n      mul\n      or\n      swap1\n      sstore\n      pop\n        /* \"solidity-learning/3_SmartWallet/TheSmartWallet2.sol\":1481:1812  if(_myVote != currentCandidate ) {... */\n      jump(tag_75)\n    tag_72:\n        /* \"solidity-learning/3_SmartWallet/TheSmartWallet2.sol\":1734:1746  currentVotes */\n      0x05\n      0x00\n        /* \"solidity-learning/3_SmartWallet/TheSmartWallet2.sol\":1734:1748  currentVotes++ */\n      dup2\n      sload\n      dup1\n      swap3\n      swap2\n      swap1\n      tag_76\n      swap1\n      tag_77\n      jump\t// in\n    tag_76:\n      swap2\n      swap1\n      pop\n      sstore\n      pop\n        /* \"solidity-learning/3_SmartWallet/TheSmartWallet2.sol\":1797:1801  true */\n      0x01\n        /* \"solidity-learning/3_SmartWallet/TheSmartWallet2.sol\":1762:1775  guardianVotes */\n      0x03\n        /* \"solidity-learning/3_SmartWallet/TheSmartWallet2.sol\":1762:1787  guardianVotes[msg.sender] */\n      0x00\n        /* \"solidity-learning/3_SmartWallet/TheSmartWallet2.sol\":1776:1786  msg.sender */\n      caller\n        /* \"solidity-learning/3_SmartWallet/TheSmartWallet2.sol\":1762:1787  guardianVotes[msg.sender] */\n      0xffffffffffffffffffffffffffffffffffffffff\n      and\n      0xffffffffffffffffffffffffffffffffffffffff\n      and\n      dup2\n      mstore\n      0x20\n      add\n      swap1\n      dup2\n      mstore\n      0x20\n      add\n      0x00\n      keccak256\n        /* \"solidity-learning/3_SmartWallet/TheSmartWallet2.sol\":1762:1796  guardianVotes[msg.sender][_myVote] */\n      0x00\n        /* \"solidity-learning/3_SmartWallet/TheSmartWallet2.sol\":1788:1795  _myVote */\n      dup4\n        /* \"solidity-learning/3_SmartWallet/TheSmartWallet2.sol\":1762:1796  guardianVotes[msg.sender][_myVote] */\n      0xffffffffffffffffffffffffffffffffffffffff\n      and\n      0xffffffffffffffffffffffffffffffffffffffff\n      and\n      dup2\n      mstore\n      0x20\n      add\n      swap1\n      dup2\n      mstore\n      0x20\n      add\n      0x00\n      keccak256\n      0x00\n        /* \"solidity-learning/3_SmartWallet/TheSmartWallet2.sol\":1762:1801  guardianVotes[msg.sender][_myVote]=true */\n      0x0100\n      exp\n      dup2\n      sload\n      dup2\n      0xff\n      mul\n      not\n      and\n      swap1\n      dup4\n      iszero\n      iszero\n      mul\n      or\n      swap1\n      sstore\n      pop\n        /* \"solidity-learning/3_SmartWallet/TheSmartWallet2.sol\":1481:1812  if(_myVote != currentCandidate ) {... */\n    tag_75:\n        /* \"solidity-learning/3_SmartWallet/TheSmartWallet2.sol\":452:453  3 */\n      0x03\n        /* \"solidity-learning/3_SmartWallet/TheSmartWallet2.sol\":1825:1837  currentVotes */\n      sload(0x05)\n        /* \"solidity-learning/3_SmartWallet/TheSmartWallet2.sol\":1825:1855  currentVotes >= numVotesToPass */\n      lt\n        /* \"solidity-learning/3_SmartWallet/TheSmartWallet2.sol\":1822:2059  if(currentVotes >= numVotesToPass) {... */\n      tag_78\n      jumpi\n        /* \"solidity-learning/3_SmartWallet/TheSmartWallet2.sol\":1887:1903  currentCandidate */\n      0x04\n      0x00\n      swap1\n      sload\n      swap1\n      0x0100\n      exp\n      swap1\n      div\n      0xffffffffffffffffffffffffffffffffffffffff\n      and\n        /* \"solidity-learning/3_SmartWallet/TheSmartWallet2.sol\":1871:1876  owner */\n      0x00\n      dup1\n        /* \"solidity-learning/3_SmartWallet/TheSmartWallet2.sol\":1871:1904  owner = payable(currentCandidate) */\n      0x0100\n      exp\n      dup2\n      sload\n      dup2\n      0xffffffffffffffffffffffffffffffffffffffff\n      mul\n      not\n      and\n      swap1\n      dup4\n      0xffffffffffffffffffffffffffffffffffffffff\n      and\n      mul\n      or\n      swap1\n      sstore\n      pop\n        /* \"solidity-learning/3_SmartWallet/TheSmartWallet2.sol\":1918:1964  resetAllGuardianForCandidate(currentCandidate) */\n      tag_79\n        /* \"solidity-learning/3_SmartWallet/TheSmartWallet2.sol\":1947:1963  currentCandidate */\n      0x04\n      0x00\n      swap1\n      sload\n      swap1\n      0x0100\n      exp\n      swap1\n      div\n      0xffffffffffffffffffffffffffffffffffffffff\n      and\n        /* \"solidity-learning/3_SmartWallet/TheSmartWallet2.sol\":1918:1946  resetAllGuardianForCandidate */\n      tag_74\n        /* \"solidity-learning/3_SmartWallet/TheSmartWallet2.sol\":1918:1964  resetAllGuardianForCandidate(currentCandidate) */\n      jump\t// in\n    tag_79:\n        /* \"solidity-learning/3_SmartWallet/TheSmartWallet2.sol\":2005:2006  0 */\n      0x00\n        /* \"solidity-learning/3_SmartWallet/TheSmartWallet2.sol\":1978:1994  currentCandidate */\n      0x04\n      0x00\n        /* \"solidity-learning/3_SmartWallet/TheSmartWallet2.sol\":1978:2007  currentCandidate = address(0) */\n      0x0100\n      exp\n      dup2\n      sload\n      dup2\n      0xffffffffffffffffffffffffffffffffffffffff\n      mul\n      not\n      and\n      swap1\n      dup4\n      0xffffffffffffffffffffffffffffffffffffffff\n      and\n      mul\n      or\n      swap1\n      sstore\n      pop\n        /* \"solidity-learning/3_SmartWallet/TheSmartWallet2.sol\":2034:2035  0 */\n      0x00\n        /* \"solidity-learning/3_SmartWallet/TheSmartWallet2.sol\":2021:2033  currentVotes */\n      0x05\n        /* \"solidity-learning/3_SmartWallet/TheSmartWallet2.sol\":2021:2035  currentVotes=0 */\n      dup2\n      swap1\n      sstore\n      pop\n        /* \"solidity-learning/3_SmartWallet/TheSmartWallet2.sol\":1822:2059  if(currentVotes >= numVotesToPass) {... */\n    tag_78:\n        /* \"solidity-learning/3_SmartWallet/TheSmartWallet2.sol\":1253:2065  function markVote(address _myVote) public {... */\n      pop\n      jump\t// out\n        /* \"solidity-learning/3_SmartWallet/TheSmartWallet2.sol\":2370:3084  function transferFunds(address payable _to, uint _amount) public {... */\n    tag_39:\n        /* \"solidity-learning/3_SmartWallet/TheSmartWallet2.sol\":2462:2483  address(this).balance */\n      selfbalance\n        /* \"solidity-learning/3_SmartWallet/TheSmartWallet2.sol\":2453:2460  _amount */\n      dup2\n        /* \"solidity-learning/3_SmartWallet/TheSmartWallet2.sol\":2453:2483  _amount<=address(this).balance */\n      gt\n      iszero\n        /* \"solidity-learning/3_SmartWallet/TheSmartWallet2.sol\":2445:2532  require(_amount<=address(this).balance, \"The contract doesn't have sufficient balance\") */\n      tag_81\n      jumpi\n      mload(0x40)\n      0x08c379a000000000000000000000000000000000000000000000000000000000\n      dup2\n      mstore\n      0x04\n      add\n      tag_82\n      swap1\n      tag_83\n      jump\t// in\n    tag_82:\n      mload(0x40)\n      dup1\n      swap2\n      sub\n      swap1\n      revert\n    tag_81:\n        /* \"solidity-learning/3_SmartWallet/TheSmartWallet2.sol\":2559:2564  owner */\n      0x00\n      dup1\n      sload\n      swap1\n      0x0100\n      exp\n      swap1\n      div\n      0xffffffffffffffffffffffffffffffffffffffff\n      and\n        /* \"solidity-learning/3_SmartWallet/TheSmartWallet2.sol\":2545:2564  msg.sender != owner */\n      0xffffffffffffffffffffffffffffffffffffffff\n      and\n        /* \"solidity-learning/3_SmartWallet/TheSmartWallet2.sol\":2545:2555  msg.sender */\n      caller\n        /* \"solidity-learning/3_SmartWallet/TheSmartWallet2.sol\":2545:2564  msg.sender != owner */\n      0xffffffffffffffffffffffffffffffffffffffff\n      and\n      eq\n        /* \"solidity-learning/3_SmartWallet/TheSmartWallet2.sol\":2542:3078  if(msg.sender != owner) {... */\n      tag_84\n      jumpi\n        /* \"solidity-learning/3_SmartWallet/TheSmartWallet2.sol\":2611:2612  0 */\n      0x00\n        /* \"solidity-learning/3_SmartWallet/TheSmartWallet2.sol\":2588:2597  allowance */\n      0x01\n        /* \"solidity-learning/3_SmartWallet/TheSmartWallet2.sol\":2588:2609  allowance[msg.sender] */\n      0x00\n        /* \"solidity-learning/3_SmartWallet/TheSmartWallet2.sol\":2598:2608  msg.sender */\n      caller\n        /* \"solidity-learning/3_SmartWallet/TheSmartWallet2.sol\":2588:2609  allowance[msg.sender] */\n      0xffffffffffffffffffffffffffffffffffffffff\n      and\n      0xffffffffffffffffffffffffffffffffffffffff\n      and\n      dup2\n      mstore\n      0x20\n      add\n      swap1\n      dup2\n      mstore\n      0x20\n      add\n      0x00\n      keccak256\n      sload\n        /* \"solidity-learning/3_SmartWallet/TheSmartWallet2.sol\":2588:2612  allowance[msg.sender]!=0 */\n      sub\n        /* \"solidity-learning/3_SmartWallet/TheSmartWallet2.sol\":2580:2654  require(allowance[msg.sender]!=0,\"You don't have any allowance, aborting\") */\n      tag_85\n      jumpi\n      mload(0x40)\n      0x08c379a000000000000000000000000000000000000000000000000000000000\n      dup2\n      mstore\n      0x04\n      add\n      tag_86\n      swap1\n      tag_87\n      jump\t// in\n    tag_86:\n      mload(0x40)\n      dup1\n      swap2\n      sub\n      swap1\n      revert\n    tag_85:\n        /* \"solidity-learning/3_SmartWallet/TheSmartWallet2.sol\":2699:2706  _amount */\n      dup1\n        /* \"solidity-learning/3_SmartWallet/TheSmartWallet2.sol\":2676:2685  allowance */\n      0x01\n        /* \"solidity-learning/3_SmartWallet/TheSmartWallet2.sol\":2676:2697  allowance[msg.sender] */\n      0x00\n        /* \"solidity-learning/3_SmartWallet/TheSmartWallet2.sol\":2686:2696  msg.sender */\n      caller\n        /* \"solidity-learning/3_SmartWallet/TheSmartWallet2.sol\":2676:2697  allowance[msg.sender] */\n      0xffffffffffffffffffffffffffffffffffffffff\n      and\n      0xffffffffffffffffffffffffffffffffffffffff\n      and\n      dup2\n      mstore\n      0x20\n      add\n      swap1\n      dup2\n      mstore\n      0x20\n      add\n      0x00\n      keccak256\n      sload\n        /* \"solidity-learning/3_SmartWallet/TheSmartWallet2.sol\":2676:2706  allowance[msg.sender]>=_amount */\n      lt\n      iszero\n        /* \"solidity-learning/3_SmartWallet/TheSmartWallet2.sol\":2668:2762  require(allowance[msg.sender]>=_amount,\"Your request amount exceeds your remaining allowance\") */\n      tag_88\n      jumpi\n      mload(0x40)\n      0x08c379a000000000000000000000000000000000000000000000000000000000\n      dup2\n      mstore\n      0x04\n      add\n      tag_89\n      swap1\n      tag_90\n      jump\t// in\n    tag_89:\n      mload(0x40)\n      dup1\n      swap2\n      sub\n      swap1\n      revert\n    tag_88:\n        /* \"solidity-learning/3_SmartWallet/TheSmartWallet2.sol\":2777:2791  bool isSuccess */\n      0x00\n        /* \"solidity-learning/3_SmartWallet/TheSmartWallet2.sol\":2796:2799  _to */\n      dup3\n        /* \"solidity-learning/3_SmartWallet/TheSmartWallet2.sol\":2796:2804  _to.call */\n      0xffffffffffffffffffffffffffffffffffffffff\n      and\n        /* \"solidity-learning/3_SmartWallet/TheSmartWallet2.sol\":2811:2818  _amount */\n      dup3\n        /* \"solidity-learning/3_SmartWallet/TheSmartWallet2.sol\":2796:2823  _to.call{value:_amount}(\"\") */\n      mload(0x40)\n      tag_91\n      swap1\n      tag_92\n      jump\t// in\n    tag_91:\n      0x00\n      mload(0x40)\n      dup1\n      dup4\n      sub\n      dup2\n      dup6\n      dup8\n      gas\n      call\n      swap3\n      pop\n      pop\n      pop\n      returndatasize\n      dup1\n      0x00\n      dup2\n      eq\n      tag_95\n      jumpi\n      mload(0x40)\n      swap2\n      pop\n      and(add(returndatasize, 0x3f), not(0x1f))\n      dup3\n      add\n      0x40\n      mstore\n      returndatasize\n      dup3\n      mstore\n      returndatasize\n      0x00\n      0x20\n      dup5\n      add\n      returndatacopy\n      jump(tag_94)\n    tag_95:\n      0x60\n      swap2\n      pop\n    tag_94:\n      pop\n        /* \"solidity-learning/3_SmartWallet/TheSmartWallet2.sol\":2776:2823  (bool isSuccess,) = _to.call{value:_amount}(\"\") */\n      pop\n      swap1\n      pop\n        /* \"solidity-learning/3_SmartWallet/TheSmartWallet2.sol\":2845:2854  isSuccess */\n      dup1\n        /* \"solidity-learning/3_SmartWallet/TheSmartWallet2.sol\":2837:2879  require(isSuccess,\"Call Failed, aborting\") */\n      tag_96\n      jumpi\n      mload(0x40)\n      0x08c379a000000000000000000000000000000000000000000000000000000000\n      dup2\n      mstore\n      0x04\n      add\n      tag_97\n      swap1\n      tag_98\n      jump\t// in\n    tag_97:\n      mload(0x40)\n      dup1\n      swap2\n      sub\n      swap1\n      revert\n    tag_96:\n        /* \"solidity-learning/3_SmartWallet/TheSmartWallet2.sol\":2918:2925  _amount */\n      dup2\n        /* \"solidity-learning/3_SmartWallet/TheSmartWallet2.sol\":2893:2902  allowance */\n      0x01\n        /* \"solidity-learning/3_SmartWallet/TheSmartWallet2.sol\":2893:2914  allowance[msg.sender] */\n      0x00\n        /* \"solidity-learning/3_SmartWallet/TheSmartWallet2.sol\":2903:2913  msg.sender */\n      caller\n        /* \"solidity-learning/3_SmartWallet/TheSmartWallet2.sol\":2893:2914  allowance[msg.sender] */\n      0xffffffffffffffffffffffffffffffffffffffff\n      and\n      0xffffffffffffffffffffffffffffffffffffffff\n      and\n      dup2\n      mstore\n      0x20\n      add\n      swap1\n      dup2\n      mstore\n      0x20\n      add\n      0x00\n      keccak256\n      0x00\n        /* \"solidity-learning/3_SmartWallet/TheSmartWallet2.sol\":2893:2925  allowance[msg.sender] -= _amount */\n      dup3\n      dup3\n      sload\n      tag_99\n      swap2\n      swap1\n      tag_100\n      jump\t// in\n    tag_99:\n      swap3\n      pop\n      pop\n      dup2\n      swap1\n      sstore\n      pop\n        /* \"solidity-learning/3_SmartWallet/TheSmartWallet2.sol\":2566:2936  {... */\n      pop\n        /* \"solidity-learning/3_SmartWallet/TheSmartWallet2.sol\":2542:3078  if(msg.sender != owner) {... */\n      jump(tag_101)\n    tag_84:\n        /* \"solidity-learning/3_SmartWallet/TheSmartWallet2.sol\":2965:2979  bool isSuccess */\n      0x00\n        /* \"solidity-learning/3_SmartWallet/TheSmartWallet2.sol\":2984:2987  _to */\n      dup3\n        /* \"solidity-learning/3_SmartWallet/TheSmartWallet2.sol\":2984:2992  _to.call */\n      0xffffffffffffffffffffffffffffffffffffffff\n      and\n        /* \"solidity-learning/3_SmartWallet/TheSmartWallet2.sol\":2999:3006  _amount */\n      dup3\n        /* \"solidity-learning/3_SmartWallet/TheSmartWallet2.sol\":2984:3011  _to.call{value:_amount}(\"\") */\n      mload(0x40)\n      tag_102\n      swap1\n      tag_92\n      jump\t// in\n    tag_102:\n      0x00\n      mload(0x40)\n      dup1\n      dup4\n      sub\n      dup2\n      dup6\n      dup8\n      gas\n      call\n      swap3\n      pop\n      pop\n      pop\n      returndatasize\n      dup1\n      0x00\n      dup2\n      eq\n      tag_105\n      jumpi\n      mload(0x40)\n      swap2\n      pop\n      and(add(returndatasize, 0x3f), not(0x1f))\n      dup3\n      add\n      0x40\n      mstore\n      returndatasize\n      dup3\n      mstore\n      returndatasize\n      0x00\n      0x20\n      dup5\n      add\n      returndatacopy\n      jump(tag_104)\n    tag_105:\n      0x60\n      swap2\n      pop\n    tag_104:\n      pop\n        /* \"solidity-learning/3_SmartWallet/TheSmartWallet2.sol\":2964:3011  (bool isSuccess,) = _to.call{value:_amount}(\"\") */\n      pop\n      swap1\n      pop\n        /* \"solidity-learning/3_SmartWallet/TheSmartWallet2.sol\":3033:3042  isSuccess */\n      dup1\n        /* \"solidity-learning/3_SmartWallet/TheSmartWallet2.sol\":3025:3067  require(isSuccess,\"Call Failed, aborting\") */\n      tag_106\n      jumpi\n      mload(0x40)\n      0x08c379a000000000000000000000000000000000000000000000000000000000\n      dup2\n      mstore\n      0x04\n      add\n      tag_107\n      swap1\n      tag_98\n      jump\t// in\n    tag_107:\n      mload(0x40)\n      dup1\n      swap2\n      sub\n      swap1\n      revert\n    tag_106:\n        /* \"solidity-learning/3_SmartWallet/TheSmartWallet2.sol\":2950:3078  {... */\n      pop\n        /* \"solidity-learning/3_SmartWallet/TheSmartWallet2.sol\":2542:3078  if(msg.sender != owner) {... */\n    tag_101:\n        /* \"solidity-learning/3_SmartWallet/TheSmartWallet2.sol\":2370:3084  function transferFunds(address payable _to, uint _amount) public {... */\n      pop\n      pop\n      jump\t// out\n        /* \"solidity-learning/3_SmartWallet/TheSmartWallet2.sol\":391:415  uint public currentVotes */\n    tag_42:\n      sload(0x05)\n      dup2\n      jump\t// out\n        /* \"solidity-learning/3_SmartWallet/TheSmartWallet2.sol\":1033:1247  function addGuardian(address _guardian) public {... */\n    tag_47:\n        /* \"solidity-learning/3_SmartWallet/TheSmartWallet2.sol\":1112:1117  owner */\n      0x00\n      dup1\n      sload\n      swap1\n      0x0100\n      exp\n      swap1\n      div\n      0xffffffffffffffffffffffffffffffffffffffff\n      and\n        /* \"solidity-learning/3_SmartWallet/TheSmartWallet2.sol\":1098:1117  msg.sender == owner */\n      0xffffffffffffffffffffffffffffffffffffffff\n      and\n        /* \"solidity-learning/3_SmartWallet/TheSmartWallet2.sol\":1098:1108  msg.sender */\n      caller\n        /* \"solidity-learning/3_SmartWallet/TheSmartWallet2.sol\":1098:1117  msg.sender == owner */\n      0xffffffffffffffffffffffffffffffffffffffff\n      and\n      eq\n        /* \"solidity-learning/3_SmartWallet/TheSmartWallet2.sol\":1090:1153  require(msg.sender == owner, \"You are not the owner, aborting\") */\n      tag_109\n      jumpi\n      mload(0x40)\n      0x08c379a000000000000000000000000000000000000000000000000000000000\n      dup2\n      mstore\n      0x04\n      add\n      tag_110\n      swap1\n      tag_61\n      jump\t// in\n    tag_110:\n      mload(0x40)\n      dup1\n      swap2\n      sub\n      swap1\n      revert\n    tag_109:\n        /* \"solidity-learning/3_SmartWallet/TheSmartWallet2.sol\":1167:1189  _isGuardian(_guardian) */\n      tag_111\n        /* \"solidity-learning/3_SmartWallet/TheSmartWallet2.sol\":1179:1188  _guardian */\n      dup2\n        /* \"solidity-learning/3_SmartWallet/TheSmartWallet2.sol\":1167:1178  _isGuardian */\n      tag_65\n        /* \"solidity-learning/3_SmartWallet/TheSmartWallet2.sol\":1167:1189  _isGuardian(_guardian) */\n      jump\t// in\n    tag_111:\n        /* \"solidity-learning/3_SmartWallet/TheSmartWallet2.sol\":1163:1241  if(!_isGuardian(_guardian)) {... */\n      tag_112\n      jumpi\n        /* \"solidity-learning/3_SmartWallet/TheSmartWallet2.sol\":1205:1214  guardians */\n      0x02\n        /* \"solidity-learning/3_SmartWallet/TheSmartWallet2.sol\":1220:1229  _guardian */\n      dup2\n        /* \"solidity-learning/3_SmartWallet/TheSmartWallet2.sol\":1205:1230  guardians.push(_guardian) */\n      swap1\n      dup1\n      0x01\n      dup2\n      sload\n      add\n      dup1\n      dup3\n      sstore\n      dup1\n      swap2\n      pop\n      pop\n      0x01\n      swap1\n      sub\n      swap1\n      0x00\n      mstore\n      keccak256(0x00, 0x20)\n      add\n      0x00\n      swap1\n      swap2\n      swap1\n      swap2\n      swap1\n      swap2\n      0x0100\n      exp\n      dup2\n      sload\n      dup2\n      0xffffffffffffffffffffffffffffffffffffffff\n      mul\n      not\n      and\n      swap1\n      dup4\n      0xffffffffffffffffffffffffffffffffffffffff\n      and\n      mul\n      or\n      swap1\n      sstore\n      pop\n        /* \"solidity-learning/3_SmartWallet/TheSmartWallet2.sol\":1163:1241  if(!_isGuardian(_guardian)) {... */\n    tag_112:\n        /* \"solidity-learning/3_SmartWallet/TheSmartWallet2.sol\":1033:1247  function addGuardian(address _guardian) public {... */\n      pop\n      jump\t// out\n        /* \"solidity-learning/3_SmartWallet/TheSmartWallet2.sol\":525:605  function viewOwner() public view returns (address) {... */\n    tag_50:\n        /* \"solidity-learning/3_SmartWallet/TheSmartWallet2.sol\":567:574  address */\n      0x00\n        /* \"solidity-learning/3_SmartWallet/TheSmartWallet2.sol\":593:598  owner */\n      dup1\n      0x00\n      swap1\n      sload\n      swap1\n      0x0100\n      exp\n      swap1\n      div\n      0xffffffffffffffffffffffffffffffffffffffff\n      and\n        /* \"solidity-learning/3_SmartWallet/TheSmartWallet2.sol\":586:598  return owner */\n      swap1\n      pop\n        /* \"solidity-learning/3_SmartWallet/TheSmartWallet2.sol\":525:605  function viewOwner() public view returns (address) {... */\n      swap1\n      jump\t// out\n        /* \"solidity-learning/3_SmartWallet/TheSmartWallet2.sol\":152:178  address[] public guardians */\n    tag_56:\n      0x02\n      dup2\n      dup2\n      sload\n      dup2\n      lt\n      tag_115\n      jumpi\n      0x00\n      dup1\n      revert\n    tag_115:\n      swap1\n      0x00\n      mstore\n      keccak256(0x00, 0x20)\n      add\n      0x00\n      swap2\n      pop\n      sload\n      swap1\n      0x0100\n      exp\n      swap1\n      div\n      0xffffffffffffffffffffffffffffffffffffffff\n      and\n      dup2\n      jump\t// out\n        /* \"solidity-learning/3_SmartWallet/TheSmartWallet2.sol\":803:1027  function _isGuardian(address _guardian) internal view returns (bool) {... */\n    tag_65:\n        /* \"solidity-learning/3_SmartWallet/TheSmartWallet2.sol\":866:870  bool */\n      0x00\n        /* \"solidity-learning/3_SmartWallet/TheSmartWallet2.sol\":886:892  uint i */\n      dup1\n        /* \"solidity-learning/3_SmartWallet/TheSmartWallet2.sol\":893:894  0 */\n      0x00\n        /* \"solidity-learning/3_SmartWallet/TheSmartWallet2.sol\":886:894  uint i=0 */\n      swap1\n      pop\n        /* \"solidity-learning/3_SmartWallet/TheSmartWallet2.sol\":882:999  for(uint i=0;i<guardians.length;i++) {... */\n    tag_118:\n        /* \"solidity-learning/3_SmartWallet/TheSmartWallet2.sol\":897:906  guardians */\n      0x02\n        /* \"solidity-learning/3_SmartWallet/TheSmartWallet2.sol\":897:913  guardians.length */\n      dup1\n      sload\n      swap1\n      pop\n        /* \"solidity-learning/3_SmartWallet/TheSmartWallet2.sol\":895:896  i */\n      dup2\n        /* \"solidity-learning/3_SmartWallet/TheSmartWallet2.sol\":895:913  i<guardians.length */\n      lt\n        /* \"solidity-learning/3_SmartWallet/TheSmartWallet2.sol\":882:999  for(uint i=0;i<guardians.length;i++) {... */\n      iszero\n      tag_119\n      jumpi\n        /* \"solidity-learning/3_SmartWallet/TheSmartWallet2.sol\":950:959  _guardian */\n      dup3\n        /* \"solidity-learning/3_SmartWallet/TheSmartWallet2.sol\":936:959  guardians[i]==_guardian */\n      0xffffffffffffffffffffffffffffffffffffffff\n      and\n        /* \"solidity-learning/3_SmartWallet/TheSmartWallet2.sol\":936:945  guardians */\n      0x02\n        /* \"solidity-learning/3_SmartWallet/TheSmartWallet2.sol\":946:947  i */\n      dup3\n        /* \"solidity-learning/3_SmartWallet/TheSmartWallet2.sol\":936:948  guardians[i] */\n      dup2\n      sload\n      dup2\n      lt\n      tag_121\n      jumpi\n      tag_122\n      tag_123\n      jump\t// in\n    tag_122:\n    tag_121:\n      swap1\n      0x00\n      mstore\n      keccak256(0x00, 0x20)\n      add\n      0x00\n      swap1\n      sload\n      swap1\n      0x0100\n      exp\n      swap1\n      div\n      0xffffffffffffffffffffffffffffffffffffffff\n      and\n        /* \"solidity-learning/3_SmartWallet/TheSmartWallet2.sol\":936:959  guardians[i]==_guardian */\n      0xffffffffffffffffffffffffffffffffffffffff\n      and\n      sub\n        /* \"solidity-learning/3_SmartWallet/TheSmartWallet2.sol\":933:988  if(guardians[i]==_guardian)... */\n      tag_125\n      jumpi\n        /* \"solidity-learning/3_SmartWallet/TheSmartWallet2.sol\":984:988  true */\n      0x01\n        /* \"solidity-learning/3_SmartWallet/TheSmartWallet2.sol\":977:988  return true */\n      swap2\n      pop\n      pop\n      jump(tag_117)\n        /* \"solidity-learning/3_SmartWallet/TheSmartWallet2.sol\":933:988  if(guardians[i]==_guardian)... */\n    tag_125:\n        /* \"solidity-learning/3_SmartWallet/TheSmartWallet2.sol\":914:917  i++ */\n      dup1\n      dup1\n      tag_126\n      swap1\n      tag_77\n      jump\t// in\n    tag_126:\n      swap2\n      pop\n      pop\n        /* \"solidity-learning/3_SmartWallet/TheSmartWallet2.sol\":882:999  for(uint i=0;i<guardians.length;i++) {... */\n      jump(tag_118)\n    tag_119:\n      pop\n        /* \"solidity-learning/3_SmartWallet/TheSmartWallet2.sol\":1015:1020  false */\n      0x00\n        /* \"solidity-learning/3_SmartWallet/TheSmartWallet2.sol\":1008:1020  return false */\n      swap1\n      pop\n        /* \"solidity-learning/3_SmartWallet/TheSmartWallet2.sol\":803:1027  function _isGuardian(address _guardian) internal view returns (bool) {... */\n    tag_117:\n      swap2\n      swap1\n      pop\n      jump\t// out\n        /* \"solidity-learning/3_SmartWallet/TheSmartWallet2.sol\":2071:2261  function resetAllGuardianForCandidate(address _candidate) internal {... */\n    tag_74:\n        /* \"solidity-learning/3_SmartWallet/TheSmartWallet2.sol\":2152:2158  uint i */\n      0x00\n        /* \"solidity-learning/3_SmartWallet/TheSmartWallet2.sol\":2148:2255  for(uint i=0;i<guardians.length;i++) {... */\n    tag_128:\n        /* \"solidity-learning/3_SmartWallet/TheSmartWallet2.sol\":2163:2172  guardians */\n      0x02\n        /* \"solidity-learning/3_SmartWallet/TheSmartWallet2.sol\":2163:2179  guardians.length */\n      dup1\n      sload\n      swap1\n      pop\n        /* \"solidity-learning/3_SmartWallet/TheSmartWallet2.sol\":2161:2162  i */\n      dup2\n        /* \"solidity-learning/3_SmartWallet/TheSmartWallet2.sol\":2161:2179  i<guardians.length */\n      lt\n        /* \"solidity-learning/3_SmartWallet/TheSmartWallet2.sol\":2148:2255  for(uint i=0;i<guardians.length;i++) {... */\n      iszero\n      tag_129\n      jumpi\n        /* \"solidity-learning/3_SmartWallet/TheSmartWallet2.sol\":2239:2244  false */\n      0x00\n        /* \"solidity-learning/3_SmartWallet/TheSmartWallet2.sol\":2199:2212  guardianVotes */\n      0x03\n        /* \"solidity-learning/3_SmartWallet/TheSmartWallet2.sol\":2199:2226  guardianVotes[guardians[i]] */\n      0x00\n        /* \"solidity-learning/3_SmartWallet/TheSmartWallet2.sol\":2213:2222  guardians */\n      0x02\n        /* \"solidity-learning/3_SmartWallet/TheSmartWallet2.sol\":2223:2224  i */\n      dup5\n        /* \"solidity-learning/3_SmartWallet/TheSmartWallet2.sol\":2213:2225  guardians[i] */\n      dup2\n      sload\n      dup2\n      lt\n      tag_131\n      jumpi\n      tag_132\n      tag_123\n      jump\t// in\n    tag_132:\n    tag_131:\n      swap1\n      0x00\n      mstore\n      keccak256(0x00, 0x20)\n      add\n      0x00\n      swap1\n      sload\n      swap1\n      0x0100\n      exp\n      swap1\n      div\n      0xffffffffffffffffffffffffffffffffffffffff\n      and\n        /* \"solidity-learning/3_SmartWallet/TheSmartWallet2.sol\":2199:2226  guardianVotes[guardians[i]] */\n      0xffffffffffffffffffffffffffffffffffffffff\n      and\n      0xffffffffffffffffffffffffffffffffffffffff\n      and\n      dup2\n      mstore\n      0x20\n      add\n      swap1\n      dup2\n      mstore\n      0x20\n      add\n      0x00\n      keccak256\n        /* \"solidity-learning/3_SmartWallet/TheSmartWallet2.sol\":2199:2238  guardianVotes[guardians[i]][_candidate] */\n      0x00\n        /* \"solidity-learning/3_SmartWallet/TheSmartWallet2.sol\":2227:2237  _candidate */\n      dup5\n        /* \"solidity-learning/3_SmartWallet/TheSmartWallet2.sol\":2199:2238  guardianVotes[guardians[i]][_candidate] */\n      0xffffffffffffffffffffffffffffffffffffffff\n      and\n      0xffffffffffffffffffffffffffffffffffffffff\n      and\n      dup2\n      mstore\n      0x20\n      add\n      swap1\n      dup2\n      mstore\n      0x20\n      add\n      0x00\n      keccak256\n      0x00\n        /* \"solidity-learning/3_SmartWallet/TheSmartWallet2.sol\":2199:2244  guardianVotes[guardians[i]][_candidate]=false */\n      0x0100\n      exp\n      dup2\n      sload\n      dup2\n      0xff\n      mul\n      not\n      and\n      swap1\n      dup4\n      iszero\n      iszero\n      mul\n      or\n      swap1\n      sstore\n      pop\n        /* \"solidity-learning/3_SmartWallet/TheSmartWallet2.sol\":2180:2183  i++ */\n      dup1\n      dup1\n      tag_134\n      swap1\n      tag_77\n      jump\t// in\n    tag_134:\n      swap2\n      pop\n      pop\n        /* \"solidity-learning/3_SmartWallet/TheSmartWallet2.sol\":2148:2255  for(uint i=0;i<guardians.length;i++) {... */\n      jump(tag_128)\n    tag_129:\n      pop\n        /* \"solidity-learning/3_SmartWallet/TheSmartWallet2.sol\":2071:2261  function resetAllGuardianForCandidate(address _candidate) internal {... */\n      pop\n      jump\t// out\n        /* \"#utility.yul\":7:133   */\n    tag_135:\n        /* \"#utility.yul\":44:51   */\n      0x00\n        /* \"#utility.yul\":84:126   */\n      0xffffffffffffffffffffffffffffffffffffffff\n        /* \"#utility.yul\":77:82   */\n      dup3\n        /* \"#utility.yul\":73:127   */\n      and\n        /* \"#utility.yul\":62:127   */\n      swap1\n      pop\n        /* \"#utility.yul\":7:133   */\n      swap2\n      swap1\n      pop\n      jump\t// out\n        /* \"#utility.yul\":139:235   */\n    tag_136:\n        /* \"#utility.yul\":176:183   */\n      0x00\n        /* \"#utility.yul\":205:229   */\n      tag_172\n        /* \"#utility.yul\":223:228   */\n      dup3\n        /* \"#utility.yul\":205:229   */\n      tag_135\n      jump\t// in\n    tag_172:\n        /* \"#utility.yul\":194:229   */\n      swap1\n      pop\n        /* \"#utility.yul\":139:235   */\n      swap2\n      swap1\n      pop\n      jump\t// out\n        /* \"#utility.yul\":241:359   */\n    tag_137:\n        /* \"#utility.yul\":328:352   */\n      tag_174\n        /* \"#utility.yul\":346:351   */\n      dup2\n        /* \"#utility.yul\":328:352   */\n      tag_136\n      jump\t// in\n    tag_174:\n        /* \"#utility.yul\":323:326   */\n      dup3\n        /* \"#utility.yul\":316:353   */\n      mstore\n        /* \"#utility.yul\":241:359   */\n      pop\n      pop\n      jump\t// out\n        /* \"#utility.yul\":365:587   */\n    tag_19:\n        /* \"#utility.yul\":458:462   */\n      0x00\n        /* \"#utility.yul\":496:498   */\n      0x20\n        /* \"#utility.yul\":485:494   */\n      dup3\n        /* \"#utility.yul\":481:499   */\n      add\n        /* \"#utility.yul\":473:499   */\n      swap1\n      pop\n        /* \"#utility.yul\":509:580   */\n      tag_176\n        /* \"#utility.yul\":577:578   */\n      0x00\n        /* \"#utility.yul\":566:575   */\n      dup4\n        /* \"#utility.yul\":562:579   */\n      add\n        /* \"#utility.yul\":553:559   */\n      dup5\n        /* \"#utility.yul\":509:580   */\n      tag_137\n      jump\t// in\n    tag_176:\n        /* \"#utility.yul\":365:587   */\n      swap3\n      swap2\n      pop\n      pop\n      jump\t// out\n        /* \"#utility.yul\":674:791   */\n    tag_139:\n        /* \"#utility.yul\":783:784   */\n      0x00\n        /* \"#utility.yul\":780:781   */\n      dup1\n        /* \"#utility.yul\":773:785   */\n      revert\n        /* \"#utility.yul\":920:1042   */\n    tag_141:\n        /* \"#utility.yul\":993:1017   */\n      tag_181\n        /* \"#utility.yul\":1011:1016   */\n      dup2\n        /* \"#utility.yul\":993:1017   */\n      tag_136\n      jump\t// in\n    tag_181:\n        /* \"#utility.yul\":986:991   */\n      dup2\n        /* \"#utility.yul\":983:1018   */\n      eq\n        /* \"#utility.yul\":973:1036   */\n      tag_182\n      jumpi\n        /* \"#utility.yul\":1032:1033   */\n      0x00\n        /* \"#utility.yul\":1029:1030   */\n      dup1\n        /* \"#utility.yul\":1022:1034   */\n      revert\n        /* \"#utility.yul\":973:1036   */\n    tag_182:\n        /* \"#utility.yul\":920:1042   */\n      pop\n      jump\t// out\n        /* \"#utility.yul\":1048:1187   */\n    tag_142:\n        /* \"#utility.yul\":1094:1099   */\n      0x00\n        /* \"#utility.yul\":1132:1138   */\n      dup2\n        /* \"#utility.yul\":1119:1139   */\n      calldataload\n        /* \"#utility.yul\":1110:1139   */\n      swap1\n      pop\n        /* \"#utility.yul\":1148:1181   */\n      tag_184\n        /* \"#utility.yul\":1175:1180   */\n      dup2\n        /* \"#utility.yul\":1148:1181   */\n      tag_141\n      jump\t// in\n    tag_184:\n        /* \"#utility.yul\":1048:1187   */\n      swap3\n      swap2\n      pop\n      pop\n      jump\t// out\n        /* \"#utility.yul\":1193:1270   */\n    tag_143:\n        /* \"#utility.yul\":1230:1237   */\n      0x00\n        /* \"#utility.yul\":1259:1264   */\n      dup2\n        /* \"#utility.yul\":1248:1264   */\n      swap1\n      pop\n        /* \"#utility.yul\":1193:1270   */\n      swap2\n      swap1\n      pop\n      jump\t// out\n        /* \"#utility.yul\":1276:1398   */\n    tag_144:\n        /* \"#utility.yul\":1349:1373   */\n      tag_187\n        /* \"#utility.yul\":1367:1372   */\n      dup2\n        /* \"#utility.yul\":1349:1373   */\n      tag_143\n      jump\t// in\n    tag_187:\n        /* \"#utility.yul\":1342:1347   */\n      dup2\n        /* \"#utility.yul\":1339:1374   */\n      eq\n        /* \"#utility.yul\":1329:1392   */\n      tag_188\n      jumpi\n        /* \"#utility.yul\":1388:1389   */\n      0x00\n        /* \"#utility.yul\":1385:1386   */\n      dup1\n        /* \"#utility.yul\":1378:1390   */\n      revert\n        /* \"#utility.yul\":1329:1392   */\n    tag_188:\n        /* \"#utility.yul\":1276:1398   */\n      pop\n      jump\t// out\n        /* \"#utility.yul\":1404:1543   */\n    tag_145:\n        /* \"#utility.yul\":1450:1455   */\n      0x00\n        /* \"#utility.yul\":1488:1494   */\n      dup2\n        /* \"#utility.yul\":1475:1495   */\n      calldataload\n        /* \"#utility.yul\":1466:1495   */\n      swap1\n      pop\n        /* \"#utility.yul\":1504:1537   */\n      tag_190\n        /* \"#utility.yul\":1531:1536   */\n      dup2\n        /* \"#utility.yul\":1504:1537   */\n      tag_144\n      jump\t// in\n    tag_190:\n        /* \"#utility.yul\":1404:1543   */\n      swap3\n      swap2\n      pop\n      pop\n      jump\t// out\n        /* \"#utility.yul\":1549:2023   */\n    tag_23:\n        /* \"#utility.yul\":1617:1623   */\n      0x00\n        /* \"#utility.yul\":1625:1631   */\n      dup1\n        /* \"#utility.yul\":1674:1676   */\n      0x40\n        /* \"#utility.yul\":1662:1671   */\n      dup4\n        /* \"#utility.yul\":1653:1660   */\n      dup6\n        /* \"#utility.yul\":1649:1672   */\n      sub\n        /* \"#utility.yul\":1645:1677   */\n      slt\n        /* \"#utility.yul\":1642:1761   */\n      iszero\n      tag_192\n      jumpi\n        /* \"#utility.yul\":1680:1759   */\n      tag_193\n      tag_139\n      jump\t// in\n    tag_193:\n        /* \"#utility.yul\":1642:1761   */\n    tag_192:\n        /* \"#utility.yul\":1800:1801   */\n      0x00\n        /* \"#utility.yul\":1825:1878   */\n      tag_194\n        /* \"#utility.yul\":1870:1877   */\n      dup6\n        /* \"#utility.yul\":1861:1867   */\n      dup3\n        /* \"#utility.yul\":1850:1859   */\n      dup7\n        /* \"#utility.yul\":1846:1868   */\n      add\n        /* \"#utility.yul\":1825:1878   */\n      tag_142\n      jump\t// in\n    tag_194:\n        /* \"#utility.yul\":1815:1878   */\n      swap3\n      pop\n        /* \"#utility.yul\":1771:1888   */\n      pop\n        /* \"#utility.yul\":1927:1929   */\n      0x20\n        /* \"#utility.yul\":1953:2006   */\n      tag_195\n        /* \"#utility.yul\":1998:2005   */\n      dup6\n        /* \"#utility.yul\":1989:1995   */\n      dup3\n        /* \"#utility.yul\":1978:1987   */\n      dup7\n        /* \"#utility.yul\":1974:1996   */\n      add\n        /* \"#utility.yul\":1953:2006   */\n      tag_145\n      jump\t// in\n    tag_195:\n        /* \"#utility.yul\":1943:2006   */\n      swap2\n      pop\n        /* \"#utility.yul\":1898:2016   */\n      pop\n        /* \"#utility.yul\":1549:2023   */\n      swap3\n      pop\n      swap3\n      swap1\n      pop\n      jump\t// out\n        /* \"#utility.yul\":2029:2147   */\n    tag_146:\n        /* \"#utility.yul\":2116:2140   */\n      tag_197\n        /* \"#utility.yul\":2134:2139   */\n      dup2\n        /* \"#utility.yul\":2116:2140   */\n      tag_143\n      jump\t// in\n    tag_197:\n        /* \"#utility.yul\":2111:2114   */\n      dup3\n        /* \"#utility.yul\":2104:2141   */\n      mstore\n        /* \"#utility.yul\":2029:2147   */\n      pop\n      pop\n      jump\t// out\n        /* \"#utility.yul\":2153:2375   */\n    tag_29:\n        /* \"#utility.yul\":2246:2250   */\n      0x00\n        /* \"#utility.yul\":2284:2286   */\n      0x20\n        /* \"#utility.yul\":2273:2282   */\n      dup3\n        /* \"#utility.yul\":2269:2287   */\n      add\n        /* \"#utility.yul\":2261:2287   */\n      swap1\n      pop\n        /* \"#utility.yul\":2297:2368   */\n      tag_199\n        /* \"#utility.yul\":2365:2366   */\n      0x00\n        /* \"#utility.yul\":2354:2363   */\n      dup4\n        /* \"#utility.yul\":2350:2367   */\n      add\n        /* \"#utility.yul\":2341:2347   */\n      dup5\n        /* \"#utility.yul\":2297:2368   */\n      tag_146\n      jump\t// in\n    tag_199:\n        /* \"#utility.yul\":2153:2375   */\n      swap3\n      swap2\n      pop\n      pop\n      jump\t// out\n        /* \"#utility.yul\":2381:2710   */\n    tag_33:\n        /* \"#utility.yul\":2440:2446   */\n      0x00\n        /* \"#utility.yul\":2489:2491   */\n      0x20\n        /* \"#utility.yul\":2477:2486   */\n      dup3\n        /* \"#utility.yul\":2468:2475   */\n      dup5\n        /* \"#utility.yul\":2464:2487   */\n      sub\n        /* \"#utility.yul\":2460:2492   */\n      slt\n        /* \"#utility.yul\":2457:2576   */\n      iszero\n      tag_201\n      jumpi\n        /* \"#utility.yul\":2495:2574   */\n      tag_202\n      tag_139\n      jump\t// in\n    tag_202:\n        /* \"#utility.yul\":2457:2576   */\n    tag_201:\n        /* \"#utility.yul\":2615:2616   */\n      0x00\n        /* \"#utility.yul\":2640:2693   */\n      tag_203\n        /* \"#utility.yul\":2685:2692   */\n      dup5\n        /* \"#utility.yul\":2676:2682   */\n      dup3\n        /* \"#utility.yul\":2665:2674   */\n      dup6\n        /* \"#utility.yul\":2661:2683   */\n      add\n        /* \"#utility.yul\":2640:2693   */\n      tag_142\n      jump\t// in\n    tag_203:\n        /* \"#utility.yul\":2630:2693   */\n      swap2\n      pop\n        /* \"#utility.yul\":2586:2703   */\n      pop\n        /* \"#utility.yul\":2381:2710   */\n      swap3\n      swap2\n      pop\n      pop\n      jump\t// out\n        /* \"#utility.yul\":2716:2820   */\n    tag_147:\n        /* \"#utility.yul\":2761:2768   */\n      0x00\n        /* \"#utility.yul\":2790:2814   */\n      tag_205\n        /* \"#utility.yul\":2808:2813   */\n      dup3\n        /* \"#utility.yul\":2790:2814   */\n      tag_135\n      jump\t// in\n    tag_205:\n        /* \"#utility.yul\":2779:2814   */\n      swap1\n      pop\n        /* \"#utility.yul\":2716:2820   */\n      swap2\n      swap1\n      pop\n      jump\t// out\n        /* \"#utility.yul\":2826:2964   */\n    tag_148:\n        /* \"#utility.yul\":2907:2939   */\n      tag_207\n        /* \"#utility.yul\":2933:2938   */\n      dup2\n        /* \"#utility.yul\":2907:2939   */\n      tag_147\n      jump\t// in\n    tag_207:\n        /* \"#utility.yul\":2900:2905   */\n      dup2\n        /* \"#utility.yul\":2897:2940   */\n      eq\n        /* \"#utility.yul\":2887:2958   */\n      tag_208\n      jumpi\n        /* \"#utility.yul\":2954:2955   */\n      0x00\n        /* \"#utility.yul\":2951:2952   */\n      dup1\n        /* \"#utility.yul\":2944:2956   */\n      revert\n        /* \"#utility.yul\":2887:2958   */\n    tag_208:\n        /* \"#utility.yul\":2826:2964   */\n      pop\n      jump\t// out\n        /* \"#utility.yul\":2970:3125   */\n    tag_149:\n        /* \"#utility.yul\":3024:3029   */\n      0x00\n        /* \"#utility.yul\":3062:3068   */\n      dup2\n        /* \"#utility.yul\":3049:3069   */\n      calldataload\n        /* \"#utility.yul\":3040:3069   */\n      swap1\n      pop\n        /* \"#utility.yul\":3078:3119   */\n      tag_210\n        /* \"#utility.yul\":3113:3118   */\n      dup2\n        /* \"#utility.yul\":3078:3119   */\n      tag_148\n      jump\t// in\n    tag_210:\n        /* \"#utility.yul\":2970:3125   */\n      swap3\n      swap2\n      pop\n      pop\n      jump\t// out\n        /* \"#utility.yul\":3131:3621   */\n    tag_38:\n        /* \"#utility.yul\":3207:3213   */\n      0x00\n        /* \"#utility.yul\":3215:3221   */\n      dup1\n        /* \"#utility.yul\":3264:3266   */\n      0x40\n        /* \"#utility.yul\":3252:3261   */\n      dup4\n        /* \"#utility.yul\":3243:3250   */\n      dup6\n        /* \"#utility.yul\":3239:3262   */\n      sub\n        /* \"#utility.yul\":3235:3267   */\n      slt\n        /* \"#utility.yul\":3232:3351   */\n      iszero\n      tag_212\n      jumpi\n        /* \"#utility.yul\":3270:3349   */\n      tag_213\n      tag_139\n      jump\t// in\n    tag_213:\n        /* \"#utility.yul\":3232:3351   */\n    tag_212:\n        /* \"#utility.yul\":3390:3391   */\n      0x00\n        /* \"#utility.yul\":3415:3476   */\n      tag_214\n        /* \"#utility.yul\":3468:3475   */\n      dup6\n        /* \"#utility.yul\":3459:3465   */\n      dup3\n        /* \"#utility.yul\":3448:3457   */\n      dup7\n        /* \"#utility.yul\":3444:3466   */\n      add\n        /* \"#utility.yul\":3415:3476   */\n      tag_149\n      jump\t// in\n    tag_214:\n        /* \"#utility.yul\":3405:3476   */\n      swap3\n      pop\n        /* \"#utility.yul\":3361:3486   */\n      pop\n        /* \"#utility.yul\":3525:3527   */\n      0x20\n        /* \"#utility.yul\":3551:3604   */\n      tag_215\n        /* \"#utility.yul\":3596:3603   */\n      dup6\n        /* \"#utility.yul\":3587:3593   */\n      dup3\n        /* \"#utility.yul\":3576:3585   */\n      dup7\n        /* \"#utility.yul\":3572:3594   */\n      add\n        /* \"#utility.yul\":3551:3604   */\n      tag_145\n      jump\t// in\n    tag_215:\n        /* \"#utility.yul\":3541:3604   */\n      swap2\n      pop\n        /* \"#utility.yul\":3496:3614   */\n      pop\n        /* \"#utility.yul\":3131:3621   */\n      swap3\n      pop\n      swap3\n      swap1\n      pop\n      jump\t// out\n        /* \"#utility.yul\":3627:3956   */\n    tag_55:\n        /* \"#utility.yul\":3686:3692   */\n      0x00\n        /* \"#utility.yul\":3735:3737   */\n      0x20\n        /* \"#utility.yul\":3723:3732   */\n      dup3\n        /* \"#utility.yul\":3714:3721   */\n      dup5\n        /* \"#utility.yul\":3710:3733   */\n      sub\n        /* \"#utility.yul\":3706:3738   */\n      slt\n        /* \"#utility.yul\":3703:3822   */\n      iszero\n      tag_217\n      jumpi\n        /* \"#utility.yul\":3741:3820   */\n      tag_218\n      tag_139\n      jump\t// in\n    tag_218:\n        /* \"#utility.yul\":3703:3822   */\n    tag_217:\n        /* \"#utility.yul\":3861:3862   */\n      0x00\n        /* \"#utility.yul\":3886:3939   */\n      tag_219\n        /* \"#utility.yul\":3931:3938   */\n      dup5\n        /* \"#utility.yul\":3922:3928   */\n      dup3\n        /* \"#utility.yul\":3911:3920   */\n      dup6\n        /* \"#utility.yul\":3907:3929   */\n      add\n        /* \"#utility.yul\":3886:3939   */\n      tag_145\n      jump\t// in\n    tag_219:\n        /* \"#utility.yul\":3876:3939   */\n      swap2\n      pop\n        /* \"#utility.yul\":3832:3949   */\n      pop\n        /* \"#utility.yul\":3627:3956   */\n      swap3\n      swap2\n      pop\n      pop\n      jump\t// out\n        /* \"#utility.yul\":3962:4131   */\n    tag_150:\n        /* \"#utility.yul\":4046:4057   */\n      0x00\n        /* \"#utility.yul\":4080:4086   */\n      dup3\n        /* \"#utility.yul\":4075:4078   */\n      dup3\n        /* \"#utility.yul\":4068:4087   */\n      mstore\n        /* \"#utility.yul\":4120:4124   */\n      0x20\n        /* \"#utility.yul\":4115:4118   */\n      dup3\n        /* \"#utility.yul\":4111:4125   */\n      add\n        /* \"#utility.yul\":4096:4125   */\n      swap1\n      pop\n        /* \"#utility.yul\":3962:4131   */\n      swap3\n      swap2\n      pop\n      pop\n      jump\t// out\n        /* \"#utility.yul\":4137:4318   */\n    tag_151:\n        /* \"#utility.yul\":4277:4310   */\n      0x596f7520617265206e6f7420746865206f776e65722c2061626f7274696e6700\n        /* \"#utility.yul\":4273:4274   */\n      0x00\n        /* \"#utility.yul\":4265:4271   */\n      dup3\n        /* \"#utility.yul\":4261:4275   */\n      add\n        /* \"#utility.yul\":4254:4311   */\n      mstore\n        /* \"#utility.yul\":4137:4318   */\n      pop\n      jump\t// out\n        /* \"#utility.yul\":4324:4690   */\n    tag_152:\n        /* \"#utility.yul\":4466:4469   */\n      0x00\n        /* \"#utility.yul\":4487:4554   */\n      tag_223\n        /* \"#utility.yul\":4551:4553   */\n      0x1f\n        /* \"#utility.yul\":4546:4549   */\n      dup4\n        /* \"#utility.yul\":4487:4554   */\n      tag_150\n      jump\t// in\n    tag_223:\n        /* \"#utility.yul\":4480:4554   */\n      swap2\n      pop\n        /* \"#utility.yul\":4563:4656   */\n      tag_224\n        /* \"#utility.yul\":4652:4655   */\n      dup3\n        /* \"#utility.yul\":4563:4656   */\n      tag_151\n      jump\t// in\n    tag_224:\n        /* \"#utility.yul\":4681:4683   */\n      0x20\n        /* \"#utility.yul\":4676:4679   */\n      dup3\n        /* \"#utility.yul\":4672:4684   */\n      add\n        /* \"#utility.yul\":4665:4684   */\n      swap1\n      pop\n        /* \"#utility.yul\":4324:4690   */\n      swap2\n      swap1\n      pop\n      jump\t// out\n        /* \"#utility.yul\":4696:5115   */\n    tag_61:\n        /* \"#utility.yul\":4862:4866   */\n      0x00\n        /* \"#utility.yul\":4900:4902   */\n      0x20\n        /* \"#utility.yul\":4889:4898   */\n      dup3\n        /* \"#utility.yul\":4885:4903   */\n      add\n        /* \"#utility.yul\":4877:4903   */\n      swap1\n      pop\n        /* \"#utility.yul\":4949:4958   */\n      dup2\n        /* \"#utility.yul\":4943:4947   */\n      dup2\n        /* \"#utility.yul\":4939:4959   */\n      sub\n        /* \"#utility.yul\":4935:4936   */\n      0x00\n        /* \"#utility.yul\":4924:4933   */\n      dup4\n        /* \"#utility.yul\":4920:4937   */\n      add\n        /* \"#utility.yul\":4913:4960   */\n      mstore\n        /* \"#utility.yul\":4977:5108   */\n      tag_226\n        /* \"#utility.yul\":5103:5107   */\n      dup2\n        /* \"#utility.yul\":4977:5108   */\n      tag_152\n      jump\t// in\n    tag_226:\n        /* \"#utility.yul\":4969:5108   */\n      swap1\n      pop\n        /* \"#utility.yul\":4696:5115   */\n      swap2\n      swap1\n      pop\n      jump\t// out\n        /* \"#utility.yul\":5121:5303   */\n    tag_153:\n        /* \"#utility.yul\":5261:5295   */\n      0x596f7520617265206e6f74206120677561726469616e2c2061626f7274696e67\n        /* \"#utility.yul\":5257:5258   */\n      0x00\n        /* \"#utility.yul\":5249:5255   */\n      dup3\n        /* \"#utility.yul\":5245:5259   */\n      add\n        /* \"#utility.yul\":5238:5296   */\n      mstore\n        /* \"#utility.yul\":5121:5303   */\n      pop\n      jump\t// out\n        /* \"#utility.yul\":5309:5675   */\n    tag_154:\n        /* \"#utility.yul\":5451:5454   */\n      0x00\n        /* \"#utility.yul\":5472:5539   */\n      tag_229\n        /* \"#utility.yul\":5536:5538   */\n      0x20\n        /* \"#utility.yul\":5531:5534   */\n      dup4\n        /* \"#utility.yul\":5472:5539   */\n      tag_150\n      jump\t// in\n    tag_229:\n        /* \"#utility.yul\":5465:5539   */\n      swap2\n      pop\n        /* \"#utility.yul\":5548:5641   */\n      tag_230\n        /* \"#utility.yul\":5637:5640   */\n      dup3\n        /* \"#utility.yul\":5548:5641   */\n      tag_153\n      jump\t// in\n    tag_230:\n        /* \"#utility.yul\":5666:5668   */\n      0x20\n        /* \"#utility.yul\":5661:5664   */\n      dup3\n        /* \"#utility.yul\":5657:5669   */\n      add\n        /* \"#utility.yul\":5650:5669   */\n      swap1\n      pop\n        /* \"#utility.yul\":5309:5675   */\n      swap2\n      swap1\n      pop\n      jump\t// out\n        /* \"#utility.yul\":5681:6100   */\n    tag_68:\n        /* \"#utility.yul\":5847:5851   */\n      0x00\n        /* \"#utility.yul\":5885:5887   */\n      0x20\n        /* \"#utility.yul\":5874:5883   */\n      dup3\n        /* \"#utility.yul\":5870:5888   */\n      add\n        /* \"#utility.yul\":5862:5888   */\n      swap1\n      pop\n        /* \"#utility.yul\":5934:5943   */\n      dup2\n        /* \"#utility.yul\":5928:5932   */\n      dup2\n        /* \"#utility.yul\":5924:5944   */\n      sub\n        /* \"#utility.yul\":5920:5921   */\n      0x00\n        /* \"#utility.yul\":5909:5918   */\n      dup4\n        /* \"#utility.yul\":5905:5922   */\n      add\n        /* \"#utility.yul\":5898:5945   */\n      mstore\n        /* \"#utility.yul\":5962:6093   */\n      tag_232\n        /* \"#utility.yul\":6088:6092   */\n      dup2\n        /* \"#utility.yul\":5962:6093   */\n      tag_154\n      jump\t// in\n    tag_232:\n        /* \"#utility.yul\":5954:6093   */\n      swap1\n      pop\n        /* \"#utility.yul\":5681:6100   */\n      swap2\n      swap1\n      pop\n      jump\t// out\n        /* \"#utility.yul\":6106:6334   */\n    tag_155:\n        /* \"#utility.yul\":6246:6280   */\n      0x596f75206861766520616c726561647920766f74656420666f72207468697320\n        /* \"#utility.yul\":6242:6243   */\n      0x00\n        /* \"#utility.yul\":6234:6240   */\n      dup3\n        /* \"#utility.yul\":6230:6244   */\n      add\n        /* \"#utility.yul\":6223:6281   */\n      mstore\n        /* \"#utility.yul\":6315:6326   */\n      0x63616e6469646174650000000000000000000000000000000000000000000000\n        /* \"#utility.yul\":6310:6312   */\n      0x20\n        /* \"#utility.yul\":6302:6308   */\n      dup3\n        /* \"#utility.yul\":6298:6313   */\n      add\n        /* \"#utility.yul\":6291:6327   */\n      mstore\n        /* \"#utility.yul\":6106:6334   */\n      pop\n      jump\t// out\n        /* \"#utility.yul\":6340:6706   */\n    tag_156:\n        /* \"#utility.yul\":6482:6485   */\n      0x00\n        /* \"#utility.yul\":6503:6570   */\n      tag_235\n        /* \"#utility.yul\":6567:6569   */\n      0x29\n        /* \"#utility.yul\":6562:6565   */\n      dup4\n        /* \"#utility.yul\":6503:6570   */\n      tag_150\n      jump\t// in\n    tag_235:\n        /* \"#utility.yul\":6496:6570   */\n      swap2\n      pop\n        /* \"#utility.yul\":6579:6672   */\n      tag_236\n        /* \"#utility.yul\":6668:6671   */\n      dup3\n        /* \"#utility.yul\":6579:6672   */\n      tag_155\n      jump\t// in\n    tag_236:\n        /* \"#utility.yul\":6697:6699   */\n      0x40\n        /* \"#utility.yul\":6692:6695   */\n      dup3\n        /* \"#utility.yul\":6688:6700   */\n      add\n        /* \"#utility.yul\":6681:6700   */\n      swap1\n      pop\n        /* \"#utility.yul\":6340:6706   */\n      swap2\n      swap1\n      pop\n      jump\t// out\n        /* \"#utility.yul\":6712:7131   */\n    tag_71:\n        /* \"#utility.yul\":6878:6882   */\n      0x00\n        /* \"#utility.yul\":6916:6918   */\n      0x20\n        /* \"#utility.yul\":6905:6914   */\n      dup3\n        /* \"#utility.yul\":6901:6919   */\n      add\n        /* \"#utility.yul\":6893:6919   */\n      swap1\n      pop\n        /* \"#utility.yul\":6965:6974   */\n      dup2\n        /* \"#utility.yul\":6959:6963   */\n      dup2\n        /* \"#utility.yul\":6955:6975   */\n      sub\n        /* \"#utility.yul\":6951:6952   */\n      0x00\n        /* \"#utility.yul\":6940:6949   */\n      dup4\n        /* \"#utility.yul\":6936:6953   */\n      add\n        /* \"#utility.yul\":6929:6976   */\n      mstore\n        /* \"#utility.yul\":6993:7124   */\n      tag_238\n        /* \"#utility.yul\":7119:7123   */\n      dup2\n        /* \"#utility.yul\":6993:7124   */\n      tag_156\n      jump\t// in\n    tag_238:\n        /* \"#utility.yul\":6985:7124   */\n      swap1\n      pop\n        /* \"#utility.yul\":6712:7131   */\n      swap2\n      swap1\n      pop\n      jump\t// out\n        /* \"#utility.yul\":7137:7317   */\n    tag_157:\n        /* \"#utility.yul\":7185:7262   */\n      0x4e487b7100000000000000000000000000000000000000000000000000000000\n        /* \"#utility.yul\":7182:7183   */\n      0x00\n        /* \"#utility.yul\":7175:7263   */\n      mstore\n        /* \"#utility.yul\":7282:7286   */\n      0x11\n        /* \"#utility.yul\":7279:7280   */\n      0x04\n        /* \"#utility.yul\":7272:7287   */\n      mstore\n        /* \"#utility.yul\":7306:7310   */\n      0x24\n        /* \"#utility.yul\":7303:7304   */\n      0x00\n        /* \"#utility.yul\":7296:7311   */\n      revert\n        /* \"#utility.yul\":7323:7556   */\n    tag_77:\n        /* \"#utility.yul\":7362:7365   */\n      0x00\n        /* \"#utility.yul\":7385:7409   */\n      tag_241\n        /* \"#utility.yul\":7403:7408   */\n      dup3\n        /* \"#utility.yul\":7385:7409   */\n      tag_143\n      jump\t// in\n    tag_241:\n        /* \"#utility.yul\":7376:7409   */\n      swap2\n      pop\n        /* \"#utility.yul\":7431:7497   */\n      0xffffffffffffffffffffffffffffffffffffffffffffffffffffffffffffffff\n        /* \"#utility.yul\":7424:7429   */\n      dup3\n        /* \"#utility.yul\":7421:7498   */\n      sub\n        /* \"#utility.yul\":7418:7521   */\n      tag_242\n      jumpi\n        /* \"#utility.yul\":7501:7519   */\n      tag_243\n      tag_157\n      jump\t// in\n    tag_243:\n        /* \"#utility.yul\":7418:7521   */\n    tag_242:\n        /* \"#utility.yul\":7548:7549   */\n      0x01\n        /* \"#utility.yul\":7541:7546   */\n      dup3\n        /* \"#utility.yul\":7537:7550   */\n      add\n        /* \"#utility.yul\":7530:7550   */\n      swap1\n      pop\n        /* \"#utility.yul\":7323:7556   */\n      swap2\n      swap1\n      pop\n      jump\t// out\n        /* \"#utility.yul\":7562:7793   */\n    tag_158:\n        /* \"#utility.yul\":7702:7736   */\n      0x54686520636f6e747261637420646f65736e2774206861766520737566666963\n        /* \"#utility.yul\":7698:7699   */\n      0x00\n        /* \"#utility.yul\":7690:7696   */\n      dup3\n        /* \"#utility.yul\":7686:7700   */\n      add\n        /* \"#utility.yul\":7679:7737   */\n      mstore\n        /* \"#utility.yul\":7771:7785   */\n      0x69656e742062616c616e63650000000000000000000000000000000000000000\n        /* \"#utility.yul\":7766:7768   */\n      0x20\n        /* \"#utility.yul\":7758:7764   */\n      dup3\n        /* \"#utility.yul\":7754:7769   */\n      add\n        /* \"#utility.yul\":7747:7786   */\n      mstore\n        /* \"#utility.yul\":7562:7793   */\n      pop\n      jump\t// out\n        /* \"#utility.yul\":7799:8165   */\n    tag_159:\n        /* \"#utility.yul\":7941:7944   */\n      0x00\n        /* \"#utility.yul\":7962:8029   */\n      tag_246\n        /* \"#utility.yul\":8026:8028   */\n      0x2c\n        /* \"#utility.yul\":8021:8024   */\n      dup4\n        /* \"#utility.yul\":7962:8029   */\n      tag_150\n      jump\t// in\n    tag_246:\n        /* \"#utility.yul\":7955:8029   */\n      swap2\n      pop\n        /* \"#utility.yul\":8038:8131   */\n      tag_247\n        /* \"#utility.yul\":8127:8130   */\n      dup3\n        /* \"#utility.yul\":8038:8131   */\n      tag_158\n      jump\t// in\n    tag_247:\n        /* \"#utility.yul\":8156:8158   */\n      0x40\n        /* \"#utility.yul\":8151:8154   */\n      dup3\n        /* \"#utility.yul\":8147:8159   */\n      add\n        /* \"#utility.yul\":8140:8159   */\n      swap1\n      pop\n        /* \"#utility.yul\":7799:8165   */\n      swap2\n      swap1\n      pop\n      jump\t// out\n        /* \"#utility.yul\":8171:8590   */\n    tag_83:\n        /* \"#utility.yul\":8337:8341   */\n      0x00\n        /* \"#utility.yul\":8375:8377   */\n      0x20\n        /* \"#utility.yul\":8364:8373   */\n      dup3\n        /* \"#utility.yul\":8360:8378   */\n      add\n        /* \"#utility.yul\":8352:8378   */\n      swap1\n      pop\n        /* \"#utility.yul\":8424:8433   */\n      dup2\n        /* \"#utility.yul\":8418:8422   */\n      dup2\n        /* \"#utility.yul\":8414:8434   */\n      sub\n        /* \"#utility.yul\":8410:8411   */\n      0x00\n        /* \"#utility.yul\":8399:8408   */\n      dup4\n        /* \"#utility.yul\":8395:8412   */\n      add\n        /* \"#utility.yul\":8388:8435   */\n      mstore\n        /* \"#utility.yul\":8452:8583   */\n      tag_249\n        /* \"#utility.yul\":8578:8582   */\n      dup2\n        /* \"#utility.yul\":8452:8583   */\n      tag_159\n      jump\t// in\n    tag_249:\n        /* \"#utility.yul\":8444:8583   */\n      swap1\n      pop\n        /* \"#utility.yul\":8171:8590   */\n      swap2\n      swap1\n      pop\n      jump\t// out\n        /* \"#utility.yul\":8596:8821   */\n    tag_160:\n        /* \"#utility.yul\":8736:8770   */\n      0x596f7520646f6e2774206861766520616e7920616c6c6f77616e63652c206162\n        /* \"#utility.yul\":8732:8733   */\n      0x00\n        /* \"#utility.yul\":8724:8730   */\n      dup3\n        /* \"#utility.yul\":8720:8734   */\n      add\n        /* \"#utility.yul\":8713:8771   */\n      mstore\n        /* \"#utility.yul\":8805:8813   */\n      0x6f7274696e670000000000000000000000000000000000000000000000000000\n        /* \"#utility.yul\":8800:8802   */\n      0x20\n        /* \"#utility.yul\":8792:8798   */\n      dup3\n        /* \"#utility.yul\":8788:8803   */\n      add\n        /* \"#utility.yul\":8781:8814   */\n      mstore\n        /* \"#utility.yul\":8596:8821   */\n      pop\n      jump\t// out\n        /* \"#utility.yul\":8827:9193   */\n    tag_161:\n        /* \"#utility.yul\":8969:8972   */\n      0x00\n        /* \"#utility.yul\":8990:9057   */\n      tag_252\n        /* \"#utility.yul\":9054:9056   */\n      0x26\n        /* \"#utility.yul\":9049:9052   */\n      dup4\n        /* \"#utility.yul\":8990:9057   */\n      tag_150\n      jump\t// in\n    tag_252:\n        /* \"#utility.yul\":8983:9057   */\n      swap2\n      pop\n        /* \"#utility.yul\":9066:9159   */\n      tag_253\n        /* \"#utility.yul\":9155:9158   */\n      dup3\n        /* \"#utility.yul\":9066:9159   */\n      tag_160\n      jump\t// in\n    tag_253:\n        /* \"#utility.yul\":9184:9186   */\n      0x40\n        /* \"#utility.yul\":9179:9182   */\n      dup3\n        /* \"#utility.yul\":9175:9187   */\n      add\n        /* \"#utility.yul\":9168:9187   */\n      swap1\n      pop\n        /* \"#utility.yul\":8827:9193   */\n      swap2\n      swap1\n      pop\n      jump\t// out\n        /* \"#utility.yul\":9199:9618   */\n    tag_87:\n        /* \"#utility.yul\":9365:9369   */\n      0x00\n        /* \"#utility.yul\":9403:9405   */\n      0x20\n        /* \"#utility.yul\":9392:9401   */\n      dup3\n        /* \"#utility.yul\":9388:9406   */\n      add\n        /* \"#utility.yul\":9380:9406   */\n      swap1\n      pop\n        /* \"#utility.yul\":9452:9461   */\n      dup2\n        /* \"#utility.yul\":9446:9450   */\n      dup2\n        /* \"#utility.yul\":9442:9462   */\n      sub\n        /* \"#utility.yul\":9438:9439   */\n      0x00\n        /* \"#utility.yul\":9427:9436   */\n      dup4\n        /* \"#utility.yul\":9423:9440   */\n      add\n        /* \"#utility.yul\":9416:9463   */\n      mstore\n        /* \"#utility.yul\":9480:9611   */\n      tag_255\n        /* \"#utility.yul\":9606:9610   */\n      dup2\n        /* \"#utility.yul\":9480:9611   */\n      tag_161\n      jump\t// in\n    tag_255:\n        /* \"#utility.yul\":9472:9611   */\n      swap1\n      pop\n        /* \"#utility.yul\":9199:9618   */\n      swap2\n      swap1\n      pop\n      jump\t// out\n        /* \"#utility.yul\":9624:9863   */\n    tag_162:\n        /* \"#utility.yul\":9764:9798   */\n      0x596f7572207265717565737420616d6f756e74206578636565647320796f7572\n        /* \"#utility.yul\":9760:9761   */\n      0x00\n        /* \"#utility.yul\":9752:9758   */\n      dup3\n        /* \"#utility.yul\":9748:9762   */\n      add\n        /* \"#utility.yul\":9741:9799   */\n      mstore\n        /* \"#utility.yul\":9833:9855   */\n      0x2072656d61696e696e6720616c6c6f77616e6365000000000000000000000000\n        /* \"#utility.yul\":9828:9830   */\n      0x20\n        /* \"#utility.yul\":9820:9826   */\n      dup3\n        /* \"#utility.yul\":9816:9831   */\n      add\n        /* \"#utility.yul\":9809:9856   */\n      mstore\n        /* \"#utility.yul\":9624:9863   */\n      pop\n      jump\t// out\n        /* \"#utility.yul\":9869:10235   */\n    tag_163:\n        /* \"#utility.yul\":10011:10014   */\n      0x00\n        /* \"#utility.yul\":10032:10099   */\n      tag_258\n        /* \"#utility.yul\":10096:10098   */\n      0x34\n        /* \"#utility.yul\":10091:10094   */\n      dup4\n        /* \"#utility.yul\":10032:10099   */\n      tag_150\n      jump\t// in\n    tag_258:\n        /* \"#utility.yul\":10025:10099   */\n      swap2\n      pop\n        /* \"#utility.yul\":10108:10201   */\n      tag_259\n        /* \"#utility.yul\":10197:10200   */\n      dup3\n        /* \"#utility.yul\":10108:10201   */\n      tag_162\n      jump\t// in\n    tag_259:\n        /* \"#utility.yul\":10226:10228   */\n      0x40\n        /* \"#utility.yul\":10221:10224   */\n      dup3\n        /* \"#utility.yul\":10217:10229   */\n      add\n        /* \"#utility.yul\":10210:10229   */\n      swap1\n      pop\n        /* \"#utility.yul\":9869:10235   */\n      swap2\n      swap1\n      pop\n      jump\t// out\n        /* \"#utility.yul\":10241:10660   */\n    tag_90:\n        /* \"#utility.yul\":10407:10411   */\n      0x00\n        /* \"#utility.yul\":10445:10447   */\n      0x20\n        /* \"#utility.yul\":10434:10443   */\n      dup3\n        /* \"#utility.yul\":10430:10448   */\n      add\n        /* \"#utility.yul\":10422:10448   */\n      swap1\n      pop\n        /* \"#utility.yul\":10494:10503   */\n      dup2\n        /* \"#utility.yul\":10488:10492   */\n      dup2\n        /* \"#utility.yul\":10484:10504   */\n      sub\n        /* \"#utility.yul\":10480:10481   */\n      0x00\n        /* \"#utility.yul\":10469:10478   */\n      dup4\n        /* \"#utility.yul\":10465:10482   */\n      add\n        /* \"#utility.yul\":10458:10505   */\n      mstore\n        /* \"#utility.yul\":10522:10653   */\n      tag_261\n        /* \"#utility.yul\":10648:10652   */\n      dup2\n        /* \"#utility.yul\":10522:10653   */\n      tag_163\n      jump\t// in\n    tag_261:\n        /* \"#utility.yul\":10514:10653   */\n      swap1\n      pop\n        /* \"#utility.yul\":10241:10660   */\n      swap2\n      swap1\n      pop\n      jump\t// out\n        /* \"#utility.yul\":10666:10813   */\n    tag_164:\n        /* \"#utility.yul\":10767:10778   */\n      0x00\n        /* \"#utility.yul\":10804:10807   */\n      dup2\n        /* \"#utility.yul\":10789:10807   */\n      swap1\n      pop\n        /* \"#utility.yul\":10666:10813   */\n      swap3\n      swap2\n      pop\n      pop\n      jump\t// out\n        /* \"#utility.yul\":10819:10933   */\n    tag_165:\n      pop\n      jump\t// out\n        /* \"#utility.yul\":10939:11337   */\n    tag_166:\n        /* \"#utility.yul\":11098:11101   */\n      0x00\n        /* \"#utility.yul\":11119:11202   */\n      tag_265\n        /* \"#utility.yul\":11200:11201   */\n      0x00\n        /* \"#utility.yul\":11195:11198   */\n      dup4\n        /* \"#utility.yul\":11119:11202   */\n      tag_164\n      jump\t// in\n    tag_265:\n        /* \"#utility.yul\":11112:11202   */\n      swap2\n      pop\n        /* \"#utility.yul\":11211:11304   */\n      tag_266\n        /* \"#utility.yul\":11300:11303   */\n      dup3\n        /* \"#utility.yul\":11211:11304   */\n      tag_165\n      jump\t// in\n    tag_266:\n        /* \"#utility.yul\":11329:11330   */\n      0x00\n        /* \"#utility.yul\":11324:11327   */\n      dup3\n        /* \"#utility.yul\":11320:11331   */\n      add\n        /* \"#utility.yul\":11313:11331   */\n      swap1\n      pop\n        /* \"#utility.yul\":10939:11337   */\n      swap2\n      swap1\n      pop\n      jump\t// out\n        /* \"#utility.yul\":11343:11722   */\n    tag_92:\n        /* \"#utility.yul\":11527:11530   */\n      0x00\n        /* \"#utility.yul\":11549:11696   */\n      tag_268\n        /* \"#utility.yul\":11692:11695   */\n      dup3\n        /* \"#utility.yul\":11549:11696   */\n      tag_166\n      jump\t// in\n    tag_268:\n        /* \"#utility.yul\":11542:11696   */\n      swap2\n      pop\n        /* \"#utility.yul\":11713:11716   */\n      dup2\n        /* \"#utility.yul\":11706:11716   */\n      swap1\n      pop\n        /* \"#utility.yul\":11343:11722   */\n      swap2\n      swap1\n      pop\n      jump\t// out\n        /* \"#utility.yul\":11728:11899   */\n    tag_167:\n        /* \"#utility.yul\":11868:11891   */\n      0x43616c6c204661696c65642c2061626f7274696e670000000000000000000000\n        /* \"#utility.yul\":11864:11865   */\n      0x00\n        /* \"#utility.yul\":11856:11862   */\n      dup3\n        /* \"#utility.yul\":11852:11866   */\n      add\n        /* \"#utility.yul\":11845:11892   */\n      mstore\n        /* \"#utility.yul\":11728:11899   */\n      pop\n      jump\t// out\n        /* \"#utility.yul\":11905:12271   */\n    tag_168:\n        /* \"#utility.yul\":12047:12050   */\n      0x00\n        /* \"#utility.yul\":12068:12135   */\n      tag_271\n        /* \"#utility.yul\":12132:12134   */\n      0x15\n        /* \"#utility.yul\":12127:12130   */\n      dup4\n        /* \"#utility.yul\":12068:12135   */\n      tag_150\n      jump\t// in\n    tag_271:\n        /* \"#utility.yul\":12061:12135   */\n      swap2\n      pop\n        /* \"#utility.yul\":12144:12237   */\n      tag_272\n        /* \"#utility.yul\":12233:12236   */\n      dup3\n        /* \"#utility.yul\":12144:12237   */\n      tag_167\n      jump\t// in\n    tag_272:\n        /* \"#utility.yul\":12262:12264   */\n      0x20\n        /* \"#utility.yul\":12257:12260   */\n      dup3\n        /* \"#utility.yul\":12253:12265   */\n      add\n        /* \"#utility.yul\":12246:12265   */\n      swap1\n      pop\n        /* \"#utility.yul\":11905:12271   */\n      swap2\n      swap1\n      pop\n      jump\t// out\n        /* \"#utility.yul\":12277:12696   */\n    tag_98:\n        /* \"#utility.yul\":12443:12447   */\n      0x00\n        /* \"#utility.yul\":12481:12483   */\n      0x20\n        /* \"#utility.yul\":12470:12479   */\n      dup3\n        /* \"#utility.yul\":12466:12484   */\n      add\n        /* \"#utility.yul\":12458:12484   */\n      swap1\n      pop\n        /* \"#utility.yul\":12530:12539   */\n      dup2\n        /* \"#utility.yul\":12524:12528   */\n      dup2\n        /* \"#utility.yul\":12520:12540   */\n      sub\n        /* \"#utility.yul\":12516:12517   */\n      0x00\n        /* \"#utility.yul\":12505:12514   */\n      dup4\n        /* \"#utility.yul\":12501:12518   */\n      add\n        /* \"#utility.yul\":12494:12541   */\n      mstore\n        /* \"#utility.yul\":12558:12689   */\n      tag_274\n        /* \"#utility.yul\":12684:12688   */\n      dup2\n        /* \"#utility.yul\":12558:12689   */\n      tag_168\n      jump\t// in\n    tag_274:\n        /* \"#utility.yul\":12550:12689   */\n      swap1\n      pop\n        /* \"#utility.yul\":12277:12696   */\n      swap2\n      swap1\n      pop\n      jump\t// out\n        /* \"#utility.yul\":12702:12896   */\n    tag_100:\n        /* \"#utility.yul\":12742:12746   */\n      0x00\n        /* \"#utility.yul\":12762:12782   */\n      tag_276\n        /* \"#utility.yul\":12780:12781   */\n      dup3\n        /* \"#utility.yul\":12762:12782   */\n      tag_143\n      jump\t// in\n    tag_276:\n        /* \"#utility.yul\":12757:12782   */\n      swap2\n      pop\n        /* \"#utility.yul\":12796:12816   */\n      tag_277\n        /* \"#utility.yul\":12814:12815   */\n      dup4\n        /* \"#utility.yul\":12796:12816   */\n      tag_143\n      jump\t// in\n    tag_277:\n        /* \"#utility.yul\":12791:12816   */\n      swap3\n      pop\n        /* \"#utility.yul\":12840:12841   */\n      dup3\n        /* \"#utility.yul\":12837:12838   */\n      dup3\n        /* \"#utility.yul\":12833:12842   */\n      sub\n        /* \"#utility.yul\":12825:12842   */\n      swap1\n      pop\n        /* \"#utility.yul\":12864:12865   */\n      dup2\n        /* \"#utility.yul\":12858:12862   */\n      dup2\n        /* \"#utility.yul\":12855:12866   */\n      gt\n        /* \"#utility.yul\":12852:12889   */\n      iszero\n      tag_278\n      jumpi\n        /* \"#utility.yul\":12869:12887   */\n      tag_279\n      tag_157\n      jump\t// in\n    tag_279:\n        /* \"#utility.yul\":12852:12889   */\n    tag_278:\n        /* \"#utility.yul\":12702:12896   */\n      swap3\n      swap2\n      pop\n      pop\n      jump\t// out\n        /* \"#utility.yul\":12902:13082   */\n    tag_123:\n        /* \"#utility.yul\":12950:13027   */\n      0x4e487b7100000000000000000000000000000000000000000000000000000000\n        /* \"#utility.yul\":12947:12948   */\n      0x00\n        /* \"#utility.yul\":12940:13028   */\n      mstore\n        /* \"#utility.yul\":13047:13051   */\n      0x32\n        /* \"#utility.yul\":13044:13045   */\n      0x04\n        /* \"#utility.yul\":13037:13052   */\n      mstore\n        /* \"#utility.yul\":13071:13075   */\n      0x24\n        /* \"#utility.yul\":13068:13069   */\n      0x00\n        /* \"#utility.yul\":13061:13076   */\n      revert\n\n    auxdata: 0xa2646970667358221220afc288e464cb6dabe939fec79d2d734a1c7ff28686d71096e78d88e3c5950b6264736f6c63430008100033\n}\n",
				"bytecode": {
					"linkReferences": {},
					"object": "608060405234801561001057600080fd5b50336000806101000a81548173ffffffffffffffffffffffffffffffffffffffff021916908373ffffffffffffffffffffffffffffffffffffffff1602179055506114d2806100606000396000f3fe60806040526004361061008a5760003560e01c8063990dc9db11610059578063990dc9db1461013e578063994ba4d214610167578063a526d83b14610192578063bc677b46146101bb578063f560c734146101e657610091565b80631a272ccf14610096578063310ec4a7146100c157806365a3acf0146100ea5780637e21565b1461011557610091565b3661009157005b600080fd5b3480156100a257600080fd5b506100ab610223565b6040516100b89190610e1b565b60405180910390f35b3480156100cd57600080fd5b506100e860048036038101906100e39190610e9d565b610249565b005b3480156100f657600080fd5b506100ff61031f565b60405161010c9190610eec565b60405180910390f35b34801561012157600080fd5b5061013c60048036038101906101379190610f07565b610366565b005b34801561014a57600080fd5b5061016560048036038101906101609190610f72565b61076e565b005b34801561017357600080fd5b5061017c610ac2565b6040516101899190610eec565b60405180910390f35b34801561019e57600080fd5b506101b960048036038101906101b49190610f07565b610ac8565b005b3480156101c757600080fd5b506101d0610bca565b6040516101dd9190610e1b565b60405180910390f35b3480156101f257600080fd5b5061020d60048036038101906102089190610fb2565b610bf3565b60405161021a9190610e1b565b60405180910390f35b600460009054906101000a900473ffffffffffffffffffffffffffffffffffffffff1681565b60008054906101000a900473ffffffffffffffffffffffffffffffffffffffff1673ffffffffffffffffffffffffffffffffffffffff163373ffffffffffffffffffffffffffffffffffffffff16146102d7576040517f08c379a00000000000000000000000000000000000000000000000000000000081526004016102ce9061103c565b60405180910390fd5b80600160008473ffffffffffffffffffffffffffffffffffffffff1673ffffffffffffffffffffffffffffffffffffffff168152602001908152602001600020819055505050565b6000600160003373ffffffffffffffffffffffffffffffffffffffff1673ffffffffffffffffffffffffffffffffffffffff16815260200190815260200160002054905090565b61036f33610c32565b6103ae576040517f08c379a00000000000000000000000000000000000000000000000000000000081526004016103a5906110a8565b60405180910390fd5b600360003373ffffffffffffffffffffffffffffffffffffffff1673ffffffffffffffffffffffffffffffffffffffff16815260200190815260200160002060008273ffffffffffffffffffffffffffffffffffffffff1673ffffffffffffffffffffffffffffffffffffffff16815260200190815260200160002060009054906101000a900460ff1615610478576040517f08c379a000000000000000000000000000000000000000000000000000000000815260040161046f9061113a565b60405180910390fd5b600460009054906101000a900473ffffffffffffffffffffffffffffffffffffffff1673ffffffffffffffffffffffffffffffffffffffff168173ffffffffffffffffffffffffffffffffffffffff16146105db576104f8600460009054906101000a900473ffffffffffffffffffffffffffffffffffffffff16610ce0565b80600460006101000a81548173ffffffffffffffffffffffffffffffffffffffff021916908373ffffffffffffffffffffffffffffffffffffffff16021790555060016005819055506001600360003373ffffffffffffffffffffffffffffffffffffffff1673ffffffffffffffffffffffffffffffffffffffff16815260200190815260200160002060008373ffffffffffffffffffffffffffffffffffffffff1673ffffffffffffffffffffffffffffffffffffffff16815260200190815260200160002060006101000a81548160ff021916908315150217905550610689565b600560008154809291906105ee90611189565b91905055506001600360003373ffffffffffffffffffffffffffffffffffffffff1673ffffffffffffffffffffffffffffffffffffffff16815260200190815260200160002060008373ffffffffffffffffffffffffffffffffffffffff1673ffffffffffffffffffffffffffffffffffffffff16815260200190815260200160002060006101000a81548160ff0219169083151502179055505b60036005541061076b57600460009054906101000a900473ffffffffffffffffffffffffffffffffffffffff166000806101000a81548173ffffffffffffffffffffffffffffffffffffffff021916908373ffffffffffffffffffffffffffffffffffffffff160217905550610720600460009054906101000a900473ffffffffffffffffffffffffffffffffffffffff16610ce0565b6000600460006101000a81548173ffffffffffffffffffffffffffffffffffffffff021916908373ffffffffffffffffffffffffffffffffffffffff16021790555060006005819055505b50565b478111156107b1576040517f08c379a00000000000000000000000000000000000000000000000000000000081526004016107a890611243565b60405180910390fd5b60008054906101000a900473ffffffffffffffffffffffffffffffffffffffff1673ffffffffffffffffffffffffffffffffffffffff163373ffffffffffffffffffffffffffffffffffffffff1614610a10576000600160003373ffffffffffffffffffffffffffffffffffffffff1673ffffffffffffffffffffffffffffffffffffffff1681526020019081526020016000205403610886576040517f08c379a000000000000000000000000000000000000000000000000000000000815260040161087d906112d5565b60405180910390fd5b80600160003373ffffffffffffffffffffffffffffffffffffffff1673ffffffffffffffffffffffffffffffffffffffff168152602001908152602001600020541015610908576040517f08c379a00000000000000000000000000000000000000000000000000000000081526004016108ff90611367565b60405180910390fd5b60008273ffffffffffffffffffffffffffffffffffffffff168260405161092e906113b8565b60006040518083038185875af1925050503d806000811461096b576040519150601f19603f3d011682016040523d82523d6000602084013e610970565b606091505b50509050806109b4576040517f08c379a00000000000000000000000000000000000000000000000000000000081526004016109ab90611419565b60405180910390fd5b81600160003373ffffffffffffffffffffffffffffffffffffffff1673ffffffffffffffffffffffffffffffffffffffff1681526020019081526020016000206000828254610a039190611439565b9250508190555050610abe565b60008273ffffffffffffffffffffffffffffffffffffffff1682604051610a36906113b8565b60006040518083038185875af1925050503d8060008114610a73576040519150601f19603f3d011682016040523d82523d6000602084013e610a78565b606091505b5050905080610abc576040517f08c379a0000000000000000000000000000000000000000000000000000000008152600401610ab390611419565b60405180910390fd5b505b5050565b60055481565b60008054906101000a900473ffffffffffffffffffffffffffffffffffffffff1673ffffffffffffffffffffffffffffffffffffffff163373ffffffffffffffffffffffffffffffffffffffff1614610b56576040517f08c379a0000000000000000000000000000000000000000000000000000000008152600401610b4d9061103c565b60405180910390fd5b610b5f81610c32565b610bc7576002819080600181540180825580915050600190039060005260206000200160009091909190916101000a81548173ffffffffffffffffffffffffffffffffffffffff021916908373ffffffffffffffffffffffffffffffffffffffff1602179055505b50565b60008060009054906101000a900473ffffffffffffffffffffffffffffffffffffffff16905090565b60028181548110610c0357600080fd5b906000526020600020016000915054906101000a900473ffffffffffffffffffffffffffffffffffffffff1681565b600080600090505b600280549050811015610cd5578273ffffffffffffffffffffffffffffffffffffffff1660028281548110610c7257610c7161146d565b5b9060005260206000200160009054906101000a900473ffffffffffffffffffffffffffffffffffffffff1673ffffffffffffffffffffffffffffffffffffffff1603610cc2576001915050610cdb565b8080610ccd90611189565b915050610c3a565b50600090505b919050565b60005b600280549050811015610dd65760006003600060028481548110610d0a57610d0961146d565b5b9060005260206000200160009054906101000a900473ffffffffffffffffffffffffffffffffffffffff1673ffffffffffffffffffffffffffffffffffffffff1673ffffffffffffffffffffffffffffffffffffffff16815260200190815260200160002060008473ffffffffffffffffffffffffffffffffffffffff1673ffffffffffffffffffffffffffffffffffffffff16815260200190815260200160002060006101000a81548160ff0219169083151502179055508080610dce90611189565b915050610ce3565b5050565b600073ffffffffffffffffffffffffffffffffffffffff82169050919050565b6000610e0582610dda565b9050919050565b610e1581610dfa565b82525050565b6000602082019050610e306000830184610e0c565b92915050565b600080fd5b610e4481610dfa565b8114610e4f57600080fd5b50565b600081359050610e6181610e3b565b92915050565b6000819050919050565b610e7a81610e67565b8114610e8557600080fd5b50565b600081359050610e9781610e71565b92915050565b60008060408385031215610eb457610eb3610e36565b5b6000610ec285828601610e52565b9250506020610ed385828601610e88565b9150509250929050565b610ee681610e67565b82525050565b6000602082019050610f016000830184610edd565b92915050565b600060208284031215610f1d57610f1c610e36565b5b6000610f2b84828501610e52565b91505092915050565b6000610f3f82610dda565b9050919050565b610f4f81610f34565b8114610f5a57600080fd5b50565b600081359050610f6c81610f46565b92915050565b60008060408385031215610f8957610f88610e36565b5b6000610f9785828601610f5d565b9250506020610fa885828601610e88565b9150509250929050565b600060208284031215610fc857610fc7610e36565b5b6000610fd684828501610e88565b91505092915050565b600082825260208201905092915050565b7f596f7520617265206e6f7420746865206f776e65722c2061626f7274696e6700600082015250565b6000611026601f83610fdf565b915061103182610ff0565b602082019050919050565b6000602082019050818103600083015261105581611019565b9050919050565b7f596f7520617265206e6f74206120677561726469616e2c2061626f7274696e67600082015250565b6000611092602083610fdf565b915061109d8261105c565b602082019050919050565b600060208201905081810360008301526110c181611085565b9050919050565b7f596f75206861766520616c726561647920766f74656420666f7220746869732060008201527f63616e6469646174650000000000000000000000000000000000000000000000602082015250565b6000611124602983610fdf565b915061112f826110c8565b604082019050919050565b6000602082019050818103600083015261115381611117565b9050919050565b7f4e487b7100000000000000000000000000000000000000000000000000000000600052601160045260246000fd5b600061119482610e67565b91507fffffffffffffffffffffffffffffffffffffffffffffffffffffffffffffffff82036111c6576111c561115a565b5b600182019050919050565b7f54686520636f6e747261637420646f65736e277420686176652073756666696360008201527f69656e742062616c616e63650000000000000000000000000000000000000000602082015250565b600061122d602c83610fdf565b9150611238826111d1565b604082019050919050565b6000602082019050818103600083015261125c81611220565b9050919050565b7f596f7520646f6e2774206861766520616e7920616c6c6f77616e63652c20616260008201527f6f7274696e670000000000000000000000000000000000000000000000000000602082015250565b60006112bf602683610fdf565b91506112ca82611263565b604082019050919050565b600060208201905081810360008301526112ee816112b2565b9050919050565b7f596f7572207265717565737420616d6f756e74206578636565647320796f757260008201527f2072656d61696e696e6720616c6c6f77616e6365000000000000000000000000602082015250565b6000611351603483610fdf565b915061135c826112f5565b604082019050919050565b6000602082019050818103600083015261138081611344565b9050919050565b600081905092915050565b50565b60006113a2600083611387565b91506113ad82611392565b600082019050919050565b60006113c382611395565b9150819050919050565b7f43616c6c204661696c65642c2061626f7274696e670000000000000000000000600082015250565b6000611403601583610fdf565b915061140e826113cd565b602082019050919050565b60006020820190508181036000830152611432816113f6565b9050919050565b600061144482610e67565b915061144f83610e67565b92508282039050818111156114675761146661115a565b5b92915050565b7f4e487b7100000000000000000000000000000000000000000000000000000000600052603260045260246000fdfea2646970667358221220afc288e464cb6dabe939fec79d2d734a1c7ff28686d71096e78d88e3c5950b6264736f6c63430008100033",
					"opcodes": "PUSH1 0x80 PUSH1 0x40 MSTORE CALLVALUE DUP1 ISZERO PUSH2 0x10 JUMPI PUSH1 0x0 DUP1 REVERT JUMPDEST POP CALLER PUSH1 0x0 DUP1 PUSH2 0x100 EXP DUP2 SLOAD DUP2 PUSH20 0xFFFFFFFFFFFFFFFFFFFFFFFFFFFFFFFFFFFFFFFF MUL NOT AND SWAP1 DUP4 PUSH20 0xFFFFFFFFFFFFFFFFFFFFFFFFFFFFFFFFFFFFFFFF AND MUL OR SWAP1 SSTORE POP PUSH2 0x14D2 DUP1 PUSH2 0x60 PUSH1 0x0 CODECOPY PUSH1 0x0 RETURN INVALID PUSH1 0x80 PUSH1 0x40 MSTORE PUSH1 0x4 CALLDATASIZE LT PUSH2 0x8A JUMPI PUSH1 0x0 CALLDATALOAD PUSH1 0xE0 SHR DUP1 PUSH4 0x990DC9DB GT PUSH2 0x59 JUMPI DUP1 PUSH4 0x990DC9DB EQ PUSH2 0x13E JUMPI DUP1 PUSH4 0x994BA4D2 EQ PUSH2 0x167 JUMPI DUP1 PUSH4 0xA526D83B EQ PUSH2 0x192 JUMPI DUP1 PUSH4 0xBC677B46 EQ PUSH2 0x1BB JUMPI DUP1 PUSH4 0xF560C734 EQ PUSH2 0x1E6 JUMPI PUSH2 0x91 JUMP JUMPDEST DUP1 PUSH4 0x1A272CCF EQ PUSH2 0x96 JUMPI DUP1 PUSH4 0x310EC4A7 EQ PUSH2 0xC1 JUMPI DUP1 PUSH4 0x65A3ACF0 EQ PUSH2 0xEA JUMPI DUP1 PUSH4 0x7E21565B EQ PUSH2 0x115 JUMPI PUSH2 0x91 JUMP JUMPDEST CALLDATASIZE PUSH2 0x91 JUMPI STOP JUMPDEST PUSH1 0x0 DUP1 REVERT JUMPDEST CALLVALUE DUP1 ISZERO PUSH2 0xA2 JUMPI PUSH1 0x0 DUP1 REVERT JUMPDEST POP PUSH2 0xAB PUSH2 0x223 JUMP JUMPDEST PUSH1 0x40 MLOAD PUSH2 0xB8 SWAP2 SWAP1 PUSH2 0xE1B JUMP JUMPDEST PUSH1 0x40 MLOAD DUP1 SWAP2 SUB SWAP1 RETURN JUMPDEST CALLVALUE DUP1 ISZERO PUSH2 0xCD JUMPI PUSH1 0x0 DUP1 REVERT JUMPDEST POP PUSH2 0xE8 PUSH1 0x4 DUP1 CALLDATASIZE SUB DUP2 ADD SWAP1 PUSH2 0xE3 SWAP2 SWAP1 PUSH2 0xE9D JUMP JUMPDEST PUSH2 0x249 JUMP JUMPDEST STOP JUMPDEST CALLVALUE DUP1 ISZERO PUSH2 0xF6 JUMPI PUSH1 0x0 DUP1 REVERT JUMPDEST POP PUSH2 0xFF PUSH2 0x31F JUMP JUMPDEST PUSH1 0x40 MLOAD PUSH2 0x10C SWAP2 SWAP1 PUSH2 0xEEC JUMP JUMPDEST PUSH1 0x40 MLOAD DUP1 SWAP2 SUB SWAP1 RETURN JUMPDEST CALLVALUE DUP1 ISZERO PUSH2 0x121 JUMPI PUSH1 0x0 DUP1 REVERT JUMPDEST POP PUSH2 0x13C PUSH1 0x4 DUP1 CALLDATASIZE SUB DUP2 ADD SWAP1 PUSH2 0x137 SWAP2 SWAP1 PUSH2 0xF07 JUMP JUMPDEST PUSH2 0x366 JUMP JUMPDEST STOP JUMPDEST CALLVALUE DUP1 ISZERO PUSH2 0x14A JUMPI PUSH1 0x0 DUP1 REVERT JUMPDEST POP PUSH2 0x165 PUSH1 0x4 DUP1 CALLDATASIZE SUB DUP2 ADD SWAP1 PUSH2 0x160 SWAP2 SWAP1 PUSH2 0xF72 JUMP JUMPDEST PUSH2 0x76E JUMP JUMPDEST STOP JUMPDEST CALLVALUE DUP1 ISZERO PUSH2 0x173 JUMPI PUSH1 0x0 DUP1 REVERT JUMPDEST POP PUSH2 0x17C PUSH2 0xAC2 JUMP JUMPDEST PUSH1 0x40 MLOAD PUSH2 0x189 SWAP2 SWAP1 PUSH2 0xEEC JUMP JUMPDEST PUSH1 0x40 MLOAD DUP1 SWAP2 SUB SWAP1 RETURN JUMPDEST CALLVALUE DUP1 ISZERO PUSH2 0x19E JUMPI PUSH1 0x0 DUP1 REVERT JUMPDEST POP PUSH2 0x1B9 PUSH1 0x4 DUP1 CALLDATASIZE SUB DUP2 ADD SWAP1 PUSH2 0x1B4 SWAP2 SWAP1 PUSH2 0xF07 JUMP JUMPDEST PUSH2 0xAC8 JUMP JUMPDEST STOP JUMPDEST CALLVALUE DUP1 ISZERO PUSH2 0x1C7 JUMPI PUSH1 0x0 DUP1 REVERT JUMPDEST POP PUSH2 0x1D0 PUSH2 0xBCA JUMP JUMPDEST PUSH1 0x40 MLOAD PUSH2 0x1DD SWAP2 SWAP1 PUSH2 0xE1B JUMP JUMPDEST PUSH1 0x40 MLOAD DUP1 SWAP2 SUB SWAP1 RETURN JUMPDEST CALLVALUE DUP1 ISZERO PUSH2 0x1F2 JUMPI PUSH1 0x0 DUP1 REVERT JUMPDEST POP PUSH2 0x20D PUSH1 0x4 DUP1 CALLDATASIZE SUB DUP2 ADD SWAP1 PUSH2 0x208 SWAP2 SWAP1 PUSH2 0xFB2 JUMP JUMPDEST PUSH2 0xBF3 JUMP JUMPDEST PUSH1 0x40 MLOAD PUSH2 0x21A SWAP2 SWAP1 PUSH2 0xE1B JUMP JUMPDEST PUSH1 0x40 MLOAD DUP1 SWAP2 SUB SWAP1 RETURN JUMPDEST PUSH1 0x4 PUSH1 0x0 SWAP1 SLOAD SWAP1 PUSH2 0x100 EXP SWAP1 DIV PUSH20 0xFFFFFFFFFFFFFFFFFFFFFFFFFFFFFFFFFFFFFFFF AND DUP2 JUMP JUMPDEST PUSH1 0x0 DUP1 SLOAD SWAP1 PUSH2 0x100 EXP SWAP1 DIV PUSH20 0xFFFFFFFFFFFFFFFFFFFFFFFFFFFFFFFFFFFFFFFF AND PUSH20 0xFFFFFFFFFFFFFFFFFFFFFFFFFFFFFFFFFFFFFFFF AND CALLER PUSH20 0xFFFFFFFFFFFFFFFFFFFFFFFFFFFFFFFFFFFFFFFF AND EQ PUSH2 0x2D7 JUMPI PUSH1 0x40 MLOAD PUSH32 0x8C379A000000000000000000000000000000000000000000000000000000000 DUP2 MSTORE PUSH1 0x4 ADD PUSH2 0x2CE SWAP1 PUSH2 0x103C JUMP JUMPDEST PUSH1 0x40 MLOAD DUP1 SWAP2 SUB SWAP1 REVERT JUMPDEST DUP1 PUSH1 0x1 PUSH1 0x0 DUP5 PUSH20 0xFFFFFFFFFFFFFFFFFFFFFFFFFFFFFFFFFFFFFFFF AND PUSH20 0xFFFFFFFFFFFFFFFFFFFFFFFFFFFFFFFFFFFFFFFF AND DUP2 MSTORE PUSH1 0x20 ADD SWAP1 DUP2 MSTORE PUSH1 0x20 ADD PUSH1 0x0 KECCAK256 DUP2 SWAP1 SSTORE POP POP POP JUMP JUMPDEST PUSH1 0x0 PUSH1 0x1 PUSH1 0x0 CALLER PUSH20 0xFFFFFFFFFFFFFFFFFFFFFFFFFFFFFFFFFFFFFFFF AND PUSH20 0xFFFFFFFFFFFFFFFFFFFFFFFFFFFFFFFFFFFFFFFF AND DUP2 MSTORE PUSH1 0x20 ADD SWAP1 DUP2 MSTORE PUSH1 0x20 ADD PUSH1 0x0 KECCAK256 SLOAD SWAP1 POP SWAP1 JUMP JUMPDEST PUSH2 0x36F CALLER PUSH2 0xC32 JUMP JUMPDEST PUSH2 0x3AE JUMPI PUSH1 0x40 MLOAD PUSH32 0x8C379A000000000000000000000000000000000000000000000000000000000 DUP2 MSTORE PUSH1 0x4 ADD PUSH2 0x3A5 SWAP1 PUSH2 0x10A8 JUMP JUMPDEST PUSH1 0x40 MLOAD DUP1 SWAP2 SUB SWAP1 REVERT JUMPDEST PUSH1 0x3 PUSH1 0x0 CALLER PUSH20 0xFFFFFFFFFFFFFFFFFFFFFFFFFFFFFFFFFFFFFFFF AND PUSH20 0xFFFFFFFFFFFFFFFFFFFFFFFFFFFFFFFFFFFFFFFF AND DUP2 MSTORE PUSH1 0x20 ADD SWAP1 DUP2 MSTORE PUSH1 0x20 ADD PUSH1 0x0 KECCAK256 PUSH1 0x0 DUP3 PUSH20 0xFFFFFFFFFFFFFFFFFFFFFFFFFFFFFFFFFFFFFFFF AND PUSH20 0xFFFFFFFFFFFFFFFFFFFFFFFFFFFFFFFFFFFFFFFF AND DUP2 MSTORE PUSH1 0x20 ADD SWAP1 DUP2 MSTORE PUSH1 0x20 ADD PUSH1 0x0 KECCAK256 PUSH1 0x0 SWAP1 SLOAD SWAP1 PUSH2 0x100 EXP SWAP1 DIV PUSH1 0xFF AND ISZERO PUSH2 0x478 JUMPI PUSH1 0x40 MLOAD PUSH32 0x8C379A000000000000000000000000000000000000000000000000000000000 DUP2 MSTORE PUSH1 0x4 ADD PUSH2 0x46F SWAP1 PUSH2 0x113A JUMP JUMPDEST PUSH1 0x40 MLOAD DUP1 SWAP2 SUB SWAP1 REVERT JUMPDEST PUSH1 0x4 PUSH1 0x0 SWAP1 SLOAD SWAP1 PUSH2 0x100 EXP SWAP1 DIV PUSH20 0xFFFFFFFFFFFFFFFFFFFFFFFFFFFFFFFFFFFFFFFF AND PUSH20 0xFFFFFFFFFFFFFFFFFFFFFFFFFFFFFFFFFFFFFFFF AND DUP2 PUSH20 0xFFFFFFFFFFFFFFFFFFFFFFFFFFFFFFFFFFFFFFFF AND EQ PUSH2 0x5DB JUMPI PUSH2 0x4F8 PUSH1 0x4 PUSH1 0x0 SWAP1 SLOAD SWAP1 PUSH2 0x100 EXP SWAP1 DIV PUSH20 0xFFFFFFFFFFFFFFFFFFFFFFFFFFFFFFFFFFFFFFFF AND PUSH2 0xCE0 JUMP JUMPDEST DUP1 PUSH1 0x4 PUSH1 0x0 PUSH2 0x100 EXP DUP2 SLOAD DUP2 PUSH20 0xFFFFFFFFFFFFFFFFFFFFFFFFFFFFFFFFFFFFFFFF MUL NOT AND SWAP1 DUP4 PUSH20 0xFFFFFFFFFFFFFFFFFFFFFFFFFFFFFFFFFFFFFFFF AND MUL OR SWAP1 SSTORE POP PUSH1 0x1 PUSH1 0x5 DUP2 SWAP1 SSTORE POP PUSH1 0x1 PUSH1 0x3 PUSH1 0x0 CALLER PUSH20 0xFFFFFFFFFFFFFFFFFFFFFFFFFFFFFFFFFFFFFFFF AND PUSH20 0xFFFFFFFFFFFFFFFFFFFFFFFFFFFFFFFFFFFFFFFF AND DUP2 MSTORE PUSH1 0x20 ADD SWAP1 DUP2 MSTORE PUSH1 0x20 ADD PUSH1 0x0 KECCAK256 PUSH1 0x0 DUP4 PUSH20 0xFFFFFFFFFFFFFFFFFFFFFFFFFFFFFFFFFFFFFFFF AND PUSH20 0xFFFFFFFFFFFFFFFFFFFFFFFFFFFFFFFFFFFFFFFF AND DUP2 MSTORE PUSH1 0x20 ADD SWAP1 DUP2 MSTORE PUSH1 0x20 ADD PUSH1 0x0 KECCAK256 PUSH1 0x0 PUSH2 0x100 EXP DUP2 SLOAD DUP2 PUSH1 0xFF MUL NOT AND SWAP1 DUP4 ISZERO ISZERO MUL OR SWAP1 SSTORE POP PUSH2 0x689 JUMP JUMPDEST PUSH1 0x5 PUSH1 0x0 DUP2 SLOAD DUP1 SWAP3 SWAP2 SWAP1 PUSH2 0x5EE SWAP1 PUSH2 0x1189 JUMP JUMPDEST SWAP2 SWAP1 POP SSTORE POP PUSH1 0x1 PUSH1 0x3 PUSH1 0x0 CALLER PUSH20 0xFFFFFFFFFFFFFFFFFFFFFFFFFFFFFFFFFFFFFFFF AND PUSH20 0xFFFFFFFFFFFFFFFFFFFFFFFFFFFFFFFFFFFFFFFF AND DUP2 MSTORE PUSH1 0x20 ADD SWAP1 DUP2 MSTORE PUSH1 0x20 ADD PUSH1 0x0 KECCAK256 PUSH1 0x0 DUP4 PUSH20 0xFFFFFFFFFFFFFFFFFFFFFFFFFFFFFFFFFFFFFFFF AND PUSH20 0xFFFFFFFFFFFFFFFFFFFFFFFFFFFFFFFFFFFFFFFF AND DUP2 MSTORE PUSH1 0x20 ADD SWAP1 DUP2 MSTORE PUSH1 0x20 ADD PUSH1 0x0 KECCAK256 PUSH1 0x0 PUSH2 0x100 EXP DUP2 SLOAD DUP2 PUSH1 0xFF MUL NOT AND SWAP1 DUP4 ISZERO ISZERO MUL OR SWAP1 SSTORE POP JUMPDEST PUSH1 0x3 PUSH1 0x5 SLOAD LT PUSH2 0x76B JUMPI PUSH1 0x4 PUSH1 0x0 SWAP1 SLOAD SWAP1 PUSH2 0x100 EXP SWAP1 DIV PUSH20 0xFFFFFFFFFFFFFFFFFFFFFFFFFFFFFFFFFFFFFFFF AND PUSH1 0x0 DUP1 PUSH2 0x100 EXP DUP2 SLOAD DUP2 PUSH20 0xFFFFFFFFFFFFFFFFFFFFFFFFFFFFFFFFFFFFFFFF MUL NOT AND SWAP1 DUP4 PUSH20 0xFFFFFFFFFFFFFFFFFFFFFFFFFFFFFFFFFFFFFFFF AND MUL OR SWAP1 SSTORE POP PUSH2 0x720 PUSH1 0x4 PUSH1 0x0 SWAP1 SLOAD SWAP1 PUSH2 0x100 EXP SWAP1 DIV PUSH20 0xFFFFFFFFFFFFFFFFFFFFFFFFFFFFFFFFFFFFFFFF AND PUSH2 0xCE0 JUMP JUMPDEST PUSH1 0x0 PUSH1 0x4 PUSH1 0x0 PUSH2 0x100 EXP DUP2 SLOAD DUP2 PUSH20 0xFFFFFFFFFFFFFFFFFFFFFFFFFFFFFFFFFFFFFFFF MUL NOT AND SWAP1 DUP4 PUSH20 0xFFFFFFFFFFFFFFFFFFFFFFFFFFFFFFFFFFFFFFFF AND MUL OR SWAP1 SSTORE POP PUSH1 0x0 PUSH1 0x5 DUP2 SWAP1 SSTORE POP JUMPDEST POP JUMP JUMPDEST SELFBALANCE DUP2 GT ISZERO PUSH2 0x7B1 JUMPI PUSH1 0x40 MLOAD PUSH32 0x8C379A000000000000000000000000000000000000000000000000000000000 DUP2 MSTORE PUSH1 0x4 ADD PUSH2 0x7A8 SWAP1 PUSH2 0x1243 JUMP JUMPDEST PUSH1 0x40 MLOAD DUP1 SWAP2 SUB SWAP1 REVERT JUMPDEST PUSH1 0x0 DUP1 SLOAD SWAP1 PUSH2 0x100 EXP SWAP1 DIV PUSH20 0xFFFFFFFFFFFFFFFFFFFFFFFFFFFFFFFFFFFFFFFF AND PUSH20 0xFFFFFFFFFFFFFFFFFFFFFFFFFFFFFFFFFFFFFFFF AND CALLER PUSH20 0xFFFFFFFFFFFFFFFFFFFFFFFFFFFFFFFFFFFFFFFF AND EQ PUSH2 0xA10 JUMPI PUSH1 0x0 PUSH1 0x1 PUSH1 0x0 CALLER PUSH20 0xFFFFFFFFFFFFFFFFFFFFFFFFFFFFFFFFFFFFFFFF AND PUSH20 0xFFFFFFFFFFFFFFFFFFFFFFFFFFFFFFFFFFFFFFFF AND DUP2 MSTORE PUSH1 0x20 ADD SWAP1 DUP2 MSTORE PUSH1 0x20 ADD PUSH1 0x0 KECCAK256 SLOAD SUB PUSH2 0x886 JUMPI PUSH1 0x40 MLOAD PUSH32 0x8C379A000000000000000000000000000000000000000000000000000000000 DUP2 MSTORE PUSH1 0x4 ADD PUSH2 0x87D SWAP1 PUSH2 0x12D5 JUMP JUMPDEST PUSH1 0x40 MLOAD DUP1 SWAP2 SUB SWAP1 REVERT JUMPDEST DUP1 PUSH1 0x1 PUSH1 0x0 CALLER PUSH20 0xFFFFFFFFFFFFFFFFFFFFFFFFFFFFFFFFFFFFFFFF AND PUSH20 0xFFFFFFFFFFFFFFFFFFFFFFFFFFFFFFFFFFFFFFFF AND DUP2 MSTORE PUSH1 0x20 ADD SWAP1 DUP2 MSTORE PUSH1 0x20 ADD PUSH1 0x0 KECCAK256 SLOAD LT ISZERO PUSH2 0x908 JUMPI PUSH1 0x40 MLOAD PUSH32 0x8C379A000000000000000000000000000000000000000000000000000000000 DUP2 MSTORE PUSH1 0x4 ADD PUSH2 0x8FF SWAP1 PUSH2 0x1367 JUMP JUMPDEST PUSH1 0x40 MLOAD DUP1 SWAP2 SUB SWAP1 REVERT JUMPDEST PUSH1 0x0 DUP3 PUSH20 0xFFFFFFFFFFFFFFFFFFFFFFFFFFFFFFFFFFFFFFFF AND DUP3 PUSH1 0x40 MLOAD PUSH2 0x92E SWAP1 PUSH2 0x13B8 JUMP JUMPDEST PUSH1 0x0 PUSH1 0x40 MLOAD DUP1 DUP4 SUB DUP2 DUP6 DUP8 GAS CALL SWAP3 POP POP POP RETURNDATASIZE DUP1 PUSH1 0x0 DUP2 EQ PUSH2 0x96B JUMPI PUSH1 0x40 MLOAD SWAP2 POP PUSH1 0x1F NOT PUSH1 0x3F RETURNDATASIZE ADD AND DUP3 ADD PUSH1 0x40 MSTORE RETURNDATASIZE DUP3 MSTORE RETURNDATASIZE PUSH1 0x0 PUSH1 0x20 DUP5 ADD RETURNDATACOPY PUSH2 0x970 JUMP JUMPDEST PUSH1 0x60 SWAP2 POP JUMPDEST POP POP SWAP1 POP DUP1 PUSH2 0x9B4 JUMPI PUSH1 0x40 MLOAD PUSH32 0x8C379A000000000000000000000000000000000000000000000000000000000 DUP2 MSTORE PUSH1 0x4 ADD PUSH2 0x9AB SWAP1 PUSH2 0x1419 JUMP JUMPDEST PUSH1 0x40 MLOAD DUP1 SWAP2 SUB SWAP1 REVERT JUMPDEST DUP2 PUSH1 0x1 PUSH1 0x0 CALLER PUSH20 0xFFFFFFFFFFFFFFFFFFFFFFFFFFFFFFFFFFFFFFFF AND PUSH20 0xFFFFFFFFFFFFFFFFFFFFFFFFFFFFFFFFFFFFFFFF AND DUP2 MSTORE PUSH1 0x20 ADD SWAP1 DUP2 MSTORE PUSH1 0x20 ADD PUSH1 0x0 KECCAK256 PUSH1 0x0 DUP3 DUP3 SLOAD PUSH2 0xA03 SWAP2 SWAP1 PUSH2 0x1439 JUMP JUMPDEST SWAP3 POP POP DUP2 SWAP1 SSTORE POP POP PUSH2 0xABE JUMP JUMPDEST PUSH1 0x0 DUP3 PUSH20 0xFFFFFFFFFFFFFFFFFFFFFFFFFFFFFFFFFFFFFFFF AND DUP3 PUSH1 0x40 MLOAD PUSH2 0xA36 SWAP1 PUSH2 0x13B8 JUMP JUMPDEST PUSH1 0x0 PUSH1 0x40 MLOAD DUP1 DUP4 SUB DUP2 DUP6 DUP8 GAS CALL SWAP3 POP POP POP RETURNDATASIZE DUP1 PUSH1 0x0 DUP2 EQ PUSH2 0xA73 JUMPI PUSH1 0x40 MLOAD SWAP2 POP PUSH1 0x1F NOT PUSH1 0x3F RETURNDATASIZE ADD AND DUP3 ADD PUSH1 0x40 MSTORE RETURNDATASIZE DUP3 MSTORE RETURNDATASIZE PUSH1 0x0 PUSH1 0x20 DUP5 ADD RETURNDATACOPY PUSH2 0xA78 JUMP JUMPDEST PUSH1 0x60 SWAP2 POP JUMPDEST POP POP SWAP1 POP DUP1 PUSH2 0xABC JUMPI PUSH1 0x40 MLOAD PUSH32 0x8C379A000000000000000000000000000000000000000000000000000000000 DUP2 MSTORE PUSH1 0x4 ADD PUSH2 0xAB3 SWAP1 PUSH2 0x1419 JUMP JUMPDEST PUSH1 0x40 MLOAD DUP1 SWAP2 SUB SWAP1 REVERT JUMPDEST POP JUMPDEST POP POP JUMP JUMPDEST PUSH1 0x5 SLOAD DUP2 JUMP JUMPDEST PUSH1 0x0 DUP1 SLOAD SWAP1 PUSH2 0x100 EXP SWAP1 DIV PUSH20 0xFFFFFFFFFFFFFFFFFFFFFFFFFFFFFFFFFFFFFFFF AND PUSH20 0xFFFFFFFFFFFFFFFFFFFFFFFFFFFFFFFFFFFFFFFF AND CALLER PUSH20 0xFFFFFFFFFFFFFFFFFFFFFFFFFFFFFFFFFFFFFFFF AND EQ PUSH2 0xB56 JUMPI PUSH1 0x40 MLOAD PUSH32 0x8C379A000000000000000000000000000000000000000000000000000000000 DUP2 MSTORE PUSH1 0x4 ADD PUSH2 0xB4D SWAP1 PUSH2 0x103C JUMP JUMPDEST PUSH1 0x40 MLOAD DUP1 SWAP2 SUB SWAP1 REVERT JUMPDEST PUSH2 0xB5F DUP2 PUSH2 0xC32 JUMP JUMPDEST PUSH2 0xBC7 JUMPI PUSH1 0x2 DUP2 SWAP1 DUP1 PUSH1 0x1 DUP2 SLOAD ADD DUP1 DUP3 SSTORE DUP1 SWAP2 POP POP PUSH1 0x1 SWAP1 SUB SWAP1 PUSH1 0x0 MSTORE PUSH1 0x20 PUSH1 0x0 KECCAK256 ADD PUSH1 0x0 SWAP1 SWAP2 SWAP1 SWAP2 SWAP1 SWAP2 PUSH2 0x100 EXP DUP2 SLOAD DUP2 PUSH20 0xFFFFFFFFFFFFFFFFFFFFFFFFFFFFFFFFFFFFFFFF MUL NOT AND SWAP1 DUP4 PUSH20 0xFFFFFFFFFFFFFFFFFFFFFFFFFFFFFFFFFFFFFFFF AND MUL OR SWAP1 SSTORE POP JUMPDEST POP JUMP JUMPDEST PUSH1 0x0 DUP1 PUSH1 0x0 SWAP1 SLOAD SWAP1 PUSH2 0x100 EXP SWAP1 DIV PUSH20 0xFFFFFFFFFFFFFFFFFFFFFFFFFFFFFFFFFFFFFFFF AND SWAP1 POP SWAP1 JUMP JUMPDEST PUSH1 0x2 DUP2 DUP2 SLOAD DUP2 LT PUSH2 0xC03 JUMPI PUSH1 0x0 DUP1 REVERT JUMPDEST SWAP1 PUSH1 0x0 MSTORE PUSH1 0x20 PUSH1 0x0 KECCAK256 ADD PUSH1 0x0 SWAP2 POP SLOAD SWAP1 PUSH2 0x100 EXP SWAP1 DIV PUSH20 0xFFFFFFFFFFFFFFFFFFFFFFFFFFFFFFFFFFFFFFFF AND DUP2 JUMP JUMPDEST PUSH1 0x0 DUP1 PUSH1 0x0 SWAP1 POP JUMPDEST PUSH1 0x2 DUP1 SLOAD SWAP1 POP DUP2 LT ISZERO PUSH2 0xCD5 JUMPI DUP3 PUSH20 0xFFFFFFFFFFFFFFFFFFFFFFFFFFFFFFFFFFFFFFFF AND PUSH1 0x2 DUP3 DUP2 SLOAD DUP2 LT PUSH2 0xC72 JUMPI PUSH2 0xC71 PUSH2 0x146D JUMP JUMPDEST JUMPDEST SWAP1 PUSH1 0x0 MSTORE PUSH1 0x20 PUSH1 0x0 KECCAK256 ADD PUSH1 0x0 SWAP1 SLOAD SWAP1 PUSH2 0x100 EXP SWAP1 DIV PUSH20 0xFFFFFFFFFFFFFFFFFFFFFFFFFFFFFFFFFFFFFFFF AND PUSH20 0xFFFFFFFFFFFFFFFFFFFFFFFFFFFFFFFFFFFFFFFF AND SUB PUSH2 0xCC2 JUMPI PUSH1 0x1 SWAP2 POP POP PUSH2 0xCDB JUMP JUMPDEST DUP1 DUP1 PUSH2 0xCCD SWAP1 PUSH2 0x1189 JUMP JUMPDEST SWAP2 POP POP PUSH2 0xC3A JUMP JUMPDEST POP PUSH1 0x0 SWAP1 POP JUMPDEST SWAP2 SWAP1 POP JUMP JUMPDEST PUSH1 0x0 JUMPDEST PUSH1 0x2 DUP1 SLOAD SWAP1 POP DUP2 LT ISZERO PUSH2 0xDD6 JUMPI PUSH1 0x0 PUSH1 0x3 PUSH1 0x0 PUSH1 0x2 DUP5 DUP2 SLOAD DUP2 LT PUSH2 0xD0A JUMPI PUSH2 0xD09 PUSH2 0x146D JUMP JUMPDEST JUMPDEST SWAP1 PUSH1 0x0 MSTORE PUSH1 0x20 PUSH1 0x0 KECCAK256 ADD PUSH1 0x0 SWAP1 SLOAD SWAP1 PUSH2 0x100 EXP SWAP1 DIV PUSH20 0xFFFFFFFFFFFFFFFFFFFFFFFFFFFFFFFFFFFFFFFF AND PUSH20 0xFFFFFFFFFFFFFFFFFFFFFFFFFFFFFFFFFFFFFFFF AND PUSH20 0xFFFFFFFFFFFFFFFFFFFFFFFFFFFFFFFFFFFFFFFF AND DUP2 MSTORE PUSH1 0x20 ADD SWAP1 DUP2 MSTORE PUSH1 0x20 ADD PUSH1 0x0 KECCAK256 PUSH1 0x0 DUP5 PUSH20 0xFFFFFFFFFFFFFFFFFFFFFFFFFFFFFFFFFFFFFFFF AND PUSH20 0xFFFFFFFFFFFFFFFFFFFFFFFFFFFFFFFFFFFFFFFF AND DUP2 MSTORE PUSH1 0x20 ADD SWAP1 DUP2 MSTORE PUSH1 0x20 ADD PUSH1 0x0 KECCAK256 PUSH1 0x0 PUSH2 0x100 EXP DUP2 SLOAD DUP2 PUSH1 0xFF MUL NOT AND SWAP1 DUP4 ISZERO ISZERO MUL OR SWAP1 SSTORE POP DUP1 DUP1 PUSH2 0xDCE SWAP1 PUSH2 0x1189 JUMP JUMPDEST SWAP2 POP POP PUSH2 0xCE3 JUMP JUMPDEST POP POP JUMP JUMPDEST PUSH1 0x0 PUSH20 0xFFFFFFFFFFFFFFFFFFFFFFFFFFFFFFFFFFFFFFFF DUP3 AND SWAP1 POP SWAP2 SWAP1 POP JUMP JUMPDEST PUSH1 0x0 PUSH2 0xE05 DUP3 PUSH2 0xDDA JUMP JUMPDEST SWAP1 POP SWAP2 SWAP1 POP JUMP JUMPDEST PUSH2 0xE15 DUP2 PUSH2 0xDFA JUMP JUMPDEST DUP3 MSTORE POP POP JUMP JUMPDEST PUSH1 0x0 PUSH1 0x20 DUP3 ADD SWAP1 POP PUSH2 0xE30 PUSH1 0x0 DUP4 ADD DUP5 PUSH2 0xE0C JUMP JUMPDEST SWAP3 SWAP2 POP POP JUMP JUMPDEST PUSH1 0x0 DUP1 REVERT JUMPDEST PUSH2 0xE44 DUP2 PUSH2 0xDFA JUMP JUMPDEST DUP2 EQ PUSH2 0xE4F JUMPI PUSH1 0x0 DUP1 REVERT JUMPDEST POP JUMP JUMPDEST PUSH1 0x0 DUP2 CALLDATALOAD SWAP1 POP PUSH2 0xE61 DUP2 PUSH2 0xE3B JUMP JUMPDEST SWAP3 SWAP2 POP POP JUMP JUMPDEST PUSH1 0x0 DUP2 SWAP1 POP SWAP2 SWAP1 POP JUMP JUMPDEST PUSH2 0xE7A DUP2 PUSH2 0xE67 JUMP JUMPDEST DUP2 EQ PUSH2 0xE85 JUMPI PUSH1 0x0 DUP1 REVERT JUMPDEST POP JUMP JUMPDEST PUSH1 0x0 DUP2 CALLDATALOAD SWAP1 POP PUSH2 0xE97 DUP2 PUSH2 0xE71 JUMP JUMPDEST SWAP3 SWAP2 POP POP JUMP JUMPDEST PUSH1 0x0 DUP1 PUSH1 0x40 DUP4 DUP6 SUB SLT ISZERO PUSH2 0xEB4 JUMPI PUSH2 0xEB3 PUSH2 0xE36 JUMP JUMPDEST JUMPDEST PUSH1 0x0 PUSH2 0xEC2 DUP6 DUP3 DUP7 ADD PUSH2 0xE52 JUMP JUMPDEST SWAP3 POP POP PUSH1 0x20 PUSH2 0xED3 DUP6 DUP3 DUP7 ADD PUSH2 0xE88 JUMP JUMPDEST SWAP2 POP POP SWAP3 POP SWAP3 SWAP1 POP JUMP JUMPDEST PUSH2 0xEE6 DUP2 PUSH2 0xE67 JUMP JUMPDEST DUP3 MSTORE POP POP JUMP JUMPDEST PUSH1 0x0 PUSH1 0x20 DUP3 ADD SWAP1 POP PUSH2 0xF01 PUSH1 0x0 DUP4 ADD DUP5 PUSH2 0xEDD JUMP JUMPDEST SWAP3 SWAP2 POP POP JUMP JUMPDEST PUSH1 0x0 PUSH1 0x20 DUP3 DUP5 SUB SLT ISZERO PUSH2 0xF1D JUMPI PUSH2 0xF1C PUSH2 0xE36 JUMP JUMPDEST JUMPDEST PUSH1 0x0 PUSH2 0xF2B DUP5 DUP3 DUP6 ADD PUSH2 0xE52 JUMP JUMPDEST SWAP2 POP POP SWAP3 SWAP2 POP POP JUMP JUMPDEST PUSH1 0x0 PUSH2 0xF3F DUP3 PUSH2 0xDDA JUMP JUMPDEST SWAP1 POP SWAP2 SWAP1 POP JUMP JUMPDEST PUSH2 0xF4F DUP2 PUSH2 0xF34 JUMP JUMPDEST DUP2 EQ PUSH2 0xF5A JUMPI PUSH1 0x0 DUP1 REVERT JUMPDEST POP JUMP JUMPDEST PUSH1 0x0 DUP2 CALLDATALOAD SWAP1 POP PUSH2 0xF6C DUP2 PUSH2 0xF46 JUMP JUMPDEST SWAP3 SWAP2 POP POP JUMP JUMPDEST PUSH1 0x0 DUP1 PUSH1 0x40 DUP4 DUP6 SUB SLT ISZERO PUSH2 0xF89 JUMPI PUSH2 0xF88 PUSH2 0xE36 JUMP JUMPDEST JUMPDEST PUSH1 0x0 PUSH2 0xF97 DUP6 DUP3 DUP7 ADD PUSH2 0xF5D JUMP JUMPDEST SWAP3 POP POP PUSH1 0x20 PUSH2 0xFA8 DUP6 DUP3 DUP7 ADD PUSH2 0xE88 JUMP JUMPDEST SWAP2 POP POP SWAP3 POP SWAP3 SWAP1 POP JUMP JUMPDEST PUSH1 0x0 PUSH1 0x20 DUP3 DUP5 SUB SLT ISZERO PUSH2 0xFC8 JUMPI PUSH2 0xFC7 PUSH2 0xE36 JUMP JUMPDEST JUMPDEST PUSH1 0x0 PUSH2 0xFD6 DUP5 DUP3 DUP6 ADD PUSH2 0xE88 JUMP JUMPDEST SWAP2 POP POP SWAP3 SWAP2 POP POP JUMP JUMPDEST PUSH1 0x0 DUP3 DUP3 MSTORE PUSH1 0x20 DUP3 ADD SWAP1 POP SWAP3 SWAP2 POP POP JUMP JUMPDEST PUSH32 0x596F7520617265206E6F7420746865206F776E65722C2061626F7274696E6700 PUSH1 0x0 DUP3 ADD MSTORE POP JUMP JUMPDEST PUSH1 0x0 PUSH2 0x1026 PUSH1 0x1F DUP4 PUSH2 0xFDF JUMP JUMPDEST SWAP2 POP PUSH2 0x1031 DUP3 PUSH2 0xFF0 JUMP JUMPDEST PUSH1 0x20 DUP3 ADD SWAP1 POP SWAP2 SWAP1 POP JUMP JUMPDEST PUSH1 0x0 PUSH1 0x20 DUP3 ADD SWAP1 POP DUP2 DUP2 SUB PUSH1 0x0 DUP4 ADD MSTORE PUSH2 0x1055 DUP2 PUSH2 0x1019 JUMP JUMPDEST SWAP1 POP SWAP2 SWAP1 POP JUMP JUMPDEST PUSH32 0x596F7520617265206E6F74206120677561726469616E2C2061626F7274696E67 PUSH1 0x0 DUP3 ADD MSTORE POP JUMP JUMPDEST PUSH1 0x0 PUSH2 0x1092 PUSH1 0x20 DUP4 PUSH2 0xFDF JUMP JUMPDEST SWAP2 POP PUSH2 0x109D DUP3 PUSH2 0x105C JUMP JUMPDEST PUSH1 0x20 DUP3 ADD SWAP1 POP SWAP2 SWAP1 POP JUMP JUMPDEST PUSH1 0x0 PUSH1 0x20 DUP3 ADD SWAP1 POP DUP2 DUP2 SUB PUSH1 0x0 DUP4 ADD MSTORE PUSH2 0x10C1 DUP2 PUSH2 0x1085 JUMP JUMPDEST SWAP1 POP SWAP2 SWAP1 POP JUMP JUMPDEST PUSH32 0x596F75206861766520616C726561647920766F74656420666F72207468697320 PUSH1 0x0 DUP3 ADD MSTORE PUSH32 0x63616E6469646174650000000000000000000000000000000000000000000000 PUSH1 0x20 DUP3 ADD MSTORE POP JUMP JUMPDEST PUSH1 0x0 PUSH2 0x1124 PUSH1 0x29 DUP4 PUSH2 0xFDF JUMP JUMPDEST SWAP2 POP PUSH2 0x112F DUP3 PUSH2 0x10C8 JUMP JUMPDEST PUSH1 0x40 DUP3 ADD SWAP1 POP SWAP2 SWAP1 POP JUMP JUMPDEST PUSH1 0x0 PUSH1 0x20 DUP3 ADD SWAP1 POP DUP2 DUP2 SUB PUSH1 0x0 DUP4 ADD MSTORE PUSH2 0x1153 DUP2 PUSH2 0x1117 JUMP JUMPDEST SWAP1 POP SWAP2 SWAP1 POP JUMP JUMPDEST PUSH32 0x4E487B7100000000000000000000000000000000000000000000000000000000 PUSH1 0x0 MSTORE PUSH1 0x11 PUSH1 0x4 MSTORE PUSH1 0x24 PUSH1 0x0 REVERT JUMPDEST PUSH1 0x0 PUSH2 0x1194 DUP3 PUSH2 0xE67 JUMP JUMPDEST SWAP2 POP PUSH32 0xFFFFFFFFFFFFFFFFFFFFFFFFFFFFFFFFFFFFFFFFFFFFFFFFFFFFFFFFFFFFFFFF DUP3 SUB PUSH2 0x11C6 JUMPI PUSH2 0x11C5 PUSH2 0x115A JUMP JUMPDEST JUMPDEST PUSH1 0x1 DUP3 ADD SWAP1 POP SWAP2 SWAP1 POP JUMP JUMPDEST PUSH32 0x54686520636F6E747261637420646F65736E2774206861766520737566666963 PUSH1 0x0 DUP3 ADD MSTORE PUSH32 0x69656E742062616C616E63650000000000000000000000000000000000000000 PUSH1 0x20 DUP3 ADD MSTORE POP JUMP JUMPDEST PUSH1 0x0 PUSH2 0x122D PUSH1 0x2C DUP4 PUSH2 0xFDF JUMP JUMPDEST SWAP2 POP PUSH2 0x1238 DUP3 PUSH2 0x11D1 JUMP JUMPDEST PUSH1 0x40 DUP3 ADD SWAP1 POP SWAP2 SWAP1 POP JUMP JUMPDEST PUSH1 0x0 PUSH1 0x20 DUP3 ADD SWAP1 POP DUP2 DUP2 SUB PUSH1 0x0 DUP4 ADD MSTORE PUSH2 0x125C DUP2 PUSH2 0x1220 JUMP JUMPDEST SWAP1 POP SWAP2 SWAP1 POP JUMP JUMPDEST PUSH32 0x596F7520646F6E2774206861766520616E7920616C6C6F77616E63652C206162 PUSH1 0x0 DUP3 ADD MSTORE PUSH32 0x6F7274696E670000000000000000000000000000000000000000000000000000 PUSH1 0x20 DUP3 ADD MSTORE POP JUMP JUMPDEST PUSH1 0x0 PUSH2 0x12BF PUSH1 0x26 DUP4 PUSH2 0xFDF JUMP JUMPDEST SWAP2 POP PUSH2 0x12CA DUP3 PUSH2 0x1263 JUMP JUMPDEST PUSH1 0x40 DUP3 ADD SWAP1 POP SWAP2 SWAP1 POP JUMP JUMPDEST PUSH1 0x0 PUSH1 0x20 DUP3 ADD SWAP1 POP DUP2 DUP2 SUB PUSH1 0x0 DUP4 ADD MSTORE PUSH2 0x12EE DUP2 PUSH2 0x12B2 JUMP JUMPDEST SWAP1 POP SWAP2 SWAP1 POP JUMP JUMPDEST PUSH32 0x596F7572207265717565737420616D6F756E74206578636565647320796F7572 PUSH1 0x0 DUP3 ADD MSTORE PUSH32 0x2072656D61696E696E6720616C6C6F77616E6365000000000000000000000000 PUSH1 0x20 DUP3 ADD MSTORE POP JUMP JUMPDEST PUSH1 0x0 PUSH2 0x1351 PUSH1 0x34 DUP4 PUSH2 0xFDF JUMP JUMPDEST SWAP2 POP PUSH2 0x135C DUP3 PUSH2 0x12F5 JUMP JUMPDEST PUSH1 0x40 DUP3 ADD SWAP1 POP SWAP2 SWAP1 POP JUMP JUMPDEST PUSH1 0x0 PUSH1 0x20 DUP3 ADD SWAP1 POP DUP2 DUP2 SUB PUSH1 0x0 DUP4 ADD MSTORE PUSH2 0x1380 DUP2 PUSH2 0x1344 JUMP JUMPDEST SWAP1 POP SWAP2 SWAP1 POP JUMP JUMPDEST PUSH1 0x0 DUP2 SWAP1 POP SWAP3 SWAP2 POP POP JUMP JUMPDEST POP JUMP JUMPDEST PUSH1 0x0 PUSH2 0x13A2 PUSH1 0x0 DUP4 PUSH2 0x1387 JUMP JUMPDEST SWAP2 POP PUSH2 0x13AD DUP3 PUSH2 0x1392 JUMP JUMPDEST PUSH1 0x0 DUP3 ADD SWAP1 POP SWAP2 SWAP1 POP JUMP JUMPDEST PUSH1 0x0 PUSH2 0x13C3 DUP3 PUSH2 0x1395 JUMP JUMPDEST SWAP2 POP DUP2 SWAP1 POP SWAP2 SWAP1 POP JUMP JUMPDEST PUSH32 0x43616C6C204661696C65642C2061626F7274696E670000000000000000000000 PUSH1 0x0 DUP3 ADD MSTORE POP JUMP JUMPDEST PUSH1 0x0 PUSH2 0x1403 PUSH1 0x15 DUP4 PUSH2 0xFDF JUMP JUMPDEST SWAP2 POP PUSH2 0x140E DUP3 PUSH2 0x13CD JUMP JUMPDEST PUSH1 0x20 DUP3 ADD SWAP1 POP SWAP2 SWAP1 POP JUMP JUMPDEST PUSH1 0x0 PUSH1 0x20 DUP3 ADD SWAP1 POP DUP2 DUP2 SUB PUSH1 0x0 DUP4 ADD MSTORE PUSH2 0x1432 DUP2 PUSH2 0x13F6 JUMP JUMPDEST SWAP1 POP SWAP2 SWAP1 POP JUMP JUMPDEST PUSH1 0x0 PUSH2 0x1444 DUP3 PUSH2 0xE67 JUMP JUMPDEST SWAP2 POP PUSH2 0x144F DUP4 PUSH2 0xE67 JUMP JUMPDEST SWAP3 POP DUP3 DUP3 SUB SWAP1 POP DUP2 DUP2 GT ISZERO PUSH2 0x1467 JUMPI PUSH2 0x1466 PUSH2 0x115A JUMP JUMPDEST JUMPDEST SWAP3 SWAP2 POP POP JUMP JUMPDEST PUSH32 0x4E487B7100000000000000000000000000000000000000000000000000000000 PUSH1 0x0 MSTORE PUSH1 0x32 PUSH1 0x4 MSTORE PUSH1 0x24 PUSH1 0x0 REVERT INVALID LOG2 PUSH5 0x6970667358 0x22 SLT KECCAK256 0xAF 0xC2 DUP9 0xE4 PUSH5 0xCB6DABE939 INVALID 0xC7 SWAP14 0x2D PUSH20 0x4A1C7FF28686D71096E78D88E3C5950B6264736F PUSH13 0x63430008100033000000000000 "
				},
				"gasEstimates": {
					"creation": {
						"codeDepositCost": "1066000",
						"executionCost": "25373",
						"totalCost": "1091373"
					},
					"external": {
						"addGuardian(address)": "infinite",
						"currentCandidate()": "2515",
						"currentVotes()": "2451",
						"guardians(uint256)": "5044",
						"markVote(address)": "infinite",
						"setAllowance(address,uint256)": "25022",
						"transferFunds(address,uint256)": "infinite",
						"viewAllowance()": "2571",
						"viewOwner()": "2588"
					},
					"internal": {
						"_isGuardian(address)": "infinite",
						"resetAllGuardianForCandidate(address)": "infinite"
					}
				},
				"methodIdentifiers": {
					"addGuardian(address)": "a526d83b",
					"currentCandidate()": "1a272ccf",
					"currentVotes()": "994ba4d2",
					"guardians(uint256)": "f560c734",
					"markVote(address)": "7e21565b",
					"setAllowance(address,uint256)": "310ec4a7",
					"transferFunds(address,uint256)": "990dc9db",
					"viewAllowance()": "65a3acf0",
					"viewOwner()": "bc677b46"
				}
			},
			"storageLayout": {
				"storage": [
					{
						"astId": 3,
						"contract": "solidity-learning/3_SmartWallet/TheSmartWallet2.sol:SmartWallet",
						"label": "owner",
						"offset": 0,
						"slot": "0",
						"type": "t_address_payable"
					},
					{
						"astId": 7,
						"contract": "solidity-learning/3_SmartWallet/TheSmartWallet2.sol:SmartWallet",
						"label": "allowance",
						"offset": 0,
						"slot": "1",
						"type": "t_mapping(t_address,t_uint256)"
					},
					{
						"astId": 10,
						"contract": "solidity-learning/3_SmartWallet/TheSmartWallet2.sol:SmartWallet",
						"label": "guardians",
						"offset": 0,
						"slot": "2",
						"type": "t_array(t_address)dyn_storage"
					},
					{
						"astId": 16,
						"contract": "solidity-learning/3_SmartWallet/TheSmartWallet2.sol:SmartWallet",
						"label": "guardianVotes",
						"offset": 0,
						"slot": "3",
						"type": "t_mapping(t_address,t_mapping(t_address,t_bool))"
					},
					{
						"astId": 18,
						"contract": "solidity-learning/3_SmartWallet/TheSmartWallet2.sol:SmartWallet",
						"label": "currentCandidate",
						"offset": 0,
						"slot": "4",
						"type": "t_address"
					},
					{
						"astId": 20,
						"contract": "solidity-learning/3_SmartWallet/TheSmartWallet2.sol:SmartWallet",
						"label": "currentVotes",
						"offset": 0,
						"slot": "5",
						"type": "t_uint256"
					}
				],
				"types": {
					"t_address": {
						"encoding": "inplace",
						"label": "address",
						"numberOfBytes": "20"
					},
					"t_address_payable": {
						"encoding": "inplace",
						"label": "address payable",
						"numberOfBytes": "20"
					},
					"t_array(t_address)dyn_storage": {
						"base": "t_address",
						"encoding": "dynamic_array",
						"label": "address[]",
						"numberOfBytes": "32"
					},
					"t_bool": {
						"encoding": "inplace",
						"label": "bool",
						"numberOfBytes": "1"
					},
					"t_mapping(t_address,t_bool)": {
						"encoding": "mapping",
						"key": "t_address",
						"label": "mapping(address => bool)",
						"numberOfBytes": "32",
						"value": "t_bool"
					},
					"t_mapping(t_address,t_mapping(t_address,t_bool))": {
						"encoding": "mapping",
						"key": "t_address",
						"label": "mapping(address => mapping(address => bool))",
						"numberOfBytes": "32",
						"value": "t_mapping(t_address,t_bool)"
					},
					"t_mapping(t_address,t_uint256)": {
						"encoding": "mapping",
						"key": "t_address",
						"label": "mapping(address => uint256)",
						"numberOfBytes": "32",
						"value": "t_uint256"
					},
					"t_uint256": {
						"encoding": "inplace",
						"label": "uint256",
						"numberOfBytes": "32"
					}
				}
			},
			"userdoc": {
				"kind": "user",
				"methods": {},
				"version": 1
			}
		}
	}
}