{
	"solidity-learning/3_SmartWallet/TheSmartWallet.sol": {
		"SmartWallet": {
			"abi": [
				{
					"inputs": [],
					"stateMutability": "nonpayable",
					"type": "constructor"
				},
				{
					"inputs": [
						{
							"internalType": "address",
							"name": "_guardian",
							"type": "address"
						}
					],
					"name": "addGuardian",
					"outputs": [],
					"stateMutability": "nonpayable",
					"type": "function"
				},
				{
					"inputs": [],
					"name": "currentCandidate",
					"outputs": [
						{
							"internalType": "address",
							"name": "",
							"type": "address"
						}
					],
					"stateMutability": "view",
					"type": "function"
				},
				{
					"inputs": [],
					"name": "currentVotes",
					"outputs": [
						{
							"internalType": "uint256",
							"name": "",
							"type": "uint256"
						}
					],
					"stateMutability": "view",
					"type": "function"
				},
				{
					"inputs": [
						{
							"internalType": "address",
							"name": "_myVote",
							"type": "address"
						}
					],
					"name": "markVote",
					"outputs": [],
					"stateMutability": "nonpayable",
					"type": "function"
				},
				{
					"inputs": [
						{
							"internalType": "address",
							"name": "_spender",
							"type": "address"
						},
						{
							"internalType": "uint256",
							"name": "_allowance",
							"type": "uint256"
						}
					],
					"name": "setAllowance",
					"outputs": [],
					"stateMutability": "nonpayable",
					"type": "function"
				},
				{
					"inputs": [
						{
							"internalType": "address payable",
							"name": "_to",
							"type": "address"
						},
						{
							"internalType": "uint256",
							"name": "_amount",
							"type": "uint256"
						}
					],
					"name": "transferFunds",
					"outputs": [],
					"stateMutability": "nonpayable",
					"type": "function"
				},
				{
					"inputs": [],
					"name": "viewAllowance",
					"outputs": [
						{
							"internalType": "uint256",
							"name": "",
							"type": "uint256"
						}
					],
					"stateMutability": "view",
					"type": "function"
				},
				{
					"inputs": [],
					"name": "viewOwner",
					"outputs": [
						{
							"internalType": "address",
							"name": "",
							"type": "address"
						}
					],
					"stateMutability": "view",
					"type": "function"
				},
				{
					"stateMutability": "payable",
					"type": "receive"
				}
			],
			"devdoc": {
				"kind": "dev",
				"methods": {},
				"version": 1
			},
			"evm": {
				"assembly": "    /* \"solidity-learning/3_SmartWallet/TheSmartWallet.sol\":57:2697  contract SmartWallet {... */\n  mstore(0x40, 0x80)\n    /* \"solidity-learning/3_SmartWallet/TheSmartWallet.sol\":420:479  constructor () {... */\n  callvalue\n  dup1\n  iszero\n  tag_1\n  jumpi\n  0x00\n  dup1\n  revert\ntag_1:\n  pop\n    /* \"solidity-learning/3_SmartWallet/TheSmartWallet.sol\":461:471  msg.sender */\n  caller\n    /* \"solidity-learning/3_SmartWallet/TheSmartWallet.sol\":445:450  owner */\n  0x00\n  dup1\n    /* \"solidity-learning/3_SmartWallet/TheSmartWallet.sol\":445:472  owner = payable(msg.sender) */\n  0x0100\n  exp\n  dup2\n  sload\n  dup2\n  0xffffffffffffffffffffffffffffffffffffffff\n  mul\n  not\n  and\n  swap1\n  dup4\n  0xffffffffffffffffffffffffffffffffffffffff\n  and\n  mul\n  or\n  swap1\n  sstore\n  pop\n    /* \"solidity-learning/3_SmartWallet/TheSmartWallet.sol\":57:2697  contract SmartWallet {... */\n  dataSize(sub_0)\n  dup1\n  dataOffset(sub_0)\n  0x00\n  codecopy\n  0x00\n  return\nstop\n\nsub_0: assembly {\n        /* \"solidity-learning/3_SmartWallet/TheSmartWallet.sol\":57:2697  contract SmartWallet {... */\n      mstore(0x40, 0x80)\n      jumpi(tag_1, lt(calldatasize, 0x04))\n      shr(0xe0, calldataload(0x00))\n      dup1\n      0x990dc9db\n      gt\n      tag_11\n      jumpi\n      dup1\n      0x990dc9db\n      eq\n      tag_7\n      jumpi\n      dup1\n      0x994ba4d2\n      eq\n      tag_8\n      jumpi\n      dup1\n      0xa526d83b\n      eq\n      tag_9\n      jumpi\n      dup1\n      0xbc677b46\n      eq\n      tag_10\n      jumpi\n      jump(tag_2)\n    tag_11:\n      dup1\n      0x1a272ccf\n      eq\n      tag_3\n      jumpi\n      dup1\n      0x310ec4a7\n      eq\n      tag_4\n      jumpi\n      dup1\n      0x65a3acf0\n      eq\n      tag_5\n      jumpi\n      dup1\n      0x7e21565b\n      eq\n      tag_6\n      jumpi\n      jump(tag_2)\n    tag_1:\n      jumpi(tag_2, calldatasize)\n      stop\n    tag_2:\n      0x00\n      dup1\n      revert\n        /* \"solidity-learning/3_SmartWallet/TheSmartWallet.sol\":314:345  address public currentCandidate */\n    tag_3:\n      callvalue\n      dup1\n      iszero\n      tag_14\n      jumpi\n      0x00\n      dup1\n      revert\n    tag_14:\n      pop\n      tag_15\n      tag_16\n      jump\t// in\n    tag_15:\n      mload(0x40)\n      tag_17\n      swap2\n      swap1\n      tag_18\n      jump\t// in\n    tag_17:\n      mload(0x40)\n      dup1\n      swap2\n      sub\n      swap1\n      return\n        /* \"solidity-learning/3_SmartWallet/TheSmartWallet.sol\":571:757  function setAllowance(address _spender, uint _allowance) public {... */\n    tag_4:\n      callvalue\n      dup1\n      iszero\n      tag_19\n      jumpi\n      0x00\n      dup1\n      revert\n    tag_19:\n      pop\n      tag_20\n      0x04\n      dup1\n      calldatasize\n      sub\n      dup2\n      add\n      swap1\n      tag_21\n      swap2\n      swap1\n      tag_22\n      jump\t// in\n    tag_21:\n      tag_23\n      jump\t// in\n    tag_20:\n      stop\n        /* \"solidity-learning/3_SmartWallet/TheSmartWallet.sol\":1842:1939  function viewAllowance() public view returns (uint) {... */\n    tag_5:\n      callvalue\n      dup1\n      iszero\n      tag_24\n      jumpi\n      0x00\n      dup1\n      revert\n    tag_24:\n      pop\n      tag_25\n      tag_26\n      jump\t// in\n    tag_25:\n      mload(0x40)\n      tag_27\n      swap2\n      swap1\n      tag_28\n      jump\t// in\n    tag_27:\n      mload(0x40)\n      dup1\n      swap2\n      sub\n      swap1\n      return\n        /* \"solidity-learning/3_SmartWallet/TheSmartWallet.sol\":944:1728  function markVote(address _myVote) public {... */\n    tag_6:\n      callvalue\n      dup1\n      iszero\n      tag_29\n      jumpi\n      0x00\n      dup1\n      revert\n    tag_29:\n      pop\n      tag_30\n      0x04\n      dup1\n      calldatasize\n      sub\n      dup2\n      add\n      swap1\n      tag_31\n      swap2\n      swap1\n      tag_32\n      jump\t// in\n    tag_31:\n      tag_33\n      jump\t// in\n    tag_30:\n      stop\n        /* \"solidity-learning/3_SmartWallet/TheSmartWallet.sol\":1945:2659  function transferFunds(address payable _to, uint _amount) public {... */\n    tag_7:\n      callvalue\n      dup1\n      iszero\n      tag_34\n      jumpi\n      0x00\n      dup1\n      revert\n    tag_34:\n      pop\n      tag_35\n      0x04\n      dup1\n      calldatasize\n      sub\n      dup2\n      add\n      swap1\n      tag_36\n      swap2\n      swap1\n      tag_37\n      jump\t// in\n    tag_36:\n      tag_38\n      jump\t// in\n    tag_35:\n      stop\n        /* \"solidity-learning/3_SmartWallet/TheSmartWallet.sol\":351:375  uint public currentVotes */\n    tag_8:\n      callvalue\n      dup1\n      iszero\n      tag_39\n      jumpi\n      0x00\n      dup1\n      revert\n    tag_39:\n      pop\n      tag_40\n      tag_41\n      jump\t// in\n    tag_40:\n      mload(0x40)\n      tag_42\n      swap2\n      swap1\n      tag_28\n      jump\t// in\n    tag_42:\n      mload(0x40)\n      dup1\n      swap2\n      sub\n      swap1\n      return\n        /* \"solidity-learning/3_SmartWallet/TheSmartWallet.sol\":763:938  function addGuardian(address _guardian) public {... */\n    tag_9:\n      callvalue\n      dup1\n      iszero\n      tag_43\n      jumpi\n      0x00\n      dup1\n      revert\n    tag_43:\n      pop\n      tag_44\n      0x04\n      dup1\n      calldatasize\n      sub\n      dup2\n      add\n      swap1\n      tag_45\n      swap2\n      swap1\n      tag_32\n      jump\t// in\n    tag_45:\n      tag_46\n      jump\t// in\n    tag_44:\n      stop\n        /* \"solidity-learning/3_SmartWallet/TheSmartWallet.sol\":485:565  function viewOwner() public view returns (address) {... */\n    tag_10:\n      callvalue\n      dup1\n      iszero\n      tag_47\n      jumpi\n      0x00\n      dup1\n      revert\n    tag_47:\n      pop\n      tag_48\n      tag_49\n      jump\t// in\n    tag_48:\n      mload(0x40)\n      tag_50\n      swap2\n      swap1\n      tag_18\n      jump\t// in\n    tag_50:\n      mload(0x40)\n      dup1\n      swap2\n      sub\n      swap1\n      return\n        /* \"solidity-learning/3_SmartWallet/TheSmartWallet.sol\":314:345  address public currentCandidate */\n    tag_16:\n      0x03\n      0x00\n      swap1\n      sload\n      swap1\n      0x0100\n      exp\n      swap1\n      div\n      0xffffffffffffffffffffffffffffffffffffffff\n      and\n      dup2\n      jump\t// out\n        /* \"solidity-learning/3_SmartWallet/TheSmartWallet.sol\":571:757  function setAllowance(address _spender, uint _allowance) public {... */\n    tag_23:\n        /* \"solidity-learning/3_SmartWallet/TheSmartWallet.sol\":667:672  owner */\n      0x00\n      dup1\n      sload\n      swap1\n      0x0100\n      exp\n      swap1\n      div\n      0xffffffffffffffffffffffffffffffffffffffff\n      and\n        /* \"solidity-learning/3_SmartWallet/TheSmartWallet.sol\":653:672  msg.sender == owner */\n      0xffffffffffffffffffffffffffffffffffffffff\n      and\n        /* \"solidity-learning/3_SmartWallet/TheSmartWallet.sol\":653:663  msg.sender */\n      caller\n        /* \"solidity-learning/3_SmartWallet/TheSmartWallet.sol\":653:672  msg.sender == owner */\n      0xffffffffffffffffffffffffffffffffffffffff\n      and\n      eq\n        /* \"solidity-learning/3_SmartWallet/TheSmartWallet.sol\":645:708  require(msg.sender == owner, \"You are not the owner, aborting\") */\n      tag_52\n      jumpi\n      mload(0x40)\n      0x08c379a000000000000000000000000000000000000000000000000000000000\n      dup2\n      mstore\n      0x04\n      add\n      tag_53\n      swap1\n      tag_54\n      jump\t// in\n    tag_53:\n      mload(0x40)\n      dup1\n      swap2\n      sub\n      swap1\n      revert\n    tag_52:\n        /* \"solidity-learning/3_SmartWallet/TheSmartWallet.sol\":740:750  _allowance */\n      dup1\n        /* \"solidity-learning/3_SmartWallet/TheSmartWallet.sol\":718:727  allowance */\n      0x01\n        /* \"solidity-learning/3_SmartWallet/TheSmartWallet.sol\":718:737  allowance[_spender] */\n      0x00\n        /* \"solidity-learning/3_SmartWallet/TheSmartWallet.sol\":728:736  _spender */\n      dup5\n        /* \"solidity-learning/3_SmartWallet/TheSmartWallet.sol\":718:737  allowance[_spender] */\n      0xffffffffffffffffffffffffffffffffffffffff\n      and\n      0xffffffffffffffffffffffffffffffffffffffff\n      and\n      dup2\n      mstore\n      0x20\n      add\n      swap1\n      dup2\n      mstore\n      0x20\n      add\n      0x00\n      keccak256\n        /* \"solidity-learning/3_SmartWallet/TheSmartWallet.sol\":718:750  allowance[_spender] = _allowance */\n      dup2\n      swap1\n      sstore\n      pop\n        /* \"solidity-learning/3_SmartWallet/TheSmartWallet.sol\":571:757  function setAllowance(address _spender, uint _allowance) public {... */\n      pop\n      pop\n      jump\t// out\n        /* \"solidity-learning/3_SmartWallet/TheSmartWallet.sol\":1842:1939  function viewAllowance() public view returns (uint) {... */\n    tag_26:\n        /* \"solidity-learning/3_SmartWallet/TheSmartWallet.sol\":1888:1892  uint */\n      0x00\n        /* \"solidity-learning/3_SmartWallet/TheSmartWallet.sol\":1911:1920  allowance */\n      0x01\n        /* \"solidity-learning/3_SmartWallet/TheSmartWallet.sol\":1911:1932  allowance[msg.sender] */\n      0x00\n        /* \"solidity-learning/3_SmartWallet/TheSmartWallet.sol\":1921:1931  msg.sender */\n      caller\n        /* \"solidity-learning/3_SmartWallet/TheSmartWallet.sol\":1911:1932  allowance[msg.sender] */\n      0xffffffffffffffffffffffffffffffffffffffff\n      and\n      0xffffffffffffffffffffffffffffffffffffffff\n      and\n      dup2\n      mstore\n      0x20\n      add\n      swap1\n      dup2\n      mstore\n      0x20\n      add\n      0x00\n      keccak256\n      sload\n        /* \"solidity-learning/3_SmartWallet/TheSmartWallet.sol\":1904:1932  return allowance[msg.sender] */\n      swap1\n      pop\n        /* \"solidity-learning/3_SmartWallet/TheSmartWallet.sol\":1842:1939  function viewAllowance() public view returns (uint) {... */\n      swap1\n      jump\t// out\n        /* \"solidity-learning/3_SmartWallet/TheSmartWallet.sol\":944:1728  function markVote(address _myVote) public {... */\n    tag_33:\n        /* \"solidity-learning/3_SmartWallet/TheSmartWallet.sol\":1004:1013  guardians */\n      0x02\n        /* \"solidity-learning/3_SmartWallet/TheSmartWallet.sol\":1004:1025  guardians[msg.sender] */\n      0x00\n        /* \"solidity-learning/3_SmartWallet/TheSmartWallet.sol\":1014:1024  msg.sender */\n      caller\n        /* \"solidity-learning/3_SmartWallet/TheSmartWallet.sol\":1004:1025  guardians[msg.sender] */\n      0xffffffffffffffffffffffffffffffffffffffff\n      and\n      0xffffffffffffffffffffffffffffffffffffffff\n      and\n      dup2\n      mstore\n      0x20\n      add\n      swap1\n      dup2\n      mstore\n      0x20\n      add\n      0x00\n      keccak256\n        /* \"solidity-learning/3_SmartWallet/TheSmartWallet.sol\":1004:1036  guardians[msg.sender].isGuardian */\n      0x00\n      add\n      0x00\n      swap1\n      sload\n      swap1\n      0x0100\n      exp\n      swap1\n      div\n      0xff\n      and\n        /* \"solidity-learning/3_SmartWallet/TheSmartWallet.sol\":996:1073  require(guardians[msg.sender].isGuardian, \"You are not a guardian, aborting\") */\n      tag_57\n      jumpi\n      mload(0x40)\n      0x08c379a000000000000000000000000000000000000000000000000000000000\n      dup2\n      mstore\n      0x04\n      add\n      tag_58\n      swap1\n      tag_59\n      jump\t// in\n    tag_58:\n      mload(0x40)\n      dup1\n      swap2\n      sub\n      swap1\n      revert\n    tag_57:\n        /* \"solidity-learning/3_SmartWallet/TheSmartWallet.sol\":1092:1101  guardians */\n      0x02\n        /* \"solidity-learning/3_SmartWallet/TheSmartWallet.sol\":1092:1113  guardians[msg.sender] */\n      0x00\n        /* \"solidity-learning/3_SmartWallet/TheSmartWallet.sol\":1102:1112  msg.sender */\n      caller\n        /* \"solidity-learning/3_SmartWallet/TheSmartWallet.sol\":1092:1113  guardians[msg.sender] */\n      0xffffffffffffffffffffffffffffffffffffffff\n      and\n      0xffffffffffffffffffffffffffffffffffffffff\n      and\n      dup2\n      mstore\n      0x20\n      add\n      swap1\n      dup2\n      mstore\n      0x20\n      add\n      0x00\n      keccak256\n        /* \"solidity-learning/3_SmartWallet/TheSmartWallet.sol\":1092:1137  guardians[msg.sender].hasVoteForThisCandidate */\n      0x01\n      add\n        /* \"solidity-learning/3_SmartWallet/TheSmartWallet.sol\":1092:1146  guardians[msg.sender].hasVoteForThisCandidate[_myVote] */\n      0x00\n        /* \"solidity-learning/3_SmartWallet/TheSmartWallet.sol\":1138:1145  _myVote */\n      dup3\n        /* \"solidity-learning/3_SmartWallet/TheSmartWallet.sol\":1092:1146  guardians[msg.sender].hasVoteForThisCandidate[_myVote] */\n      0xffffffffffffffffffffffffffffffffffffffff\n      and\n      0xffffffffffffffffffffffffffffffffffffffff\n      and\n      dup2\n      mstore\n      0x20\n      add\n      swap1\n      dup2\n      mstore\n      0x20\n      add\n      0x00\n      keccak256\n      0x00\n      swap1\n      sload\n      swap1\n      0x0100\n      exp\n      swap1\n      div\n      0xff\n      and\n        /* \"solidity-learning/3_SmartWallet/TheSmartWallet.sol\":1091:1146  !guardians[msg.sender].hasVoteForThisCandidate[_myVote] */\n      iszero\n        /* \"solidity-learning/3_SmartWallet/TheSmartWallet.sol\":1083:1190  require(!guardians[msg.sender].hasVoteForThisCandidate[_myVote],\"You have already vote for this candidate\") */\n      tag_60\n      jumpi\n      mload(0x40)\n      0x08c379a000000000000000000000000000000000000000000000000000000000\n      dup2\n      mstore\n      0x04\n      add\n      tag_61\n      swap1\n      tag_62\n      jump\t// in\n    tag_61:\n      mload(0x40)\n      dup1\n      swap2\n      sub\n      swap1\n      revert\n    tag_60:\n        /* \"solidity-learning/3_SmartWallet/TheSmartWallet.sol\":1214:1230  currentCandidate */\n      0x03\n      0x00\n      swap1\n      sload\n      swap1\n      0x0100\n      exp\n      swap1\n      div\n      0xffffffffffffffffffffffffffffffffffffffff\n      and\n        /* \"solidity-learning/3_SmartWallet/TheSmartWallet.sol\":1203:1230  _myVote != currentCandidate */\n      0xffffffffffffffffffffffffffffffffffffffff\n      and\n        /* \"solidity-learning/3_SmartWallet/TheSmartWallet.sol\":1203:1210  _myVote */\n      dup2\n        /* \"solidity-learning/3_SmartWallet/TheSmartWallet.sol\":1203:1230  _myVote != currentCandidate */\n      0xffffffffffffffffffffffffffffffffffffffff\n      and\n      eq\n        /* \"solidity-learning/3_SmartWallet/TheSmartWallet.sol\":1200:1515  if(_myVote != currentCandidate ) {... */\n      tag_63\n      jumpi\n        /* \"solidity-learning/3_SmartWallet/TheSmartWallet.sol\":1266:1273  _myVote */\n      dup1\n        /* \"solidity-learning/3_SmartWallet/TheSmartWallet.sol\":1247:1263  currentCandidate */\n      0x03\n      0x00\n        /* \"solidity-learning/3_SmartWallet/TheSmartWallet.sol\":1247:1273  currentCandidate = _myVote */\n      0x0100\n      exp\n      dup2\n      sload\n      dup2\n      0xffffffffffffffffffffffffffffffffffffffff\n      mul\n      not\n      and\n      swap1\n      dup4\n      0xffffffffffffffffffffffffffffffffffffffff\n      and\n      mul\n      or\n      swap1\n      sstore\n      pop\n        /* \"solidity-learning/3_SmartWallet/TheSmartWallet.sol\":1300:1301  1 */\n      0x01\n        /* \"solidity-learning/3_SmartWallet/TheSmartWallet.sol\":1287:1299  currentVotes */\n      0x04\n        /* \"solidity-learning/3_SmartWallet/TheSmartWallet.sol\":1287:1301  currentVotes=1 */\n      dup2\n      swap1\n      sstore\n      pop\n        /* \"solidity-learning/3_SmartWallet/TheSmartWallet.sol\":1372:1376  true */\n      0x01\n        /* \"solidity-learning/3_SmartWallet/TheSmartWallet.sol\":1315:1324  guardians */\n      0x02\n        /* \"solidity-learning/3_SmartWallet/TheSmartWallet.sol\":1315:1336  guardians[msg.sender] */\n      0x00\n        /* \"solidity-learning/3_SmartWallet/TheSmartWallet.sol\":1325:1335  msg.sender */\n      caller\n        /* \"solidity-learning/3_SmartWallet/TheSmartWallet.sol\":1315:1336  guardians[msg.sender] */\n      0xffffffffffffffffffffffffffffffffffffffff\n      and\n      0xffffffffffffffffffffffffffffffffffffffff\n      and\n      dup2\n      mstore\n      0x20\n      add\n      swap1\n      dup2\n      mstore\n      0x20\n      add\n      0x00\n      keccak256\n        /* \"solidity-learning/3_SmartWallet/TheSmartWallet.sol\":1315:1360  guardians[msg.sender].hasVoteForThisCandidate */\n      0x01\n      add\n        /* \"solidity-learning/3_SmartWallet/TheSmartWallet.sol\":1315:1369  guardians[msg.sender].hasVoteForThisCandidate[_myVote] */\n      0x00\n        /* \"solidity-learning/3_SmartWallet/TheSmartWallet.sol\":1361:1368  _myVote */\n      dup4\n        /* \"solidity-learning/3_SmartWallet/TheSmartWallet.sol\":1315:1369  guardians[msg.sender].hasVoteForThisCandidate[_myVote] */\n      0xffffffffffffffffffffffffffffffffffffffff\n      and\n      0xffffffffffffffffffffffffffffffffffffffff\n      and\n      dup2\n      mstore\n      0x20\n      add\n      swap1\n      dup2\n      mstore\n      0x20\n      add\n      0x00\n      keccak256\n      0x00\n        /* \"solidity-learning/3_SmartWallet/TheSmartWallet.sol\":1315:1376  guardians[msg.sender].hasVoteForThisCandidate[_myVote] = true */\n      0x0100\n      exp\n      dup2\n      sload\n      dup2\n      0xff\n      mul\n      not\n      and\n      swap1\n      dup4\n      iszero\n      iszero\n      mul\n      or\n      swap1\n      sstore\n      pop\n        /* \"solidity-learning/3_SmartWallet/TheSmartWallet.sol\":1200:1515  if(_myVote != currentCandidate ) {... */\n      jump(tag_64)\n    tag_63:\n        /* \"solidity-learning/3_SmartWallet/TheSmartWallet.sol\":1415:1427  currentVotes */\n      0x04\n      0x00\n        /* \"solidity-learning/3_SmartWallet/TheSmartWallet.sol\":1415:1429  currentVotes++ */\n      dup2\n      sload\n      dup1\n      swap3\n      swap2\n      swap1\n      tag_65\n      swap1\n      tag_66\n      jump\t// in\n    tag_65:\n      swap2\n      swap1\n      pop\n      sstore\n      pop\n        /* \"solidity-learning/3_SmartWallet/TheSmartWallet.sol\":1500:1504  true */\n      0x01\n        /* \"solidity-learning/3_SmartWallet/TheSmartWallet.sol\":1443:1452  guardians */\n      0x02\n        /* \"solidity-learning/3_SmartWallet/TheSmartWallet.sol\":1443:1464  guardians[msg.sender] */\n      0x00\n        /* \"solidity-learning/3_SmartWallet/TheSmartWallet.sol\":1453:1463  msg.sender */\n      caller\n        /* \"solidity-learning/3_SmartWallet/TheSmartWallet.sol\":1443:1464  guardians[msg.sender] */\n      0xffffffffffffffffffffffffffffffffffffffff\n      and\n      0xffffffffffffffffffffffffffffffffffffffff\n      and\n      dup2\n      mstore\n      0x20\n      add\n      swap1\n      dup2\n      mstore\n      0x20\n      add\n      0x00\n      keccak256\n        /* \"solidity-learning/3_SmartWallet/TheSmartWallet.sol\":1443:1488  guardians[msg.sender].hasVoteForThisCandidate */\n      0x01\n      add\n        /* \"solidity-learning/3_SmartWallet/TheSmartWallet.sol\":1443:1497  guardians[msg.sender].hasVoteForThisCandidate[_myVote] */\n      0x00\n        /* \"solidity-learning/3_SmartWallet/TheSmartWallet.sol\":1489:1496  _myVote */\n      dup4\n        /* \"solidity-learning/3_SmartWallet/TheSmartWallet.sol\":1443:1497  guardians[msg.sender].hasVoteForThisCandidate[_myVote] */\n      0xffffffffffffffffffffffffffffffffffffffff\n      and\n      0xffffffffffffffffffffffffffffffffffffffff\n      and\n      dup2\n      mstore\n      0x20\n      add\n      swap1\n      dup2\n      mstore\n      0x20\n      add\n      0x00\n      keccak256\n      0x00\n        /* \"solidity-learning/3_SmartWallet/TheSmartWallet.sol\":1443:1504  guardians[msg.sender].hasVoteForThisCandidate[_myVote] = true */\n      0x0100\n      exp\n      dup2\n      sload\n      dup2\n      0xff\n      mul\n      not\n      and\n      swap1\n      dup4\n      iszero\n      iszero\n      mul\n      or\n      swap1\n      sstore\n      pop\n        /* \"solidity-learning/3_SmartWallet/TheSmartWallet.sol\":1200:1515  if(_myVote != currentCandidate ) {... */\n    tag_64:\n        /* \"solidity-learning/3_SmartWallet/TheSmartWallet.sol\":412:413  3 */\n      0x03\n        /* \"solidity-learning/3_SmartWallet/TheSmartWallet.sol\":1528:1540  currentVotes */\n      sload(0x04)\n        /* \"solidity-learning/3_SmartWallet/TheSmartWallet.sol\":1528:1558  currentVotes >= numVotesToPass */\n      lt\n        /* \"solidity-learning/3_SmartWallet/TheSmartWallet.sol\":1525:1722  if(currentVotes >= numVotesToPass) {... */\n      tag_67\n      jumpi\n        /* \"solidity-learning/3_SmartWallet/TheSmartWallet.sol\":1590:1606  currentCandidate */\n      0x03\n      0x00\n      swap1\n      sload\n      swap1\n      0x0100\n      exp\n      swap1\n      div\n      0xffffffffffffffffffffffffffffffffffffffff\n      and\n        /* \"solidity-learning/3_SmartWallet/TheSmartWallet.sol\":1574:1579  owner */\n      0x00\n      dup1\n        /* \"solidity-learning/3_SmartWallet/TheSmartWallet.sol\":1574:1607  owner = payable(currentCandidate) */\n      0x0100\n      exp\n      dup2\n      sload\n      dup2\n      0xffffffffffffffffffffffffffffffffffffffff\n      mul\n      not\n      and\n      swap1\n      dup4\n      0xffffffffffffffffffffffffffffffffffffffff\n      and\n      mul\n      or\n      swap1\n      sstore\n      pop\n        /* \"solidity-learning/3_SmartWallet/TheSmartWallet.sol\":1648:1649  0 */\n      0x00\n        /* \"solidity-learning/3_SmartWallet/TheSmartWallet.sol\":1621:1637  currentCandidate */\n      0x03\n      0x00\n        /* \"solidity-learning/3_SmartWallet/TheSmartWallet.sol\":1621:1650  currentCandidate = address(0) */\n      0x0100\n      exp\n      dup2\n      sload\n      dup2\n      0xffffffffffffffffffffffffffffffffffffffff\n      mul\n      not\n      and\n      swap1\n      dup4\n      0xffffffffffffffffffffffffffffffffffffffff\n      and\n      mul\n      or\n      swap1\n      sstore\n      pop\n        /* \"solidity-learning/3_SmartWallet/TheSmartWallet.sol\":1677:1678  0 */\n      0x00\n        /* \"solidity-learning/3_SmartWallet/TheSmartWallet.sol\":1664:1676  currentVotes */\n      0x04\n        /* \"solidity-learning/3_SmartWallet/TheSmartWallet.sol\":1664:1678  currentVotes=0 */\n      dup2\n      swap1\n      sstore\n      pop\n        /* \"solidity-learning/3_SmartWallet/TheSmartWallet.sol\":1692:1711  resetAllGuardians() */\n      tag_68\n        /* \"solidity-learning/3_SmartWallet/TheSmartWallet.sol\":1692:1709  resetAllGuardians */\n      tag_69\n        /* \"solidity-learning/3_SmartWallet/TheSmartWallet.sol\":1692:1711  resetAllGuardians() */\n      jump\t// in\n    tag_68:\n        /* \"solidity-learning/3_SmartWallet/TheSmartWallet.sol\":1525:1722  if(currentVotes >= numVotesToPass) {... */\n    tag_67:\n        /* \"solidity-learning/3_SmartWallet/TheSmartWallet.sol\":944:1728  function markVote(address _myVote) public {... */\n      pop\n      jump\t// out\n        /* \"solidity-learning/3_SmartWallet/TheSmartWallet.sol\":1945:2659  function transferFunds(address payable _to, uint _amount) public {... */\n    tag_38:\n        /* \"solidity-learning/3_SmartWallet/TheSmartWallet.sol\":2037:2058  address(this).balance */\n      selfbalance\n        /* \"solidity-learning/3_SmartWallet/TheSmartWallet.sol\":2028:2035  _amount */\n      dup2\n        /* \"solidity-learning/3_SmartWallet/TheSmartWallet.sol\":2028:2058  _amount<=address(this).balance */\n      gt\n      iszero\n        /* \"solidity-learning/3_SmartWallet/TheSmartWallet.sol\":2020:2107  require(_amount<=address(this).balance, \"The contract doesn't have sufficient balance\") */\n      tag_71\n      jumpi\n      mload(0x40)\n      0x08c379a000000000000000000000000000000000000000000000000000000000\n      dup2\n      mstore\n      0x04\n      add\n      tag_72\n      swap1\n      tag_73\n      jump\t// in\n    tag_72:\n      mload(0x40)\n      dup1\n      swap2\n      sub\n      swap1\n      revert\n    tag_71:\n        /* \"solidity-learning/3_SmartWallet/TheSmartWallet.sol\":2134:2139  owner */\n      0x00\n      dup1\n      sload\n      swap1\n      0x0100\n      exp\n      swap1\n      div\n      0xffffffffffffffffffffffffffffffffffffffff\n      and\n        /* \"solidity-learning/3_SmartWallet/TheSmartWallet.sol\":2120:2139  msg.sender != owner */\n      0xffffffffffffffffffffffffffffffffffffffff\n      and\n        /* \"solidity-learning/3_SmartWallet/TheSmartWallet.sol\":2120:2130  msg.sender */\n      caller\n        /* \"solidity-learning/3_SmartWallet/TheSmartWallet.sol\":2120:2139  msg.sender != owner */\n      0xffffffffffffffffffffffffffffffffffffffff\n      and\n      eq\n        /* \"solidity-learning/3_SmartWallet/TheSmartWallet.sol\":2117:2653  if(msg.sender != owner) {... */\n      tag_74\n      jumpi\n        /* \"solidity-learning/3_SmartWallet/TheSmartWallet.sol\":2186:2187  0 */\n      0x00\n        /* \"solidity-learning/3_SmartWallet/TheSmartWallet.sol\":2163:2172  allowance */\n      0x01\n        /* \"solidity-learning/3_SmartWallet/TheSmartWallet.sol\":2163:2184  allowance[msg.sender] */\n      0x00\n        /* \"solidity-learning/3_SmartWallet/TheSmartWallet.sol\":2173:2183  msg.sender */\n      caller\n        /* \"solidity-learning/3_SmartWallet/TheSmartWallet.sol\":2163:2184  allowance[msg.sender] */\n      0xffffffffffffffffffffffffffffffffffffffff\n      and\n      0xffffffffffffffffffffffffffffffffffffffff\n      and\n      dup2\n      mstore\n      0x20\n      add\n      swap1\n      dup2\n      mstore\n      0x20\n      add\n      0x00\n      keccak256\n      sload\n        /* \"solidity-learning/3_SmartWallet/TheSmartWallet.sol\":2163:2187  allowance[msg.sender]!=0 */\n      sub\n        /* \"solidity-learning/3_SmartWallet/TheSmartWallet.sol\":2155:2229  require(allowance[msg.sender]!=0,\"You don't have any allowance, aborting\") */\n      tag_75\n      jumpi\n      mload(0x40)\n      0x08c379a000000000000000000000000000000000000000000000000000000000\n      dup2\n      mstore\n      0x04\n      add\n      tag_76\n      swap1\n      tag_77\n      jump\t// in\n    tag_76:\n      mload(0x40)\n      dup1\n      swap2\n      sub\n      swap1\n      revert\n    tag_75:\n        /* \"solidity-learning/3_SmartWallet/TheSmartWallet.sol\":2274:2281  _amount */\n      dup1\n        /* \"solidity-learning/3_SmartWallet/TheSmartWallet.sol\":2251:2260  allowance */\n      0x01\n        /* \"solidity-learning/3_SmartWallet/TheSmartWallet.sol\":2251:2272  allowance[msg.sender] */\n      0x00\n        /* \"solidity-learning/3_SmartWallet/TheSmartWallet.sol\":2261:2271  msg.sender */\n      caller\n        /* \"solidity-learning/3_SmartWallet/TheSmartWallet.sol\":2251:2272  allowance[msg.sender] */\n      0xffffffffffffffffffffffffffffffffffffffff\n      and\n      0xffffffffffffffffffffffffffffffffffffffff\n      and\n      dup2\n      mstore\n      0x20\n      add\n      swap1\n      dup2\n      mstore\n      0x20\n      add\n      0x00\n      keccak256\n      sload\n        /* \"solidity-learning/3_SmartWallet/TheSmartWallet.sol\":2251:2281  allowance[msg.sender]>=_amount */\n      lt\n      iszero\n        /* \"solidity-learning/3_SmartWallet/TheSmartWallet.sol\":2243:2337  require(allowance[msg.sender]>=_amount,\"Your request amount exceeds your remaining allowance\") */\n      tag_78\n      jumpi\n      mload(0x40)\n      0x08c379a000000000000000000000000000000000000000000000000000000000\n      dup2\n      mstore\n      0x04\n      add\n      tag_79\n      swap1\n      tag_80\n      jump\t// in\n    tag_79:\n      mload(0x40)\n      dup1\n      swap2\n      sub\n      swap1\n      revert\n    tag_78:\n        /* \"solidity-learning/3_SmartWallet/TheSmartWallet.sol\":2352:2366  bool isSuccess */\n      0x00\n        /* \"solidity-learning/3_SmartWallet/TheSmartWallet.sol\":2371:2374  _to */\n      dup3\n        /* \"solidity-learning/3_SmartWallet/TheSmartWallet.sol\":2371:2379  _to.call */\n      0xffffffffffffffffffffffffffffffffffffffff\n      and\n        /* \"solidity-learning/3_SmartWallet/TheSmartWallet.sol\":2386:2393  _amount */\n      dup3\n        /* \"solidity-learning/3_SmartWallet/TheSmartWallet.sol\":2371:2398  _to.call{value:_amount}(\"\") */\n      mload(0x40)\n      tag_81\n      swap1\n      tag_82\n      jump\t// in\n    tag_81:\n      0x00\n      mload(0x40)\n      dup1\n      dup4\n      sub\n      dup2\n      dup6\n      dup8\n      gas\n      call\n      swap3\n      pop\n      pop\n      pop\n      returndatasize\n      dup1\n      0x00\n      dup2\n      eq\n      tag_85\n      jumpi\n      mload(0x40)\n      swap2\n      pop\n      and(add(returndatasize, 0x3f), not(0x1f))\n      dup3\n      add\n      0x40\n      mstore\n      returndatasize\n      dup3\n      mstore\n      returndatasize\n      0x00\n      0x20\n      dup5\n      add\n      returndatacopy\n      jump(tag_84)\n    tag_85:\n      0x60\n      swap2\n      pop\n    tag_84:\n      pop\n        /* \"solidity-learning/3_SmartWallet/TheSmartWallet.sol\":2351:2398  (bool isSuccess,) = _to.call{value:_amount}(\"\") */\n      pop\n      swap1\n      pop\n        /* \"solidity-learning/3_SmartWallet/TheSmartWallet.sol\":2420:2429  isSuccess */\n      dup1\n        /* \"solidity-learning/3_SmartWallet/TheSmartWallet.sol\":2412:2454  require(isSuccess,\"Call Failed, aborting\") */\n      tag_86\n      jumpi\n      mload(0x40)\n      0x08c379a000000000000000000000000000000000000000000000000000000000\n      dup2\n      mstore\n      0x04\n      add\n      tag_87\n      swap1\n      tag_88\n      jump\t// in\n    tag_87:\n      mload(0x40)\n      dup1\n      swap2\n      sub\n      swap1\n      revert\n    tag_86:\n        /* \"solidity-learning/3_SmartWallet/TheSmartWallet.sol\":2493:2500  _amount */\n      dup2\n        /* \"solidity-learning/3_SmartWallet/TheSmartWallet.sol\":2468:2477  allowance */\n      0x01\n        /* \"solidity-learning/3_SmartWallet/TheSmartWallet.sol\":2468:2489  allowance[msg.sender] */\n      0x00\n        /* \"solidity-learning/3_SmartWallet/TheSmartWallet.sol\":2478:2488  msg.sender */\n      caller\n        /* \"solidity-learning/3_SmartWallet/TheSmartWallet.sol\":2468:2489  allowance[msg.sender] */\n      0xffffffffffffffffffffffffffffffffffffffff\n      and\n      0xffffffffffffffffffffffffffffffffffffffff\n      and\n      dup2\n      mstore\n      0x20\n      add\n      swap1\n      dup2\n      mstore\n      0x20\n      add\n      0x00\n      keccak256\n      0x00\n        /* \"solidity-learning/3_SmartWallet/TheSmartWallet.sol\":2468:2500  allowance[msg.sender] -= _amount */\n      dup3\n      dup3\n      sload\n      tag_89\n      swap2\n      swap1\n      tag_90\n      jump\t// in\n    tag_89:\n      swap3\n      pop\n      pop\n      dup2\n      swap1\n      sstore\n      pop\n        /* \"solidity-learning/3_SmartWallet/TheSmartWallet.sol\":2141:2511  {... */\n      pop\n        /* \"solidity-learning/3_SmartWallet/TheSmartWallet.sol\":2117:2653  if(msg.sender != owner) {... */\n      jump(tag_91)\n    tag_74:\n        /* \"solidity-learning/3_SmartWallet/TheSmartWallet.sol\":2540:2554  bool isSuccess */\n      0x00\n        /* \"solidity-learning/3_SmartWallet/TheSmartWallet.sol\":2559:2562  _to */\n      dup3\n        /* \"solidity-learning/3_SmartWallet/TheSmartWallet.sol\":2559:2567  _to.call */\n      0xffffffffffffffffffffffffffffffffffffffff\n      and\n        /* \"solidity-learning/3_SmartWallet/TheSmartWallet.sol\":2574:2581  _amount */\n      dup3\n        /* \"solidity-learning/3_SmartWallet/TheSmartWallet.sol\":2559:2586  _to.call{value:_amount}(\"\") */\n      mload(0x40)\n      tag_92\n      swap1\n      tag_82\n      jump\t// in\n    tag_92:\n      0x00\n      mload(0x40)\n      dup1\n      dup4\n      sub\n      dup2\n      dup6\n      dup8\n      gas\n      call\n      swap3\n      pop\n      pop\n      pop\n      returndatasize\n      dup1\n      0x00\n      dup2\n      eq\n      tag_95\n      jumpi\n      mload(0x40)\n      swap2\n      pop\n      and(add(returndatasize, 0x3f), not(0x1f))\n      dup3\n      add\n      0x40\n      mstore\n      returndatasize\n      dup3\n      mstore\n      returndatasize\n      0x00\n      0x20\n      dup5\n      add\n      returndatacopy\n      jump(tag_94)\n    tag_95:\n      0x60\n      swap2\n      pop\n    tag_94:\n      pop\n        /* \"solidity-learning/3_SmartWallet/TheSmartWallet.sol\":2539:2586  (bool isSuccess,) = _to.call{value:_amount}(\"\") */\n      pop\n      swap1\n      pop\n        /* \"solidity-learning/3_SmartWallet/TheSmartWallet.sol\":2608:2617  isSuccess */\n      dup1\n        /* \"solidity-learning/3_SmartWallet/TheSmartWallet.sol\":2600:2642  require(isSuccess,\"Call Failed, aborting\") */\n      tag_96\n      jumpi\n      mload(0x40)\n      0x08c379a000000000000000000000000000000000000000000000000000000000\n      dup2\n      mstore\n      0x04\n      add\n      tag_97\n      swap1\n      tag_88\n      jump\t// in\n    tag_97:\n      mload(0x40)\n      dup1\n      swap2\n      sub\n      swap1\n      revert\n    tag_96:\n        /* \"solidity-learning/3_SmartWallet/TheSmartWallet.sol\":2525:2653  {... */\n      pop\n        /* \"solidity-learning/3_SmartWallet/TheSmartWallet.sol\":2117:2653  if(msg.sender != owner) {... */\n    tag_91:\n        /* \"solidity-learning/3_SmartWallet/TheSmartWallet.sol\":1945:2659  function transferFunds(address payable _to, uint _amount) public {... */\n      pop\n      pop\n      jump\t// out\n        /* \"solidity-learning/3_SmartWallet/TheSmartWallet.sol\":351:375  uint public currentVotes */\n    tag_41:\n      sload(0x04)\n      dup2\n      jump\t// out\n        /* \"solidity-learning/3_SmartWallet/TheSmartWallet.sol\":763:938  function addGuardian(address _guardian) public {... */\n    tag_46:\n        /* \"solidity-learning/3_SmartWallet/TheSmartWallet.sol\":842:847  owner */\n      0x00\n      dup1\n      sload\n      swap1\n      0x0100\n      exp\n      swap1\n      div\n      0xffffffffffffffffffffffffffffffffffffffff\n      and\n        /* \"solidity-learning/3_SmartWallet/TheSmartWallet.sol\":828:847  msg.sender == owner */\n      0xffffffffffffffffffffffffffffffffffffffff\n      and\n        /* \"solidity-learning/3_SmartWallet/TheSmartWallet.sol\":828:838  msg.sender */\n      caller\n        /* \"solidity-learning/3_SmartWallet/TheSmartWallet.sol\":828:847  msg.sender == owner */\n      0xffffffffffffffffffffffffffffffffffffffff\n      and\n      eq\n        /* \"solidity-learning/3_SmartWallet/TheSmartWallet.sol\":820:883  require(msg.sender == owner, \"You are not the owner, aborting\") */\n      tag_99\n      jumpi\n      mload(0x40)\n      0x08c379a000000000000000000000000000000000000000000000000000000000\n      dup2\n      mstore\n      0x04\n      add\n      tag_100\n      swap1\n      tag_54\n      jump\t// in\n    tag_100:\n      mload(0x40)\n      dup1\n      swap2\n      sub\n      swap1\n      revert\n    tag_99:\n        /* \"solidity-learning/3_SmartWallet/TheSmartWallet.sol\":927:931  true */\n      0x01\n        /* \"solidity-learning/3_SmartWallet/TheSmartWallet.sol\":893:902  guardians */\n      0x02\n        /* \"solidity-learning/3_SmartWallet/TheSmartWallet.sol\":893:913  guardians[_guardian] */\n      0x00\n        /* \"solidity-learning/3_SmartWallet/TheSmartWallet.sol\":903:912  _guardian */\n      dup4\n        /* \"solidity-learning/3_SmartWallet/TheSmartWallet.sol\":893:913  guardians[_guardian] */\n      0xffffffffffffffffffffffffffffffffffffffff\n      and\n      0xffffffffffffffffffffffffffffffffffffffff\n      and\n      dup2\n      mstore\n      0x20\n      add\n      swap1\n      dup2\n      mstore\n      0x20\n      add\n      0x00\n      keccak256\n        /* \"solidity-learning/3_SmartWallet/TheSmartWallet.sol\":893:924  guardians[_guardian].isGuardian */\n      0x00\n      add\n      0x00\n        /* \"solidity-learning/3_SmartWallet/TheSmartWallet.sol\":893:931  guardians[_guardian].isGuardian = true */\n      0x0100\n      exp\n      dup2\n      sload\n      dup2\n      0xff\n      mul\n      not\n      and\n      swap1\n      dup4\n      iszero\n      iszero\n      mul\n      or\n      swap1\n      sstore\n      pop\n        /* \"solidity-learning/3_SmartWallet/TheSmartWallet.sol\":763:938  function addGuardian(address _guardian) public {... */\n      pop\n      jump\t// out\n        /* \"solidity-learning/3_SmartWallet/TheSmartWallet.sol\":485:565  function viewOwner() public view returns (address) {... */\n    tag_49:\n        /* \"solidity-learning/3_SmartWallet/TheSmartWallet.sol\":527:534  address */\n      0x00\n        /* \"solidity-learning/3_SmartWallet/TheSmartWallet.sol\":553:558  owner */\n      dup1\n      0x00\n      swap1\n      sload\n      swap1\n      0x0100\n      exp\n      swap1\n      div\n      0xffffffffffffffffffffffffffffffffffffffff\n      and\n        /* \"solidity-learning/3_SmartWallet/TheSmartWallet.sol\":546:558  return owner */\n      swap1\n      pop\n        /* \"solidity-learning/3_SmartWallet/TheSmartWallet.sol\":485:565  function viewOwner() public view returns (address) {... */\n      swap1\n      jump\t// out\n        /* \"solidity-learning/3_SmartWallet/TheSmartWallet.sol\":1734:1836  function resetAllGuardians() internal {... */\n    tag_69:\n      jump\t// out\n        /* \"#utility.yul\":7:133   */\n    tag_103:\n        /* \"#utility.yul\":44:51   */\n      0x00\n        /* \"#utility.yul\":84:126   */\n      0xffffffffffffffffffffffffffffffffffffffff\n        /* \"#utility.yul\":77:82   */\n      dup3\n        /* \"#utility.yul\":73:127   */\n      and\n        /* \"#utility.yul\":62:127   */\n      swap1\n      pop\n        /* \"#utility.yul\":7:133   */\n      swap2\n      swap1\n      pop\n      jump\t// out\n        /* \"#utility.yul\":139:235   */\n    tag_104:\n        /* \"#utility.yul\":176:183   */\n      0x00\n        /* \"#utility.yul\":205:229   */\n      tag_140\n        /* \"#utility.yul\":223:228   */\n      dup3\n        /* \"#utility.yul\":205:229   */\n      tag_103\n      jump\t// in\n    tag_140:\n        /* \"#utility.yul\":194:229   */\n      swap1\n      pop\n        /* \"#utility.yul\":139:235   */\n      swap2\n      swap1\n      pop\n      jump\t// out\n        /* \"#utility.yul\":241:359   */\n    tag_105:\n        /* \"#utility.yul\":328:352   */\n      tag_142\n        /* \"#utility.yul\":346:351   */\n      dup2\n        /* \"#utility.yul\":328:352   */\n      tag_104\n      jump\t// in\n    tag_142:\n        /* \"#utility.yul\":323:326   */\n      dup3\n        /* \"#utility.yul\":316:353   */\n      mstore\n        /* \"#utility.yul\":241:359   */\n      pop\n      pop\n      jump\t// out\n        /* \"#utility.yul\":365:587   */\n    tag_18:\n        /* \"#utility.yul\":458:462   */\n      0x00\n        /* \"#utility.yul\":496:498   */\n      0x20\n        /* \"#utility.yul\":485:494   */\n      dup3\n        /* \"#utility.yul\":481:499   */\n      add\n        /* \"#utility.yul\":473:499   */\n      swap1\n      pop\n        /* \"#utility.yul\":509:580   */\n      tag_144\n        /* \"#utility.yul\":577:578   */\n      0x00\n        /* \"#utility.yul\":566:575   */\n      dup4\n        /* \"#utility.yul\":562:579   */\n      add\n        /* \"#utility.yul\":553:559   */\n      dup5\n        /* \"#utility.yul\":509:580   */\n      tag_105\n      jump\t// in\n    tag_144:\n        /* \"#utility.yul\":365:587   */\n      swap3\n      swap2\n      pop\n      pop\n      jump\t// out\n        /* \"#utility.yul\":674:791   */\n    tag_107:\n        /* \"#utility.yul\":783:784   */\n      0x00\n        /* \"#utility.yul\":780:781   */\n      dup1\n        /* \"#utility.yul\":773:785   */\n      revert\n        /* \"#utility.yul\":920:1042   */\n    tag_109:\n        /* \"#utility.yul\":993:1017   */\n      tag_149\n        /* \"#utility.yul\":1011:1016   */\n      dup2\n        /* \"#utility.yul\":993:1017   */\n      tag_104\n      jump\t// in\n    tag_149:\n        /* \"#utility.yul\":986:991   */\n      dup2\n        /* \"#utility.yul\":983:1018   */\n      eq\n        /* \"#utility.yul\":973:1036   */\n      tag_150\n      jumpi\n        /* \"#utility.yul\":1032:1033   */\n      0x00\n        /* \"#utility.yul\":1029:1030   */\n      dup1\n        /* \"#utility.yul\":1022:1034   */\n      revert\n        /* \"#utility.yul\":973:1036   */\n    tag_150:\n        /* \"#utility.yul\":920:1042   */\n      pop\n      jump\t// out\n        /* \"#utility.yul\":1048:1187   */\n    tag_110:\n        /* \"#utility.yul\":1094:1099   */\n      0x00\n        /* \"#utility.yul\":1132:1138   */\n      dup2\n        /* \"#utility.yul\":1119:1139   */\n      calldataload\n        /* \"#utility.yul\":1110:1139   */\n      swap1\n      pop\n        /* \"#utility.yul\":1148:1181   */\n      tag_152\n        /* \"#utility.yul\":1175:1180   */\n      dup2\n        /* \"#utility.yul\":1148:1181   */\n      tag_109\n      jump\t// in\n    tag_152:\n        /* \"#utility.yul\":1048:1187   */\n      swap3\n      swap2\n      pop\n      pop\n      jump\t// out\n        /* \"#utility.yul\":1193:1270   */\n    tag_111:\n        /* \"#utility.yul\":1230:1237   */\n      0x00\n        /* \"#utility.yul\":1259:1264   */\n      dup2\n        /* \"#utility.yul\":1248:1264   */\n      swap1\n      pop\n        /* \"#utility.yul\":1193:1270   */\n      swap2\n      swap1\n      pop\n      jump\t// out\n        /* \"#utility.yul\":1276:1398   */\n    tag_112:\n        /* \"#utility.yul\":1349:1373   */\n      tag_155\n        /* \"#utility.yul\":1367:1372   */\n      dup2\n        /* \"#utility.yul\":1349:1373   */\n      tag_111\n      jump\t// in\n    tag_155:\n        /* \"#utility.yul\":1342:1347   */\n      dup2\n        /* \"#utility.yul\":1339:1374   */\n      eq\n        /* \"#utility.yul\":1329:1392   */\n      tag_156\n      jumpi\n        /* \"#utility.yul\":1388:1389   */\n      0x00\n        /* \"#utility.yul\":1385:1386   */\n      dup1\n        /* \"#utility.yul\":1378:1390   */\n      revert\n        /* \"#utility.yul\":1329:1392   */\n    tag_156:\n        /* \"#utility.yul\":1276:1398   */\n      pop\n      jump\t// out\n        /* \"#utility.yul\":1404:1543   */\n    tag_113:\n        /* \"#utility.yul\":1450:1455   */\n      0x00\n        /* \"#utility.yul\":1488:1494   */\n      dup2\n        /* \"#utility.yul\":1475:1495   */\n      calldataload\n        /* \"#utility.yul\":1466:1495   */\n      swap1\n      pop\n        /* \"#utility.yul\":1504:1537   */\n      tag_158\n        /* \"#utility.yul\":1531:1536   */\n      dup2\n        /* \"#utility.yul\":1504:1537   */\n      tag_112\n      jump\t// in\n    tag_158:\n        /* \"#utility.yul\":1404:1543   */\n      swap3\n      swap2\n      pop\n      pop\n      jump\t// out\n        /* \"#utility.yul\":1549:2023   */\n    tag_22:\n        /* \"#utility.yul\":1617:1623   */\n      0x00\n        /* \"#utility.yul\":1625:1631   */\n      dup1\n        /* \"#utility.yul\":1674:1676   */\n      0x40\n        /* \"#utility.yul\":1662:1671   */\n      dup4\n        /* \"#utility.yul\":1653:1660   */\n      dup6\n        /* \"#utility.yul\":1649:1672   */\n      sub\n        /* \"#utility.yul\":1645:1677   */\n      slt\n        /* \"#utility.yul\":1642:1761   */\n      iszero\n      tag_160\n      jumpi\n        /* \"#utility.yul\":1680:1759   */\n      tag_161\n      tag_107\n      jump\t// in\n    tag_161:\n        /* \"#utility.yul\":1642:1761   */\n    tag_160:\n        /* \"#utility.yul\":1800:1801   */\n      0x00\n        /* \"#utility.yul\":1825:1878   */\n      tag_162\n        /* \"#utility.yul\":1870:1877   */\n      dup6\n        /* \"#utility.yul\":1861:1867   */\n      dup3\n        /* \"#utility.yul\":1850:1859   */\n      dup7\n        /* \"#utility.yul\":1846:1868   */\n      add\n        /* \"#utility.yul\":1825:1878   */\n      tag_110\n      jump\t// in\n    tag_162:\n        /* \"#utility.yul\":1815:1878   */\n      swap3\n      pop\n        /* \"#utility.yul\":1771:1888   */\n      pop\n        /* \"#utility.yul\":1927:1929   */\n      0x20\n        /* \"#utility.yul\":1953:2006   */\n      tag_163\n        /* \"#utility.yul\":1998:2005   */\n      dup6\n        /* \"#utility.yul\":1989:1995   */\n      dup3\n        /* \"#utility.yul\":1978:1987   */\n      dup7\n        /* \"#utility.yul\":1974:1996   */\n      add\n        /* \"#utility.yul\":1953:2006   */\n      tag_113\n      jump\t// in\n    tag_163:\n        /* \"#utility.yul\":1943:2006   */\n      swap2\n      pop\n        /* \"#utility.yul\":1898:2016   */\n      pop\n        /* \"#utility.yul\":1549:2023   */\n      swap3\n      pop\n      swap3\n      swap1\n      pop\n      jump\t// out\n        /* \"#utility.yul\":2029:2147   */\n    tag_114:\n        /* \"#utility.yul\":2116:2140   */\n      tag_165\n        /* \"#utility.yul\":2134:2139   */\n      dup2\n        /* \"#utility.yul\":2116:2140   */\n      tag_111\n      jump\t// in\n    tag_165:\n        /* \"#utility.yul\":2111:2114   */\n      dup3\n        /* \"#utility.yul\":2104:2141   */\n      mstore\n        /* \"#utility.yul\":2029:2147   */\n      pop\n      pop\n      jump\t// out\n        /* \"#utility.yul\":2153:2375   */\n    tag_28:\n        /* \"#utility.yul\":2246:2250   */\n      0x00\n        /* \"#utility.yul\":2284:2286   */\n      0x20\n        /* \"#utility.yul\":2273:2282   */\n      dup3\n        /* \"#utility.yul\":2269:2287   */\n      add\n        /* \"#utility.yul\":2261:2287   */\n      swap1\n      pop\n        /* \"#utility.yul\":2297:2368   */\n      tag_167\n        /* \"#utility.yul\":2365:2366   */\n      0x00\n        /* \"#utility.yul\":2354:2363   */\n      dup4\n        /* \"#utility.yul\":2350:2367   */\n      add\n        /* \"#utility.yul\":2341:2347   */\n      dup5\n        /* \"#utility.yul\":2297:2368   */\n      tag_114\n      jump\t// in\n    tag_167:\n        /* \"#utility.yul\":2153:2375   */\n      swap3\n      swap2\n      pop\n      pop\n      jump\t// out\n        /* \"#utility.yul\":2381:2710   */\n    tag_32:\n        /* \"#utility.yul\":2440:2446   */\n      0x00\n        /* \"#utility.yul\":2489:2491   */\n      0x20\n        /* \"#utility.yul\":2477:2486   */\n      dup3\n        /* \"#utility.yul\":2468:2475   */\n      dup5\n        /* \"#utility.yul\":2464:2487   */\n      sub\n        /* \"#utility.yul\":2460:2492   */\n      slt\n        /* \"#utility.yul\":2457:2576   */\n      iszero\n      tag_169\n      jumpi\n        /* \"#utility.yul\":2495:2574   */\n      tag_170\n      tag_107\n      jump\t// in\n    tag_170:\n        /* \"#utility.yul\":2457:2576   */\n    tag_169:\n        /* \"#utility.yul\":2615:2616   */\n      0x00\n        /* \"#utility.yul\":2640:2693   */\n      tag_171\n        /* \"#utility.yul\":2685:2692   */\n      dup5\n        /* \"#utility.yul\":2676:2682   */\n      dup3\n        /* \"#utility.yul\":2665:2674   */\n      dup6\n        /* \"#utility.yul\":2661:2683   */\n      add\n        /* \"#utility.yul\":2640:2693   */\n      tag_110\n      jump\t// in\n    tag_171:\n        /* \"#utility.yul\":2630:2693   */\n      swap2\n      pop\n        /* \"#utility.yul\":2586:2703   */\n      pop\n        /* \"#utility.yul\":2381:2710   */\n      swap3\n      swap2\n      pop\n      pop\n      jump\t// out\n        /* \"#utility.yul\":2716:2820   */\n    tag_115:\n        /* \"#utility.yul\":2761:2768   */\n      0x00\n        /* \"#utility.yul\":2790:2814   */\n      tag_173\n        /* \"#utility.yul\":2808:2813   */\n      dup3\n        /* \"#utility.yul\":2790:2814   */\n      tag_103\n      jump\t// in\n    tag_173:\n        /* \"#utility.yul\":2779:2814   */\n      swap1\n      pop\n        /* \"#utility.yul\":2716:2820   */\n      swap2\n      swap1\n      pop\n      jump\t// out\n        /* \"#utility.yul\":2826:2964   */\n    tag_116:\n        /* \"#utility.yul\":2907:2939   */\n      tag_175\n        /* \"#utility.yul\":2933:2938   */\n      dup2\n        /* \"#utility.yul\":2907:2939   */\n      tag_115\n      jump\t// in\n    tag_175:\n        /* \"#utility.yul\":2900:2905   */\n      dup2\n        /* \"#utility.yul\":2897:2940   */\n      eq\n        /* \"#utility.yul\":2887:2958   */\n      tag_176\n      jumpi\n        /* \"#utility.yul\":2954:2955   */\n      0x00\n        /* \"#utility.yul\":2951:2952   */\n      dup1\n        /* \"#utility.yul\":2944:2956   */\n      revert\n        /* \"#utility.yul\":2887:2958   */\n    tag_176:\n        /* \"#utility.yul\":2826:2964   */\n      pop\n      jump\t// out\n        /* \"#utility.yul\":2970:3125   */\n    tag_117:\n        /* \"#utility.yul\":3024:3029   */\n      0x00\n        /* \"#utility.yul\":3062:3068   */\n      dup2\n        /* \"#utility.yul\":3049:3069   */\n      calldataload\n        /* \"#utility.yul\":3040:3069   */\n      swap1\n      pop\n        /* \"#utility.yul\":3078:3119   */\n      tag_178\n        /* \"#utility.yul\":3113:3118   */\n      dup2\n        /* \"#utility.yul\":3078:3119   */\n      tag_116\n      jump\t// in\n    tag_178:\n        /* \"#utility.yul\":2970:3125   */\n      swap3\n      swap2\n      pop\n      pop\n      jump\t// out\n        /* \"#utility.yul\":3131:3621   */\n    tag_37:\n        /* \"#utility.yul\":3207:3213   */\n      0x00\n        /* \"#utility.yul\":3215:3221   */\n      dup1\n        /* \"#utility.yul\":3264:3266   */\n      0x40\n        /* \"#utility.yul\":3252:3261   */\n      dup4\n        /* \"#utility.yul\":3243:3250   */\n      dup6\n        /* \"#utility.yul\":3239:3262   */\n      sub\n        /* \"#utility.yul\":3235:3267   */\n      slt\n        /* \"#utility.yul\":3232:3351   */\n      iszero\n      tag_180\n      jumpi\n        /* \"#utility.yul\":3270:3349   */\n      tag_181\n      tag_107\n      jump\t// in\n    tag_181:\n        /* \"#utility.yul\":3232:3351   */\n    tag_180:\n        /* \"#utility.yul\":3390:3391   */\n      0x00\n        /* \"#utility.yul\":3415:3476   */\n      tag_182\n        /* \"#utility.yul\":3468:3475   */\n      dup6\n        /* \"#utility.yul\":3459:3465   */\n      dup3\n        /* \"#utility.yul\":3448:3457   */\n      dup7\n        /* \"#utility.yul\":3444:3466   */\n      add\n        /* \"#utility.yul\":3415:3476   */\n      tag_117\n      jump\t// in\n    tag_182:\n        /* \"#utility.yul\":3405:3476   */\n      swap3\n      pop\n        /* \"#utility.yul\":3361:3486   */\n      pop\n        /* \"#utility.yul\":3525:3527   */\n      0x20\n        /* \"#utility.yul\":3551:3604   */\n      tag_183\n        /* \"#utility.yul\":3596:3603   */\n      dup6\n        /* \"#utility.yul\":3587:3593   */\n      dup3\n        /* \"#utility.yul\":3576:3585   */\n      dup7\n        /* \"#utility.yul\":3572:3594   */\n      add\n        /* \"#utility.yul\":3551:3604   */\n      tag_113\n      jump\t// in\n    tag_183:\n        /* \"#utility.yul\":3541:3604   */\n      swap2\n      pop\n        /* \"#utility.yul\":3496:3614   */\n      pop\n        /* \"#utility.yul\":3131:3621   */\n      swap3\n      pop\n      swap3\n      swap1\n      pop\n      jump\t// out\n        /* \"#utility.yul\":3627:3796   */\n    tag_118:\n        /* \"#utility.yul\":3711:3722   */\n      0x00\n        /* \"#utility.yul\":3745:3751   */\n      dup3\n        /* \"#utility.yul\":3740:3743   */\n      dup3\n        /* \"#utility.yul\":3733:3752   */\n      mstore\n        /* \"#utility.yul\":3785:3789   */\n      0x20\n        /* \"#utility.yul\":3780:3783   */\n      dup3\n        /* \"#utility.yul\":3776:3790   */\n      add\n        /* \"#utility.yul\":3761:3790   */\n      swap1\n      pop\n        /* \"#utility.yul\":3627:3796   */\n      swap3\n      swap2\n      pop\n      pop\n      jump\t// out\n        /* \"#utility.yul\":3802:3983   */\n    tag_119:\n        /* \"#utility.yul\":3942:3975   */\n      0x596f7520617265206e6f7420746865206f776e65722c2061626f7274696e6700\n        /* \"#utility.yul\":3938:3939   */\n      0x00\n        /* \"#utility.yul\":3930:3936   */\n      dup3\n        /* \"#utility.yul\":3926:3940   */\n      add\n        /* \"#utility.yul\":3919:3976   */\n      mstore\n        /* \"#utility.yul\":3802:3983   */\n      pop\n      jump\t// out\n        /* \"#utility.yul\":3989:4355   */\n    tag_120:\n        /* \"#utility.yul\":4131:4134   */\n      0x00\n        /* \"#utility.yul\":4152:4219   */\n      tag_187\n        /* \"#utility.yul\":4216:4218   */\n      0x1f\n        /* \"#utility.yul\":4211:4214   */\n      dup4\n        /* \"#utility.yul\":4152:4219   */\n      tag_118\n      jump\t// in\n    tag_187:\n        /* \"#utility.yul\":4145:4219   */\n      swap2\n      pop\n        /* \"#utility.yul\":4228:4321   */\n      tag_188\n        /* \"#utility.yul\":4317:4320   */\n      dup3\n        /* \"#utility.yul\":4228:4321   */\n      tag_119\n      jump\t// in\n    tag_188:\n        /* \"#utility.yul\":4346:4348   */\n      0x20\n        /* \"#utility.yul\":4341:4344   */\n      dup3\n        /* \"#utility.yul\":4337:4349   */\n      add\n        /* \"#utility.yul\":4330:4349   */\n      swap1\n      pop\n        /* \"#utility.yul\":3989:4355   */\n      swap2\n      swap1\n      pop\n      jump\t// out\n        /* \"#utility.yul\":4361:4780   */\n    tag_54:\n        /* \"#utility.yul\":4527:4531   */\n      0x00\n        /* \"#utility.yul\":4565:4567   */\n      0x20\n        /* \"#utility.yul\":4554:4563   */\n      dup3\n        /* \"#utility.yul\":4550:4568   */\n      add\n        /* \"#utility.yul\":4542:4568   */\n      swap1\n      pop\n        /* \"#utility.yul\":4614:4623   */\n      dup2\n        /* \"#utility.yul\":4608:4612   */\n      dup2\n        /* \"#utility.yul\":4604:4624   */\n      sub\n        /* \"#utility.yul\":4600:4601   */\n      0x00\n        /* \"#utility.yul\":4589:4598   */\n      dup4\n        /* \"#utility.yul\":4585:4602   */\n      add\n        /* \"#utility.yul\":4578:4625   */\n      mstore\n        /* \"#utility.yul\":4642:4773   */\n      tag_190\n        /* \"#utility.yul\":4768:4772   */\n      dup2\n        /* \"#utility.yul\":4642:4773   */\n      tag_120\n      jump\t// in\n    tag_190:\n        /* \"#utility.yul\":4634:4773   */\n      swap1\n      pop\n        /* \"#utility.yul\":4361:4780   */\n      swap2\n      swap1\n      pop\n      jump\t// out\n        /* \"#utility.yul\":4786:4968   */\n    tag_121:\n        /* \"#utility.yul\":4926:4960   */\n      0x596f7520617265206e6f74206120677561726469616e2c2061626f7274696e67\n        /* \"#utility.yul\":4922:4923   */\n      0x00\n        /* \"#utility.yul\":4914:4920   */\n      dup3\n        /* \"#utility.yul\":4910:4924   */\n      add\n        /* \"#utility.yul\":4903:4961   */\n      mstore\n        /* \"#utility.yul\":4786:4968   */\n      pop\n      jump\t// out\n        /* \"#utility.yul\":4974:5340   */\n    tag_122:\n        /* \"#utility.yul\":5116:5119   */\n      0x00\n        /* \"#utility.yul\":5137:5204   */\n      tag_193\n        /* \"#utility.yul\":5201:5203   */\n      0x20\n        /* \"#utility.yul\":5196:5199   */\n      dup4\n        /* \"#utility.yul\":5137:5204   */\n      tag_118\n      jump\t// in\n    tag_193:\n        /* \"#utility.yul\":5130:5204   */\n      swap2\n      pop\n        /* \"#utility.yul\":5213:5306   */\n      tag_194\n        /* \"#utility.yul\":5302:5305   */\n      dup3\n        /* \"#utility.yul\":5213:5306   */\n      tag_121\n      jump\t// in\n    tag_194:\n        /* \"#utility.yul\":5331:5333   */\n      0x20\n        /* \"#utility.yul\":5326:5329   */\n      dup3\n        /* \"#utility.yul\":5322:5334   */\n      add\n        /* \"#utility.yul\":5315:5334   */\n      swap1\n      pop\n        /* \"#utility.yul\":4974:5340   */\n      swap2\n      swap1\n      pop\n      jump\t// out\n        /* \"#utility.yul\":5346:5765   */\n    tag_59:\n        /* \"#utility.yul\":5512:5516   */\n      0x00\n        /* \"#utility.yul\":5550:5552   */\n      0x20\n        /* \"#utility.yul\":5539:5548   */\n      dup3\n        /* \"#utility.yul\":5535:5553   */\n      add\n        /* \"#utility.yul\":5527:5553   */\n      swap1\n      pop\n        /* \"#utility.yul\":5599:5608   */\n      dup2\n        /* \"#utility.yul\":5593:5597   */\n      dup2\n        /* \"#utility.yul\":5589:5609   */\n      sub\n        /* \"#utility.yul\":5585:5586   */\n      0x00\n        /* \"#utility.yul\":5574:5583   */\n      dup4\n        /* \"#utility.yul\":5570:5587   */\n      add\n        /* \"#utility.yul\":5563:5610   */\n      mstore\n        /* \"#utility.yul\":5627:5758   */\n      tag_196\n        /* \"#utility.yul\":5753:5757   */\n      dup2\n        /* \"#utility.yul\":5627:5758   */\n      tag_122\n      jump\t// in\n    tag_196:\n        /* \"#utility.yul\":5619:5758   */\n      swap1\n      pop\n        /* \"#utility.yul\":5346:5765   */\n      swap2\n      swap1\n      pop\n      jump\t// out\n        /* \"#utility.yul\":5771:5998   */\n    tag_123:\n        /* \"#utility.yul\":5911:5945   */\n      0x596f75206861766520616c726561647920766f746520666f7220746869732063\n        /* \"#utility.yul\":5907:5908   */\n      0x00\n        /* \"#utility.yul\":5899:5905   */\n      dup3\n        /* \"#utility.yul\":5895:5909   */\n      add\n        /* \"#utility.yul\":5888:5946   */\n      mstore\n        /* \"#utility.yul\":5980:5990   */\n      0x616e646964617465000000000000000000000000000000000000000000000000\n        /* \"#utility.yul\":5975:5977   */\n      0x20\n        /* \"#utility.yul\":5967:5973   */\n      dup3\n        /* \"#utility.yul\":5963:5978   */\n      add\n        /* \"#utility.yul\":5956:5991   */\n      mstore\n        /* \"#utility.yul\":5771:5998   */\n      pop\n      jump\t// out\n        /* \"#utility.yul\":6004:6370   */\n    tag_124:\n        /* \"#utility.yul\":6146:6149   */\n      0x00\n        /* \"#utility.yul\":6167:6234   */\n      tag_199\n        /* \"#utility.yul\":6231:6233   */\n      0x28\n        /* \"#utility.yul\":6226:6229   */\n      dup4\n        /* \"#utility.yul\":6167:6234   */\n      tag_118\n      jump\t// in\n    tag_199:\n        /* \"#utility.yul\":6160:6234   */\n      swap2\n      pop\n        /* \"#utility.yul\":6243:6336   */\n      tag_200\n        /* \"#utility.yul\":6332:6335   */\n      dup3\n        /* \"#utility.yul\":6243:6336   */\n      tag_123\n      jump\t// in\n    tag_200:\n        /* \"#utility.yul\":6361:6363   */\n      0x40\n        /* \"#utility.yul\":6356:6359   */\n      dup3\n        /* \"#utility.yul\":6352:6364   */\n      add\n        /* \"#utility.yul\":6345:6364   */\n      swap1\n      pop\n        /* \"#utility.yul\":6004:6370   */\n      swap2\n      swap1\n      pop\n      jump\t// out\n        /* \"#utility.yul\":6376:6795   */\n    tag_62:\n        /* \"#utility.yul\":6542:6546   */\n      0x00\n        /* \"#utility.yul\":6580:6582   */\n      0x20\n        /* \"#utility.yul\":6569:6578   */\n      dup3\n        /* \"#utility.yul\":6565:6583   */\n      add\n        /* \"#utility.yul\":6557:6583   */\n      swap1\n      pop\n        /* \"#utility.yul\":6629:6638   */\n      dup2\n        /* \"#utility.yul\":6623:6627   */\n      dup2\n        /* \"#utility.yul\":6619:6639   */\n      sub\n        /* \"#utility.yul\":6615:6616   */\n      0x00\n        /* \"#utility.yul\":6604:6613   */\n      dup4\n        /* \"#utility.yul\":6600:6617   */\n      add\n        /* \"#utility.yul\":6593:6640   */\n      mstore\n        /* \"#utility.yul\":6657:6788   */\n      tag_202\n        /* \"#utility.yul\":6783:6787   */\n      dup2\n        /* \"#utility.yul\":6657:6788   */\n      tag_124\n      jump\t// in\n    tag_202:\n        /* \"#utility.yul\":6649:6788   */\n      swap1\n      pop\n        /* \"#utility.yul\":6376:6795   */\n      swap2\n      swap1\n      pop\n      jump\t// out\n        /* \"#utility.yul\":6801:6981   */\n    tag_125:\n        /* \"#utility.yul\":6849:6926   */\n      0x4e487b7100000000000000000000000000000000000000000000000000000000\n        /* \"#utility.yul\":6846:6847   */\n      0x00\n        /* \"#utility.yul\":6839:6927   */\n      mstore\n        /* \"#utility.yul\":6946:6950   */\n      0x11\n        /* \"#utility.yul\":6943:6944   */\n      0x04\n        /* \"#utility.yul\":6936:6951   */\n      mstore\n        /* \"#utility.yul\":6970:6974   */\n      0x24\n        /* \"#utility.yul\":6967:6968   */\n      0x00\n        /* \"#utility.yul\":6960:6975   */\n      revert\n        /* \"#utility.yul\":6987:7220   */\n    tag_66:\n        /* \"#utility.yul\":7026:7029   */\n      0x00\n        /* \"#utility.yul\":7049:7073   */\n      tag_205\n        /* \"#utility.yul\":7067:7072   */\n      dup3\n        /* \"#utility.yul\":7049:7073   */\n      tag_111\n      jump\t// in\n    tag_205:\n        /* \"#utility.yul\":7040:7073   */\n      swap2\n      pop\n        /* \"#utility.yul\":7095:7161   */\n      0xffffffffffffffffffffffffffffffffffffffffffffffffffffffffffffffff\n        /* \"#utility.yul\":7088:7093   */\n      dup3\n        /* \"#utility.yul\":7085:7162   */\n      sub\n        /* \"#utility.yul\":7082:7185   */\n      tag_206\n      jumpi\n        /* \"#utility.yul\":7165:7183   */\n      tag_207\n      tag_125\n      jump\t// in\n    tag_207:\n        /* \"#utility.yul\":7082:7185   */\n    tag_206:\n        /* \"#utility.yul\":7212:7213   */\n      0x01\n        /* \"#utility.yul\":7205:7210   */\n      dup3\n        /* \"#utility.yul\":7201:7214   */\n      add\n        /* \"#utility.yul\":7194:7214   */\n      swap1\n      pop\n        /* \"#utility.yul\":6987:7220   */\n      swap2\n      swap1\n      pop\n      jump\t// out\n        /* \"#utility.yul\":7226:7457   */\n    tag_126:\n        /* \"#utility.yul\":7366:7400   */\n      0x54686520636f6e747261637420646f65736e2774206861766520737566666963\n        /* \"#utility.yul\":7362:7363   */\n      0x00\n        /* \"#utility.yul\":7354:7360   */\n      dup3\n        /* \"#utility.yul\":7350:7364   */\n      add\n        /* \"#utility.yul\":7343:7401   */\n      mstore\n        /* \"#utility.yul\":7435:7449   */\n      0x69656e742062616c616e63650000000000000000000000000000000000000000\n        /* \"#utility.yul\":7430:7432   */\n      0x20\n        /* \"#utility.yul\":7422:7428   */\n      dup3\n        /* \"#utility.yul\":7418:7433   */\n      add\n        /* \"#utility.yul\":7411:7450   */\n      mstore\n        /* \"#utility.yul\":7226:7457   */\n      pop\n      jump\t// out\n        /* \"#utility.yul\":7463:7829   */\n    tag_127:\n        /* \"#utility.yul\":7605:7608   */\n      0x00\n        /* \"#utility.yul\":7626:7693   */\n      tag_210\n        /* \"#utility.yul\":7690:7692   */\n      0x2c\n        /* \"#utility.yul\":7685:7688   */\n      dup4\n        /* \"#utility.yul\":7626:7693   */\n      tag_118\n      jump\t// in\n    tag_210:\n        /* \"#utility.yul\":7619:7693   */\n      swap2\n      pop\n        /* \"#utility.yul\":7702:7795   */\n      tag_211\n        /* \"#utility.yul\":7791:7794   */\n      dup3\n        /* \"#utility.yul\":7702:7795   */\n      tag_126\n      jump\t// in\n    tag_211:\n        /* \"#utility.yul\":7820:7822   */\n      0x40\n        /* \"#utility.yul\":7815:7818   */\n      dup3\n        /* \"#utility.yul\":7811:7823   */\n      add\n        /* \"#utility.yul\":7804:7823   */\n      swap1\n      pop\n        /* \"#utility.yul\":7463:7829   */\n      swap2\n      swap1\n      pop\n      jump\t// out\n        /* \"#utility.yul\":7835:8254   */\n    tag_73:\n        /* \"#utility.yul\":8001:8005   */\n      0x00\n        /* \"#utility.yul\":8039:8041   */\n      0x20\n        /* \"#utility.yul\":8028:8037   */\n      dup3\n        /* \"#utility.yul\":8024:8042   */\n      add\n        /* \"#utility.yul\":8016:8042   */\n      swap1\n      pop\n        /* \"#utility.yul\":8088:8097   */\n      dup2\n        /* \"#utility.yul\":8082:8086   */\n      dup2\n        /* \"#utility.yul\":8078:8098   */\n      sub\n        /* \"#utility.yul\":8074:8075   */\n      0x00\n        /* \"#utility.yul\":8063:8072   */\n      dup4\n        /* \"#utility.yul\":8059:8076   */\n      add\n        /* \"#utility.yul\":8052:8099   */\n      mstore\n        /* \"#utility.yul\":8116:8247   */\n      tag_213\n        /* \"#utility.yul\":8242:8246   */\n      dup2\n        /* \"#utility.yul\":8116:8247   */\n      tag_127\n      jump\t// in\n    tag_213:\n        /* \"#utility.yul\":8108:8247   */\n      swap1\n      pop\n        /* \"#utility.yul\":7835:8254   */\n      swap2\n      swap1\n      pop\n      jump\t// out\n        /* \"#utility.yul\":8260:8485   */\n    tag_128:\n        /* \"#utility.yul\":8400:8434   */\n      0x596f7520646f6e2774206861766520616e7920616c6c6f77616e63652c206162\n        /* \"#utility.yul\":8396:8397   */\n      0x00\n        /* \"#utility.yul\":8388:8394   */\n      dup3\n        /* \"#utility.yul\":8384:8398   */\n      add\n        /* \"#utility.yul\":8377:8435   */\n      mstore\n        /* \"#utility.yul\":8469:8477   */\n      0x6f7274696e670000000000000000000000000000000000000000000000000000\n        /* \"#utility.yul\":8464:8466   */\n      0x20\n        /* \"#utility.yul\":8456:8462   */\n      dup3\n        /* \"#utility.yul\":8452:8467   */\n      add\n        /* \"#utility.yul\":8445:8478   */\n      mstore\n        /* \"#utility.yul\":8260:8485   */\n      pop\n      jump\t// out\n        /* \"#utility.yul\":8491:8857   */\n    tag_129:\n        /* \"#utility.yul\":8633:8636   */\n      0x00\n        /* \"#utility.yul\":8654:8721   */\n      tag_216\n        /* \"#utility.yul\":8718:8720   */\n      0x26\n        /* \"#utility.yul\":8713:8716   */\n      dup4\n        /* \"#utility.yul\":8654:8721   */\n      tag_118\n      jump\t// in\n    tag_216:\n        /* \"#utility.yul\":8647:8721   */\n      swap2\n      pop\n        /* \"#utility.yul\":8730:8823   */\n      tag_217\n        /* \"#utility.yul\":8819:8822   */\n      dup3\n        /* \"#utility.yul\":8730:8823   */\n      tag_128\n      jump\t// in\n    tag_217:\n        /* \"#utility.yul\":8848:8850   */\n      0x40\n        /* \"#utility.yul\":8843:8846   */\n      dup3\n        /* \"#utility.yul\":8839:8851   */\n      add\n        /* \"#utility.yul\":8832:8851   */\n      swap1\n      pop\n        /* \"#utility.yul\":8491:8857   */\n      swap2\n      swap1\n      pop\n      jump\t// out\n        /* \"#utility.yul\":8863:9282   */\n    tag_77:\n        /* \"#utility.yul\":9029:9033   */\n      0x00\n        /* \"#utility.yul\":9067:9069   */\n      0x20\n        /* \"#utility.yul\":9056:9065   */\n      dup3\n        /* \"#utility.yul\":9052:9070   */\n      add\n        /* \"#utility.yul\":9044:9070   */\n      swap1\n      pop\n        /* \"#utility.yul\":9116:9125   */\n      dup2\n        /* \"#utility.yul\":9110:9114   */\n      dup2\n        /* \"#utility.yul\":9106:9126   */\n      sub\n        /* \"#utility.yul\":9102:9103   */\n      0x00\n        /* \"#utility.yul\":9091:9100   */\n      dup4\n        /* \"#utility.yul\":9087:9104   */\n      add\n        /* \"#utility.yul\":9080:9127   */\n      mstore\n        /* \"#utility.yul\":9144:9275   */\n      tag_219\n        /* \"#utility.yul\":9270:9274   */\n      dup2\n        /* \"#utility.yul\":9144:9275   */\n      tag_129\n      jump\t// in\n    tag_219:\n        /* \"#utility.yul\":9136:9275   */\n      swap1\n      pop\n        /* \"#utility.yul\":8863:9282   */\n      swap2\n      swap1\n      pop\n      jump\t// out\n        /* \"#utility.yul\":9288:9527   */\n    tag_130:\n        /* \"#utility.yul\":9428:9462   */\n      0x596f7572207265717565737420616d6f756e74206578636565647320796f7572\n        /* \"#utility.yul\":9424:9425   */\n      0x00\n        /* \"#utility.yul\":9416:9422   */\n      dup3\n        /* \"#utility.yul\":9412:9426   */\n      add\n        /* \"#utility.yul\":9405:9463   */\n      mstore\n        /* \"#utility.yul\":9497:9519   */\n      0x2072656d61696e696e6720616c6c6f77616e6365000000000000000000000000\n        /* \"#utility.yul\":9492:9494   */\n      0x20\n        /* \"#utility.yul\":9484:9490   */\n      dup3\n        /* \"#utility.yul\":9480:9495   */\n      add\n        /* \"#utility.yul\":9473:9520   */\n      mstore\n        /* \"#utility.yul\":9288:9527   */\n      pop\n      jump\t// out\n        /* \"#utility.yul\":9533:9899   */\n    tag_131:\n        /* \"#utility.yul\":9675:9678   */\n      0x00\n        /* \"#utility.yul\":9696:9763   */\n      tag_222\n        /* \"#utility.yul\":9760:9762   */\n      0x34\n        /* \"#utility.yul\":9755:9758   */\n      dup4\n        /* \"#utility.yul\":9696:9763   */\n      tag_118\n      jump\t// in\n    tag_222:\n        /* \"#utility.yul\":9689:9763   */\n      swap2\n      pop\n        /* \"#utility.yul\":9772:9865   */\n      tag_223\n        /* \"#utility.yul\":9861:9864   */\n      dup3\n        /* \"#utility.yul\":9772:9865   */\n      tag_130\n      jump\t// in\n    tag_223:\n        /* \"#utility.yul\":9890:9892   */\n      0x40\n        /* \"#utility.yul\":9885:9888   */\n      dup3\n        /* \"#utility.yul\":9881:9893   */\n      add\n        /* \"#utility.yul\":9874:9893   */\n      swap1\n      pop\n        /* \"#utility.yul\":9533:9899   */\n      swap2\n      swap1\n      pop\n      jump\t// out\n        /* \"#utility.yul\":9905:10324   */\n    tag_80:\n        /* \"#utility.yul\":10071:10075   */\n      0x00\n        /* \"#utility.yul\":10109:10111   */\n      0x20\n        /* \"#utility.yul\":10098:10107   */\n      dup3\n        /* \"#utility.yul\":10094:10112   */\n      add\n        /* \"#utility.yul\":10086:10112   */\n      swap1\n      pop\n        /* \"#utility.yul\":10158:10167   */\n      dup2\n        /* \"#utility.yul\":10152:10156   */\n      dup2\n        /* \"#utility.yul\":10148:10168   */\n      sub\n        /* \"#utility.yul\":10144:10145   */\n      0x00\n        /* \"#utility.yul\":10133:10142   */\n      dup4\n        /* \"#utility.yul\":10129:10146   */\n      add\n        /* \"#utility.yul\":10122:10169   */\n      mstore\n        /* \"#utility.yul\":10186:10317   */\n      tag_225\n        /* \"#utility.yul\":10312:10316   */\n      dup2\n        /* \"#utility.yul\":10186:10317   */\n      tag_131\n      jump\t// in\n    tag_225:\n        /* \"#utility.yul\":10178:10317   */\n      swap1\n      pop\n        /* \"#utility.yul\":9905:10324   */\n      swap2\n      swap1\n      pop\n      jump\t// out\n        /* \"#utility.yul\":10330:10477   */\n    tag_132:\n        /* \"#utility.yul\":10431:10442   */\n      0x00\n        /* \"#utility.yul\":10468:10471   */\n      dup2\n        /* \"#utility.yul\":10453:10471   */\n      swap1\n      pop\n        /* \"#utility.yul\":10330:10477   */\n      swap3\n      swap2\n      pop\n      pop\n      jump\t// out\n        /* \"#utility.yul\":10483:10597   */\n    tag_133:\n      pop\n      jump\t// out\n        /* \"#utility.yul\":10603:11001   */\n    tag_134:\n        /* \"#utility.yul\":10762:10765   */\n      0x00\n        /* \"#utility.yul\":10783:10866   */\n      tag_229\n        /* \"#utility.yul\":10864:10865   */\n      0x00\n        /* \"#utility.yul\":10859:10862   */\n      dup4\n        /* \"#utility.yul\":10783:10866   */\n      tag_132\n      jump\t// in\n    tag_229:\n        /* \"#utility.yul\":10776:10866   */\n      swap2\n      pop\n        /* \"#utility.yul\":10875:10968   */\n      tag_230\n        /* \"#utility.yul\":10964:10967   */\n      dup3\n        /* \"#utility.yul\":10875:10968   */\n      tag_133\n      jump\t// in\n    tag_230:\n        /* \"#utility.yul\":10993:10994   */\n      0x00\n        /* \"#utility.yul\":10988:10991   */\n      dup3\n        /* \"#utility.yul\":10984:10995   */\n      add\n        /* \"#utility.yul\":10977:10995   */\n      swap1\n      pop\n        /* \"#utility.yul\":10603:11001   */\n      swap2\n      swap1\n      pop\n      jump\t// out\n        /* \"#utility.yul\":11007:11386   */\n    tag_82:\n        /* \"#utility.yul\":11191:11194   */\n      0x00\n        /* \"#utility.yul\":11213:11360   */\n      tag_232\n        /* \"#utility.yul\":11356:11359   */\n      dup3\n        /* \"#utility.yul\":11213:11360   */\n      tag_134\n      jump\t// in\n    tag_232:\n        /* \"#utility.yul\":11206:11360   */\n      swap2\n      pop\n        /* \"#utility.yul\":11377:11380   */\n      dup2\n        /* \"#utility.yul\":11370:11380   */\n      swap1\n      pop\n        /* \"#utility.yul\":11007:11386   */\n      swap2\n      swap1\n      pop\n      jump\t// out\n        /* \"#utility.yul\":11392:11563   */\n    tag_135:\n        /* \"#utility.yul\":11532:11555   */\n      0x43616c6c204661696c65642c2061626f7274696e670000000000000000000000\n        /* \"#utility.yul\":11528:11529   */\n      0x00\n        /* \"#utility.yul\":11520:11526   */\n      dup3\n        /* \"#utility.yul\":11516:11530   */\n      add\n        /* \"#utility.yul\":11509:11556   */\n      mstore\n        /* \"#utility.yul\":11392:11563   */\n      pop\n      jump\t// out\n        /* \"#utility.yul\":11569:11935   */\n    tag_136:\n        /* \"#utility.yul\":11711:11714   */\n      0x00\n        /* \"#utility.yul\":11732:11799   */\n      tag_235\n        /* \"#utility.yul\":11796:11798   */\n      0x15\n        /* \"#utility.yul\":11791:11794   */\n      dup4\n        /* \"#utility.yul\":11732:11799   */\n      tag_118\n      jump\t// in\n    tag_235:\n        /* \"#utility.yul\":11725:11799   */\n      swap2\n      pop\n        /* \"#utility.yul\":11808:11901   */\n      tag_236\n        /* \"#utility.yul\":11897:11900   */\n      dup3\n        /* \"#utility.yul\":11808:11901   */\n      tag_135\n      jump\t// in\n    tag_236:\n        /* \"#utility.yul\":11926:11928   */\n      0x20\n        /* \"#utility.yul\":11921:11924   */\n      dup3\n        /* \"#utility.yul\":11917:11929   */\n      add\n        /* \"#utility.yul\":11910:11929   */\n      swap1\n      pop\n        /* \"#utility.yul\":11569:11935   */\n      swap2\n      swap1\n      pop\n      jump\t// out\n        /* \"#utility.yul\":11941:12360   */\n    tag_88:\n        /* \"#utility.yul\":12107:12111   */\n      0x00\n        /* \"#utility.yul\":12145:12147   */\n      0x20\n        /* \"#utility.yul\":12134:12143   */\n      dup3\n        /* \"#utility.yul\":12130:12148   */\n      add\n        /* \"#utility.yul\":12122:12148   */\n      swap1\n      pop\n        /* \"#utility.yul\":12194:12203   */\n      dup2\n        /* \"#utility.yul\":12188:12192   */\n      dup2\n        /* \"#utility.yul\":12184:12204   */\n      sub\n        /* \"#utility.yul\":12180:12181   */\n      0x00\n        /* \"#utility.yul\":12169:12178   */\n      dup4\n        /* \"#utility.yul\":12165:12182   */\n      add\n        /* \"#utility.yul\":12158:12205   */\n      mstore\n        /* \"#utility.yul\":12222:12353   */\n      tag_238\n        /* \"#utility.yul\":12348:12352   */\n      dup2\n        /* \"#utility.yul\":12222:12353   */\n      tag_136\n      jump\t// in\n    tag_238:\n        /* \"#utility.yul\":12214:12353   */\n      swap1\n      pop\n        /* \"#utility.yul\":11941:12360   */\n      swap2\n      swap1\n      pop\n      jump\t// out\n        /* \"#utility.yul\":12366:12560   */\n    tag_90:\n        /* \"#utility.yul\":12406:12410   */\n      0x00\n        /* \"#utility.yul\":12426:12446   */\n      tag_240\n        /* \"#utility.yul\":12444:12445   */\n      dup3\n        /* \"#utility.yul\":12426:12446   */\n      tag_111\n      jump\t// in\n    tag_240:\n        /* \"#utility.yul\":12421:12446   */\n      swap2\n      pop\n        /* \"#utility.yul\":12460:12480   */\n      tag_241\n        /* \"#utility.yul\":12478:12479   */\n      dup4\n        /* \"#utility.yul\":12460:12480   */\n      tag_111\n      jump\t// in\n    tag_241:\n        /* \"#utility.yul\":12455:12480   */\n      swap3\n      pop\n        /* \"#utility.yul\":12504:12505   */\n      dup3\n        /* \"#utility.yul\":12501:12502   */\n      dup3\n        /* \"#utility.yul\":12497:12506   */\n      sub\n        /* \"#utility.yul\":12489:12506   */\n      swap1\n      pop\n        /* \"#utility.yul\":12528:12529   */\n      dup2\n        /* \"#utility.yul\":12522:12526   */\n      dup2\n        /* \"#utility.yul\":12519:12530   */\n      gt\n        /* \"#utility.yul\":12516:12553   */\n      iszero\n      tag_242\n      jumpi\n        /* \"#utility.yul\":12533:12551   */\n      tag_243\n      tag_125\n      jump\t// in\n    tag_243:\n        /* \"#utility.yul\":12516:12553   */\n    tag_242:\n        /* \"#utility.yul\":12366:12560   */\n      swap3\n      swap2\n      pop\n      pop\n      jump\t// out\n\n    auxdata: 0xa26469706673582212202a9611f95dc6751e2c8606c42e6f6b0232ec9d98d73305876d8de326523ad81064736f6c63430008100033\n}\n",
				"bytecode": {
					"linkReferences": {},
					"object": "608060405234801561001057600080fd5b50336000806101000a81548173ffffffffffffffffffffffffffffffffffffffff021916908373ffffffffffffffffffffffffffffffffffffffff160217905550611235806100606000396000f3fe60806040526004361061007f5760003560e01c8063990dc9db1161004e578063990dc9db14610133578063994ba4d21461015c578063a526d83b14610187578063bc677b46146101b057610086565b80631a272ccf1461008b578063310ec4a7146100b657806365a3acf0146100df5780637e21565b1461010a57610086565b3661008657005b600080fd5b34801561009757600080fd5b506100a06101db565b6040516100ad9190610bda565b60405180910390f35b3480156100c257600080fd5b506100dd60048036038101906100d89190610c5c565b610201565b005b3480156100eb57600080fd5b506100f46102d7565b6040516101019190610cab565b60405180910390f35b34801561011657600080fd5b50610131600480360381019061012c9190610cc6565b61031e565b005b34801561013f57600080fd5b5061015a60048036038101906101559190610d31565b610728565b005b34801561016857600080fd5b50610171610a7c565b60405161017e9190610cab565b60405180910390f35b34801561019357600080fd5b506101ae60048036038101906101a99190610cc6565b610a82565b005b3480156101bc57600080fd5b506101c5610b6e565b6040516101d29190610bda565b60405180910390f35b600360009054906101000a900473ffffffffffffffffffffffffffffffffffffffff1681565b60008054906101000a900473ffffffffffffffffffffffffffffffffffffffff1673ffffffffffffffffffffffffffffffffffffffff163373ffffffffffffffffffffffffffffffffffffffff161461028f576040517f08c379a000000000000000000000000000000000000000000000000000000000815260040161028690610dce565b60405180910390fd5b80600160008473ffffffffffffffffffffffffffffffffffffffff1673ffffffffffffffffffffffffffffffffffffffff168152602001908152602001600020819055505050565b6000600160003373ffffffffffffffffffffffffffffffffffffffff1673ffffffffffffffffffffffffffffffffffffffff16815260200190815260200160002054905090565b600260003373ffffffffffffffffffffffffffffffffffffffff1673ffffffffffffffffffffffffffffffffffffffff16815260200190815260200160002060000160009054906101000a900460ff166103ad576040517f08c379a00000000000000000000000000000000000000000000000000000000081526004016103a490610e3a565b60405180910390fd5b600260003373ffffffffffffffffffffffffffffffffffffffff1673ffffffffffffffffffffffffffffffffffffffff16815260200190815260200160002060010160008273ffffffffffffffffffffffffffffffffffffffff1673ffffffffffffffffffffffffffffffffffffffff16815260200190815260200160002060009054906101000a900460ff161561047a576040517f08c379a000000000000000000000000000000000000000000000000000000000815260040161047190610ecc565b60405180910390fd5b600360009054906101000a900473ffffffffffffffffffffffffffffffffffffffff1673ffffffffffffffffffffffffffffffffffffffff168173ffffffffffffffffffffffffffffffffffffffff16146105b55780600360006101000a81548173ffffffffffffffffffffffffffffffffffffffff021916908373ffffffffffffffffffffffffffffffffffffffff16021790555060016004819055506001600260003373ffffffffffffffffffffffffffffffffffffffff1673ffffffffffffffffffffffffffffffffffffffff16815260200190815260200160002060010160008373ffffffffffffffffffffffffffffffffffffffff1673ffffffffffffffffffffffffffffffffffffffff16815260200190815260200160002060006101000a81548160ff021916908315150217905550610666565b600460008154809291906105c890610f1b565b91905055506001600260003373ffffffffffffffffffffffffffffffffffffffff1673ffffffffffffffffffffffffffffffffffffffff16815260200190815260200160002060010160008373ffffffffffffffffffffffffffffffffffffffff1673ffffffffffffffffffffffffffffffffffffffff16815260200190815260200160002060006101000a81548160ff0219169083151502179055505b60036004541061072557600360009054906101000a900473ffffffffffffffffffffffffffffffffffffffff166000806101000a81548173ffffffffffffffffffffffffffffffffffffffff021916908373ffffffffffffffffffffffffffffffffffffffff1602179055506000600360006101000a81548173ffffffffffffffffffffffffffffffffffffffff021916908373ffffffffffffffffffffffffffffffffffffffff1602179055506000600481905550610724610b97565b5b50565b4781111561076b576040517f08c379a000000000000000000000000000000000000000000000000000000000815260040161076290610fd5565b60405180910390fd5b60008054906101000a900473ffffffffffffffffffffffffffffffffffffffff1673ffffffffffffffffffffffffffffffffffffffff163373ffffffffffffffffffffffffffffffffffffffff16146109ca576000600160003373ffffffffffffffffffffffffffffffffffffffff1673ffffffffffffffffffffffffffffffffffffffff1681526020019081526020016000205403610840576040517f08c379a000000000000000000000000000000000000000000000000000000000815260040161083790611067565b60405180910390fd5b80600160003373ffffffffffffffffffffffffffffffffffffffff1673ffffffffffffffffffffffffffffffffffffffff1681526020019081526020016000205410156108c2576040517f08c379a00000000000000000000000000000000000000000000000000000000081526004016108b9906110f9565b60405180910390fd5b60008273ffffffffffffffffffffffffffffffffffffffff16826040516108e89061114a565b60006040518083038185875af1925050503d8060008114610925576040519150601f19603f3d011682016040523d82523d6000602084013e61092a565b606091505b505090508061096e576040517f08c379a0000000000000000000000000000000000000000000000000000000008152600401610965906111ab565b60405180910390fd5b81600160003373ffffffffffffffffffffffffffffffffffffffff1673ffffffffffffffffffffffffffffffffffffffff16815260200190815260200160002060008282546109bd91906111cb565b9250508190555050610a78565b60008273ffffffffffffffffffffffffffffffffffffffff16826040516109f09061114a565b60006040518083038185875af1925050503d8060008114610a2d576040519150601f19603f3d011682016040523d82523d6000602084013e610a32565b606091505b5050905080610a76576040517f08c379a0000000000000000000000000000000000000000000000000000000008152600401610a6d906111ab565b60405180910390fd5b505b5050565b60045481565b60008054906101000a900473ffffffffffffffffffffffffffffffffffffffff1673ffffffffffffffffffffffffffffffffffffffff163373ffffffffffffffffffffffffffffffffffffffff1614610b10576040517f08c379a0000000000000000000000000000000000000000000000000000000008152600401610b0790610dce565b60405180910390fd5b6001600260008373ffffffffffffffffffffffffffffffffffffffff1673ffffffffffffffffffffffffffffffffffffffff16815260200190815260200160002060000160006101000a81548160ff02191690831515021790555050565b60008060009054906101000a900473ffffffffffffffffffffffffffffffffffffffff16905090565b565b600073ffffffffffffffffffffffffffffffffffffffff82169050919050565b6000610bc482610b99565b9050919050565b610bd481610bb9565b82525050565b6000602082019050610bef6000830184610bcb565b92915050565b600080fd5b610c0381610bb9565b8114610c0e57600080fd5b50565b600081359050610c2081610bfa565b92915050565b6000819050919050565b610c3981610c26565b8114610c4457600080fd5b50565b600081359050610c5681610c30565b92915050565b60008060408385031215610c7357610c72610bf5565b5b6000610c8185828601610c11565b9250506020610c9285828601610c47565b9150509250929050565b610ca581610c26565b82525050565b6000602082019050610cc06000830184610c9c565b92915050565b600060208284031215610cdc57610cdb610bf5565b5b6000610cea84828501610c11565b91505092915050565b6000610cfe82610b99565b9050919050565b610d0e81610cf3565b8114610d1957600080fd5b50565b600081359050610d2b81610d05565b92915050565b60008060408385031215610d4857610d47610bf5565b5b6000610d5685828601610d1c565b9250506020610d6785828601610c47565b9150509250929050565b600082825260208201905092915050565b7f596f7520617265206e6f7420746865206f776e65722c2061626f7274696e6700600082015250565b6000610db8601f83610d71565b9150610dc382610d82565b602082019050919050565b60006020820190508181036000830152610de781610dab565b9050919050565b7f596f7520617265206e6f74206120677561726469616e2c2061626f7274696e67600082015250565b6000610e24602083610d71565b9150610e2f82610dee565b602082019050919050565b60006020820190508181036000830152610e5381610e17565b9050919050565b7f596f75206861766520616c726561647920766f746520666f722074686973206360008201527f616e646964617465000000000000000000000000000000000000000000000000602082015250565b6000610eb6602883610d71565b9150610ec182610e5a565b604082019050919050565b60006020820190508181036000830152610ee581610ea9565b9050919050565b7f4e487b7100000000000000000000000000000000000000000000000000000000600052601160045260246000fd5b6000610f2682610c26565b91507fffffffffffffffffffffffffffffffffffffffffffffffffffffffffffffffff8203610f5857610f57610eec565b5b600182019050919050565b7f54686520636f6e747261637420646f65736e277420686176652073756666696360008201527f69656e742062616c616e63650000000000000000000000000000000000000000602082015250565b6000610fbf602c83610d71565b9150610fca82610f63565b604082019050919050565b60006020820190508181036000830152610fee81610fb2565b9050919050565b7f596f7520646f6e2774206861766520616e7920616c6c6f77616e63652c20616260008201527f6f7274696e670000000000000000000000000000000000000000000000000000602082015250565b6000611051602683610d71565b915061105c82610ff5565b604082019050919050565b6000602082019050818103600083015261108081611044565b9050919050565b7f596f7572207265717565737420616d6f756e74206578636565647320796f757260008201527f2072656d61696e696e6720616c6c6f77616e6365000000000000000000000000602082015250565b60006110e3603483610d71565b91506110ee82611087565b604082019050919050565b60006020820190508181036000830152611112816110d6565b9050919050565b600081905092915050565b50565b6000611134600083611119565b915061113f82611124565b600082019050919050565b600061115582611127565b9150819050919050565b7f43616c6c204661696c65642c2061626f7274696e670000000000000000000000600082015250565b6000611195601583610d71565b91506111a08261115f565b602082019050919050565b600060208201905081810360008301526111c481611188565b9050919050565b60006111d682610c26565b91506111e183610c26565b92508282039050818111156111f9576111f8610eec565b5b9291505056fea26469706673582212202a9611f95dc6751e2c8606c42e6f6b0232ec9d98d73305876d8de326523ad81064736f6c63430008100033",
					"opcodes": "PUSH1 0x80 PUSH1 0x40 MSTORE CALLVALUE DUP1 ISZERO PUSH2 0x10 JUMPI PUSH1 0x0 DUP1 REVERT JUMPDEST POP CALLER PUSH1 0x0 DUP1 PUSH2 0x100 EXP DUP2 SLOAD DUP2 PUSH20 0xFFFFFFFFFFFFFFFFFFFFFFFFFFFFFFFFFFFFFFFF MUL NOT AND SWAP1 DUP4 PUSH20 0xFFFFFFFFFFFFFFFFFFFFFFFFFFFFFFFFFFFFFFFF AND MUL OR SWAP1 SSTORE POP PUSH2 0x1235 DUP1 PUSH2 0x60 PUSH1 0x0 CODECOPY PUSH1 0x0 RETURN INVALID PUSH1 0x80 PUSH1 0x40 MSTORE PUSH1 0x4 CALLDATASIZE LT PUSH2 0x7F JUMPI PUSH1 0x0 CALLDATALOAD PUSH1 0xE0 SHR DUP1 PUSH4 0x990DC9DB GT PUSH2 0x4E JUMPI DUP1 PUSH4 0x990DC9DB EQ PUSH2 0x133 JUMPI DUP1 PUSH4 0x994BA4D2 EQ PUSH2 0x15C JUMPI DUP1 PUSH4 0xA526D83B EQ PUSH2 0x187 JUMPI DUP1 PUSH4 0xBC677B46 EQ PUSH2 0x1B0 JUMPI PUSH2 0x86 JUMP JUMPDEST DUP1 PUSH4 0x1A272CCF EQ PUSH2 0x8B JUMPI DUP1 PUSH4 0x310EC4A7 EQ PUSH2 0xB6 JUMPI DUP1 PUSH4 0x65A3ACF0 EQ PUSH2 0xDF JUMPI DUP1 PUSH4 0x7E21565B EQ PUSH2 0x10A JUMPI PUSH2 0x86 JUMP JUMPDEST CALLDATASIZE PUSH2 0x86 JUMPI STOP JUMPDEST PUSH1 0x0 DUP1 REVERT JUMPDEST CALLVALUE DUP1 ISZERO PUSH2 0x97 JUMPI PUSH1 0x0 DUP1 REVERT JUMPDEST POP PUSH2 0xA0 PUSH2 0x1DB JUMP JUMPDEST PUSH1 0x40 MLOAD PUSH2 0xAD SWAP2 SWAP1 PUSH2 0xBDA JUMP JUMPDEST PUSH1 0x40 MLOAD DUP1 SWAP2 SUB SWAP1 RETURN JUMPDEST CALLVALUE DUP1 ISZERO PUSH2 0xC2 JUMPI PUSH1 0x0 DUP1 REVERT JUMPDEST POP PUSH2 0xDD PUSH1 0x4 DUP1 CALLDATASIZE SUB DUP2 ADD SWAP1 PUSH2 0xD8 SWAP2 SWAP1 PUSH2 0xC5C JUMP JUMPDEST PUSH2 0x201 JUMP JUMPDEST STOP JUMPDEST CALLVALUE DUP1 ISZERO PUSH2 0xEB JUMPI PUSH1 0x0 DUP1 REVERT JUMPDEST POP PUSH2 0xF4 PUSH2 0x2D7 JUMP JUMPDEST PUSH1 0x40 MLOAD PUSH2 0x101 SWAP2 SWAP1 PUSH2 0xCAB JUMP JUMPDEST PUSH1 0x40 MLOAD DUP1 SWAP2 SUB SWAP1 RETURN JUMPDEST CALLVALUE DUP1 ISZERO PUSH2 0x116 JUMPI PUSH1 0x0 DUP1 REVERT JUMPDEST POP PUSH2 0x131 PUSH1 0x4 DUP1 CALLDATASIZE SUB DUP2 ADD SWAP1 PUSH2 0x12C SWAP2 SWAP1 PUSH2 0xCC6 JUMP JUMPDEST PUSH2 0x31E JUMP JUMPDEST STOP JUMPDEST CALLVALUE DUP1 ISZERO PUSH2 0x13F JUMPI PUSH1 0x0 DUP1 REVERT JUMPDEST POP PUSH2 0x15A PUSH1 0x4 DUP1 CALLDATASIZE SUB DUP2 ADD SWAP1 PUSH2 0x155 SWAP2 SWAP1 PUSH2 0xD31 JUMP JUMPDEST PUSH2 0x728 JUMP JUMPDEST STOP JUMPDEST CALLVALUE DUP1 ISZERO PUSH2 0x168 JUMPI PUSH1 0x0 DUP1 REVERT JUMPDEST POP PUSH2 0x171 PUSH2 0xA7C JUMP JUMPDEST PUSH1 0x40 MLOAD PUSH2 0x17E SWAP2 SWAP1 PUSH2 0xCAB JUMP JUMPDEST PUSH1 0x40 MLOAD DUP1 SWAP2 SUB SWAP1 RETURN JUMPDEST CALLVALUE DUP1 ISZERO PUSH2 0x193 JUMPI PUSH1 0x0 DUP1 REVERT JUMPDEST POP PUSH2 0x1AE PUSH1 0x4 DUP1 CALLDATASIZE SUB DUP2 ADD SWAP1 PUSH2 0x1A9 SWAP2 SWAP1 PUSH2 0xCC6 JUMP JUMPDEST PUSH2 0xA82 JUMP JUMPDEST STOP JUMPDEST CALLVALUE DUP1 ISZERO PUSH2 0x1BC JUMPI PUSH1 0x0 DUP1 REVERT JUMPDEST POP PUSH2 0x1C5 PUSH2 0xB6E JUMP JUMPDEST PUSH1 0x40 MLOAD PUSH2 0x1D2 SWAP2 SWAP1 PUSH2 0xBDA JUMP JUMPDEST PUSH1 0x40 MLOAD DUP1 SWAP2 SUB SWAP1 RETURN JUMPDEST PUSH1 0x3 PUSH1 0x0 SWAP1 SLOAD SWAP1 PUSH2 0x100 EXP SWAP1 DIV PUSH20 0xFFFFFFFFFFFFFFFFFFFFFFFFFFFFFFFFFFFFFFFF AND DUP2 JUMP JUMPDEST PUSH1 0x0 DUP1 SLOAD SWAP1 PUSH2 0x100 EXP SWAP1 DIV PUSH20 0xFFFFFFFFFFFFFFFFFFFFFFFFFFFFFFFFFFFFFFFF AND PUSH20 0xFFFFFFFFFFFFFFFFFFFFFFFFFFFFFFFFFFFFFFFF AND CALLER PUSH20 0xFFFFFFFFFFFFFFFFFFFFFFFFFFFFFFFFFFFFFFFF AND EQ PUSH2 0x28F JUMPI PUSH1 0x40 MLOAD PUSH32 0x8C379A000000000000000000000000000000000000000000000000000000000 DUP2 MSTORE PUSH1 0x4 ADD PUSH2 0x286 SWAP1 PUSH2 0xDCE JUMP JUMPDEST PUSH1 0x40 MLOAD DUP1 SWAP2 SUB SWAP1 REVERT JUMPDEST DUP1 PUSH1 0x1 PUSH1 0x0 DUP5 PUSH20 0xFFFFFFFFFFFFFFFFFFFFFFFFFFFFFFFFFFFFFFFF AND PUSH20 0xFFFFFFFFFFFFFFFFFFFFFFFFFFFFFFFFFFFFFFFF AND DUP2 MSTORE PUSH1 0x20 ADD SWAP1 DUP2 MSTORE PUSH1 0x20 ADD PUSH1 0x0 KECCAK256 DUP2 SWAP1 SSTORE POP POP POP JUMP JUMPDEST PUSH1 0x0 PUSH1 0x1 PUSH1 0x0 CALLER PUSH20 0xFFFFFFFFFFFFFFFFFFFFFFFFFFFFFFFFFFFFFFFF AND PUSH20 0xFFFFFFFFFFFFFFFFFFFFFFFFFFFFFFFFFFFFFFFF AND DUP2 MSTORE PUSH1 0x20 ADD SWAP1 DUP2 MSTORE PUSH1 0x20 ADD PUSH1 0x0 KECCAK256 SLOAD SWAP1 POP SWAP1 JUMP JUMPDEST PUSH1 0x2 PUSH1 0x0 CALLER PUSH20 0xFFFFFFFFFFFFFFFFFFFFFFFFFFFFFFFFFFFFFFFF AND PUSH20 0xFFFFFFFFFFFFFFFFFFFFFFFFFFFFFFFFFFFFFFFF AND DUP2 MSTORE PUSH1 0x20 ADD SWAP1 DUP2 MSTORE PUSH1 0x20 ADD PUSH1 0x0 KECCAK256 PUSH1 0x0 ADD PUSH1 0x0 SWAP1 SLOAD SWAP1 PUSH2 0x100 EXP SWAP1 DIV PUSH1 0xFF AND PUSH2 0x3AD JUMPI PUSH1 0x40 MLOAD PUSH32 0x8C379A000000000000000000000000000000000000000000000000000000000 DUP2 MSTORE PUSH1 0x4 ADD PUSH2 0x3A4 SWAP1 PUSH2 0xE3A JUMP JUMPDEST PUSH1 0x40 MLOAD DUP1 SWAP2 SUB SWAP1 REVERT JUMPDEST PUSH1 0x2 PUSH1 0x0 CALLER PUSH20 0xFFFFFFFFFFFFFFFFFFFFFFFFFFFFFFFFFFFFFFFF AND PUSH20 0xFFFFFFFFFFFFFFFFFFFFFFFFFFFFFFFFFFFFFFFF AND DUP2 MSTORE PUSH1 0x20 ADD SWAP1 DUP2 MSTORE PUSH1 0x20 ADD PUSH1 0x0 KECCAK256 PUSH1 0x1 ADD PUSH1 0x0 DUP3 PUSH20 0xFFFFFFFFFFFFFFFFFFFFFFFFFFFFFFFFFFFFFFFF AND PUSH20 0xFFFFFFFFFFFFFFFFFFFFFFFFFFFFFFFFFFFFFFFF AND DUP2 MSTORE PUSH1 0x20 ADD SWAP1 DUP2 MSTORE PUSH1 0x20 ADD PUSH1 0x0 KECCAK256 PUSH1 0x0 SWAP1 SLOAD SWAP1 PUSH2 0x100 EXP SWAP1 DIV PUSH1 0xFF AND ISZERO PUSH2 0x47A JUMPI PUSH1 0x40 MLOAD PUSH32 0x8C379A000000000000000000000000000000000000000000000000000000000 DUP2 MSTORE PUSH1 0x4 ADD PUSH2 0x471 SWAP1 PUSH2 0xECC JUMP JUMPDEST PUSH1 0x40 MLOAD DUP1 SWAP2 SUB SWAP1 REVERT JUMPDEST PUSH1 0x3 PUSH1 0x0 SWAP1 SLOAD SWAP1 PUSH2 0x100 EXP SWAP1 DIV PUSH20 0xFFFFFFFFFFFFFFFFFFFFFFFFFFFFFFFFFFFFFFFF AND PUSH20 0xFFFFFFFFFFFFFFFFFFFFFFFFFFFFFFFFFFFFFFFF AND DUP2 PUSH20 0xFFFFFFFFFFFFFFFFFFFFFFFFFFFFFFFFFFFFFFFF AND EQ PUSH2 0x5B5 JUMPI DUP1 PUSH1 0x3 PUSH1 0x0 PUSH2 0x100 EXP DUP2 SLOAD DUP2 PUSH20 0xFFFFFFFFFFFFFFFFFFFFFFFFFFFFFFFFFFFFFFFF MUL NOT AND SWAP1 DUP4 PUSH20 0xFFFFFFFFFFFFFFFFFFFFFFFFFFFFFFFFFFFFFFFF AND MUL OR SWAP1 SSTORE POP PUSH1 0x1 PUSH1 0x4 DUP2 SWAP1 SSTORE POP PUSH1 0x1 PUSH1 0x2 PUSH1 0x0 CALLER PUSH20 0xFFFFFFFFFFFFFFFFFFFFFFFFFFFFFFFFFFFFFFFF AND PUSH20 0xFFFFFFFFFFFFFFFFFFFFFFFFFFFFFFFFFFFFFFFF AND DUP2 MSTORE PUSH1 0x20 ADD SWAP1 DUP2 MSTORE PUSH1 0x20 ADD PUSH1 0x0 KECCAK256 PUSH1 0x1 ADD PUSH1 0x0 DUP4 PUSH20 0xFFFFFFFFFFFFFFFFFFFFFFFFFFFFFFFFFFFFFFFF AND PUSH20 0xFFFFFFFFFFFFFFFFFFFFFFFFFFFFFFFFFFFFFFFF AND DUP2 MSTORE PUSH1 0x20 ADD SWAP1 DUP2 MSTORE PUSH1 0x20 ADD PUSH1 0x0 KECCAK256 PUSH1 0x0 PUSH2 0x100 EXP DUP2 SLOAD DUP2 PUSH1 0xFF MUL NOT AND SWAP1 DUP4 ISZERO ISZERO MUL OR SWAP1 SSTORE POP PUSH2 0x666 JUMP JUMPDEST PUSH1 0x4 PUSH1 0x0 DUP2 SLOAD DUP1 SWAP3 SWAP2 SWAP1 PUSH2 0x5C8 SWAP1 PUSH2 0xF1B JUMP JUMPDEST SWAP2 SWAP1 POP SSTORE POP PUSH1 0x1 PUSH1 0x2 PUSH1 0x0 CALLER PUSH20 0xFFFFFFFFFFFFFFFFFFFFFFFFFFFFFFFFFFFFFFFF AND PUSH20 0xFFFFFFFFFFFFFFFFFFFFFFFFFFFFFFFFFFFFFFFF AND DUP2 MSTORE PUSH1 0x20 ADD SWAP1 DUP2 MSTORE PUSH1 0x20 ADD PUSH1 0x0 KECCAK256 PUSH1 0x1 ADD PUSH1 0x0 DUP4 PUSH20 0xFFFFFFFFFFFFFFFFFFFFFFFFFFFFFFFFFFFFFFFF AND PUSH20 0xFFFFFFFFFFFFFFFFFFFFFFFFFFFFFFFFFFFFFFFF AND DUP2 MSTORE PUSH1 0x20 ADD SWAP1 DUP2 MSTORE PUSH1 0x20 ADD PUSH1 0x0 KECCAK256 PUSH1 0x0 PUSH2 0x100 EXP DUP2 SLOAD DUP2 PUSH1 0xFF MUL NOT AND SWAP1 DUP4 ISZERO ISZERO MUL OR SWAP1 SSTORE POP JUMPDEST PUSH1 0x3 PUSH1 0x4 SLOAD LT PUSH2 0x725 JUMPI PUSH1 0x3 PUSH1 0x0 SWAP1 SLOAD SWAP1 PUSH2 0x100 EXP SWAP1 DIV PUSH20 0xFFFFFFFFFFFFFFFFFFFFFFFFFFFFFFFFFFFFFFFF AND PUSH1 0x0 DUP1 PUSH2 0x100 EXP DUP2 SLOAD DUP2 PUSH20 0xFFFFFFFFFFFFFFFFFFFFFFFFFFFFFFFFFFFFFFFF MUL NOT AND SWAP1 DUP4 PUSH20 0xFFFFFFFFFFFFFFFFFFFFFFFFFFFFFFFFFFFFFFFF AND MUL OR SWAP1 SSTORE POP PUSH1 0x0 PUSH1 0x3 PUSH1 0x0 PUSH2 0x100 EXP DUP2 SLOAD DUP2 PUSH20 0xFFFFFFFFFFFFFFFFFFFFFFFFFFFFFFFFFFFFFFFF MUL NOT AND SWAP1 DUP4 PUSH20 0xFFFFFFFFFFFFFFFFFFFFFFFFFFFFFFFFFFFFFFFF AND MUL OR SWAP1 SSTORE POP PUSH1 0x0 PUSH1 0x4 DUP2 SWAP1 SSTORE POP PUSH2 0x724 PUSH2 0xB97 JUMP JUMPDEST JUMPDEST POP JUMP JUMPDEST SELFBALANCE DUP2 GT ISZERO PUSH2 0x76B JUMPI PUSH1 0x40 MLOAD PUSH32 0x8C379A000000000000000000000000000000000000000000000000000000000 DUP2 MSTORE PUSH1 0x4 ADD PUSH2 0x762 SWAP1 PUSH2 0xFD5 JUMP JUMPDEST PUSH1 0x40 MLOAD DUP1 SWAP2 SUB SWAP1 REVERT JUMPDEST PUSH1 0x0 DUP1 SLOAD SWAP1 PUSH2 0x100 EXP SWAP1 DIV PUSH20 0xFFFFFFFFFFFFFFFFFFFFFFFFFFFFFFFFFFFFFFFF AND PUSH20 0xFFFFFFFFFFFFFFFFFFFFFFFFFFFFFFFFFFFFFFFF AND CALLER PUSH20 0xFFFFFFFFFFFFFFFFFFFFFFFFFFFFFFFFFFFFFFFF AND EQ PUSH2 0x9CA JUMPI PUSH1 0x0 PUSH1 0x1 PUSH1 0x0 CALLER PUSH20 0xFFFFFFFFFFFFFFFFFFFFFFFFFFFFFFFFFFFFFFFF AND PUSH20 0xFFFFFFFFFFFFFFFFFFFFFFFFFFFFFFFFFFFFFFFF AND DUP2 MSTORE PUSH1 0x20 ADD SWAP1 DUP2 MSTORE PUSH1 0x20 ADD PUSH1 0x0 KECCAK256 SLOAD SUB PUSH2 0x840 JUMPI PUSH1 0x40 MLOAD PUSH32 0x8C379A000000000000000000000000000000000000000000000000000000000 DUP2 MSTORE PUSH1 0x4 ADD PUSH2 0x837 SWAP1 PUSH2 0x1067 JUMP JUMPDEST PUSH1 0x40 MLOAD DUP1 SWAP2 SUB SWAP1 REVERT JUMPDEST DUP1 PUSH1 0x1 PUSH1 0x0 CALLER PUSH20 0xFFFFFFFFFFFFFFFFFFFFFFFFFFFFFFFFFFFFFFFF AND PUSH20 0xFFFFFFFFFFFFFFFFFFFFFFFFFFFFFFFFFFFFFFFF AND DUP2 MSTORE PUSH1 0x20 ADD SWAP1 DUP2 MSTORE PUSH1 0x20 ADD PUSH1 0x0 KECCAK256 SLOAD LT ISZERO PUSH2 0x8C2 JUMPI PUSH1 0x40 MLOAD PUSH32 0x8C379A000000000000000000000000000000000000000000000000000000000 DUP2 MSTORE PUSH1 0x4 ADD PUSH2 0x8B9 SWAP1 PUSH2 0x10F9 JUMP JUMPDEST PUSH1 0x40 MLOAD DUP1 SWAP2 SUB SWAP1 REVERT JUMPDEST PUSH1 0x0 DUP3 PUSH20 0xFFFFFFFFFFFFFFFFFFFFFFFFFFFFFFFFFFFFFFFF AND DUP3 PUSH1 0x40 MLOAD PUSH2 0x8E8 SWAP1 PUSH2 0x114A JUMP JUMPDEST PUSH1 0x0 PUSH1 0x40 MLOAD DUP1 DUP4 SUB DUP2 DUP6 DUP8 GAS CALL SWAP3 POP POP POP RETURNDATASIZE DUP1 PUSH1 0x0 DUP2 EQ PUSH2 0x925 JUMPI PUSH1 0x40 MLOAD SWAP2 POP PUSH1 0x1F NOT PUSH1 0x3F RETURNDATASIZE ADD AND DUP3 ADD PUSH1 0x40 MSTORE RETURNDATASIZE DUP3 MSTORE RETURNDATASIZE PUSH1 0x0 PUSH1 0x20 DUP5 ADD RETURNDATACOPY PUSH2 0x92A JUMP JUMPDEST PUSH1 0x60 SWAP2 POP JUMPDEST POP POP SWAP1 POP DUP1 PUSH2 0x96E JUMPI PUSH1 0x40 MLOAD PUSH32 0x8C379A000000000000000000000000000000000000000000000000000000000 DUP2 MSTORE PUSH1 0x4 ADD PUSH2 0x965 SWAP1 PUSH2 0x11AB JUMP JUMPDEST PUSH1 0x40 MLOAD DUP1 SWAP2 SUB SWAP1 REVERT JUMPDEST DUP2 PUSH1 0x1 PUSH1 0x0 CALLER PUSH20 0xFFFFFFFFFFFFFFFFFFFFFFFFFFFFFFFFFFFFFFFF AND PUSH20 0xFFFFFFFFFFFFFFFFFFFFFFFFFFFFFFFFFFFFFFFF AND DUP2 MSTORE PUSH1 0x20 ADD SWAP1 DUP2 MSTORE PUSH1 0x20 ADD PUSH1 0x0 KECCAK256 PUSH1 0x0 DUP3 DUP3 SLOAD PUSH2 0x9BD SWAP2 SWAP1 PUSH2 0x11CB JUMP JUMPDEST SWAP3 POP POP DUP2 SWAP1 SSTORE POP POP PUSH2 0xA78 JUMP JUMPDEST PUSH1 0x0 DUP3 PUSH20 0xFFFFFFFFFFFFFFFFFFFFFFFFFFFFFFFFFFFFFFFF AND DUP3 PUSH1 0x40 MLOAD PUSH2 0x9F0 SWAP1 PUSH2 0x114A JUMP JUMPDEST PUSH1 0x0 PUSH1 0x40 MLOAD DUP1 DUP4 SUB DUP2 DUP6 DUP8 GAS CALL SWAP3 POP POP POP RETURNDATASIZE DUP1 PUSH1 0x0 DUP2 EQ PUSH2 0xA2D JUMPI PUSH1 0x40 MLOAD SWAP2 POP PUSH1 0x1F NOT PUSH1 0x3F RETURNDATASIZE ADD AND DUP3 ADD PUSH1 0x40 MSTORE RETURNDATASIZE DUP3 MSTORE RETURNDATASIZE PUSH1 0x0 PUSH1 0x20 DUP5 ADD RETURNDATACOPY PUSH2 0xA32 JUMP JUMPDEST PUSH1 0x60 SWAP2 POP JUMPDEST POP POP SWAP1 POP DUP1 PUSH2 0xA76 JUMPI PUSH1 0x40 MLOAD PUSH32 0x8C379A000000000000000000000000000000000000000000000000000000000 DUP2 MSTORE PUSH1 0x4 ADD PUSH2 0xA6D SWAP1 PUSH2 0x11AB JUMP JUMPDEST PUSH1 0x40 MLOAD DUP1 SWAP2 SUB SWAP1 REVERT JUMPDEST POP JUMPDEST POP POP JUMP JUMPDEST PUSH1 0x4 SLOAD DUP2 JUMP JUMPDEST PUSH1 0x0 DUP1 SLOAD SWAP1 PUSH2 0x100 EXP SWAP1 DIV PUSH20 0xFFFFFFFFFFFFFFFFFFFFFFFFFFFFFFFFFFFFFFFF AND PUSH20 0xFFFFFFFFFFFFFFFFFFFFFFFFFFFFFFFFFFFFFFFF AND CALLER PUSH20 0xFFFFFFFFFFFFFFFFFFFFFFFFFFFFFFFFFFFFFFFF AND EQ PUSH2 0xB10 JUMPI PUSH1 0x40 MLOAD PUSH32 0x8C379A000000000000000000000000000000000000000000000000000000000 DUP2 MSTORE PUSH1 0x4 ADD PUSH2 0xB07 SWAP1 PUSH2 0xDCE JUMP JUMPDEST PUSH1 0x40 MLOAD DUP1 SWAP2 SUB SWAP1 REVERT JUMPDEST PUSH1 0x1 PUSH1 0x2 PUSH1 0x0 DUP4 PUSH20 0xFFFFFFFFFFFFFFFFFFFFFFFFFFFFFFFFFFFFFFFF AND PUSH20 0xFFFFFFFFFFFFFFFFFFFFFFFFFFFFFFFFFFFFFFFF AND DUP2 MSTORE PUSH1 0x20 ADD SWAP1 DUP2 MSTORE PUSH1 0x20 ADD PUSH1 0x0 KECCAK256 PUSH1 0x0 ADD PUSH1 0x0 PUSH2 0x100 EXP DUP2 SLOAD DUP2 PUSH1 0xFF MUL NOT AND SWAP1 DUP4 ISZERO ISZERO MUL OR SWAP1 SSTORE POP POP JUMP JUMPDEST PUSH1 0x0 DUP1 PUSH1 0x0 SWAP1 SLOAD SWAP1 PUSH2 0x100 EXP SWAP1 DIV PUSH20 0xFFFFFFFFFFFFFFFFFFFFFFFFFFFFFFFFFFFFFFFF AND SWAP1 POP SWAP1 JUMP JUMPDEST JUMP JUMPDEST PUSH1 0x0 PUSH20 0xFFFFFFFFFFFFFFFFFFFFFFFFFFFFFFFFFFFFFFFF DUP3 AND SWAP1 POP SWAP2 SWAP1 POP JUMP JUMPDEST PUSH1 0x0 PUSH2 0xBC4 DUP3 PUSH2 0xB99 JUMP JUMPDEST SWAP1 POP SWAP2 SWAP1 POP JUMP JUMPDEST PUSH2 0xBD4 DUP2 PUSH2 0xBB9 JUMP JUMPDEST DUP3 MSTORE POP POP JUMP JUMPDEST PUSH1 0x0 PUSH1 0x20 DUP3 ADD SWAP1 POP PUSH2 0xBEF PUSH1 0x0 DUP4 ADD DUP5 PUSH2 0xBCB JUMP JUMPDEST SWAP3 SWAP2 POP POP JUMP JUMPDEST PUSH1 0x0 DUP1 REVERT JUMPDEST PUSH2 0xC03 DUP2 PUSH2 0xBB9 JUMP JUMPDEST DUP2 EQ PUSH2 0xC0E JUMPI PUSH1 0x0 DUP1 REVERT JUMPDEST POP JUMP JUMPDEST PUSH1 0x0 DUP2 CALLDATALOAD SWAP1 POP PUSH2 0xC20 DUP2 PUSH2 0xBFA JUMP JUMPDEST SWAP3 SWAP2 POP POP JUMP JUMPDEST PUSH1 0x0 DUP2 SWAP1 POP SWAP2 SWAP1 POP JUMP JUMPDEST PUSH2 0xC39 DUP2 PUSH2 0xC26 JUMP JUMPDEST DUP2 EQ PUSH2 0xC44 JUMPI PUSH1 0x0 DUP1 REVERT JUMPDEST POP JUMP JUMPDEST PUSH1 0x0 DUP2 CALLDATALOAD SWAP1 POP PUSH2 0xC56 DUP2 PUSH2 0xC30 JUMP JUMPDEST SWAP3 SWAP2 POP POP JUMP JUMPDEST PUSH1 0x0 DUP1 PUSH1 0x40 DUP4 DUP6 SUB SLT ISZERO PUSH2 0xC73 JUMPI PUSH2 0xC72 PUSH2 0xBF5 JUMP JUMPDEST JUMPDEST PUSH1 0x0 PUSH2 0xC81 DUP6 DUP3 DUP7 ADD PUSH2 0xC11 JUMP JUMPDEST SWAP3 POP POP PUSH1 0x20 PUSH2 0xC92 DUP6 DUP3 DUP7 ADD PUSH2 0xC47 JUMP JUMPDEST SWAP2 POP POP SWAP3 POP SWAP3 SWAP1 POP JUMP JUMPDEST PUSH2 0xCA5 DUP2 PUSH2 0xC26 JUMP JUMPDEST DUP3 MSTORE POP POP JUMP JUMPDEST PUSH1 0x0 PUSH1 0x20 DUP3 ADD SWAP1 POP PUSH2 0xCC0 PUSH1 0x0 DUP4 ADD DUP5 PUSH2 0xC9C JUMP JUMPDEST SWAP3 SWAP2 POP POP JUMP JUMPDEST PUSH1 0x0 PUSH1 0x20 DUP3 DUP5 SUB SLT ISZERO PUSH2 0xCDC JUMPI PUSH2 0xCDB PUSH2 0xBF5 JUMP JUMPDEST JUMPDEST PUSH1 0x0 PUSH2 0xCEA DUP5 DUP3 DUP6 ADD PUSH2 0xC11 JUMP JUMPDEST SWAP2 POP POP SWAP3 SWAP2 POP POP JUMP JUMPDEST PUSH1 0x0 PUSH2 0xCFE DUP3 PUSH2 0xB99 JUMP JUMPDEST SWAP1 POP SWAP2 SWAP1 POP JUMP JUMPDEST PUSH2 0xD0E DUP2 PUSH2 0xCF3 JUMP JUMPDEST DUP2 EQ PUSH2 0xD19 JUMPI PUSH1 0x0 DUP1 REVERT JUMPDEST POP JUMP JUMPDEST PUSH1 0x0 DUP2 CALLDATALOAD SWAP1 POP PUSH2 0xD2B DUP2 PUSH2 0xD05 JUMP JUMPDEST SWAP3 SWAP2 POP POP JUMP JUMPDEST PUSH1 0x0 DUP1 PUSH1 0x40 DUP4 DUP6 SUB SLT ISZERO PUSH2 0xD48 JUMPI PUSH2 0xD47 PUSH2 0xBF5 JUMP JUMPDEST JUMPDEST PUSH1 0x0 PUSH2 0xD56 DUP6 DUP3 DUP7 ADD PUSH2 0xD1C JUMP JUMPDEST SWAP3 POP POP PUSH1 0x20 PUSH2 0xD67 DUP6 DUP3 DUP7 ADD PUSH2 0xC47 JUMP JUMPDEST SWAP2 POP POP SWAP3 POP SWAP3 SWAP1 POP JUMP JUMPDEST PUSH1 0x0 DUP3 DUP3 MSTORE PUSH1 0x20 DUP3 ADD SWAP1 POP SWAP3 SWAP2 POP POP JUMP JUMPDEST PUSH32 0x596F7520617265206E6F7420746865206F776E65722C2061626F7274696E6700 PUSH1 0x0 DUP3 ADD MSTORE POP JUMP JUMPDEST PUSH1 0x0 PUSH2 0xDB8 PUSH1 0x1F DUP4 PUSH2 0xD71 JUMP JUMPDEST SWAP2 POP PUSH2 0xDC3 DUP3 PUSH2 0xD82 JUMP JUMPDEST PUSH1 0x20 DUP3 ADD SWAP1 POP SWAP2 SWAP1 POP JUMP JUMPDEST PUSH1 0x0 PUSH1 0x20 DUP3 ADD SWAP1 POP DUP2 DUP2 SUB PUSH1 0x0 DUP4 ADD MSTORE PUSH2 0xDE7 DUP2 PUSH2 0xDAB JUMP JUMPDEST SWAP1 POP SWAP2 SWAP1 POP JUMP JUMPDEST PUSH32 0x596F7520617265206E6F74206120677561726469616E2C2061626F7274696E67 PUSH1 0x0 DUP3 ADD MSTORE POP JUMP JUMPDEST PUSH1 0x0 PUSH2 0xE24 PUSH1 0x20 DUP4 PUSH2 0xD71 JUMP JUMPDEST SWAP2 POP PUSH2 0xE2F DUP3 PUSH2 0xDEE JUMP JUMPDEST PUSH1 0x20 DUP3 ADD SWAP1 POP SWAP2 SWAP1 POP JUMP JUMPDEST PUSH1 0x0 PUSH1 0x20 DUP3 ADD SWAP1 POP DUP2 DUP2 SUB PUSH1 0x0 DUP4 ADD MSTORE PUSH2 0xE53 DUP2 PUSH2 0xE17 JUMP JUMPDEST SWAP1 POP SWAP2 SWAP1 POP JUMP JUMPDEST PUSH32 0x596F75206861766520616C726561647920766F746520666F7220746869732063 PUSH1 0x0 DUP3 ADD MSTORE PUSH32 0x616E646964617465000000000000000000000000000000000000000000000000 PUSH1 0x20 DUP3 ADD MSTORE POP JUMP JUMPDEST PUSH1 0x0 PUSH2 0xEB6 PUSH1 0x28 DUP4 PUSH2 0xD71 JUMP JUMPDEST SWAP2 POP PUSH2 0xEC1 DUP3 PUSH2 0xE5A JUMP JUMPDEST PUSH1 0x40 DUP3 ADD SWAP1 POP SWAP2 SWAP1 POP JUMP JUMPDEST PUSH1 0x0 PUSH1 0x20 DUP3 ADD SWAP1 POP DUP2 DUP2 SUB PUSH1 0x0 DUP4 ADD MSTORE PUSH2 0xEE5 DUP2 PUSH2 0xEA9 JUMP JUMPDEST SWAP1 POP SWAP2 SWAP1 POP JUMP JUMPDEST PUSH32 0x4E487B7100000000000000000000000000000000000000000000000000000000 PUSH1 0x0 MSTORE PUSH1 0x11 PUSH1 0x4 MSTORE PUSH1 0x24 PUSH1 0x0 REVERT JUMPDEST PUSH1 0x0 PUSH2 0xF26 DUP3 PUSH2 0xC26 JUMP JUMPDEST SWAP2 POP PUSH32 0xFFFFFFFFFFFFFFFFFFFFFFFFFFFFFFFFFFFFFFFFFFFFFFFFFFFFFFFFFFFFFFFF DUP3 SUB PUSH2 0xF58 JUMPI PUSH2 0xF57 PUSH2 0xEEC JUMP JUMPDEST JUMPDEST PUSH1 0x1 DUP3 ADD SWAP1 POP SWAP2 SWAP1 POP JUMP JUMPDEST PUSH32 0x54686520636F6E747261637420646F65736E2774206861766520737566666963 PUSH1 0x0 DUP3 ADD MSTORE PUSH32 0x69656E742062616C616E63650000000000000000000000000000000000000000 PUSH1 0x20 DUP3 ADD MSTORE POP JUMP JUMPDEST PUSH1 0x0 PUSH2 0xFBF PUSH1 0x2C DUP4 PUSH2 0xD71 JUMP JUMPDEST SWAP2 POP PUSH2 0xFCA DUP3 PUSH2 0xF63 JUMP JUMPDEST PUSH1 0x40 DUP3 ADD SWAP1 POP SWAP2 SWAP1 POP JUMP JUMPDEST PUSH1 0x0 PUSH1 0x20 DUP3 ADD SWAP1 POP DUP2 DUP2 SUB PUSH1 0x0 DUP4 ADD MSTORE PUSH2 0xFEE DUP2 PUSH2 0xFB2 JUMP JUMPDEST SWAP1 POP SWAP2 SWAP1 POP JUMP JUMPDEST PUSH32 0x596F7520646F6E2774206861766520616E7920616C6C6F77616E63652C206162 PUSH1 0x0 DUP3 ADD MSTORE PUSH32 0x6F7274696E670000000000000000000000000000000000000000000000000000 PUSH1 0x20 DUP3 ADD MSTORE POP JUMP JUMPDEST PUSH1 0x0 PUSH2 0x1051 PUSH1 0x26 DUP4 PUSH2 0xD71 JUMP JUMPDEST SWAP2 POP PUSH2 0x105C DUP3 PUSH2 0xFF5 JUMP JUMPDEST PUSH1 0x40 DUP3 ADD SWAP1 POP SWAP2 SWAP1 POP JUMP JUMPDEST PUSH1 0x0 PUSH1 0x20 DUP3 ADD SWAP1 POP DUP2 DUP2 SUB PUSH1 0x0 DUP4 ADD MSTORE PUSH2 0x1080 DUP2 PUSH2 0x1044 JUMP JUMPDEST SWAP1 POP SWAP2 SWAP1 POP JUMP JUMPDEST PUSH32 0x596F7572207265717565737420616D6F756E74206578636565647320796F7572 PUSH1 0x0 DUP3 ADD MSTORE PUSH32 0x2072656D61696E696E6720616C6C6F77616E6365000000000000000000000000 PUSH1 0x20 DUP3 ADD MSTORE POP JUMP JUMPDEST PUSH1 0x0 PUSH2 0x10E3 PUSH1 0x34 DUP4 PUSH2 0xD71 JUMP JUMPDEST SWAP2 POP PUSH2 0x10EE DUP3 PUSH2 0x1087 JUMP JUMPDEST PUSH1 0x40 DUP3 ADD SWAP1 POP SWAP2 SWAP1 POP JUMP JUMPDEST PUSH1 0x0 PUSH1 0x20 DUP3 ADD SWAP1 POP DUP2 DUP2 SUB PUSH1 0x0 DUP4 ADD MSTORE PUSH2 0x1112 DUP2 PUSH2 0x10D6 JUMP JUMPDEST SWAP1 POP SWAP2 SWAP1 POP JUMP JUMPDEST PUSH1 0x0 DUP2 SWAP1 POP SWAP3 SWAP2 POP POP JUMP JUMPDEST POP JUMP JUMPDEST PUSH1 0x0 PUSH2 0x1134 PUSH1 0x0 DUP4 PUSH2 0x1119 JUMP JUMPDEST SWAP2 POP PUSH2 0x113F DUP3 PUSH2 0x1124 JUMP JUMPDEST PUSH1 0x0 DUP3 ADD SWAP1 POP SWAP2 SWAP1 POP JUMP JUMPDEST PUSH1 0x0 PUSH2 0x1155 DUP3 PUSH2 0x1127 JUMP JUMPDEST SWAP2 POP DUP2 SWAP1 POP SWAP2 SWAP1 POP JUMP JUMPDEST PUSH32 0x43616C6C204661696C65642C2061626F7274696E670000000000000000000000 PUSH1 0x0 DUP3 ADD MSTORE POP JUMP JUMPDEST PUSH1 0x0 PUSH2 0x1195 PUSH1 0x15 DUP4 PUSH2 0xD71 JUMP JUMPDEST SWAP2 POP PUSH2 0x11A0 DUP3 PUSH2 0x115F JUMP JUMPDEST PUSH1 0x20 DUP3 ADD SWAP1 POP SWAP2 SWAP1 POP JUMP JUMPDEST PUSH1 0x0 PUSH1 0x20 DUP3 ADD SWAP1 POP DUP2 DUP2 SUB PUSH1 0x0 DUP4 ADD MSTORE PUSH2 0x11C4 DUP2 PUSH2 0x1188 JUMP JUMPDEST SWAP1 POP SWAP2 SWAP1 POP JUMP JUMPDEST PUSH1 0x0 PUSH2 0x11D6 DUP3 PUSH2 0xC26 JUMP JUMPDEST SWAP2 POP PUSH2 0x11E1 DUP4 PUSH2 0xC26 JUMP JUMPDEST SWAP3 POP DUP3 DUP3 SUB SWAP1 POP DUP2 DUP2 GT ISZERO PUSH2 0x11F9 JUMPI PUSH2 0x11F8 PUSH2 0xEEC JUMP JUMPDEST JUMPDEST SWAP3 SWAP2 POP POP JUMP INVALID LOG2 PUSH5 0x6970667358 0x22 SLT KECCAK256 0x2A SWAP7 GT 0xF9 0x5D 0xC6 PUSH22 0x1E2C8606C42E6F6B0232EC9D98D73305876D8DE32652 GASPRICE 0xD8 LT PUSH5 0x736F6C6343 STOP ADDMOD LT STOP CALLER "
				},
				"gasEstimates": {
					"creation": {
						"codeDepositCost": "932200",
						"executionCost": "25234",
						"totalCost": "957434"
					},
					"external": {
						"addGuardian(address)": "27029",
						"currentCandidate()": "2515",
						"currentVotes()": "2451",
						"markVote(address)": "135957",
						"setAllowance(address,uint256)": "25022",
						"transferFunds(address,uint256)": "infinite",
						"viewAllowance()": "2571",
						"viewOwner()": "2588"
					},
					"internal": {
						"resetAllGuardians()": "9"
					}
				},
				"methodIdentifiers": {
					"addGuardian(address)": "a526d83b",
					"currentCandidate()": "1a272ccf",
					"currentVotes()": "994ba4d2",
					"markVote(address)": "7e21565b",
					"setAllowance(address,uint256)": "310ec4a7",
					"transferFunds(address,uint256)": "990dc9db",
					"viewAllowance()": "65a3acf0",
					"viewOwner()": "bc677b46"
				}
			},
			"storageLayout": {
				"storage": [
					{
						"astId": 10,
						"contract": "solidity-learning/3_SmartWallet/TheSmartWallet.sol:SmartWallet",
						"label": "owner",
						"offset": 0,
						"slot": "0",
						"type": "t_address_payable"
					},
					{
						"astId": 14,
						"contract": "solidity-learning/3_SmartWallet/TheSmartWallet.sol:SmartWallet",
						"label": "allowance",
						"offset": 0,
						"slot": "1",
						"type": "t_mapping(t_address,t_uint256)"
					},
					{
						"astId": 19,
						"contract": "solidity-learning/3_SmartWallet/TheSmartWallet.sol:SmartWallet",
						"label": "guardians",
						"offset": 0,
						"slot": "2",
						"type": "t_mapping(t_address,t_struct(GuardianBody)8_storage)"
					},
					{
						"astId": 21,
						"contract": "solidity-learning/3_SmartWallet/TheSmartWallet.sol:SmartWallet",
						"label": "currentCandidate",
						"offset": 0,
						"slot": "3",
						"type": "t_address"
					},
					{
						"astId": 23,
						"contract": "solidity-learning/3_SmartWallet/TheSmartWallet.sol:SmartWallet",
						"label": "currentVotes",
						"offset": 0,
						"slot": "4",
						"type": "t_uint256"
					}
				],
				"types": {
					"t_address": {
						"encoding": "inplace",
						"label": "address",
						"numberOfBytes": "20"
					},
					"t_address_payable": {
						"encoding": "inplace",
						"label": "address payable",
						"numberOfBytes": "20"
					},
					"t_bool": {
						"encoding": "inplace",
						"label": "bool",
						"numberOfBytes": "1"
					},
					"t_mapping(t_address,t_bool)": {
						"encoding": "mapping",
						"key": "t_address",
						"label": "mapping(address => bool)",
						"numberOfBytes": "32",
						"value": "t_bool"
					},
					"t_mapping(t_address,t_struct(GuardianBody)8_storage)": {
						"encoding": "mapping",
						"key": "t_address",
						"label": "mapping(address => struct SmartWallet.GuardianBody)",
						"numberOfBytes": "32",
						"value": "t_struct(GuardianBody)8_storage"
					},
					"t_mapping(t_address,t_uint256)": {
						"encoding": "mapping",
						"key": "t_address",
						"label": "mapping(address => uint256)",
						"numberOfBytes": "32",
						"value": "t_uint256"
					},
					"t_struct(GuardianBody)8_storage": {
						"encoding": "inplace",
						"label": "struct SmartWallet.GuardianBody",
						"members": [
							{
								"astId": 3,
								"contract": "solidity-learning/3_SmartWallet/TheSmartWallet.sol:SmartWallet",
								"label": "isGuardian",
								"offset": 0,
								"slot": "0",
								"type": "t_bool"
							},
							{
								"astId": 7,
								"contract": "solidity-learning/3_SmartWallet/TheSmartWallet.sol:SmartWallet",
								"label": "hasVoteForThisCandidate",
								"offset": 0,
								"slot": "1",
								"type": "t_mapping(t_address,t_bool)"
							}
						],
						"numberOfBytes": "64"
					},
					"t_uint256": {
						"encoding": "inplace",
						"label": "uint256",
						"numberOfBytes": "32"
					}
				}
			},
			"userdoc": {
				"kind": "user",
				"methods": {},
				"version": 1
			}
		}
	}
}