{
	"solidity-learning/3_SmartWallet/ExampleArrays.sol": {
		"ExampleArrays": {
			"abi": [
				{
					"inputs": [
						{
							"internalType": "uint256",
							"name": "_value",
							"type": "uint256"
						}
					],
					"name": "addToArray",
					"outputs": [],
					"stateMutability": "nonpayable",
					"type": "function"
				},
				{
					"inputs": [
						{
							"internalType": "uint256",
							"name": "_index",
							"type": "uint256"
						},
						{
							"internalType": "uint256",
							"name": "_value",
							"type": "uint256"
						}
					],
					"name": "editArray",
					"outputs": [],
					"stateMutability": "nonpayable",
					"type": "function"
				},
				{
					"inputs": [],
					"name": "getAllValues",
					"outputs": [
						{
							"internalType": "uint256[]",
							"name": "",
							"type": "uint256[]"
						}
					],
					"stateMutability": "view",
					"type": "function"
				},
				{
					"inputs": [
						{
							"internalType": "uint256",
							"name": "",
							"type": "uint256"
						}
					],
					"name": "myArray",
					"outputs": [
						{
							"internalType": "uint256",
							"name": "",
							"type": "uint256"
						}
					],
					"stateMutability": "view",
					"type": "function"
				}
			],
			"devdoc": {
				"kind": "dev",
				"methods": {},
				"version": 1
			},
			"evm": {
				"assembly": "    /* \"solidity-learning/3_SmartWallet/ExampleArrays.sol\":58:828  contract ExampleArrays {... */\n  mstore(0x40, 0x80)\n  callvalue\n  dup1\n  iszero\n  tag_1\n  jumpi\n  0x00\n  dup1\n  revert\ntag_1:\n  pop\n  dataSize(sub_0)\n  dup1\n  dataOffset(sub_0)\n  0x00\n  codecopy\n  0x00\n  return\nstop\n\nsub_0: assembly {\n        /* \"solidity-learning/3_SmartWallet/ExampleArrays.sol\":58:828  contract ExampleArrays {... */\n      mstore(0x40, 0x80)\n      callvalue\n      dup1\n      iszero\n      tag_1\n      jumpi\n      0x00\n      dup1\n      revert\n    tag_1:\n      pop\n      jumpi(tag_2, lt(calldatasize, 0x04))\n      shr(0xe0, calldataload(0x00))\n      dup1\n      0x981f5499\n      eq\n      tag_3\n      jumpi\n      dup1\n      0xb7e689f6\n      eq\n      tag_4\n      jumpi\n      dup1\n      0xcc3e57d9\n      eq\n      tag_5\n      jumpi\n      dup1\n      0xd15ec851\n      eq\n      tag_6\n      jumpi\n    tag_2:\n      0x00\n      dup1\n      revert\n        /* \"solidity-learning/3_SmartWallet/ExampleArrays.sol\":735:826  function getAllValues() public view returns (uint[] memory) {... */\n    tag_3:\n      tag_7\n      tag_8\n      jump\t// in\n    tag_7:\n      mload(0x40)\n      tag_9\n      swap2\n      swap1\n      tag_10\n      jump\t// in\n    tag_9:\n      mload(0x40)\n      dup1\n      swap2\n      sub\n      swap1\n      return\n        /* \"solidity-learning/3_SmartWallet/ExampleArrays.sol\":561:693  function editArray(uint _index, uint _value) public {... */\n    tag_4:\n      tag_11\n      0x04\n      dup1\n      calldatasize\n      sub\n      dup2\n      add\n      swap1\n      tag_12\n      swap2\n      swap1\n      tag_13\n      jump\t// in\n    tag_12:\n      tag_14\n      jump\t// in\n    tag_11:\n      stop\n        /* \"solidity-learning/3_SmartWallet/ExampleArrays.sol\":135:156  uint[] public myArray */\n    tag_5:\n      tag_15\n      0x04\n      dup1\n      calldatasize\n      sub\n      dup2\n      add\n      swap1\n      tag_16\n      swap2\n      swap1\n      tag_17\n      jump\t// in\n    tag_16:\n      tag_18\n      jump\t// in\n    tag_15:\n      mload(0x40)\n      tag_19\n      swap2\n      swap1\n      tag_20\n      jump\t// in\n    tag_19:\n      mload(0x40)\n      dup1\n      swap2\n      sub\n      swap1\n      return\n        /* \"solidity-learning/3_SmartWallet/ExampleArrays.sol\":211:288  function addToArray(uint _value) public {... */\n    tag_6:\n      tag_21\n      0x04\n      dup1\n      calldatasize\n      sub\n      dup2\n      add\n      swap1\n      tag_22\n      swap2\n      swap1\n      tag_17\n      jump\t// in\n    tag_22:\n      tag_23\n      jump\t// in\n    tag_21:\n      stop\n        /* \"solidity-learning/3_SmartWallet/ExampleArrays.sol\":735:826  function getAllValues() public view returns (uint[] memory) {... */\n    tag_8:\n        /* \"solidity-learning/3_SmartWallet/ExampleArrays.sol\":780:793  uint[] memory */\n      0x60\n        /* \"solidity-learning/3_SmartWallet/ExampleArrays.sol\":812:819  myArray */\n      0x00\n        /* \"solidity-learning/3_SmartWallet/ExampleArrays.sol\":805:819  return myArray */\n      dup1\n      sload\n      dup1\n      0x20\n      mul\n      0x20\n      add\n      mload(0x40)\n      swap1\n      dup2\n      add\n      0x40\n      mstore\n      dup1\n      swap3\n      swap2\n      swap1\n      dup2\n      dup2\n      mstore\n      0x20\n      add\n      dup3\n      dup1\n      sload\n      dup1\n      iszero\n      tag_25\n      jumpi\n      0x20\n      mul\n      dup3\n      add\n      swap2\n      swap1\n      0x00\n      mstore\n      keccak256(0x00, 0x20)\n      swap1\n    tag_26:\n      dup2\n      sload\n      dup2\n      mstore\n      0x20\n      add\n      swap1\n      0x01\n      add\n      swap1\n      dup1\n      dup4\n      gt\n      tag_26\n      jumpi\n    tag_25:\n      pop\n      pop\n      pop\n      pop\n      pop\n      swap1\n      pop\n        /* \"solidity-learning/3_SmartWallet/ExampleArrays.sol\":735:826  function getAllValues() public view returns (uint[] memory) {... */\n      swap1\n      jump\t// out\n        /* \"solidity-learning/3_SmartWallet/ExampleArrays.sol\":561:693  function editArray(uint _index, uint _value) public {... */\n    tag_14:\n        /* \"solidity-learning/3_SmartWallet/ExampleArrays.sol\":641:647  _value */\n      dup1\n        /* \"solidity-learning/3_SmartWallet/ExampleArrays.sol\":623:630  myArray */\n      0x00\n        /* \"solidity-learning/3_SmartWallet/ExampleArrays.sol\":631:637  _index */\n      dup4\n        /* \"solidity-learning/3_SmartWallet/ExampleArrays.sol\":623:638  myArray[_index] */\n      dup2\n      sload\n      dup2\n      lt\n      tag_28\n      jumpi\n      tag_29\n      tag_30\n      jump\t// in\n    tag_29:\n    tag_28:\n      swap1\n      0x00\n      mstore\n      keccak256(0x00, 0x20)\n      add\n        /* \"solidity-learning/3_SmartWallet/ExampleArrays.sol\":623:647  myArray[_index] = _value */\n      dup2\n      swap1\n      sstore\n      pop\n        /* \"solidity-learning/3_SmartWallet/ExampleArrays.sol\":561:693  function editArray(uint _index, uint _value) public {... */\n      pop\n      pop\n      jump\t// out\n        /* \"solidity-learning/3_SmartWallet/ExampleArrays.sol\":135:156  uint[] public myArray */\n    tag_18:\n      0x00\n      dup2\n      dup2\n      sload\n      dup2\n      lt\n      tag_32\n      jumpi\n      0x00\n      dup1\n      revert\n    tag_32:\n      swap1\n      0x00\n      mstore\n      keccak256(0x00, 0x20)\n      add\n      0x00\n      swap2\n      pop\n      swap1\n      pop\n      sload\n      dup2\n      jump\t// out\n        /* \"solidity-learning/3_SmartWallet/ExampleArrays.sol\":211:288  function addToArray(uint _value) public {... */\n    tag_23:\n        /* \"solidity-learning/3_SmartWallet/ExampleArrays.sol\":261:268  myArray */\n      0x00\n        /* \"solidity-learning/3_SmartWallet/ExampleArrays.sol\":274:280  _value */\n      dup2\n        /* \"solidity-learning/3_SmartWallet/ExampleArrays.sol\":261:281  myArray.push(_value) */\n      swap1\n      dup1\n      0x01\n      dup2\n      sload\n      add\n      dup1\n      dup3\n      sstore\n      dup1\n      swap2\n      pop\n      pop\n      0x01\n      swap1\n      sub\n      swap1\n      0x00\n      mstore\n      keccak256(0x00, 0x20)\n      add\n      0x00\n      swap1\n      swap2\n      swap1\n      swap2\n      swap1\n      swap2\n      pop\n      sstore\n        /* \"solidity-learning/3_SmartWallet/ExampleArrays.sol\":211:288  function addToArray(uint _value) public {... */\n      pop\n      jump\t// out\n        /* \"#utility.yul\":7:121   */\n    tag_36:\n        /* \"#utility.yul\":74:80   */\n      0x00\n        /* \"#utility.yul\":108:113   */\n      dup2\n        /* \"#utility.yul\":102:114   */\n      mload\n        /* \"#utility.yul\":92:114   */\n      swap1\n      pop\n        /* \"#utility.yul\":7:121   */\n      swap2\n      swap1\n      pop\n      jump\t// out\n        /* \"#utility.yul\":127:311   */\n    tag_37:\n        /* \"#utility.yul\":226:237   */\n      0x00\n        /* \"#utility.yul\":260:266   */\n      dup3\n        /* \"#utility.yul\":255:258   */\n      dup3\n        /* \"#utility.yul\":248:267   */\n      mstore\n        /* \"#utility.yul\":300:304   */\n      0x20\n        /* \"#utility.yul\":295:298   */\n      dup3\n        /* \"#utility.yul\":291:305   */\n      add\n        /* \"#utility.yul\":276:305   */\n      swap1\n      pop\n        /* \"#utility.yul\":127:311   */\n      swap3\n      swap2\n      pop\n      pop\n      jump\t// out\n        /* \"#utility.yul\":317:449   */\n    tag_38:\n        /* \"#utility.yul\":384:388   */\n      0x00\n        /* \"#utility.yul\":407:410   */\n      dup2\n        /* \"#utility.yul\":399:410   */\n      swap1\n      pop\n        /* \"#utility.yul\":437:441   */\n      0x20\n        /* \"#utility.yul\":432:435   */\n      dup3\n        /* \"#utility.yul\":428:442   */\n      add\n        /* \"#utility.yul\":420:442   */\n      swap1\n      pop\n        /* \"#utility.yul\":317:449   */\n      swap2\n      swap1\n      pop\n      jump\t// out\n        /* \"#utility.yul\":455:532   */\n    tag_39:\n        /* \"#utility.yul\":492:499   */\n      0x00\n        /* \"#utility.yul\":521:526   */\n      dup2\n        /* \"#utility.yul\":510:526   */\n      swap1\n      pop\n        /* \"#utility.yul\":455:532   */\n      swap2\n      swap1\n      pop\n      jump\t// out\n        /* \"#utility.yul\":538:646   */\n    tag_40:\n        /* \"#utility.yul\":615:639   */\n      tag_56\n        /* \"#utility.yul\":633:638   */\n      dup2\n        /* \"#utility.yul\":615:639   */\n      tag_39\n      jump\t// in\n    tag_56:\n        /* \"#utility.yul\":610:613   */\n      dup3\n        /* \"#utility.yul\":603:640   */\n      mstore\n        /* \"#utility.yul\":538:646   */\n      pop\n      pop\n      jump\t// out\n        /* \"#utility.yul\":652:831   */\n    tag_41:\n        /* \"#utility.yul\":721:731   */\n      0x00\n        /* \"#utility.yul\":742:788   */\n      tag_58\n        /* \"#utility.yul\":784:787   */\n      dup4\n        /* \"#utility.yul\":776:782   */\n      dup4\n        /* \"#utility.yul\":742:788   */\n      tag_40\n      jump\t// in\n    tag_58:\n        /* \"#utility.yul\":820:824   */\n      0x20\n        /* \"#utility.yul\":815:818   */\n      dup4\n        /* \"#utility.yul\":811:825   */\n      add\n        /* \"#utility.yul\":797:825   */\n      swap1\n      pop\n        /* \"#utility.yul\":652:831   */\n      swap3\n      swap2\n      pop\n      pop\n      jump\t// out\n        /* \"#utility.yul\":837:950   */\n    tag_42:\n        /* \"#utility.yul\":907:911   */\n      0x00\n        /* \"#utility.yul\":939:943   */\n      0x20\n        /* \"#utility.yul\":934:937   */\n      dup3\n        /* \"#utility.yul\":930:944   */\n      add\n        /* \"#utility.yul\":922:944   */\n      swap1\n      pop\n        /* \"#utility.yul\":837:950   */\n      swap2\n      swap1\n      pop\n      jump\t// out\n        /* \"#utility.yul\":986:1718   */\n    tag_43:\n        /* \"#utility.yul\":1105:1108   */\n      0x00\n        /* \"#utility.yul\":1134:1188   */\n      tag_61\n        /* \"#utility.yul\":1182:1187   */\n      dup3\n        /* \"#utility.yul\":1134:1188   */\n      tag_36\n      jump\t// in\n    tag_61:\n        /* \"#utility.yul\":1204:1290   */\n      tag_62\n        /* \"#utility.yul\":1283:1289   */\n      dup2\n        /* \"#utility.yul\":1278:1281   */\n      dup6\n        /* \"#utility.yul\":1204:1290   */\n      tag_37\n      jump\t// in\n    tag_62:\n        /* \"#utility.yul\":1197:1290   */\n      swap4\n      pop\n        /* \"#utility.yul\":1314:1370   */\n      tag_63\n        /* \"#utility.yul\":1364:1369   */\n      dup4\n        /* \"#utility.yul\":1314:1370   */\n      tag_38\n      jump\t// in\n    tag_63:\n        /* \"#utility.yul\":1393:1400   */\n      dup1\n        /* \"#utility.yul\":1424:1425   */\n      0x00\n        /* \"#utility.yul\":1409:1693   */\n    tag_64:\n        /* \"#utility.yul\":1434:1440   */\n      dup4\n        /* \"#utility.yul\":1431:1432   */\n      dup2\n        /* \"#utility.yul\":1428:1441   */\n      lt\n        /* \"#utility.yul\":1409:1693   */\n      iszero\n      tag_66\n      jumpi\n        /* \"#utility.yul\":1510:1516   */\n      dup2\n        /* \"#utility.yul\":1504:1517   */\n      mload\n        /* \"#utility.yul\":1537:1600   */\n      tag_67\n        /* \"#utility.yul\":1596:1599   */\n      dup9\n        /* \"#utility.yul\":1581:1594   */\n      dup3\n        /* \"#utility.yul\":1537:1600   */\n      tag_41\n      jump\t// in\n    tag_67:\n        /* \"#utility.yul\":1530:1600   */\n      swap8\n      pop\n        /* \"#utility.yul\":1623:1683   */\n      tag_68\n        /* \"#utility.yul\":1676:1682   */\n      dup4\n        /* \"#utility.yul\":1623:1683   */\n      tag_42\n      jump\t// in\n    tag_68:\n        /* \"#utility.yul\":1613:1683   */\n      swap3\n      pop\n        /* \"#utility.yul\":1469:1693   */\n      pop\n        /* \"#utility.yul\":1456:1457   */\n      0x01\n        /* \"#utility.yul\":1453:1454   */\n      dup2\n        /* \"#utility.yul\":1449:1458   */\n      add\n        /* \"#utility.yul\":1444:1458   */\n      swap1\n      pop\n        /* \"#utility.yul\":1409:1693   */\n      jump(tag_64)\n    tag_66:\n        /* \"#utility.yul\":1413:1427   */\n      pop\n        /* \"#utility.yul\":1709:1712   */\n      dup6\n        /* \"#utility.yul\":1702:1712   */\n      swap4\n      pop\n        /* \"#utility.yul\":1110:1718   */\n      pop\n      pop\n      pop\n        /* \"#utility.yul\":986:1718   */\n      swap3\n      swap2\n      pop\n      pop\n      jump\t// out\n        /* \"#utility.yul\":1724:2097   */\n    tag_10:\n        /* \"#utility.yul\":1867:1871   */\n      0x00\n        /* \"#utility.yul\":1905:1907   */\n      0x20\n        /* \"#utility.yul\":1894:1903   */\n      dup3\n        /* \"#utility.yul\":1890:1908   */\n      add\n        /* \"#utility.yul\":1882:1908   */\n      swap1\n      pop\n        /* \"#utility.yul\":1954:1963   */\n      dup2\n        /* \"#utility.yul\":1948:1952   */\n      dup2\n        /* \"#utility.yul\":1944:1964   */\n      sub\n        /* \"#utility.yul\":1940:1941   */\n      0x00\n        /* \"#utility.yul\":1929:1938   */\n      dup4\n        /* \"#utility.yul\":1925:1942   */\n      add\n        /* \"#utility.yul\":1918:1965   */\n      mstore\n        /* \"#utility.yul\":1982:2090   */\n      tag_70\n        /* \"#utility.yul\":2085:2089   */\n      dup2\n        /* \"#utility.yul\":2076:2082   */\n      dup5\n        /* \"#utility.yul\":1982:2090   */\n      tag_43\n      jump\t// in\n    tag_70:\n        /* \"#utility.yul\":1974:2090   */\n      swap1\n      pop\n        /* \"#utility.yul\":1724:2097   */\n      swap3\n      swap2\n      pop\n      pop\n      jump\t// out\n        /* \"#utility.yul\":2184:2301   */\n    tag_45:\n        /* \"#utility.yul\":2293:2294   */\n      0x00\n        /* \"#utility.yul\":2290:2291   */\n      dup1\n        /* \"#utility.yul\":2283:2295   */\n      revert\n        /* \"#utility.yul\":2430:2552   */\n    tag_47:\n        /* \"#utility.yul\":2503:2527   */\n      tag_75\n        /* \"#utility.yul\":2521:2526   */\n      dup2\n        /* \"#utility.yul\":2503:2527   */\n      tag_39\n      jump\t// in\n    tag_75:\n        /* \"#utility.yul\":2496:2501   */\n      dup2\n        /* \"#utility.yul\":2493:2528   */\n      eq\n        /* \"#utility.yul\":2483:2546   */\n      tag_76\n      jumpi\n        /* \"#utility.yul\":2542:2543   */\n      0x00\n        /* \"#utility.yul\":2539:2540   */\n      dup1\n        /* \"#utility.yul\":2532:2544   */\n      revert\n        /* \"#utility.yul\":2483:2546   */\n    tag_76:\n        /* \"#utility.yul\":2430:2552   */\n      pop\n      jump\t// out\n        /* \"#utility.yul\":2558:2697   */\n    tag_48:\n        /* \"#utility.yul\":2604:2609   */\n      0x00\n        /* \"#utility.yul\":2642:2648   */\n      dup2\n        /* \"#utility.yul\":2629:2649   */\n      calldataload\n        /* \"#utility.yul\":2620:2649   */\n      swap1\n      pop\n        /* \"#utility.yul\":2658:2691   */\n      tag_78\n        /* \"#utility.yul\":2685:2690   */\n      dup2\n        /* \"#utility.yul\":2658:2691   */\n      tag_47\n      jump\t// in\n    tag_78:\n        /* \"#utility.yul\":2558:2697   */\n      swap3\n      swap2\n      pop\n      pop\n      jump\t// out\n        /* \"#utility.yul\":2703:3177   */\n    tag_13:\n        /* \"#utility.yul\":2771:2777   */\n      0x00\n        /* \"#utility.yul\":2779:2785   */\n      dup1\n        /* \"#utility.yul\":2828:2830   */\n      0x40\n        /* \"#utility.yul\":2816:2825   */\n      dup4\n        /* \"#utility.yul\":2807:2814   */\n      dup6\n        /* \"#utility.yul\":2803:2826   */\n      sub\n        /* \"#utility.yul\":2799:2831   */\n      slt\n        /* \"#utility.yul\":2796:2915   */\n      iszero\n      tag_80\n      jumpi\n        /* \"#utility.yul\":2834:2913   */\n      tag_81\n      tag_45\n      jump\t// in\n    tag_81:\n        /* \"#utility.yul\":2796:2915   */\n    tag_80:\n        /* \"#utility.yul\":2954:2955   */\n      0x00\n        /* \"#utility.yul\":2979:3032   */\n      tag_82\n        /* \"#utility.yul\":3024:3031   */\n      dup6\n        /* \"#utility.yul\":3015:3021   */\n      dup3\n        /* \"#utility.yul\":3004:3013   */\n      dup7\n        /* \"#utility.yul\":3000:3022   */\n      add\n        /* \"#utility.yul\":2979:3032   */\n      tag_48\n      jump\t// in\n    tag_82:\n        /* \"#utility.yul\":2969:3032   */\n      swap3\n      pop\n        /* \"#utility.yul\":2925:3042   */\n      pop\n        /* \"#utility.yul\":3081:3083   */\n      0x20\n        /* \"#utility.yul\":3107:3160   */\n      tag_83\n        /* \"#utility.yul\":3152:3159   */\n      dup6\n        /* \"#utility.yul\":3143:3149   */\n      dup3\n        /* \"#utility.yul\":3132:3141   */\n      dup7\n        /* \"#utility.yul\":3128:3150   */\n      add\n        /* \"#utility.yul\":3107:3160   */\n      tag_48\n      jump\t// in\n    tag_83:\n        /* \"#utility.yul\":3097:3160   */\n      swap2\n      pop\n        /* \"#utility.yul\":3052:3170   */\n      pop\n        /* \"#utility.yul\":2703:3177   */\n      swap3\n      pop\n      swap3\n      swap1\n      pop\n      jump\t// out\n        /* \"#utility.yul\":3183:3512   */\n    tag_17:\n        /* \"#utility.yul\":3242:3248   */\n      0x00\n        /* \"#utility.yul\":3291:3293   */\n      0x20\n        /* \"#utility.yul\":3279:3288   */\n      dup3\n        /* \"#utility.yul\":3270:3277   */\n      dup5\n        /* \"#utility.yul\":3266:3289   */\n      sub\n        /* \"#utility.yul\":3262:3294   */\n      slt\n        /* \"#utility.yul\":3259:3378   */\n      iszero\n      tag_85\n      jumpi\n        /* \"#utility.yul\":3297:3376   */\n      tag_86\n      tag_45\n      jump\t// in\n    tag_86:\n        /* \"#utility.yul\":3259:3378   */\n    tag_85:\n        /* \"#utility.yul\":3417:3418   */\n      0x00\n        /* \"#utility.yul\":3442:3495   */\n      tag_87\n        /* \"#utility.yul\":3487:3494   */\n      dup5\n        /* \"#utility.yul\":3478:3484   */\n      dup3\n        /* \"#utility.yul\":3467:3476   */\n      dup6\n        /* \"#utility.yul\":3463:3485   */\n      add\n        /* \"#utility.yul\":3442:3495   */\n      tag_48\n      jump\t// in\n    tag_87:\n        /* \"#utility.yul\":3432:3495   */\n      swap2\n      pop\n        /* \"#utility.yul\":3388:3505   */\n      pop\n        /* \"#utility.yul\":3183:3512   */\n      swap3\n      swap2\n      pop\n      pop\n      jump\t// out\n        /* \"#utility.yul\":3518:3636   */\n    tag_49:\n        /* \"#utility.yul\":3605:3629   */\n      tag_89\n        /* \"#utility.yul\":3623:3628   */\n      dup2\n        /* \"#utility.yul\":3605:3629   */\n      tag_39\n      jump\t// in\n    tag_89:\n        /* \"#utility.yul\":3600:3603   */\n      dup3\n        /* \"#utility.yul\":3593:3630   */\n      mstore\n        /* \"#utility.yul\":3518:3636   */\n      pop\n      pop\n      jump\t// out\n        /* \"#utility.yul\":3642:3864   */\n    tag_20:\n        /* \"#utility.yul\":3735:3739   */\n      0x00\n        /* \"#utility.yul\":3773:3775   */\n      0x20\n        /* \"#utility.yul\":3762:3771   */\n      dup3\n        /* \"#utility.yul\":3758:3776   */\n      add\n        /* \"#utility.yul\":3750:3776   */\n      swap1\n      pop\n        /* \"#utility.yul\":3786:3857   */\n      tag_91\n        /* \"#utility.yul\":3854:3855   */\n      0x00\n        /* \"#utility.yul\":3843:3852   */\n      dup4\n        /* \"#utility.yul\":3839:3856   */\n      add\n        /* \"#utility.yul\":3830:3836   */\n      dup5\n        /* \"#utility.yul\":3786:3857   */\n      tag_49\n      jump\t// in\n    tag_91:\n        /* \"#utility.yul\":3642:3864   */\n      swap3\n      swap2\n      pop\n      pop\n      jump\t// out\n        /* \"#utility.yul\":3870:4050   */\n    tag_30:\n        /* \"#utility.yul\":3918:3995   */\n      0x4e487b7100000000000000000000000000000000000000000000000000000000\n        /* \"#utility.yul\":3915:3916   */\n      0x00\n        /* \"#utility.yul\":3908:3996   */\n      mstore\n        /* \"#utility.yul\":4015:4019   */\n      0x32\n        /* \"#utility.yul\":4012:4013   */\n      0x04\n        /* \"#utility.yul\":4005:4020   */\n      mstore\n        /* \"#utility.yul\":4039:4043   */\n      0x24\n        /* \"#utility.yul\":4036:4037   */\n      0x00\n        /* \"#utility.yul\":4029:4044   */\n      revert\n\n    auxdata: 0xa2646970667358221220f6cdb32d728c2f52814d31a1227bfe66fb1aa44f43ab60cd66702fafa33e1df864736f6c634300080f0033\n}\n",
				"bytecode": {
					"linkReferences": {},
					"object": "608060405234801561001057600080fd5b506103bd806100206000396000f3fe608060405234801561001057600080fd5b506004361061004c5760003560e01c8063981f549914610051578063b7e689f61461006f578063cc3e57d91461008b578063d15ec851146100bb575b600080fd5b6100596100d7565b604051610066919061026e565b60405180910390f35b610089600480360381019061008491906102c1565b61012f565b005b6100a560048036038101906100a09190610301565b610156565b6040516100b2919061033d565b60405180910390f35b6100d560048036038101906100d09190610301565b61017a565b005b6060600080548060200260200160405190810160405280929190818152602001828054801561012557602002820191906000526020600020905b815481526020019060010190808311610111575b5050505050905090565b806000838154811061014457610143610358565b5b90600052602060002001819055505050565b6000818154811061016657600080fd5b906000526020600020016000915090505481565b600081908060018154018082558091505060019003906000526020600020016000909190919091505550565b600081519050919050565b600082825260208201905092915050565b6000819050602082019050919050565b6000819050919050565b6101e5816101d2565b82525050565b60006101f783836101dc565b60208301905092915050565b6000602082019050919050565b600061021b826101a6565b61022581856101b1565b9350610230836101c2565b8060005b8381101561026157815161024888826101eb565b975061025383610203565b925050600181019050610234565b5085935050505092915050565b600060208201905081810360008301526102888184610210565b905092915050565b600080fd5b61029e816101d2565b81146102a957600080fd5b50565b6000813590506102bb81610295565b92915050565b600080604083850312156102d8576102d7610290565b5b60006102e6858286016102ac565b92505060206102f7858286016102ac565b9150509250929050565b60006020828403121561031757610316610290565b5b6000610325848285016102ac565b91505092915050565b610337816101d2565b82525050565b6000602082019050610352600083018461032e565b92915050565b7f4e487b7100000000000000000000000000000000000000000000000000000000600052603260045260246000fdfea2646970667358221220f6cdb32d728c2f52814d31a1227bfe66fb1aa44f43ab60cd66702fafa33e1df864736f6c634300080f0033",
					"opcodes": "PUSH1 0x80 PUSH1 0x40 MSTORE CALLVALUE DUP1 ISZERO PUSH2 0x10 JUMPI PUSH1 0x0 DUP1 REVERT JUMPDEST POP PUSH2 0x3BD DUP1 PUSH2 0x20 PUSH1 0x0 CODECOPY PUSH1 0x0 RETURN INVALID PUSH1 0x80 PUSH1 0x40 MSTORE CALLVALUE DUP1 ISZERO PUSH2 0x10 JUMPI PUSH1 0x0 DUP1 REVERT JUMPDEST POP PUSH1 0x4 CALLDATASIZE LT PUSH2 0x4C JUMPI PUSH1 0x0 CALLDATALOAD PUSH1 0xE0 SHR DUP1 PUSH4 0x981F5499 EQ PUSH2 0x51 JUMPI DUP1 PUSH4 0xB7E689F6 EQ PUSH2 0x6F JUMPI DUP1 PUSH4 0xCC3E57D9 EQ PUSH2 0x8B JUMPI DUP1 PUSH4 0xD15EC851 EQ PUSH2 0xBB JUMPI JUMPDEST PUSH1 0x0 DUP1 REVERT JUMPDEST PUSH2 0x59 PUSH2 0xD7 JUMP JUMPDEST PUSH1 0x40 MLOAD PUSH2 0x66 SWAP2 SWAP1 PUSH2 0x26E JUMP JUMPDEST PUSH1 0x40 MLOAD DUP1 SWAP2 SUB SWAP1 RETURN JUMPDEST PUSH2 0x89 PUSH1 0x4 DUP1 CALLDATASIZE SUB DUP2 ADD SWAP1 PUSH2 0x84 SWAP2 SWAP1 PUSH2 0x2C1 JUMP JUMPDEST PUSH2 0x12F JUMP JUMPDEST STOP JUMPDEST PUSH2 0xA5 PUSH1 0x4 DUP1 CALLDATASIZE SUB DUP2 ADD SWAP1 PUSH2 0xA0 SWAP2 SWAP1 PUSH2 0x301 JUMP JUMPDEST PUSH2 0x156 JUMP JUMPDEST PUSH1 0x40 MLOAD PUSH2 0xB2 SWAP2 SWAP1 PUSH2 0x33D JUMP JUMPDEST PUSH1 0x40 MLOAD DUP1 SWAP2 SUB SWAP1 RETURN JUMPDEST PUSH2 0xD5 PUSH1 0x4 DUP1 CALLDATASIZE SUB DUP2 ADD SWAP1 PUSH2 0xD0 SWAP2 SWAP1 PUSH2 0x301 JUMP JUMPDEST PUSH2 0x17A JUMP JUMPDEST STOP JUMPDEST PUSH1 0x60 PUSH1 0x0 DUP1 SLOAD DUP1 PUSH1 0x20 MUL PUSH1 0x20 ADD PUSH1 0x40 MLOAD SWAP1 DUP2 ADD PUSH1 0x40 MSTORE DUP1 SWAP3 SWAP2 SWAP1 DUP2 DUP2 MSTORE PUSH1 0x20 ADD DUP3 DUP1 SLOAD DUP1 ISZERO PUSH2 0x125 JUMPI PUSH1 0x20 MUL DUP3 ADD SWAP2 SWAP1 PUSH1 0x0 MSTORE PUSH1 0x20 PUSH1 0x0 KECCAK256 SWAP1 JUMPDEST DUP2 SLOAD DUP2 MSTORE PUSH1 0x20 ADD SWAP1 PUSH1 0x1 ADD SWAP1 DUP1 DUP4 GT PUSH2 0x111 JUMPI JUMPDEST POP POP POP POP POP SWAP1 POP SWAP1 JUMP JUMPDEST DUP1 PUSH1 0x0 DUP4 DUP2 SLOAD DUP2 LT PUSH2 0x144 JUMPI PUSH2 0x143 PUSH2 0x358 JUMP JUMPDEST JUMPDEST SWAP1 PUSH1 0x0 MSTORE PUSH1 0x20 PUSH1 0x0 KECCAK256 ADD DUP2 SWAP1 SSTORE POP POP POP JUMP JUMPDEST PUSH1 0x0 DUP2 DUP2 SLOAD DUP2 LT PUSH2 0x166 JUMPI PUSH1 0x0 DUP1 REVERT JUMPDEST SWAP1 PUSH1 0x0 MSTORE PUSH1 0x20 PUSH1 0x0 KECCAK256 ADD PUSH1 0x0 SWAP2 POP SWAP1 POP SLOAD DUP2 JUMP JUMPDEST PUSH1 0x0 DUP2 SWAP1 DUP1 PUSH1 0x1 DUP2 SLOAD ADD DUP1 DUP3 SSTORE DUP1 SWAP2 POP POP PUSH1 0x1 SWAP1 SUB SWAP1 PUSH1 0x0 MSTORE PUSH1 0x20 PUSH1 0x0 KECCAK256 ADD PUSH1 0x0 SWAP1 SWAP2 SWAP1 SWAP2 SWAP1 SWAP2 POP SSTORE POP JUMP JUMPDEST PUSH1 0x0 DUP2 MLOAD SWAP1 POP SWAP2 SWAP1 POP JUMP JUMPDEST PUSH1 0x0 DUP3 DUP3 MSTORE PUSH1 0x20 DUP3 ADD SWAP1 POP SWAP3 SWAP2 POP POP JUMP JUMPDEST PUSH1 0x0 DUP2 SWAP1 POP PUSH1 0x20 DUP3 ADD SWAP1 POP SWAP2 SWAP1 POP JUMP JUMPDEST PUSH1 0x0 DUP2 SWAP1 POP SWAP2 SWAP1 POP JUMP JUMPDEST PUSH2 0x1E5 DUP2 PUSH2 0x1D2 JUMP JUMPDEST DUP3 MSTORE POP POP JUMP JUMPDEST PUSH1 0x0 PUSH2 0x1F7 DUP4 DUP4 PUSH2 0x1DC JUMP JUMPDEST PUSH1 0x20 DUP4 ADD SWAP1 POP SWAP3 SWAP2 POP POP JUMP JUMPDEST PUSH1 0x0 PUSH1 0x20 DUP3 ADD SWAP1 POP SWAP2 SWAP1 POP JUMP JUMPDEST PUSH1 0x0 PUSH2 0x21B DUP3 PUSH2 0x1A6 JUMP JUMPDEST PUSH2 0x225 DUP2 DUP6 PUSH2 0x1B1 JUMP JUMPDEST SWAP4 POP PUSH2 0x230 DUP4 PUSH2 0x1C2 JUMP JUMPDEST DUP1 PUSH1 0x0 JUMPDEST DUP4 DUP2 LT ISZERO PUSH2 0x261 JUMPI DUP2 MLOAD PUSH2 0x248 DUP9 DUP3 PUSH2 0x1EB JUMP JUMPDEST SWAP8 POP PUSH2 0x253 DUP4 PUSH2 0x203 JUMP JUMPDEST SWAP3 POP POP PUSH1 0x1 DUP2 ADD SWAP1 POP PUSH2 0x234 JUMP JUMPDEST POP DUP6 SWAP4 POP POP POP POP SWAP3 SWAP2 POP POP JUMP JUMPDEST PUSH1 0x0 PUSH1 0x20 DUP3 ADD SWAP1 POP DUP2 DUP2 SUB PUSH1 0x0 DUP4 ADD MSTORE PUSH2 0x288 DUP2 DUP5 PUSH2 0x210 JUMP JUMPDEST SWAP1 POP SWAP3 SWAP2 POP POP JUMP JUMPDEST PUSH1 0x0 DUP1 REVERT JUMPDEST PUSH2 0x29E DUP2 PUSH2 0x1D2 JUMP JUMPDEST DUP2 EQ PUSH2 0x2A9 JUMPI PUSH1 0x0 DUP1 REVERT JUMPDEST POP JUMP JUMPDEST PUSH1 0x0 DUP2 CALLDATALOAD SWAP1 POP PUSH2 0x2BB DUP2 PUSH2 0x295 JUMP JUMPDEST SWAP3 SWAP2 POP POP JUMP JUMPDEST PUSH1 0x0 DUP1 PUSH1 0x40 DUP4 DUP6 SUB SLT ISZERO PUSH2 0x2D8 JUMPI PUSH2 0x2D7 PUSH2 0x290 JUMP JUMPDEST JUMPDEST PUSH1 0x0 PUSH2 0x2E6 DUP6 DUP3 DUP7 ADD PUSH2 0x2AC JUMP JUMPDEST SWAP3 POP POP PUSH1 0x20 PUSH2 0x2F7 DUP6 DUP3 DUP7 ADD PUSH2 0x2AC JUMP JUMPDEST SWAP2 POP POP SWAP3 POP SWAP3 SWAP1 POP JUMP JUMPDEST PUSH1 0x0 PUSH1 0x20 DUP3 DUP5 SUB SLT ISZERO PUSH2 0x317 JUMPI PUSH2 0x316 PUSH2 0x290 JUMP JUMPDEST JUMPDEST PUSH1 0x0 PUSH2 0x325 DUP5 DUP3 DUP6 ADD PUSH2 0x2AC JUMP JUMPDEST SWAP2 POP POP SWAP3 SWAP2 POP POP JUMP JUMPDEST PUSH2 0x337 DUP2 PUSH2 0x1D2 JUMP JUMPDEST DUP3 MSTORE POP POP JUMP JUMPDEST PUSH1 0x0 PUSH1 0x20 DUP3 ADD SWAP1 POP PUSH2 0x352 PUSH1 0x0 DUP4 ADD DUP5 PUSH2 0x32E JUMP JUMPDEST SWAP3 SWAP2 POP POP JUMP JUMPDEST PUSH32 0x4E487B7100000000000000000000000000000000000000000000000000000000 PUSH1 0x0 MSTORE PUSH1 0x32 PUSH1 0x4 MSTORE PUSH1 0x24 PUSH1 0x0 REVERT INVALID LOG2 PUSH5 0x6970667358 0x22 SLT KECCAK256 0xF6 0xCD 0xB3 0x2D PUSH19 0x8C2F52814D31A1227BFE66FB1AA44F43AB60CD PUSH7 0x702FAFA33E1DF8 PUSH5 0x736F6C6343 STOP ADDMOD 0xF STOP CALLER "
				},
				"gasEstimates": {
					"creation": {
						"codeDepositCost": "191400",
						"executionCost": "232",
						"totalCost": "191632"
					},
					"external": {
						"addToArray(uint256)": "46873",
						"editArray(uint256,uint256)": "infinite",
						"getAllValues()": "infinite",
						"myArray(uint256)": "infinite"
					}
				},
				"methodIdentifiers": {
					"addToArray(uint256)": "d15ec851",
					"editArray(uint256,uint256)": "b7e689f6",
					"getAllValues()": "981f5499",
					"myArray(uint256)": "cc3e57d9"
				}
			},
			"storageLayout": {
				"storage": [
					{
						"astId": 4,
						"contract": "solidity-learning/3_SmartWallet/ExampleArrays.sol:ExampleArrays",
						"label": "myArray",
						"offset": 0,
						"slot": "0",
						"type": "t_array(t_uint256)dyn_storage"
					}
				],
				"types": {
					"t_array(t_uint256)dyn_storage": {
						"base": "t_uint256",
						"encoding": "dynamic_array",
						"label": "uint256[]",
						"numberOfBytes": "32"
					},
					"t_uint256": {
						"encoding": "inplace",
						"label": "uint256",
						"numberOfBytes": "32"
					}
				}
			},
			"userdoc": {
				"kind": "user",
				"methods": {},
				"version": 1
			}
		}
	}
}