{
	"solidity-learning/3_SmartWallet/ExampleRequireAssert.sol": {
		"ExampleRequireAssert": {
			"abi": [
				{
					"inputs": [],
					"name": "desositMoney",
					"outputs": [],
					"stateMutability": "payable",
					"type": "function"
				},
				{
					"inputs": [],
					"name": "getMyBalance",
					"outputs": [
						{
							"internalType": "uint8",
							"name": "",
							"type": "uint8"
						}
					],
					"stateMutability": "view",
					"type": "function"
				},
				{
					"inputs": [
						{
							"internalType": "uint8",
							"name": "_amount",
							"type": "uint8"
						},
						{
							"internalType": "address payable",
							"name": "_to",
							"type": "address"
						}
					],
					"name": "withdrawMoney",
					"outputs": [],
					"stateMutability": "nonpayable",
					"type": "function"
				}
			],
			"devdoc": {
				"kind": "dev",
				"methods": {},
				"version": 1
			},
			"evm": {
				"assembly": "    /* \"solidity-learning/3_SmartWallet/ExampleRequireAssert.sol\":58:732  contract ExampleRequireAssert {... */\n  mstore(0x40, 0x80)\n  callvalue\n  dup1\n  iszero\n  tag_1\n  jumpi\n  0x00\n  dup1\n  revert\ntag_1:\n  pop\n  dataSize(sub_0)\n  dup1\n  dataOffset(sub_0)\n  0x00\n  codecopy\n  0x00\n  return\nstop\n\nsub_0: assembly {\n        /* \"solidity-learning/3_SmartWallet/ExampleRequireAssert.sol\":58:732  contract ExampleRequireAssert {... */\n      mstore(0x40, 0x80)\n      jumpi(tag_1, lt(calldatasize, 0x04))\n      shr(0xe0, calldataload(0x00))\n      dup1\n      0x04725262\n      eq\n      tag_2\n      jumpi\n      dup1\n      0x480877a0\n      eq\n      tag_3\n      jumpi\n      dup1\n      0x4c738909\n      eq\n      tag_4\n      jumpi\n    tag_1:\n      0x00\n      dup1\n      revert\n        /* \"solidity-learning/3_SmartWallet/ExampleRequireAssert.sol\":251:399  function desositMoney() public payable {... */\n    tag_2:\n      tag_5\n      tag_6\n      jump\t// in\n    tag_5:\n      stop\n        /* \"solidity-learning/3_SmartWallet/ExampleRequireAssert.sol\":405:730  function withdrawMoney(uint8 _amount, address payable _to) public {... */\n    tag_3:\n      callvalue\n      dup1\n      iszero\n      tag_7\n      jumpi\n      0x00\n      dup1\n      revert\n    tag_7:\n      pop\n      tag_8\n      0x04\n      dup1\n      calldatasize\n      sub\n      dup2\n      add\n      swap1\n      tag_9\n      swap2\n      swap1\n      tag_10\n      jump\t// in\n    tag_9:\n      tag_11\n      jump\t// in\n    tag_8:\n      stop\n        /* \"solidity-learning/3_SmartWallet/ExampleRequireAssert.sol\":142:245  function getMyBalance() public view returns (uint8) {... */\n    tag_4:\n      callvalue\n      dup1\n      iszero\n      tag_12\n      jumpi\n      0x00\n      dup1\n      revert\n    tag_12:\n      pop\n      tag_13\n      tag_14\n      jump\t// in\n    tag_13:\n      mload(0x40)\n      tag_15\n      swap2\n      swap1\n      tag_16\n      jump\t// in\n    tag_15:\n      mload(0x40)\n      dup1\n      swap2\n      sub\n      swap1\n      return\n        /* \"solidity-learning/3_SmartWallet/ExampleRequireAssert.sol\":251:399  function desositMoney() public payable {... */\n    tag_6:\n        /* \"solidity-learning/3_SmartWallet/ExampleRequireAssert.sol\":324:333  msg.value */\n      callvalue\n        /* \"solidity-learning/3_SmartWallet/ExampleRequireAssert.sol\":307:334  msg.value==uint8(msg.value) */\n      0xff\n      and\n        /* \"solidity-learning/3_SmartWallet/ExampleRequireAssert.sol\":307:316  msg.value */\n      callvalue\n        /* \"solidity-learning/3_SmartWallet/ExampleRequireAssert.sol\":307:334  msg.value==uint8(msg.value) */\n      eq\n        /* \"solidity-learning/3_SmartWallet/ExampleRequireAssert.sol\":300:335  assert(msg.value==uint8(msg.value)) */\n      tag_18\n      jumpi\n      tag_19\n      tag_20\n      jump\t// in\n    tag_19:\n    tag_18:\n        /* \"solidity-learning/3_SmartWallet/ExampleRequireAssert.sol\":382:391  msg.value */\n      callvalue\n        /* \"solidity-learning/3_SmartWallet/ExampleRequireAssert.sol\":345:360  balanceReceived */\n      0x00\n        /* \"solidity-learning/3_SmartWallet/ExampleRequireAssert.sol\":345:372  balanceReceived[msg.sender] */\n      dup1\n        /* \"solidity-learning/3_SmartWallet/ExampleRequireAssert.sol\":361:371  msg.sender */\n      caller\n        /* \"solidity-learning/3_SmartWallet/ExampleRequireAssert.sol\":345:372  balanceReceived[msg.sender] */\n      0xffffffffffffffffffffffffffffffffffffffff\n      and\n      0xffffffffffffffffffffffffffffffffffffffff\n      and\n      dup2\n      mstore\n      0x20\n      add\n      swap1\n      dup2\n      mstore\n      0x20\n      add\n      0x00\n      keccak256\n      0x00\n        /* \"solidity-learning/3_SmartWallet/ExampleRequireAssert.sol\":345:392  balanceReceived[msg.sender] += uint8(msg.value) */\n      dup3\n      dup3\n      dup3\n      swap1\n      sload\n      swap1\n      0x0100\n      exp\n      swap1\n      div\n      0xff\n      and\n      tag_21\n      swap2\n      swap1\n      tag_22\n      jump\t// in\n    tag_21:\n      swap3\n      pop\n      0x0100\n      exp\n      dup2\n      sload\n      dup2\n      0xff\n      mul\n      not\n      and\n      swap1\n      dup4\n      0xff\n      and\n      mul\n      or\n      swap1\n      sstore\n      pop\n        /* \"solidity-learning/3_SmartWallet/ExampleRequireAssert.sol\":251:399  function desositMoney() public payable {... */\n      jump\t// out\n        /* \"solidity-learning/3_SmartWallet/ExampleRequireAssert.sol\":405:730  function withdrawMoney(uint8 _amount, address payable _to) public {... */\n    tag_11:\n        /* \"solidity-learning/3_SmartWallet/ExampleRequireAssert.sol\":500:515  balanceReceived */\n      0x00\n        /* \"solidity-learning/3_SmartWallet/ExampleRequireAssert.sol\":500:527  balanceReceived[msg.sender] */\n      dup1\n        /* \"solidity-learning/3_SmartWallet/ExampleRequireAssert.sol\":516:526  msg.sender */\n      caller\n        /* \"solidity-learning/3_SmartWallet/ExampleRequireAssert.sol\":500:527  balanceReceived[msg.sender] */\n      0xffffffffffffffffffffffffffffffffffffffff\n      and\n      0xffffffffffffffffffffffffffffffffffffffff\n      and\n      dup2\n      mstore\n      0x20\n      add\n      swap1\n      dup2\n      mstore\n      0x20\n      add\n      0x00\n      keccak256\n      0x00\n      swap1\n      sload\n      swap1\n      0x0100\n      exp\n      swap1\n      div\n      0xff\n      and\n        /* \"solidity-learning/3_SmartWallet/ExampleRequireAssert.sol\":489:527  _amount <= balanceReceived[msg.sender] */\n      0xff\n      and\n        /* \"solidity-learning/3_SmartWallet/ExampleRequireAssert.sol\":489:496  _amount */\n      dup3\n        /* \"solidity-learning/3_SmartWallet/ExampleRequireAssert.sol\":489:527  _amount <= balanceReceived[msg.sender] */\n      0xff\n      and\n      gt\n      iszero\n        /* \"solidity-learning/3_SmartWallet/ExampleRequireAssert.sol\":481:558  require(_amount <= balanceReceived[msg.sender], \"Not Enough Funds, aborting\") */\n      tag_24\n      jumpi\n      mload(0x40)\n      0x08c379a000000000000000000000000000000000000000000000000000000000\n      dup2\n      mstore\n      0x04\n      add\n      tag_25\n      swap1\n      tag_26\n      jump\t// in\n    tag_25:\n      mload(0x40)\n      dup1\n      swap2\n      sub\n      swap1\n      revert\n    tag_24:\n        /* \"solidity-learning/3_SmartWallet/ExampleRequireAssert.sol\":636:643  _amount */\n      dup2\n        /* \"solidity-learning/3_SmartWallet/ExampleRequireAssert.sol\":606:621  balanceReceived */\n      0x00\n        /* \"solidity-learning/3_SmartWallet/ExampleRequireAssert.sol\":606:633  balanceReceived[msg.sender] */\n      dup1\n        /* \"solidity-learning/3_SmartWallet/ExampleRequireAssert.sol\":622:632  msg.sender */\n      caller\n        /* \"solidity-learning/3_SmartWallet/ExampleRequireAssert.sol\":606:633  balanceReceived[msg.sender] */\n      0xffffffffffffffffffffffffffffffffffffffff\n      and\n      0xffffffffffffffffffffffffffffffffffffffff\n      and\n      dup2\n      mstore\n      0x20\n      add\n      swap1\n      dup2\n      mstore\n      0x20\n      add\n      0x00\n      keccak256\n      0x00\n      swap1\n      sload\n      swap1\n      0x0100\n      exp\n      swap1\n      div\n      0xff\n      and\n        /* \"solidity-learning/3_SmartWallet/ExampleRequireAssert.sol\":606:643  balanceReceived[msg.sender] - _amount */\n      tag_27\n      swap2\n      swap1\n      tag_28\n      jump\t// in\n    tag_27:\n        /* \"solidity-learning/3_SmartWallet/ExampleRequireAssert.sol\":575:643  balanceReceived[msg.sender] >= balanceReceived[msg.sender] - _amount */\n      0xff\n      and\n        /* \"solidity-learning/3_SmartWallet/ExampleRequireAssert.sol\":575:590  balanceReceived */\n      0x00\n        /* \"solidity-learning/3_SmartWallet/ExampleRequireAssert.sol\":575:602  balanceReceived[msg.sender] */\n      dup1\n        /* \"solidity-learning/3_SmartWallet/ExampleRequireAssert.sol\":591:601  msg.sender */\n      caller\n        /* \"solidity-learning/3_SmartWallet/ExampleRequireAssert.sol\":575:602  balanceReceived[msg.sender] */\n      0xffffffffffffffffffffffffffffffffffffffff\n      and\n      0xffffffffffffffffffffffffffffffffffffffff\n      and\n      dup2\n      mstore\n      0x20\n      add\n      swap1\n      dup2\n      mstore\n      0x20\n      add\n      0x00\n      keccak256\n      0x00\n      swap1\n      sload\n      swap1\n      0x0100\n      exp\n      swap1\n      div\n      0xff\n      and\n        /* \"solidity-learning/3_SmartWallet/ExampleRequireAssert.sol\":575:643  balanceReceived[msg.sender] >= balanceReceived[msg.sender] - _amount */\n      0xff\n      and\n      lt\n      iszero\n        /* \"solidity-learning/3_SmartWallet/ExampleRequireAssert.sol\":568:644  assert(balanceReceived[msg.sender] >= balanceReceived[msg.sender] - _amount) */\n      tag_29\n      jumpi\n      tag_30\n      tag_20\n      jump\t// in\n    tag_30:\n    tag_29:\n        /* \"solidity-learning/3_SmartWallet/ExampleRequireAssert.sol\":685:692  _amount */\n      dup2\n        /* \"solidity-learning/3_SmartWallet/ExampleRequireAssert.sol\":654:669  balanceReceived */\n      0x00\n        /* \"solidity-learning/3_SmartWallet/ExampleRequireAssert.sol\":654:681  balanceReceived[msg.sender] */\n      dup1\n        /* \"solidity-learning/3_SmartWallet/ExampleRequireAssert.sol\":670:680  msg.sender */\n      caller\n        /* \"solidity-learning/3_SmartWallet/ExampleRequireAssert.sol\":654:681  balanceReceived[msg.sender] */\n      0xffffffffffffffffffffffffffffffffffffffff\n      and\n      0xffffffffffffffffffffffffffffffffffffffff\n      and\n      dup2\n      mstore\n      0x20\n      add\n      swap1\n      dup2\n      mstore\n      0x20\n      add\n      0x00\n      keccak256\n      0x00\n        /* \"solidity-learning/3_SmartWallet/ExampleRequireAssert.sol\":654:692  balanceReceived[msg.sender] -= _amount */\n      dup3\n      dup3\n      dup3\n      swap1\n      sload\n      swap1\n      0x0100\n      exp\n      swap1\n      div\n      0xff\n      and\n      tag_31\n      swap2\n      swap1\n      tag_28\n      jump\t// in\n    tag_31:\n      swap3\n      pop\n      0x0100\n      exp\n      dup2\n      sload\n      dup2\n      0xff\n      mul\n      not\n      and\n      swap1\n      dup4\n      0xff\n      and\n      mul\n      or\n      swap1\n      sstore\n      pop\n        /* \"solidity-learning/3_SmartWallet/ExampleRequireAssert.sol\":702:705  _to */\n      dup1\n        /* \"solidity-learning/3_SmartWallet/ExampleRequireAssert.sol\":702:714  _to.transfer */\n      0xffffffffffffffffffffffffffffffffffffffff\n      and\n        /* \"solidity-learning/3_SmartWallet/ExampleRequireAssert.sol\":702:723  _to.transfer(_amount) */\n      0x08fc\n        /* \"solidity-learning/3_SmartWallet/ExampleRequireAssert.sol\":715:722  _amount */\n      dup4\n        /* \"solidity-learning/3_SmartWallet/ExampleRequireAssert.sol\":702:723  _to.transfer(_amount) */\n      0xff\n      and\n      swap1\n      dup2\n      iszero\n      mul\n      swap1\n      mload(0x40)\n      0x00\n      mload(0x40)\n      dup1\n      dup4\n      sub\n      dup2\n      dup6\n      dup9\n      dup9\n      call\n      swap4\n      pop\n      pop\n      pop\n      pop\n      iszero\n      dup1\n      iszero\n      tag_33\n      jumpi\n      returndatasize\n      0x00\n      dup1\n      returndatacopy\n      revert(0x00, returndatasize)\n    tag_33:\n      pop\n        /* \"solidity-learning/3_SmartWallet/ExampleRequireAssert.sol\":405:730  function withdrawMoney(uint8 _amount, address payable _to) public {... */\n      pop\n      pop\n      jump\t// out\n        /* \"solidity-learning/3_SmartWallet/ExampleRequireAssert.sol\":142:245  function getMyBalance() public view returns (uint8) {... */\n    tag_14:\n        /* \"solidity-learning/3_SmartWallet/ExampleRequireAssert.sol\":187:192  uint8 */\n      0x00\n        /* \"solidity-learning/3_SmartWallet/ExampleRequireAssert.sol\":211:226  balanceReceived */\n      dup1\n        /* \"solidity-learning/3_SmartWallet/ExampleRequireAssert.sol\":211:238  balanceReceived[msg.sender] */\n      0x00\n        /* \"solidity-learning/3_SmartWallet/ExampleRequireAssert.sol\":227:237  msg.sender */\n      caller\n        /* \"solidity-learning/3_SmartWallet/ExampleRequireAssert.sol\":211:238  balanceReceived[msg.sender] */\n      0xffffffffffffffffffffffffffffffffffffffff\n      and\n      0xffffffffffffffffffffffffffffffffffffffff\n      and\n      dup2\n      mstore\n      0x20\n      add\n      swap1\n      dup2\n      mstore\n      0x20\n      add\n      0x00\n      keccak256\n      0x00\n      swap1\n      sload\n      swap1\n      0x0100\n      exp\n      swap1\n      div\n      0xff\n      and\n        /* \"solidity-learning/3_SmartWallet/ExampleRequireAssert.sol\":204:238  return balanceReceived[msg.sender] */\n      swap1\n      pop\n        /* \"solidity-learning/3_SmartWallet/ExampleRequireAssert.sol\":142:245  function getMyBalance() public view returns (uint8) {... */\n      swap1\n      jump\t// out\n        /* \"#utility.yul\":88:205   */\n    tag_36:\n        /* \"#utility.yul\":197:198   */\n      0x00\n        /* \"#utility.yul\":194:195   */\n      dup1\n        /* \"#utility.yul\":187:199   */\n      revert\n        /* \"#utility.yul\":334:420   */\n    tag_38:\n        /* \"#utility.yul\":369:376   */\n      0x00\n        /* \"#utility.yul\":409:413   */\n      0xff\n        /* \"#utility.yul\":402:407   */\n      dup3\n        /* \"#utility.yul\":398:414   */\n      and\n        /* \"#utility.yul\":387:414   */\n      swap1\n      pop\n        /* \"#utility.yul\":334:420   */\n      swap2\n      swap1\n      pop\n      jump\t// out\n        /* \"#utility.yul\":426:544   */\n    tag_39:\n        /* \"#utility.yul\":497:519   */\n      tag_56\n        /* \"#utility.yul\":513:518   */\n      dup2\n        /* \"#utility.yul\":497:519   */\n      tag_38\n      jump\t// in\n    tag_56:\n        /* \"#utility.yul\":490:495   */\n      dup2\n        /* \"#utility.yul\":487:520   */\n      eq\n        /* \"#utility.yul\":477:538   */\n      tag_57\n      jumpi\n        /* \"#utility.yul\":534:535   */\n      0x00\n        /* \"#utility.yul\":531:532   */\n      dup1\n        /* \"#utility.yul\":524:536   */\n      revert\n        /* \"#utility.yul\":477:538   */\n    tag_57:\n        /* \"#utility.yul\":426:544   */\n      pop\n      jump\t// out\n        /* \"#utility.yul\":550:685   */\n    tag_40:\n        /* \"#utility.yul\":594:599   */\n      0x00\n        /* \"#utility.yul\":632:638   */\n      dup2\n        /* \"#utility.yul\":619:639   */\n      calldataload\n        /* \"#utility.yul\":610:639   */\n      swap1\n      pop\n        /* \"#utility.yul\":648:679   */\n      tag_59\n        /* \"#utility.yul\":673:678   */\n      dup2\n        /* \"#utility.yul\":648:679   */\n      tag_39\n      jump\t// in\n    tag_59:\n        /* \"#utility.yul\":550:685   */\n      swap3\n      swap2\n      pop\n      pop\n      jump\t// out\n        /* \"#utility.yul\":691:817   */\n    tag_41:\n        /* \"#utility.yul\":728:735   */\n      0x00\n        /* \"#utility.yul\":768:810   */\n      0xffffffffffffffffffffffffffffffffffffffff\n        /* \"#utility.yul\":761:766   */\n      dup3\n        /* \"#utility.yul\":757:811   */\n      and\n        /* \"#utility.yul\":746:811   */\n      swap1\n      pop\n        /* \"#utility.yul\":691:817   */\n      swap2\n      swap1\n      pop\n      jump\t// out\n        /* \"#utility.yul\":823:927   */\n    tag_42:\n        /* \"#utility.yul\":868:875   */\n      0x00\n        /* \"#utility.yul\":897:921   */\n      tag_62\n        /* \"#utility.yul\":915:920   */\n      dup3\n        /* \"#utility.yul\":897:921   */\n      tag_41\n      jump\t// in\n    tag_62:\n        /* \"#utility.yul\":886:921   */\n      swap1\n      pop\n        /* \"#utility.yul\":823:927   */\n      swap2\n      swap1\n      pop\n      jump\t// out\n        /* \"#utility.yul\":933:1071   */\n    tag_43:\n        /* \"#utility.yul\":1014:1046   */\n      tag_64\n        /* \"#utility.yul\":1040:1045   */\n      dup2\n        /* \"#utility.yul\":1014:1046   */\n      tag_42\n      jump\t// in\n    tag_64:\n        /* \"#utility.yul\":1007:1012   */\n      dup2\n        /* \"#utility.yul\":1004:1047   */\n      eq\n        /* \"#utility.yul\":994:1065   */\n      tag_65\n      jumpi\n        /* \"#utility.yul\":1061:1062   */\n      0x00\n        /* \"#utility.yul\":1058:1059   */\n      dup1\n        /* \"#utility.yul\":1051:1063   */\n      revert\n        /* \"#utility.yul\":994:1065   */\n    tag_65:\n        /* \"#utility.yul\":933:1071   */\n      pop\n      jump\t// out\n        /* \"#utility.yul\":1077:1232   */\n    tag_44:\n        /* \"#utility.yul\":1131:1136   */\n      0x00\n        /* \"#utility.yul\":1169:1175   */\n      dup2\n        /* \"#utility.yul\":1156:1176   */\n      calldataload\n        /* \"#utility.yul\":1147:1176   */\n      swap1\n      pop\n        /* \"#utility.yul\":1185:1226   */\n      tag_67\n        /* \"#utility.yul\":1220:1225   */\n      dup2\n        /* \"#utility.yul\":1185:1226   */\n      tag_43\n      jump\t// in\n    tag_67:\n        /* \"#utility.yul\":1077:1232   */\n      swap3\n      swap2\n      pop\n      pop\n      jump\t// out\n        /* \"#utility.yul\":1238:1724   */\n    tag_10:\n        /* \"#utility.yul\":1312:1318   */\n      0x00\n        /* \"#utility.yul\":1320:1326   */\n      dup1\n        /* \"#utility.yul\":1369:1371   */\n      0x40\n        /* \"#utility.yul\":1357:1366   */\n      dup4\n        /* \"#utility.yul\":1348:1355   */\n      dup6\n        /* \"#utility.yul\":1344:1367   */\n      sub\n        /* \"#utility.yul\":1340:1372   */\n      slt\n        /* \"#utility.yul\":1337:1456   */\n      iszero\n      tag_69\n      jumpi\n        /* \"#utility.yul\":1375:1454   */\n      tag_70\n      tag_36\n      jump\t// in\n    tag_70:\n        /* \"#utility.yul\":1337:1456   */\n    tag_69:\n        /* \"#utility.yul\":1495:1496   */\n      0x00\n        /* \"#utility.yul\":1520:1571   */\n      tag_71\n        /* \"#utility.yul\":1563:1570   */\n      dup6\n        /* \"#utility.yul\":1554:1560   */\n      dup3\n        /* \"#utility.yul\":1543:1552   */\n      dup7\n        /* \"#utility.yul\":1539:1561   */\n      add\n        /* \"#utility.yul\":1520:1571   */\n      tag_40\n      jump\t// in\n    tag_71:\n        /* \"#utility.yul\":1510:1571   */\n      swap3\n      pop\n        /* \"#utility.yul\":1466:1581   */\n      pop\n        /* \"#utility.yul\":1620:1622   */\n      0x20\n        /* \"#utility.yul\":1646:1707   */\n      tag_72\n        /* \"#utility.yul\":1699:1706   */\n      dup6\n        /* \"#utility.yul\":1690:1696   */\n      dup3\n        /* \"#utility.yul\":1679:1688   */\n      dup7\n        /* \"#utility.yul\":1675:1697   */\n      add\n        /* \"#utility.yul\":1646:1707   */\n      tag_44\n      jump\t// in\n    tag_72:\n        /* \"#utility.yul\":1636:1707   */\n      swap2\n      pop\n        /* \"#utility.yul\":1591:1717   */\n      pop\n        /* \"#utility.yul\":1238:1724   */\n      swap3\n      pop\n      swap3\n      swap1\n      pop\n      jump\t// out\n        /* \"#utility.yul\":1730:1842   */\n    tag_45:\n        /* \"#utility.yul\":1813:1835   */\n      tag_74\n        /* \"#utility.yul\":1829:1834   */\n      dup2\n        /* \"#utility.yul\":1813:1835   */\n      tag_38\n      jump\t// in\n    tag_74:\n        /* \"#utility.yul\":1808:1811   */\n      dup3\n        /* \"#utility.yul\":1801:1836   */\n      mstore\n        /* \"#utility.yul\":1730:1842   */\n      pop\n      pop\n      jump\t// out\n        /* \"#utility.yul\":1848:2062   */\n    tag_16:\n        /* \"#utility.yul\":1937:1941   */\n      0x00\n        /* \"#utility.yul\":1975:1977   */\n      0x20\n        /* \"#utility.yul\":1964:1973   */\n      dup3\n        /* \"#utility.yul\":1960:1978   */\n      add\n        /* \"#utility.yul\":1952:1978   */\n      swap1\n      pop\n        /* \"#utility.yul\":1988:2055   */\n      tag_76\n        /* \"#utility.yul\":2052:2053   */\n      0x00\n        /* \"#utility.yul\":2041:2050   */\n      dup4\n        /* \"#utility.yul\":2037:2054   */\n      add\n        /* \"#utility.yul\":2028:2034   */\n      dup5\n        /* \"#utility.yul\":1988:2055   */\n      tag_45\n      jump\t// in\n    tag_76:\n        /* \"#utility.yul\":1848:2062   */\n      swap3\n      swap2\n      pop\n      pop\n      jump\t// out\n        /* \"#utility.yul\":2068:2248   */\n    tag_20:\n        /* \"#utility.yul\":2116:2193   */\n      0x4e487b7100000000000000000000000000000000000000000000000000000000\n        /* \"#utility.yul\":2113:2114   */\n      0x00\n        /* \"#utility.yul\":2106:2194   */\n      mstore\n        /* \"#utility.yul\":2213:2217   */\n      0x01\n        /* \"#utility.yul\":2210:2211   */\n      0x04\n        /* \"#utility.yul\":2203:2218   */\n      mstore\n        /* \"#utility.yul\":2237:2241   */\n      0x24\n        /* \"#utility.yul\":2234:2235   */\n      0x00\n        /* \"#utility.yul\":2227:2242   */\n      revert\n        /* \"#utility.yul\":2254:2434   */\n    tag_46:\n        /* \"#utility.yul\":2302:2379   */\n      0x4e487b7100000000000000000000000000000000000000000000000000000000\n        /* \"#utility.yul\":2299:2300   */\n      0x00\n        /* \"#utility.yul\":2292:2380   */\n      mstore\n        /* \"#utility.yul\":2399:2403   */\n      0x11\n        /* \"#utility.yul\":2396:2397   */\n      0x04\n        /* \"#utility.yul\":2389:2404   */\n      mstore\n        /* \"#utility.yul\":2423:2427   */\n      0x24\n        /* \"#utility.yul\":2420:2421   */\n      0x00\n        /* \"#utility.yul\":2413:2428   */\n      revert\n        /* \"#utility.yul\":2440:2677   */\n    tag_22:\n        /* \"#utility.yul\":2478:2481   */\n      0x00\n        /* \"#utility.yul\":2497:2515   */\n      tag_80\n        /* \"#utility.yul\":2513:2514   */\n      dup3\n        /* \"#utility.yul\":2497:2515   */\n      tag_38\n      jump\t// in\n    tag_80:\n        /* \"#utility.yul\":2492:2515   */\n      swap2\n      pop\n        /* \"#utility.yul\":2529:2547   */\n      tag_81\n        /* \"#utility.yul\":2545:2546   */\n      dup4\n        /* \"#utility.yul\":2529:2547   */\n      tag_38\n      jump\t// in\n    tag_81:\n        /* \"#utility.yul\":2524:2547   */\n      swap3\n      pop\n        /* \"#utility.yul\":2619:2620   */\n      dup3\n        /* \"#utility.yul\":2613:2617   */\n      0xff\n        /* \"#utility.yul\":2609:2621   */\n      sub\n        /* \"#utility.yul\":2606:2607   */\n      dup3\n        /* \"#utility.yul\":2603:2622   */\n      gt\n        /* \"#utility.yul\":2600:2645   */\n      iszero\n      tag_82\n      jumpi\n        /* \"#utility.yul\":2625:2643   */\n      tag_83\n      tag_46\n      jump\t// in\n    tag_83:\n        /* \"#utility.yul\":2600:2645   */\n    tag_82:\n        /* \"#utility.yul\":2669:2670   */\n      dup3\n        /* \"#utility.yul\":2666:2667   */\n      dup3\n        /* \"#utility.yul\":2662:2671   */\n      add\n        /* \"#utility.yul\":2655:2671   */\n      swap1\n      pop\n        /* \"#utility.yul\":2440:2677   */\n      swap3\n      swap2\n      pop\n      pop\n      jump\t// out\n        /* \"#utility.yul\":2683:2852   */\n    tag_47:\n        /* \"#utility.yul\":2767:2778   */\n      0x00\n        /* \"#utility.yul\":2801:2807   */\n      dup3\n        /* \"#utility.yul\":2796:2799   */\n      dup3\n        /* \"#utility.yul\":2789:2808   */\n      mstore\n        /* \"#utility.yul\":2841:2845   */\n      0x20\n        /* \"#utility.yul\":2836:2839   */\n      dup3\n        /* \"#utility.yul\":2832:2846   */\n      add\n        /* \"#utility.yul\":2817:2846   */\n      swap1\n      pop\n        /* \"#utility.yul\":2683:2852   */\n      swap3\n      swap2\n      pop\n      pop\n      jump\t// out\n        /* \"#utility.yul\":2858:3034   */\n    tag_48:\n        /* \"#utility.yul\":2998:3026   */\n      0x4e6f7420456e6f7567682046756e64732c2061626f7274696e67000000000000\n        /* \"#utility.yul\":2994:2995   */\n      0x00\n        /* \"#utility.yul\":2986:2992   */\n      dup3\n        /* \"#utility.yul\":2982:2996   */\n      add\n        /* \"#utility.yul\":2975:3027   */\n      mstore\n        /* \"#utility.yul\":2858:3034   */\n      pop\n      jump\t// out\n        /* \"#utility.yul\":3040:3406   */\n    tag_49:\n        /* \"#utility.yul\":3182:3185   */\n      0x00\n        /* \"#utility.yul\":3203:3270   */\n      tag_87\n        /* \"#utility.yul\":3267:3269   */\n      0x1a\n        /* \"#utility.yul\":3262:3265   */\n      dup4\n        /* \"#utility.yul\":3203:3270   */\n      tag_47\n      jump\t// in\n    tag_87:\n        /* \"#utility.yul\":3196:3270   */\n      swap2\n      pop\n        /* \"#utility.yul\":3279:3372   */\n      tag_88\n        /* \"#utility.yul\":3368:3371   */\n      dup3\n        /* \"#utility.yul\":3279:3372   */\n      tag_48\n      jump\t// in\n    tag_88:\n        /* \"#utility.yul\":3397:3399   */\n      0x20\n        /* \"#utility.yul\":3392:3395   */\n      dup3\n        /* \"#utility.yul\":3388:3400   */\n      add\n        /* \"#utility.yul\":3381:3400   */\n      swap1\n      pop\n        /* \"#utility.yul\":3040:3406   */\n      swap2\n      swap1\n      pop\n      jump\t// out\n        /* \"#utility.yul\":3412:3831   */\n    tag_26:\n        /* \"#utility.yul\":3578:3582   */\n      0x00\n        /* \"#utility.yul\":3616:3618   */\n      0x20\n        /* \"#utility.yul\":3605:3614   */\n      dup3\n        /* \"#utility.yul\":3601:3619   */\n      add\n        /* \"#utility.yul\":3593:3619   */\n      swap1\n      pop\n        /* \"#utility.yul\":3665:3674   */\n      dup2\n        /* \"#utility.yul\":3659:3663   */\n      dup2\n        /* \"#utility.yul\":3655:3675   */\n      sub\n        /* \"#utility.yul\":3651:3652   */\n      0x00\n        /* \"#utility.yul\":3640:3649   */\n      dup4\n        /* \"#utility.yul\":3636:3653   */\n      add\n        /* \"#utility.yul\":3629:3676   */\n      mstore\n        /* \"#utility.yul\":3693:3824   */\n      tag_90\n        /* \"#utility.yul\":3819:3823   */\n      dup2\n        /* \"#utility.yul\":3693:3824   */\n      tag_49\n      jump\t// in\n    tag_90:\n        /* \"#utility.yul\":3685:3824   */\n      swap1\n      pop\n        /* \"#utility.yul\":3412:3831   */\n      swap2\n      swap1\n      pop\n      jump\t// out\n        /* \"#utility.yul\":3837:4022   */\n    tag_28:\n        /* \"#utility.yul\":3875:3879   */\n      0x00\n        /* \"#utility.yul\":3895:3913   */\n      tag_92\n        /* \"#utility.yul\":3911:3912   */\n      dup3\n        /* \"#utility.yul\":3895:3913   */\n      tag_38\n      jump\t// in\n    tag_92:\n        /* \"#utility.yul\":3890:3913   */\n      swap2\n      pop\n        /* \"#utility.yul\":3927:3945   */\n      tag_93\n        /* \"#utility.yul\":3943:3944   */\n      dup4\n        /* \"#utility.yul\":3927:3945   */\n      tag_38\n      jump\t// in\n    tag_93:\n        /* \"#utility.yul\":3922:3945   */\n      swap3\n      pop\n        /* \"#utility.yul\":3964:3965   */\n      dup3\n        /* \"#utility.yul\":3961:3962   */\n      dup3\n        /* \"#utility.yul\":3958:3966   */\n      lt\n        /* \"#utility.yul\":3955:3989   */\n      iszero\n      tag_94\n      jumpi\n        /* \"#utility.yul\":3969:3987   */\n      tag_95\n      tag_46\n      jump\t// in\n    tag_95:\n        /* \"#utility.yul\":3955:3989   */\n    tag_94:\n        /* \"#utility.yul\":4014:4015   */\n      dup3\n        /* \"#utility.yul\":4011:4012   */\n      dup3\n        /* \"#utility.yul\":4007:4016   */\n      sub\n        /* \"#utility.yul\":3999:4016   */\n      swap1\n      pop\n        /* \"#utility.yul\":3837:4022   */\n      swap3\n      swap2\n      pop\n      pop\n      jump\t// out\n\n    auxdata: 0xa264697066735822122028a2250f69b59dad740cc96a08ce5aca83876ec0d9606b2e9b539abae66edf0164736f6c634300080f0033\n}\n",
				"bytecode": {
					"linkReferences": {},
					"object": "608060405234801561001057600080fd5b506105ff806100206000396000f3fe6080604052600436106100345760003560e01c80630472526214610039578063480877a0146100435780634c7389091461006c575b600080fd5b610041610097565b005b34801561004f57600080fd5b5061006a60048036038101906100659190610419565b61011e565b005b34801561007857600080fd5b5061008161032a565b60405161008e9190610468565b60405180910390f35b3460ff1634146100aa576100a9610483565b5b346000803373ffffffffffffffffffffffffffffffffffffffff1673ffffffffffffffffffffffffffffffffffffffff16815260200190815260200160002060008282829054906101000a900460ff1661010491906104e1565b92506101000a81548160ff021916908360ff160217905550565b6000803373ffffffffffffffffffffffffffffffffffffffff1673ffffffffffffffffffffffffffffffffffffffff16815260200190815260200160002060009054906101000a900460ff1660ff168260ff1611156101b2576040517f08c379a00000000000000000000000000000000000000000000000000000000081526004016101a990610575565b60405180910390fd5b816000803373ffffffffffffffffffffffffffffffffffffffff1673ffffffffffffffffffffffffffffffffffffffff16815260200190815260200160002060009054906101000a900460ff166102099190610595565b60ff166000803373ffffffffffffffffffffffffffffffffffffffff1673ffffffffffffffffffffffffffffffffffffffff16815260200190815260200160002060009054906101000a900460ff1660ff16101561026a57610269610483565b5b816000803373ffffffffffffffffffffffffffffffffffffffff1673ffffffffffffffffffffffffffffffffffffffff16815260200190815260200160002060008282829054906101000a900460ff166102c49190610595565b92506101000a81548160ff021916908360ff1602179055508073ffffffffffffffffffffffffffffffffffffffff166108fc8360ff169081150290604051600060405180830381858888f19350505050158015610325573d6000803e3d6000fd5b505050565b60008060003373ffffffffffffffffffffffffffffffffffffffff1673ffffffffffffffffffffffffffffffffffffffff16815260200190815260200160002060009054906101000a900460ff16905090565b600080fd5b600060ff82169050919050565b61039881610382565b81146103a357600080fd5b50565b6000813590506103b58161038f565b92915050565b600073ffffffffffffffffffffffffffffffffffffffff82169050919050565b60006103e6826103bb565b9050919050565b6103f6816103db565b811461040157600080fd5b50565b600081359050610413816103ed565b92915050565b600080604083850312156104305761042f61037d565b5b600061043e858286016103a6565b925050602061044f85828601610404565b9150509250929050565b61046281610382565b82525050565b600060208201905061047d6000830184610459565b92915050565b7f4e487b7100000000000000000000000000000000000000000000000000000000600052600160045260246000fd5b7f4e487b7100000000000000000000000000000000000000000000000000000000600052601160045260246000fd5b60006104ec82610382565b91506104f783610382565b92508260ff0382111561050d5761050c6104b2565b5b828201905092915050565b600082825260208201905092915050565b7f4e6f7420456e6f7567682046756e64732c2061626f7274696e67000000000000600082015250565b600061055f601a83610518565b915061056a82610529565b602082019050919050565b6000602082019050818103600083015261058e81610552565b9050919050565b60006105a082610382565b91506105ab83610382565b9250828210156105be576105bd6104b2565b5b82820390509291505056fea264697066735822122028a2250f69b59dad740cc96a08ce5aca83876ec0d9606b2e9b539abae66edf0164736f6c634300080f0033",
					"opcodes": "PUSH1 0x80 PUSH1 0x40 MSTORE CALLVALUE DUP1 ISZERO PUSH2 0x10 JUMPI PUSH1 0x0 DUP1 REVERT JUMPDEST POP PUSH2 0x5FF DUP1 PUSH2 0x20 PUSH1 0x0 CODECOPY PUSH1 0x0 RETURN INVALID PUSH1 0x80 PUSH1 0x40 MSTORE PUSH1 0x4 CALLDATASIZE LT PUSH2 0x34 JUMPI PUSH1 0x0 CALLDATALOAD PUSH1 0xE0 SHR DUP1 PUSH4 0x4725262 EQ PUSH2 0x39 JUMPI DUP1 PUSH4 0x480877A0 EQ PUSH2 0x43 JUMPI DUP1 PUSH4 0x4C738909 EQ PUSH2 0x6C JUMPI JUMPDEST PUSH1 0x0 DUP1 REVERT JUMPDEST PUSH2 0x41 PUSH2 0x97 JUMP JUMPDEST STOP JUMPDEST CALLVALUE DUP1 ISZERO PUSH2 0x4F JUMPI PUSH1 0x0 DUP1 REVERT JUMPDEST POP PUSH2 0x6A PUSH1 0x4 DUP1 CALLDATASIZE SUB DUP2 ADD SWAP1 PUSH2 0x65 SWAP2 SWAP1 PUSH2 0x419 JUMP JUMPDEST PUSH2 0x11E JUMP JUMPDEST STOP JUMPDEST CALLVALUE DUP1 ISZERO PUSH2 0x78 JUMPI PUSH1 0x0 DUP1 REVERT JUMPDEST POP PUSH2 0x81 PUSH2 0x32A JUMP JUMPDEST PUSH1 0x40 MLOAD PUSH2 0x8E SWAP2 SWAP1 PUSH2 0x468 JUMP JUMPDEST PUSH1 0x40 MLOAD DUP1 SWAP2 SUB SWAP1 RETURN JUMPDEST CALLVALUE PUSH1 0xFF AND CALLVALUE EQ PUSH2 0xAA JUMPI PUSH2 0xA9 PUSH2 0x483 JUMP JUMPDEST JUMPDEST CALLVALUE PUSH1 0x0 DUP1 CALLER PUSH20 0xFFFFFFFFFFFFFFFFFFFFFFFFFFFFFFFFFFFFFFFF AND PUSH20 0xFFFFFFFFFFFFFFFFFFFFFFFFFFFFFFFFFFFFFFFF AND DUP2 MSTORE PUSH1 0x20 ADD SWAP1 DUP2 MSTORE PUSH1 0x20 ADD PUSH1 0x0 KECCAK256 PUSH1 0x0 DUP3 DUP3 DUP3 SWAP1 SLOAD SWAP1 PUSH2 0x100 EXP SWAP1 DIV PUSH1 0xFF AND PUSH2 0x104 SWAP2 SWAP1 PUSH2 0x4E1 JUMP JUMPDEST SWAP3 POP PUSH2 0x100 EXP DUP2 SLOAD DUP2 PUSH1 0xFF MUL NOT AND SWAP1 DUP4 PUSH1 0xFF AND MUL OR SWAP1 SSTORE POP JUMP JUMPDEST PUSH1 0x0 DUP1 CALLER PUSH20 0xFFFFFFFFFFFFFFFFFFFFFFFFFFFFFFFFFFFFFFFF AND PUSH20 0xFFFFFFFFFFFFFFFFFFFFFFFFFFFFFFFFFFFFFFFF AND DUP2 MSTORE PUSH1 0x20 ADD SWAP1 DUP2 MSTORE PUSH1 0x20 ADD PUSH1 0x0 KECCAK256 PUSH1 0x0 SWAP1 SLOAD SWAP1 PUSH2 0x100 EXP SWAP1 DIV PUSH1 0xFF AND PUSH1 0xFF AND DUP3 PUSH1 0xFF AND GT ISZERO PUSH2 0x1B2 JUMPI PUSH1 0x40 MLOAD PUSH32 0x8C379A000000000000000000000000000000000000000000000000000000000 DUP2 MSTORE PUSH1 0x4 ADD PUSH2 0x1A9 SWAP1 PUSH2 0x575 JUMP JUMPDEST PUSH1 0x40 MLOAD DUP1 SWAP2 SUB SWAP1 REVERT JUMPDEST DUP2 PUSH1 0x0 DUP1 CALLER PUSH20 0xFFFFFFFFFFFFFFFFFFFFFFFFFFFFFFFFFFFFFFFF AND PUSH20 0xFFFFFFFFFFFFFFFFFFFFFFFFFFFFFFFFFFFFFFFF AND DUP2 MSTORE PUSH1 0x20 ADD SWAP1 DUP2 MSTORE PUSH1 0x20 ADD PUSH1 0x0 KECCAK256 PUSH1 0x0 SWAP1 SLOAD SWAP1 PUSH2 0x100 EXP SWAP1 DIV PUSH1 0xFF AND PUSH2 0x209 SWAP2 SWAP1 PUSH2 0x595 JUMP JUMPDEST PUSH1 0xFF AND PUSH1 0x0 DUP1 CALLER PUSH20 0xFFFFFFFFFFFFFFFFFFFFFFFFFFFFFFFFFFFFFFFF AND PUSH20 0xFFFFFFFFFFFFFFFFFFFFFFFFFFFFFFFFFFFFFFFF AND DUP2 MSTORE PUSH1 0x20 ADD SWAP1 DUP2 MSTORE PUSH1 0x20 ADD PUSH1 0x0 KECCAK256 PUSH1 0x0 SWAP1 SLOAD SWAP1 PUSH2 0x100 EXP SWAP1 DIV PUSH1 0xFF AND PUSH1 0xFF AND LT ISZERO PUSH2 0x26A JUMPI PUSH2 0x269 PUSH2 0x483 JUMP JUMPDEST JUMPDEST DUP2 PUSH1 0x0 DUP1 CALLER PUSH20 0xFFFFFFFFFFFFFFFFFFFFFFFFFFFFFFFFFFFFFFFF AND PUSH20 0xFFFFFFFFFFFFFFFFFFFFFFFFFFFFFFFFFFFFFFFF AND DUP2 MSTORE PUSH1 0x20 ADD SWAP1 DUP2 MSTORE PUSH1 0x20 ADD PUSH1 0x0 KECCAK256 PUSH1 0x0 DUP3 DUP3 DUP3 SWAP1 SLOAD SWAP1 PUSH2 0x100 EXP SWAP1 DIV PUSH1 0xFF AND PUSH2 0x2C4 SWAP2 SWAP1 PUSH2 0x595 JUMP JUMPDEST SWAP3 POP PUSH2 0x100 EXP DUP2 SLOAD DUP2 PUSH1 0xFF MUL NOT AND SWAP1 DUP4 PUSH1 0xFF AND MUL OR SWAP1 SSTORE POP DUP1 PUSH20 0xFFFFFFFFFFFFFFFFFFFFFFFFFFFFFFFFFFFFFFFF AND PUSH2 0x8FC DUP4 PUSH1 0xFF AND SWAP1 DUP2 ISZERO MUL SWAP1 PUSH1 0x40 MLOAD PUSH1 0x0 PUSH1 0x40 MLOAD DUP1 DUP4 SUB DUP2 DUP6 DUP9 DUP9 CALL SWAP4 POP POP POP POP ISZERO DUP1 ISZERO PUSH2 0x325 JUMPI RETURNDATASIZE PUSH1 0x0 DUP1 RETURNDATACOPY RETURNDATASIZE PUSH1 0x0 REVERT JUMPDEST POP POP POP JUMP JUMPDEST PUSH1 0x0 DUP1 PUSH1 0x0 CALLER PUSH20 0xFFFFFFFFFFFFFFFFFFFFFFFFFFFFFFFFFFFFFFFF AND PUSH20 0xFFFFFFFFFFFFFFFFFFFFFFFFFFFFFFFFFFFFFFFF AND DUP2 MSTORE PUSH1 0x20 ADD SWAP1 DUP2 MSTORE PUSH1 0x20 ADD PUSH1 0x0 KECCAK256 PUSH1 0x0 SWAP1 SLOAD SWAP1 PUSH2 0x100 EXP SWAP1 DIV PUSH1 0xFF AND SWAP1 POP SWAP1 JUMP JUMPDEST PUSH1 0x0 DUP1 REVERT JUMPDEST PUSH1 0x0 PUSH1 0xFF DUP3 AND SWAP1 POP SWAP2 SWAP1 POP JUMP JUMPDEST PUSH2 0x398 DUP2 PUSH2 0x382 JUMP JUMPDEST DUP2 EQ PUSH2 0x3A3 JUMPI PUSH1 0x0 DUP1 REVERT JUMPDEST POP JUMP JUMPDEST PUSH1 0x0 DUP2 CALLDATALOAD SWAP1 POP PUSH2 0x3B5 DUP2 PUSH2 0x38F JUMP JUMPDEST SWAP3 SWAP2 POP POP JUMP JUMPDEST PUSH1 0x0 PUSH20 0xFFFFFFFFFFFFFFFFFFFFFFFFFFFFFFFFFFFFFFFF DUP3 AND SWAP1 POP SWAP2 SWAP1 POP JUMP JUMPDEST PUSH1 0x0 PUSH2 0x3E6 DUP3 PUSH2 0x3BB JUMP JUMPDEST SWAP1 POP SWAP2 SWAP1 POP JUMP JUMPDEST PUSH2 0x3F6 DUP2 PUSH2 0x3DB JUMP JUMPDEST DUP2 EQ PUSH2 0x401 JUMPI PUSH1 0x0 DUP1 REVERT JUMPDEST POP JUMP JUMPDEST PUSH1 0x0 DUP2 CALLDATALOAD SWAP1 POP PUSH2 0x413 DUP2 PUSH2 0x3ED JUMP JUMPDEST SWAP3 SWAP2 POP POP JUMP JUMPDEST PUSH1 0x0 DUP1 PUSH1 0x40 DUP4 DUP6 SUB SLT ISZERO PUSH2 0x430 JUMPI PUSH2 0x42F PUSH2 0x37D JUMP JUMPDEST JUMPDEST PUSH1 0x0 PUSH2 0x43E DUP6 DUP3 DUP7 ADD PUSH2 0x3A6 JUMP JUMPDEST SWAP3 POP POP PUSH1 0x20 PUSH2 0x44F DUP6 DUP3 DUP7 ADD PUSH2 0x404 JUMP JUMPDEST SWAP2 POP POP SWAP3 POP SWAP3 SWAP1 POP JUMP JUMPDEST PUSH2 0x462 DUP2 PUSH2 0x382 JUMP JUMPDEST DUP3 MSTORE POP POP JUMP JUMPDEST PUSH1 0x0 PUSH1 0x20 DUP3 ADD SWAP1 POP PUSH2 0x47D PUSH1 0x0 DUP4 ADD DUP5 PUSH2 0x459 JUMP JUMPDEST SWAP3 SWAP2 POP POP JUMP JUMPDEST PUSH32 0x4E487B7100000000000000000000000000000000000000000000000000000000 PUSH1 0x0 MSTORE PUSH1 0x1 PUSH1 0x4 MSTORE PUSH1 0x24 PUSH1 0x0 REVERT JUMPDEST PUSH32 0x4E487B7100000000000000000000000000000000000000000000000000000000 PUSH1 0x0 MSTORE PUSH1 0x11 PUSH1 0x4 MSTORE PUSH1 0x24 PUSH1 0x0 REVERT JUMPDEST PUSH1 0x0 PUSH2 0x4EC DUP3 PUSH2 0x382 JUMP JUMPDEST SWAP2 POP PUSH2 0x4F7 DUP4 PUSH2 0x382 JUMP JUMPDEST SWAP3 POP DUP3 PUSH1 0xFF SUB DUP3 GT ISZERO PUSH2 0x50D JUMPI PUSH2 0x50C PUSH2 0x4B2 JUMP JUMPDEST JUMPDEST DUP3 DUP3 ADD SWAP1 POP SWAP3 SWAP2 POP POP JUMP JUMPDEST PUSH1 0x0 DUP3 DUP3 MSTORE PUSH1 0x20 DUP3 ADD SWAP1 POP SWAP3 SWAP2 POP POP JUMP JUMPDEST PUSH32 0x4E6F7420456E6F7567682046756E64732C2061626F7274696E67000000000000 PUSH1 0x0 DUP3 ADD MSTORE POP JUMP JUMPDEST PUSH1 0x0 PUSH2 0x55F PUSH1 0x1A DUP4 PUSH2 0x518 JUMP JUMPDEST SWAP2 POP PUSH2 0x56A DUP3 PUSH2 0x529 JUMP JUMPDEST PUSH1 0x20 DUP3 ADD SWAP1 POP SWAP2 SWAP1 POP JUMP JUMPDEST PUSH1 0x0 PUSH1 0x20 DUP3 ADD SWAP1 POP DUP2 DUP2 SUB PUSH1 0x0 DUP4 ADD MSTORE PUSH2 0x58E DUP2 PUSH2 0x552 JUMP JUMPDEST SWAP1 POP SWAP2 SWAP1 POP JUMP JUMPDEST PUSH1 0x0 PUSH2 0x5A0 DUP3 PUSH2 0x382 JUMP JUMPDEST SWAP2 POP PUSH2 0x5AB DUP4 PUSH2 0x382 JUMP JUMPDEST SWAP3 POP DUP3 DUP3 LT ISZERO PUSH2 0x5BE JUMPI PUSH2 0x5BD PUSH2 0x4B2 JUMP JUMPDEST JUMPDEST DUP3 DUP3 SUB SWAP1 POP SWAP3 SWAP2 POP POP JUMP INVALID LOG2 PUSH5 0x6970667358 0x22 SLT KECCAK256 0x28 LOG2 0x25 0xF PUSH10 0xB59DAD740CC96A08CE5A 0xCA DUP4 DUP8 PUSH15 0xC0D9606B2E9B539ABAE66EDF016473 PUSH16 0x6C634300080F00330000000000000000 "
				},
				"gasEstimates": {
					"creation": {
						"codeDepositCost": "307000",
						"executionCost": "343",
						"totalCost": "307343"
					},
					"external": {
						"desositMoney()": "infinite",
						"getMyBalance()": "2590",
						"withdrawMoney(uint8,address)": "infinite"
					}
				},
				"methodIdentifiers": {
					"desositMoney()": "04725262",
					"getMyBalance()": "4c738909",
					"withdrawMoney(uint8,address)": "480877a0"
				}
			},
			"storageLayout": {
				"storage": [
					{
						"astId": 5,
						"contract": "solidity-learning/3_SmartWallet/ExampleRequireAssert.sol:ExampleRequireAssert",
						"label": "balanceReceived",
						"offset": 0,
						"slot": "0",
						"type": "t_mapping(t_address,t_uint8)"
					}
				],
				"types": {
					"t_address": {
						"encoding": "inplace",
						"label": "address",
						"numberOfBytes": "20"
					},
					"t_mapping(t_address,t_uint8)": {
						"encoding": "mapping",
						"key": "t_address",
						"label": "mapping(address => uint8)",
						"numberOfBytes": "32",
						"value": "t_uint8"
					},
					"t_uint8": {
						"encoding": "inplace",
						"label": "uint8",
						"numberOfBytes": "1"
					}
				}
			},
			"userdoc": {
				"kind": "user",
				"methods": {},
				"version": 1
			}
		}
	}
}